:020000040800F2
:10000000001F002045010008371A00088917000862
:10001000331A00089D0B00084D3100080000000055
:10002000000000000000000000000000272300087E
:10003000F90E000800000000691D0008DD29000815
:100040005F010008F11B00085F010008152000088F
:100050005F0100085F0100085F0100085F01000800
:10006000FD0E00082D0F00087D0F00085F0100083D
:100070005F0100085F0100085F0100085F010008E0
:100080005F0100085F0100085F0100085F010008D0
:100090005F0100085F0100085F01000815100008FB
:1000A0005F0100085F0100085F0100085F010008B0
:1000B000412A0008292B00085F0100085F010008A1
:1000C0005F0100085F0100085F0100085F01000890
:1000D0005F0100084D2F0008B92F00085F010008DC
:1000E0005F0100085F0100085F0100085F01000870
:1000F0005F0100085F0100085F0100085F01000860
:100100005F0100085F010008FD2B00085F01000887
:100110005F0100085F0100085F0100085F0100083F
:100120005F0100085F0100085F0100085F0100082F
:10013000DFF80CD000F0B6FB004800471D41000876
:10014000001F00200648804706480047FEE7FEE7FC
:10015000FEE7FEE7FEE7FEE7FEE7FEE7FEE7FEE777
:10016000E1290008310100080649074A08685043A0
:1001700043F23902104408604008704701490860A2
:1001800070470000C40300206D4EC641F0B480EA01
:100190000102D40F4200B2EB410F02D202460846E0
:1001A00011464A0042D0C30DDDB2C1F3C752AD1AA9
:1001B000202D35DAC1F3160141F4000204B1524298
:1001C000C5F1200602FA06F12A411044B3EBD05FD4
:1001D00023D0C4B1012DA0EBC35009DCF0BC4FF01B
:1001E000004202EAC352DBB200F5000000F0CEBAD2
:1001F000400000F1807000EBC350A0F1807040EA35
:10020000D170490009E0490841EAC071A0EBC35030
:1002100000F50000400800EBC350F0BC00F0ADBAA0
:100220006142012202EB4101001BF6E7F0BC70477E
:1002300081F00041AAE780F00040A7E780EA0102D0
:1002400010B502F00043400022D04A001FD0010E3A
:1002500001EB1261C0F35600C2F3560240F40000F5
:1002600042F40002A0FB022000047F39140400D0F5
:10027000401C50EA124001D44000491EC2B20C0694
:1002800004EBD010401C4008802A02D003E000207C
:1002900010BD20F00100002900DA0020184310BD35
:1002A0002DE9FE4F804681EA0300C00F0C46009006
:1002B00021F0004123F00045B8EB0200A94105D22E
:1002C0004046214690461C460B46024623F000401D
:1002D000104347D0270DC7F30A00C3F30A51029019
:1002E000401A019040286BDAC3F3130040F4801BDE
:1002F0000098924620B10023D2EB030A63EB0B0B6C
:1003000001985946C0F14002504600F005FA0646F1
:100310000D4650465946019A00F01DFA10EB0800B0
:100320006141002487EA115284EAE7731A4340D0FE
:10033000009A62B3019A012A4FEA075215DC001BAA
:1003400061EB02014FF0004202EA0752CDE90042A0
:10035000001C41F5801132462B4600F054FA03B0E0
:10036000BDE8F08F40462146F9E7001B61EB020132
:10037000001C41F5801300185B412018A2F50017FE
:1003800047EB030140EAD570B6196D4111E06D08E5
:100390004FEA360645EAC0754FEA0752001B61EB8B
:1003A0000201001C41F5801149084FEA3000001994
:1003B000514132462B4603B0BDE8F04F00F014BA6D
:1003C0000098012240000023D0EB020263EBE073AF
:1003D000009821464FEAE074B8EB000061EB04019D
:1003E000E9E783F000435BE781F0004158E72DE93E
:1003F000FE4F81EA030404F0004421F00041009420
:100400004FF0000B23F0004350EA01045ED052EAA3
:1004100003045BD0C3F30A54C1F30A552C44A4F27D
:10042000F3340194A0FB0254C1F3130141F4801191
:10043000C3F3130343F4801301FB024400FB034E98
:10044000840A970A44EA815447EA8357A4FB076861
:1004500002958D0A05FB07854FEA932C04FB0C548B
:100460002705029D4FEA065847EA1637B5EB0805FF
:100470006EEB070C870E920E47EA811742EA831251
:10048000A7FB0201B6EB0B0164EB00042B0D43EA62
:100490000C335E1844EB1C50DA465146E7FB020170
:1004A000C5F313044FEA0B3343EA14534FEA043203
:1004B000019C43EA0603A4F10C040294009CCDE9DC
:1004C00000B400F0A0F903B0BDE8F08F00200146B1
:1004D000F9E72DE9F04D81EA030404F0004B21F027
:1004E000004514464FF0000A23F0004150EA05028F
:1004F00020D054EA01021DD0C5F30A570246C5F3C5
:100500001303C1F31300C1F30A5640F4801543F4FA
:100510008013A7EB0608101BD64608F2FD3873EBD4
:10052000050002D308F1010801E092185B41B8F11F
:10053000000F03DA00200146BDE8F08D00204FF4E3
:100540008011064684460EE0171B73EB050705D3A2
:10055000121B63EB050306434CEA010C49084FEA02
:10056000300092185B4150EA0107EDD152EA0300D6
:1005700012D082EA040083EA0501084305D0101B6B
:10058000AB4106D20122002306E000224FF00043D7
:1005900002E06FF0010253101AEB06004CEB085119
:1005A00010EB0A0041EB0B01BDE8F04D00F01CB967
:1005B0000EB5C10F80EAE0700844CA07002140F27E
:1005C00033438DE80E000A460B4600F01CF903B0D9
:1005D00000BD0EB540F2334102910021CDE900117A
:1005E0000A460B4600F00FF903B000BD20F00040B2
:1005F000C10DC0F3160040F400007F2901DA00208D
:100600007047962903DCC1F19601C84070479639BE
:1006100088407047C1F30A5210B5C1F3130140F28C
:10062000FF3341F480119A4201DA002010BD40F2FC
:1006300033439A42A2F2334203DC524200F07BF889
:1006400010BD904010BD00F0004230F000400AD0D4
:10065000C10D01F56071C0F3160042EA0151C208F4
:1006600040071143704700200146704730B5041E13
:1006700071F1000404DB4FF00044404264EB0101DF
:10068000141E73F1000405DB1C464FF00043524278
:1006900063EB04038B4208BF824230BD30B5041EB9
:1006A00071F1000404DB4FF00044404264EB0101AF
:1006B000141E73F1000405DB1C464FF00043524248
:1006C00063EB0403994208BF904230BD01F0004340
:1006D00030B421F0004150EA010206D00A0DA2F523
:1006E0006072C1F31301002A02DC30BC00207047A5
:1006F000440F44EAC104C100E01830BC00EBC25012
:1007000000F03BB8002801DBC0F10040002901DB0C
:10071000C1F1004188427047202A04DB203A00FAE8
:1007200002F1002070479140C2F1200320FA03F348
:10073000194390407047202A04DB203A21FA02F046
:100740000021704721FA02F3D040C2F1200291400B
:10075000084319467047202A06DBCB17203A41FA96
:1007600002F043EAE07306E041FA02F3D040C2F13E
:10077000200291400843194670470029A8BF7047DE
:10078000401C490008BF20F00100704710B4B0FAC7
:1007900080FC00FA0CF050EA010404BF10BC704762
:1007A00049B1CCF1200421FA04F411FA0CF118BF7C
:1007B000012121430843A3EB0C01CB1D4FEA00614B
:1007C0004FEA102042BF002010BC704700EBC3501E
:1007D00010440029A4BF10BC7047401C490008BF4A
:1007E00020F0010010BC704710B5141E73F1000416
:1007F00008DA401C41F1000192185B411A4301D113
:1008000020F0010010BD2DE9F04D92469B4611B13C
:10081000B1FA81F202E0B0FA80F220329046FFF79E
:100820007BFF04460F4640EA0A0041EA0B015346AB
:100830005A46084313D0114653EA010019D0C8F1B3
:1008400040025046FFF777FF05460E465046594690
:100850004246FFF761FF084305D0012004E020462F
:100860003946BDE8F08D0020054346EAE0762C438A
:1008700037430A986305E40AA0EB08000022FD0A4A
:1008800044EA47540A3002D500200146E9E7010551
:1008900010196941DDE9084500196941BDE8F04DCD
:1008A000A2E70000064C074D06E0E06840F00103B7
:1008B00094E8070098471034AC42F6D3FFF73CFCAD
:1008C0000C4500082C45000870B58C1810F8015B29
:1008D00015F0070301D110F8013B2A1106D110F8D9
:1008E000012B03E010F8016B01F8016B5B1EF9D1DD
:1008F0002B0705D40023521E0DD401F8013BFAE763
:1009000010F8013BCB1A921C03E013F8015B01F8CD
:10091000015B521EF9D5A142D8D3002070BD000062
:1009200010B504461B48006820F00800194908600B
:100930000846006820F01000086000201649887002
:100940000120164908601649C1F888011548007849
:1009500020B900210A2001F0F3FF03E000200F4935
:10096000091F08600C49887801F04CFF0A4800789C
:1009700030B10A48A838006810B100200A49086060
:1009800000200A4908600A49C1F8A8010948047012
:10099000012010BD00040140C8030020B001214225
:1009A0000080224200000020B4812142B001224296
:1009B000000022422C01002010B51748006820F0EA
:1009C0000800154908600846006820F0100008601B
:1009D00000201249887001201149086011480078F0
:1009E00020B900210A2001F0ABFF03E000200C49F0
:1009F000091F08600949887801F004FF074800785A
:100A000030B10748A838006810B1002006490860D6
:100A100000200649086010BD00040140C803002002
:100A2000B001214200000020B4812142A8012242ED
:100A30002DE9F04F91B04B48806801904948C0685B
:100A40000290484800690390464840690490454830
:100A5000806905904348C06906904248006A079043
:100A60004048406A08903F48806A09903D48C06A03
:100A70000A903C48006B0B903A48406B0C90394808
:100A8000806B0D903748C06B0E903648006C0F900D
:100A90003448406C10903448007810285FDC002403
:100AA00059E04FF0000AD14622E004EBC40000EB0D
:100AB00004102E4901EB400109F10100085C04EB30
:100AC000C40101EB0411294A02EB410101F80900BC
:100AD00004EBC40000EB0410114601EB400010F8D9
:100AE000090050441FFA80FA09F1010000F0FF09E3
:100AF000B9F1310FD9DB01A951F824001C49FFF7E6
:100B00009DFB0546FFF772FD04EBC40101EB0411E8
:100B1000164A02EB410181F8310004EBC40000EBFE
:100B20000410114601EB400090F8310050441FFAC8
:100B300080FA32209AFBF0FB5846FFF739FD074652
:100B40000C4A0D4BFFF753FC0546FFF763FD0B49BD
:100B50000855601CC4B2044800788442A1DB11B07F
:100B6000BDE8F08FC803002064010020D20F0020F0
:100B700000002041713D0AD7A370F13FC20F002051
:100B800008B500220092044A0092009A02440092A2
:100B9000009A116008BD0000006C004000BFFEE735
:100BA0002DE9F0470024002500260027A046A14695
:100BB00001F0ECFE814600F049FF044601F0D6F852
:100BC000054600F09DFB804602F020F9064600F045
:100BD0000BF8074644EA05003043384340EA080072
:100BE00040EA0900BDE8F0872DE9FE4F00200290A1
:100BF0008249B1F85600FFF7ECFC80460022804B9A
:100C0000FFF767FC0646FFF761FD0090FFF71BFD4D
:100C100004467C4A7C4BFFF75CFC8246FFF756FD9E
:100C20000190764890F85A00C0F3C01000B377489E
:100C300000784006000E754908707049886801996F
:100C4000FFF760FD06D87148007840F001006F4959
:100C5000087005E06D48007800F0FE006B490870F0
:100C60006A480078FF2803D10820FFF759FE029058
:100C70006248B0F85A00C0F3002000B3644800781E
:100C80004006000E624908705C49C8680199FFF788
:100C900039FD06D85E48007840F001005C490870D4
:100CA00005E05B48007800F0FE005949087058489C
:100CB0000078FF2803D10920FFF732FE02904F4849
:100CC000B0F85A00C0F3402000B352480078400604
:100CD000000E50490870494908690199FFF712FD53
:100CE00006D84C48007840F001004A49087005E0F9
:100CF0004848007800F0FE004649087045480078F2
:100D0000FF2803D10A20FFF70BFE02903B48B0F802
:100D10005A00C0F3802000B33F4800784006000E20
:100D20003D490870354948690199FFF7EBFC06D841
:100D30003948007840F001003749087005E036482E
:100D4000007800F0FE003449087033480078FF282E
:100D500003D10B20FFF7E4FD02902848B0F85A00B9
:100D6000C0F3C02000B32D4800784006000E2B4988
:100D70000870224988690199FFF7C4FC06D8274802
:100D8000007840F001002549087005E0234800780C
:100D900000F0FE002149087020480078FF2803D1A8
:100DA0000C20FFF7BDFD02901448B0F85A00C0F3C4
:100DB000003000B31A4800784006000E1849087049
:100DC0000E49C8690199FFF79DFC06D814480078C0
:100DD00040F001001249087005E01148007800F069
:100DE000FE000F4908700E480078FF2803D10D203F
:100DF000FFF796FD02900298BDE8FE8FC803002021
:100E0000000024409A9999999999F13F3E01002058
:100E10003F0100204001002041010020420100204C
:100E20004301002000F0805111B10349086001E046
:100E3000024948607047000004040240000002407C
:100E400000F0805111B10349086001E00249486097
:100E500070470000040402400000024021B1026813
:100E600042F00102026004E002684FF6FE731A408D
:100E7000026070470146486880B270470146002012
:100E8000002201F0805313B1054B1A6801E0054BB5
:100E90001A6802EA01030BB1012000E0002070474C
:100EA000000402400000024010B500211048FFF786
:100EB000D5FF10480E4944390865807908308864A8
:100EC00001210B48FFF7CAFF00BF4FF40050FFF7A6
:100ED000D5FF0028F9D04FF40050FFF7A3FF4FF4DF
:100EE0008050FFF7ADFF00210148FFF7B7FF10BDAD
:100EF00044000240040000207047000010B50420A8
:100F000000F098F868B107480068012803D1002074
:100F10000549086002E0012003490860042000F050
:100F200083F810BD08012142B481214210B5082088
:100F300000F080F8B8B10C4890F85C0080B900204F
:100F40000A4908600A49C1F8A8010A490880012035
:100F500009490870012211460648243801F0C4FEF0
:100F6000082000F061F810BDC8030020AC01214248
:100F700000002242240400402A01002010B5102065
:100F800000F058F8002832D0194890F85C0058BB9F
:100F90001848006820F47040164908600846006848
:100FA00040F44050086014480078A8B90120134963
:100FB0000870134908600E48007830B11048A43812
:100FC000006810B101200F49086001200E49086037
:100FD00000200E49087002E0002009490860002244
:100FE00001210B4801F080FE102000F01DF810BD1B
:100FF000C8030020040801402C010020000000204C
:10100000AC012142B4812142A80122422A010020E0
:101010000004004010B5202000F00CF810B1202092
:1010200000F002F810BD00000149086070470000A0
:1010300014040140014600200022074B1B6803EA0C
:101040000102054B14331B680B4013B10AB1012098
:1010500000E00020704700000004014010B51F4868
:101060000078012839D11E4890F86F00012824D15A
:101070001B484078642803DB64201949887003E02A
:1010800017484078164988701548807805280CDD87
:10109000134880780A2803DA0A201149C87007E04B
:1010A0000F4880780E49C87002E000200C49C870D3
:1010B0000B49C87801F0A6FB0FE009484078642886
:1010C00003DB64200649887003E005484078044942
:1010D00088700349887801F095FB10BD000000205E
:1010E000C803002030B5044604254FF4302000F03A
:1010F0006FF80546042D17D10C48006940F0020036
:101100000A49086108464461006940F040000861EE
:101110004FF4302000F05CF805460448006941F6C1
:10112000FD71084001490861284630BD0020024099
:1011300004200B49C96801F0010109B101200EE04A
:101140000749C96801F0040109B1022007E0044918
:10115000C96801F0100109B1032000E004207047C4
:10116000002002400348006940F080000149086106
:10117000704700000020024070B504460D4604266A
:10118000F00200F025F80646042E11D10948006946
:1011900040F00100074908612580F00200F018F8CE
:1011A00006460448006941F6FE710840014908619D
:1011B000304670BD002002400248034948600348A1
:1011C000486070472301674500200240AB89EFCD9E
:1011D00000B502460423FFF7ABFF034603E0FFF729
:1011E000A7FF0346521E012B01D1002AF7D102B9F5
:1011F0000523184600BD000010B588B03E48B0F881
:101200004E0000128DF800003B4890F84E008DF81B
:1012100001003948B0F8500000128DF8020036483D
:1012200090F850008DF803003348B0F852000012D7
:101230008DF80400304890F852008DF805002E48D3
:10124000B0F8540000128DF806002B4890F85400B6
:101250008DF807002848B0F8560000128DF80800F5
:10126000254890F856008DF809002348B0F858003A
:1012700000128DF80A00204890F858008DF80B00F5
:101280001D48B0F85A0042F20401884300128DF85C
:101290000C00194890F85A0004218843C0B28DF818
:1012A0000D00154890F866008DF80E00124890F871
:1012B00067008DF80F00104890F868008DF8100056
:1012C0000D4890F869008DF811000B48B0F86A00DD
:1012D00000128DF81200084890F86A008DF813008B
:1012E0001421684602F096FD84B22146034801F0BD
:1012F00067FF08B010BD0000C80300204C80010843
:1013000010B500241F480088B0F5C87F33DD0020E9
:101310001C4908801C48B0F85A00C0F3403048B35C
:101320001A4800884FF6FF7101EA4000174908800B
:1013300017480068012823D102F0D0FD1448006846
:10134000012806D11148008840F001000F490880AB
:1013500006E00E4800884FF6FE7108400B490880F1
:101360000A4800884FF6FF71884209D10E20FFF726
:10137000D7FA044604E003480088401C014908806D
:10138000204610BD36010020C8030020380100208F
:10139000240122422DE9F0410246002500260020CA
:1013A00000230024002791F803C00CF00F0591F8EA
:1013B00003C00CF0100CBCF1000F03D091F802C078
:1013C0004CEA050591F800C0BCF1000F31D014685B
:1013D00000202BE04FF0010C0CFA00F3B1F800C034
:1013E0000CEA03069E4220D183004FF00F0C0CFA4A
:1013F00003F7BC4305FA03FC4CEA040491F803C06C
:10140000BCF1280F06D14FF0010C0CFA00FCC2F819
:1014100014C00AE091F803C0BCF1480F05D14FF0A9
:10142000010C0CFA00FCC2F810C0401C0828D1D3F3
:101430001460B1F800C0BCF1FF0F34DD5468002027
:101440002EE000F1080C4FF0010808FA0CF3B1F897
:1014500000C00CEA03069E4221D183004FF00F0C1E
:101460000CFA03F7BC4305FA03FC4CEA040491F8B8
:1014700003C0BCF1280F05D100F1080C08FA0CF8E4
:10148000C2F8148091F803C0BCF1480F07D100F1F5
:10149000080C4FF0010808FA0CF8C2F81080401C44
:1014A0000828CED35460BDE8F0810000F0B50A46AC
:1014B000002300240021002500F00046B6F1004F73
:1014C00002D11D4EF16901E01B4E7168C0F3034566
:1014D00083B200F44016B6F5401F08D121F07061C8
:1014E000154E766826F07066134F7E6012E000F4A9
:1014F0008016B6F5801F06D1032606FA05F4A1432F
:1015000041F0706106E0460D360103FA06F6B1437C
:1015100041F0706122B1460D360103FA06F63143FF
:1015200000F00046B6F1004F02D1034EF16101E038
:10153000014E7160F0BD00000000014010B500F0E8
:101540001DF800F003F8FFF789FD10BD70B5084DD8
:10155000002406E00749085D00F020FA01C5601C80
:10156000C4B2054800788442F4DBFFF761FA70BD2D
:10157000D0030020B20F0020640100202DE9F04FBD
:1015800087B04FF0000900BF002405E0764800EB6B
:10159000041000888144641C142CF7D31420B9FB78
:1015A000F0FA5046FFF715F807464FF066326F4BDA
:1015B000FEF71DFF054600226D4BFEF78AFF002255
:1015C0006C4BCDE90001FEF712FF6B4A6B4BCDE986
:1015D0000201FEF77EFFCDE90401FFF71BF8684921
:1015E00048704FF00009002405E05F4800EB04104C
:1015F000C0888144641C142CF7D31420B9FBF0F08C
:101600000490FEF7E6FF07464FF06632574BFEF7B1
:10161000EEFE05460022564BFEF75BFF8246FFF7C3
:1016200055F8059002F094FD554908714FF00009F6
:10163000002405E04C4800EB041000898144641C40
:10164000142CF7D31420B9FBF0FB5846FEF7C1FF6A
:1016500005464FF06632454BFEF7C9FE07460022AD
:10166000434BFEF736FFCDE90401FFF72FF8824622
:1016700002F06EFD424948714FF00009002405E078
:10168000394800EB041040898144641C142CF7D3C2
:101690001420B9FBF0F00490FEF79BFF05464FF0D5
:1016A0006632324BFEF7A3FE07460022304BFEF7B0
:1016B00010FF8246FFF70AF8059002F049FD304915
:1016C00088714FF00009002405E0274800EB041062
:1016D00080898144641C142CF7D31420B9FBF0FBDF
:1016E0005846FEF776FF05464FF066321F4BFEF771
:1016F0007EFE00221E4BCDE90401FEF7EAFE0746FE
:10170000FEF7E4FF824602F023FD1D49C8714FF049
:101710000009002405E0144800EB0410C08981444E
:10172000641C962CF7D39620B9FBF0FA5046FEF7CE
:1017300050FF07464FF066320C4BFEF758FE002272
:101740000B4BCDE90401FEF7C4FE0546FEF7BEFFD4
:101750000B4988640B480078012802D1084640787C
:10176000887007B0BDE8F08F4405002066660A4027
:101770000000B04000005A409A9999999999014007
:10178000C80300200000002000BFFEE710B50020C5
:101790000949086000F01CFD00200849C1F89C01BF
:1017A00000F00EF801200449086000F009F800205C
:1017B0000249C1F8980110BD988121420080214260
:1017C00000BF00BF00BF00BF00BF704710B50020C2
:1017D0000949086000F0FCFC01200849C1F89C019F
:1017E000FFF7EEFF012004490860FFF7E9FF002042
:1017F0000249C1F8980110BD988121420080214220
:1018000070B50546002400F0D3FC002614E000204B
:101810000E490860FFF7D4FF01200D49C1F8980177
:101820006006040E09487C38006808B1601CC4B228
:10183000FFF7C6FF701CC6B2082EE8DB15B9FFF72C
:10184000C5FF01E0FFF7A2FF204670BD988121424D
:101850000080214270B5044600F0BAFC00200E4919
:101860000860002514E0E0090B49091D08606006C6
:10187000040EFFF7A5FF01200849C1F89801FFF702
:101880009FFF002004490860FFF79AFF681CC5B25B
:10189000082DE8DB70BD00009881214200802142C4
:1018A00010B500F095FC0120084908600849C1F80E
:1018B0009801FFF785FF002004490860FFF780FFCB
:1018C00000200349C1F8980110BD00009C8121420D
:1018D0000080214210B500F07BFC00200749086021
:1018E0000749C1F89C01FFF76BFF0120034908601D
:1018F0000349C1F89C01FFF763FF10BD98812142A5
:101900000080214210B5002400F052FC01200E4955
:101910000860FFF755FF01200C49C1F89801FFF757
:101920004FFF07E0601CC4B2FA2C03DDFFF7D2FFC3
:10193000012010BD0448803800680028F2D1024917
:10194000091F086000BFF4E79C812142008021420A
:1019500070B504460D460026FFF7A2FF04F0FE0016
:10196000FFF778FFFFF7CEFF2846FFF773FFFFF77B
:10197000C9FFFFF795FF44F00100FFF76BFFFFF78A
:10198000C1FF0120FFF73CFF06460020FFF738FFAC
:1019900040EA0626FFF79EFF304670BD2DE9FC5F4A
:1019A000834604215846FFF7D3FF82460AF40040DD
:1019B00008B1CAF30E0A5046FEF70BFE0A4A0B4B5B
:1019C000CDE90001FEF713FD80460022084BFEF72B
:1019D0000EFD06460022074BFEF77BFD0446FEF790
:1019E00075FEBDE8FC9F0000FCA9F1D24D62603F8E
:1019F00000002A4000002C400146CA1701EB9272F9
:101A00009210A1EB820292B9642091FBF0F200FBEC
:101A1000121050B94FF4C87091FBF0F200FB121095
:101A200008B9012070470020FCE70120FAE70020F8
:101A3000F8E700BFFEE7704702490143024A116020
:101A4000704700000000FA050CED00E070B50024BE
:101A5000604890F85A00C0F34000002841D05E482A
:101A6000007800283CD15B488078052838DD59494A
:101A70008868FEF7E8FD05464FF03332574BFEF716
:101A80000DFE2DD2564800884FF6FF7101EA400046
:101A9000534908804F49886CFEF7D5FD0546002262
:101AA000504BFEF7FBFD0AD84F480068012806D1CD
:101AB0004B48008840F001004949088006E048484A
:101AC00000884FF6FE710840454908804448008868
:101AD0004FF6FF7188427AD10220FEF721FF0446BB
:101AE00075E03C4890F85A00C0F34000D8B33A483B
:101AF0000078C0BB37488078052834DD35498868D0
:101B0000FEF7A1FD05464FF03332344BFEF7C6FD1C
:101B100029D2334800884FF6FF7101EA400030496E
:101B200008802C49886CFEF78EFD054600222D4B5F
:101B3000FEF7B4FD06D82A48008840F00100284985
:101B4000088006E0264800884FF6FE7108402449C8
:101B50000880234800884FF6FF71884203D1022095
:101B6000FEF7DEFE04461B4890F85A0000F0010024
:101B700068B31948007850BB16488078052826DDE0
:101B800014498868FEF75FFD05464FF03332134B6A
:101B9000FEF784FD1BD214480068012806D11348C3
:101BA000008840F001001149088006E00F480088D5
:101BB0004FF6FE7108400D4908800C4800884FF62A
:101BC000FF71884203D10120FEF7AAFE0446204699
:101BD00070BD0000C80300202A0100203333E33F1A
:101BE0003201002000000A4004812142300100201F
:101BF00010B54FF48030FFF717FA0B480068401C0F
:101C00000949086072B601214FF0C05000F0EAF8AF
:101C1000012000F00BF8044801782820FEF7B0FFFF
:101C2000FEF7CAFE10BD0000AC03002001490862A7
:101C30007047000000000E42464908700978F729F5
:101C400001D1012100E00021434A12780AB90122A2
:101C500000E00022114011B101213F4A11703E49BC
:101C60000978082972D2DFE801F071040E253C449E
:101C70004C64F721394A11700021394A1170022150
:101C8000354A117063E035498978324A127842EA60
:101C90000121324A518032490978491C304A117079
:101CA00011460978022904D10021117003212A4A22
:101CB00011704CE029490979264A127842EA01213B
:101CC000264A918026490978491C254A11701146F7
:101CD0000978022904D10021117004211E4A1170D3
:101CE00035E01C4909781D4A917105211A4A117085
:101CF0002DE018490978194AD1710621164A117048
:101D000025E014490A7815490831154B1B78CA5447
:101D100013490978491C124A11701049C97912787F
:101D2000914205D100210E4A117007210A4A117013
:101D30000DE008490978094A82F807110021064A8E
:101D400011700121074A117001E0FFE700BF00BFD9
:101D5000704700000B010020080100203C04002017
:101D60000C010020010000207047000010B5002485
:101D700018480078182825DD0020164908701648F4
:101D800090F85A00C0F3800008B314480068A8B95E
:101D9000012002F0A3F811480068C0B9104800788B
:101DA000401C0F4908700846007832280FDD0020DB
:101DB00008700320FEF7B4FD044608E0002008493F
:101DC000087004E003480078401C0249087020466F
:101DD00010BD000034010020C803002030812142E2
:101DE0003501002029B1064AD2690243044BDA6169
:101DF00004E0034AD2698243014BDA617047000074
:101E00000010024029B1064A92690243044B9A61CC
:101E100004E0034A92698243014B9A6170470000D3
:101E200000100240024909888143014A118070472D
:101E3000042800400348008840F010000149088051
:101E40007047000004280040034800884FF6EF71F7
:101E50000840014908807047042800402DE9F041FE
:101E600000260024002500F07DF806460746394884
:101E7000B6FBF0F438480088A0423CD036490C80CC
:101E800040F2B27510E02846FFF7B6FD40B1B4F558
:101E9000B77F02D3A4F5B77404E0681C85B206E0EE
:101EA000A4F26D14681C85B2B4F5B67FEBD800BF00
:101EB0002A480580002516E028490888FFF79CFD80
:101EC00030B1012D04D11D2C01D31D3C09E00CE0E3
:101ED0002348405DA04203D82148405D241A00E019
:101EE00003E0681C85B21C2CE6D200BF681C1B49AD
:101EF0004880601C88801748B6FBF0F100FB116435
:101F00004FF46160B4FBF0F01449C8804FF4616095
:101F1000B4FBF0F100FB11403C21B0FBF1F00F49A4
:101F200008814FF46160B4FBF0F100FB11403C21EB
:101F3000B0FBF1F201FB1200084948810B461A7907
:101F40009978188800F02AF8044988813846BDE855
:101F5000F08100008051010010010020A40F00203A
:101F6000E8420008002103480188001F008841EA78
:101F7000004070471C28004001460020064A128895
:101F80000A40D0B2044A121F12880A4012B108B1A6
:101F9000012000E00020704704280040F0B503460F
:101FA0000C461546642093FBF0F0C6B2642093FB08
:101FB000F0F700FB1730C1B2132E02DD01F164000F
:101FC000C1B20846CF1701EB977701EBA707BAB26A
:101FD000072092FBF0F700FB172082B25719601E12
:101FE000DFF82CC01CF80000384482B2CF1701EB98
:101FF0009777BF10A1EB87071FB9032C01DA501E9A
:1020000082B2072092FBF0F700FB1720C0B2F0BDB0
:10201000DC42000810B50220FFF7AEFF50B10220ED
:10202000FFF700FF00F09EF802F03AF800210220CE
:1020300000F006F80720FFF7F5FE00F093F810BD5A
:1020400029B1064A12880243044B1A8004E0034A6D
:1020500012888243014B1A8070470000002800401C
:102060002DE9F05F06460F4690469946DDE90AAB3A
:10207000002440F2B270864203DB40F63300864211
:1020800002DD0120BDE8F09F40F2B2750AE028466B
:10209000FFF7B2FC10B12148044401E02048044499
:1020A000681C85B2B542F2DB002510E01D48405D9A
:1020B00040F2A321484304EBC0143046FFF79CFCD8
:1020C00018B1012D01D118480444681C85B2781E4E
:1020D000A842EBDCA8F1010040F2A321484304EB45
:1020E000C014C9EB4910C0EB092004EB0014CAEB83
:1020F0000A1004EB80045C4401214FF0C050FFF74C
:1021000071FE0120FFF792FD204600F01DF800F05F
:1021100029F8FFF7A3FE0020B4E700000085E201E4
:102120008033E101E84200088051010000B5024619
:10213000FFF780FE100C03490880091D0A80FFF795
:1021400083FE00BD2028004000B50246FFF772FE66
:10215000100C03490880091D0A80FFF775FE00BDB9
:102160001828004000BF0348008800F02000002825
:10217000F9D0704704280040074800884FF6F771EF
:1021800008400549088000BF0348008800F00800A7
:102190000028F9D0704700000428004018B5044614
:1021A00001226946204600F023F8BDF8000018BD62
:1021B00010B58020044908804820C870032088702A
:1021C0000248FFF7E7F810BD50010020000C014065
:1021D00010B58020044908801420C870032088703E
:1021E0000248FFF7D7F810BD50010020000C014055
:1021F00030B503460C461546002207E0184600F0AD
:1022000008F824F812009B1C501C82B2AA42F5DB8D
:1022100030BD0146088870472DE9F05F80468A4648
:102220001746B8F1006F02D33348804501D3BDE8AB
:10223000F09FFEF7C1FFA8F1006B4FEADB25CBF35F
:102240004909C9F58064A74200DC3C464DE04FF0E7
:10225000006101EBC5204A142849FFF7C9FF002699
:102260000BE009EB0600254931F810004FF6FF712D
:10227000884200D003E0701C86B2A642F1DB00BFAA
:10228000A6421BDA4FF0006101EBC520FEF72AFFE2
:10229000002608E03AF8160006EB0901174A22F872
:1022A0001100701C86B2A642F4DB4FF0006101EB16
:1022B000C5204A14114900F023F804E02246514693
:1022C000404600F01DF8A74200D10FE06D1C4FF012
:1022D00000090AEB440AA044381B87B2B7F5806FA7
:1022E00002DD4FF4806400E03C46B0E700BFFEF73B
:1022F00039FF00BF9BE7000000000408F212002035
:102300002DE9F04105460E461746002407E036F851
:1023100014102846FEF730FFAD1C601C84B2BC428E
:10232000F5DBBDE8F081704710B50446032009498C
:1023300088710120C87104200872084644728079AF
:10234000C01DC1B2034801F0EFFD02498872FEF7DB
:10235000ABFD10BD0400002000B58DB0182201A90E
:102360003748FFF745FF1D20364988710120C871A5
:1023700005200872BDF804004872BDF8060000127E
:102380008872BDF80600C872BDF808000873BDF871
:102390000A004873BDF80C008873BDF80E00C873BE
:1023A000BDF810000874BDF812004874BDF81400A0
:1023B0008874BDF816000012C8749DF816000875E0
:1023C0009DF8180048759DF81A0088759DF81C0046
:1023D000C8759DF81E00087601A8007F487601A800
:1023E000807F8876BDF82400C876BDF826000012EC
:1023F00008779DF8260048779DF8280088779DF893
:102400002A00C8779DF82C0081F820009DF82E0046
:1024100081F821009DF8300081F822009DF83200FB
:1024200081F8230008468079C01DC1B2054801F03B
:102430007BFD044981F82400FEF736FD0DB000BD98
:102440001280010804000020FEB50546142D59DA5B
:102450003E48FFF7A3FE0446601984B2132C02DD48
:10246000A4F1140084B2142C6FDA3849891C0C22B0
:1024700002FB041005226946FFF7BAFE0720344923
:1024800088710120C87107200872BDF800004872E9
:10249000BDF80200A0F5FA608872BDF80400C872A9
:1024A000BDF806000873BDF8080048730846807937
:1024B000C01DC1B2264801F037FD25498873084682
:1024C000807A642801DA012000E000202049C97ADE
:1024D0000C2901DC012100E0002108401C49097B96
:1024E0001F2901DC012100E0002108401849497B37
:1024F000182901DC012100E00021084008B1FEF7A5
:10250000D3FC22E01348FFF749FE06461148801C21
:10251000FFF744FE074607200D4988710120C87166
:10252000072008720020487238128872CF72301269
:1025300008734E7308468079C01DC1B2044801F08B
:10254000F3FC03498873FEF7AFFCFEBD00000208F0
:10255000040000200010020870B5FFF77FFCFFF7B1
:102560000BFE694800782E30684988710120C871D7
:1025700006200872664890F84E004872644890F849
:1025800050008872624890F85200C872604890F813
:10259000540008735E4890F8560048735C4890F801
:1025A000580088735A48B0F85A502812C8730D74EE
:1025B000574890F85C004874554890F85E0088745D
:1025C000534890F85D00C8745148B0F8600000129C
:1025D00008754F4890F8600048754D4890F86200C3
:1025E00088754B4890F86300C875494890F86400B6
:1025F0000876474890F865004876464800880012FB
:10260000887644480078C876424880780877414800
:10261000007948773F48807988773E48007AC877C4
:102620003C48807A81F820003948807881F8210080
:102630003748007981F822003548407981F8230035
:102640003348807981F824003148C07981F8250029
:102650002D48007881F826002D4890F8660081F812
:1026600027002B4890F8670081F82800284890F848
:10267000680081F82900264890F8690081F82A004E
:102680002348B0F86A00000A81F82B00204890F82F
:102690006A0081F82C001E4890F86E0081F82D0029
:1026A0001B48B0F86C00000A81F82E00184890F81A
:1026B0006C0081F82F00002081F8300081F8310093
:1026C00081F8320081F8330081F83400002407E0FB
:1026D0001148015D04F135000C4A1154601CC4B26C
:1026E000094800788442F3DB08488079C01DC1B2F4
:1026F000064801F019FC044909783531034A505461
:10270000FEF7D2FB70BD0000640100200400002031
:10271000C8030020A40F0020C20F002010B500F055
:1027200001F810BD0CB500200190009033480068FE
:1027300040F480303149086000BF3048006800F440
:10274000003000900198401C0190009818B9019841
:10275000B0F5A06FF1D12948006800F4003010B145
:102760000120009001E0002000900098012843D152
:102770002348006840F010002149086008460068BE
:1027800020F0030008600846006840F0020008607E
:102790001A48406819494860084640684860084639
:1027A000406840F4806048600846406820F47C102F
:1027B00048600846406840F4E810486008460068F1
:1027C00040F08070086000BF0C48006800F00070A6
:1027D0000028F9D00948406820F003000749486004
:1027E0000846406840F00200486000BF0348406867
:1027F00000F00C000828F9D10CBD000000100240C8
:10280000002002402DE9F14F92B04249B1F8580042
:10281000FDF7DFFE074600223F4BFDF75AFE054657
:10282000FDF754FF10904FF0000949461098FDF74E
:10283000FFFC8246FDF707FF0746384A384BFDF795
:10284000D6FD05460022374BFDF743FECDE90A01D0
:102850004846FDF7F8FE82468B461298FDF7B9FE12
:102860000746884649461098FDF7E2FC0190FDF7BF
:10287000EAFE054600222C4BFDF72BFE3A46434666
:10288000CDE90201FDF7B3FD52465B46CDE90401F7
:10289000FDF706FD214A254BCDE90601FDF7A7FD11
:1028A000CDE90801DDE90A23FDF7FAFC0022204BFF
:1028B000CDE90C01FDF79BFDCDE90E01FDF706FF0B
:1028C00004461C492046FDF7B9FC8346FDF78EFE01
:1028D0001FFA80FA5046FDF77CFE07460022124B95
:1028E000FDF7F7FD0546FDF7F1FE04462046FDF72E
:1028F000AAFE0746104A114BFDF779FD0546FDF784
:10290000E5FE04462146012000F03EFA13B0BDE882
:10291000F08F0000C8030020000024407B14AE4765
:10292000E17A743F0000344000005940E17A943F5E
:102930000000FE3F0000C842C3F5285C8FC2F13F93
:1029400070B504460D4600210E4800F0D6F900206F
:102950000C49243108800C48B0FBF4F0401E0949B2
:102960002C3108800848B0FBF4F068436421B0FBC8
:10297000F1F00449403108800821024800F0BDF917
:1029800070BD0000002C01404019010010B500246A
:1029900007480068012809D101F0A0FA044800683E
:1029A000012803D10F20FDF7BBFF0446204610BDD0
:1029B00020012242042808D14FF0E021096941F0AA
:1029C00004014FF0E022116107E04FF0E0210969B6
:1029D00021F004014FF0E0221161704770470000C0
:1029E00010B51348006840F001001149086008461E
:1029F0004068104908400E494860084600680E4982
:102A000008400B4908600846006820F480200860F0
:102A10000846406820F4FE0048604FF41F008860BC
:102A2000FFF77CFE4FF000600449086010BD000015
:102A3000001002400000FFF8FFFFF6FE08ED00E086
:102A400010B50121880700F03EF9002858D02D4824
:102A500090F85C0040B9FEF771FD2B48007818B97A
:102A6000FEF79EF82849087028480078642817D196
:102A700025480078A0B12648007888B9002023496D
:102A8000087001202349086001221146224800F005
:102A90002BF922480078FFF747FC01201C490870F9
:102AA0001A4801780078401C184A1070962921D1E4
:102AB0000020114608701A480078152809DA1848CD
:102AC0000078FFF7C1FC16480078401C14490870D4
:102AD00012E01448007808B9FFF73EFD114800786D
:102AE000401C1049087008460078032804DB0020C9
:102AF000087001E000F09AFB0121880700F0E0F87F
:102B000010BD0000C803002046010020470100203E
:102B1000450100209C012242000C00402C010020B5
:102B2000090100204401002010B501212A4800F0CD
:102B3000CAF800284ED0002028498870284908602B
:102B4000FFF760FE00202749C1F8A801234800785C
:102B500030B12348A438006810B100202249086031
:102B60000020224908702248006820F47040204963
:102B700008600846006840F4304008601A48A838E9
:102B8000006801281DD10846006820F470400860E4
:102B90000846006840F4405008600120134908705E
:102BA0000E48007830B10E48A438006810B10120FA
:102BB0000D49086000200F49086001200E49C1F846
:102BC000AC0100220121044800F08EF801210248E6
:102BD00000F076F810BD000000040040C80300209B
:102BE000AC01214200002242B481214200000020B9
:102BF00004080140A80122420000214210B5012131
:102C0000274800F060F8002849D0264890F85C007A
:102C1000E8B125480078401C234908700846007830
:102C2000022838DB002008702048006808B901201D
:102C300000E000201D4908601D48D0F8B00108B927
:102C4000012000E0002019491431086023E01948F0
:102C50000078401C1749087008460078052809DBF1
:102C6000002008701148006808B9012000E0002029
:102C70000E4908601048007828280CDA0E480078C1
:102C8000401C0D49087008460078192803D10B48EC
:102C9000007800F05DFA0121014800F011F810BD44
:102CA000000C0040C80300204A0100209C01224281
:102CB0000000224249010020480100202C01002090
:102CC000CA430282704730B5024600200023002428
:102CD000158A05EA0103958905EA010413B10CB1CF
:102CE000012000E0002030BD1AB183890B438381AD
:102CF00002E083898B43838170470A460021818BE0
:102D00004FF2FF7319404FF6FF7303EA0223194392
:102D10008183704770B50446A007040E002507E0C4
:102D200004F0800000F00AF86006040E681CC5B2CA
:102D3000022DF5DB012000F001F870BD18B900216B
:102D4000064A116002E00121044A11600121044A8F
:102D500011600021034AC2F898117047BC812142DA
:102D6000980122420000224270B50446002507E087
:102D700004F08000FFF7E2FF6006040E681CC5B295
:102D8000082DF5DB70BD00002DE9F04F85B08346BE
:102D90008A465046FDF757FC804600224FF080439C
:102DA000FDF797FB00224FF08043CDE90001FDF7CE
:102DB00090FB0022104BCDE90201FDF718FB0646FF
:102DC00000220E4BFDF70DFB0446FDF723FCC0B2BD
:102DD000049000200A4908605846FFF79BFF0498BA
:102DE000FFF7C2FF00200749C1F8B80101200649DA
:102DF000086005B0BDE8F08F000070400000F03FB3
:102E00009801224200802142B881214270B50025FC
:102E1000494890F8544090F85A00C0F3C000E8B117
:102E2000464800784006000E444908704248007940
:102E3000A04205DB0846007840F00100087005E07C
:102E40003E48007800F0FE003C4908703B4800789E
:102E5000FF2803D10420FDF763FD0546364890F8AE
:102E60005A00C0F30010E8B1354800784006000E63
:102E70003349087030484079A04205DB08460078A5
:102E800040F00100087005E02D48007800F0FE00D9
:102E90002B4908702A480078FF2803D10520FDF748
:102EA0003FFD0546244890F85A00C0F34010E8B1B1
:102EB000244800784006000E224908701E48807998
:102EC000A04205DB0846007840F00100087005E0EC
:102ED0001C48007800F0FE001A4908701948007874
:102EE000FF2803D10620FDF71BFD0546124890F888
:102EF0005A00C0F38010E8B1134800784006000E75
:102F0000114908700C48C079A04205DB08460078DA
:102F100040F00100087005E00B48007800F0FE006A
:102F20000949087008480078FF2803D10720FDF7F9
:102F3000F7FC0546284670BDC80300203A01002072
:102F40003B0100203C0100203D01002070B540F213
:102F50002441164800F0CBF830B314480088C5B2BD
:102F60001248001D0088C5B200211148FDF776FF08
:102F70004FF48030FDF756FF0D48FDF77BFFC0F1A1
:102F80003C00C5B2002405E00A49085DFEF754FE86
:102F9000601CC4B2AC42F7DB3C2005495839C86517
:102FA00001210348FDF75AFF70BD000000380140C1
:102FB00058000240A40E002010B50121354800F051
:102FC00089F830B1334800F0BCF80121314800F0F5
:102FD00069F808212F4800F07DF830B12D4800F045
:102FE000B0F808212B4800F05DF82021294800F0B6
:102FF00071F801283BD1274800F0A3F82649087052
:103000002648008800F4004088BB2448008800F46B
:10301000804070B1084600780A2803D000201F497C
:10302000088024E01D48008840F400401B490880C7
:103030001DE0194800780D2806D11848008840F492
:1030400080401649088012E0134800781349098827
:10305000C1F30D01124A505410480088401C0F491A
:10306000088008460088092801DD0020088040F219
:103070002551084800F03BF858B12021054800F0E0
:1030800011F840F22551034800F015F8014800F00E
:1030900058F810BD00440040A6030020660100203F
:1030A000F21A002001F40072B2F5007F00D100BFD7
:1030B000CA430280704710B50022002340F66A140C
:1030C000A14200D100BF0A1201249440A3B2DC4304
:1030D000048010BD02460020B1F5007F00D100BF82
:1030E00013880B400BB1012000E00020704770B541
:1030F0000246002400230025002040F66A16B14253
:1031000000D100BFC1F3421501F01F03012606FAEA
:1031100003F3012D02D19689334006E0022D02D13E
:10312000168A334001E0968A33400C12012606FAD3
:1031300004F41688344013B10CB1012000E00020E3
:1031400070BD01468888C0F30800704700BFFEE7E5
:103150003EB50546FEF782FEFFF70EF8ADF80050CB
:1031600015480088ADF8020013484088ADF8040007
:1031700011488088ADF806000F48C088ADF80800F7
:103180000E48FFF70BF80446142C04DB00210B4813
:1031900000F016F800240949891C0C2202FB0410D7
:1031A00005226946FFF738F8601C84B221460348BF
:1031B00000F006F83EBD0000A40F00200000020849
:1031C00013B50446012201A92046FFF725F81CBDCE
:1031D00002E008C8121F08C1002AFAD170477047E0
:1031E000002001E001C1121F002AFBD1704700003E
:1031F0003EB50C4A07CA8DE8070000210A48FFF7D0
:10320000DFFF00240AE00849891C0C2202FB04109D
:1032100005226946FFF700F8601CC4B2142CF2DBEB
:103220003EBD0000C4420008000002082DE9FC4732
:10323000F848007801287DD10020F6490870F6484A
:10324000407AF549097A40EA012040F20722811AC2
:10325000904270D025DCB0F5857F6DD009DCA0F2FE
:103260000110082869D2DFE800F053FDFCFBFAF9F1
:10327000F8F740F20222811A90427DD00ADCA0F2D7
:103280000B10002879D0012878D0032877D0F628B1
:1032900053D164E3012973D0032972D00429F7D1F3
:1032A000B9E340F20132881A91426BD018DC40F247
:1032B000FD22A1EB0200914271D00ADC01296FD0FE
:1032C000A1F2FA2100296CD001296BD00229DFD1AB
:1032D000F1E3012867D002287DD00328D8D1EBE3A1
:1032E000062879D008DC012877D0022876D0032878
:1032F00075D00528CCD1EFE3072871D0A0F60120C6
:1033000000286ED0A0F5824003380028C0D1F1E338
:10331000C24890F85C0000285CD1BF48807A012840
:103320007ED1BF4800780028F6D1BB48C07A642817
:1033300050DC03E0FBE372E392E1F9E3B648407B43
:103340006428F5DCB54890F86F0001284AD1B248EE
:10335000C07A05283EDD00220121B248FFF7C4FCF7
:10336000AE48007828B1B048006810B10120AF49DC
:1033700008600120AE4906E004E387E189E1A7E2A5
:103380003AE345E3F3E30860A348C07AA3498870B1
:10339000084680780A2807DA0A20C87008E0D9E3CE
:1033A00040E37BE399E3F2E39C4880789B49C87053
:1033B0009A49C878FFF726FA052000F08FFD002013
:1033C0009C490870944A517B107BFFF7B9FA0120A1
:1033D0009949087052E0F7E3F7E3F7E3F7E3F7E31F
:1033E000F7E359E1002201218E48FFF77DFC8B486D
:1033F000007828B18C48006810B101208B49086022
:1034000001208B4908608448C07A84498870887894
:10341000FFF7F8F9052000F061FD0020854900E084
:1034200009E008707C4A517B107BFFF789FA012084
:103430008149087022E000207849887001207D4988
:1034400008700020FFF7DEF900210A20FFF778FA64
:103450007248007868B106E090E083E076E069E0C9
:103460004AE02BE00BE07048006810B100206F4983
:10347000086000206E4908606F49087027E26648BE
:10348000807A6649A1F84E000846B0F84E106B48A5
:10349000FFF796FE6149B1F84E108800FDF788F8F5
:1034A00007460022664BFDF714F80546FDF70EF9B6
:1034B000824651460020FFF767FCDFE75648817AD5
:1034C0005648A0F85010B0F850105C48801CFFF728
:1034D00077FE5249B1F85000FDF77BF8074600220D
:1034E000584BFCF7F6FF0546FDF7F0F882465146CB
:1034F0000320FFF749FCC1E74748817A4748A0F815
:103500005210B0F852104D48001DFFF759FE4349C4
:10351000B1F85200FDF75DF807460022494BFCF771
:10352000D8FF0546FDF7D2F8824651460220FFF744
:103530002BFCA3E73848817A3848A0F85410B0F83B
:1035400054103E48801DFFF73BFE97E73248817AD2
:103550003248A0F85610B0F8561038480830FFF737
:103560002FFE8BE72C48817A2C48A0F85810B0F831
:10357000581032480A30FFF723FE7FE72748B0F89B
:103580005A0042F2040120EA01042348C17A807AF9
:1035900041EA002042F2040120EA01094C450DD025
:1035A0001D48C17A807A41EA00211C48A0F85A10CF
:1035B000B0F85A1021480C30FFF702FE1648C17AC5
:1035C000807A41EA002000F400541348C17A807ADE
:1035D00041EA002000F00409B4F5005F07D10120A2
:1035E0001949488001211948FFF7EAFD06E000204B
:1035F0001549488000211548FFF7E2FDB9F1040F95
:1036000026D101201049088001211048801EFFF7B3
:10361000D7FD24E0010000203C040020C803002066
:10362000000000200004004008012142B481214232
:10363000A80122422A0100200A010020028001087C
:1036400000408F4000002440040100200690010843
:103650000020FD4908800021FC48FFF7B1FDCFE3C1
:10366000FEF7E8FBFA48007CF949C97BF84DCDE943
:103670000010EE7AAD7A46EA0520F54DAB7B6A7B09
:10368000297BFEF7EDFCFEF7DFFBB9E3FEF764FFF5
:10369000B6E3FEF761FEB3E3ED48807A07287CD0FD
:1036A0000021EA48001DFFF78BFDE848001DFEF7EA
:1036B00075FDE84981F85C00FEF7D0FBFEF752FD8E
:1036C000FEF75AFD01210220FEF7BAFCFEF74AFD83
:1036D000FEF7B0FBDE48807A07283FDADC48807AC4
:1036E00007283AD2DFE800F0040C141C242C340024
:1036F000FEF738FCD84945182846FEF717FD2CE0A0
:10370000FEF730FCD54945182846FEF70FFD24E0AA
:10371000FEF728FCD24945182846FEF707FD1CE0B5
:10372000FEF720FCCF4945182846FEF7FFFC14E0C1
:10373000FEF718FCCC4945182846FEF7F7FC0CE0CC
:10374000FEF710FCC94945182846FEF7EFFC04E0D7
:1037500000210220FEF774FC00BF11E0FEF702FC1E
:10376000BB49897AC91F01EB4101C900C1EB0111B5
:103770008900C1EB011100EB81052846FEF7D6FC5C
:10378000FEF7F0FCFEF760FBB148817AAF481430D9
:10379000FFF716FDAD48163000E07CE0FEF7FEFCBA
:1037A000401C85B22946A9481630FFF709FDB048EC
:1037B0000188A648801DFFF703FDAD484188A34856
:1037C0000830FFF7FDFCAA488188A0480A30FFF7BF
:1037D000F7FCA748C1889D480C30FFF7F1FCA448CE
:1037E00001899A480E30FFF7EBFC98481630FEF737
:1037F000D5FC984981F85D0094481430FEF7CEFC62
:10380000944981F85E009148001DFEF7C7FC91497C
:1038100081F85C008D48801DFEF7C0FC8D49A1F841
:1038200060008A480830FEF7B9FC8A4981F86200D6
:1038300086480A30FEF7B2FC864981F86300834867
:103840000C30FEF7ABFC834981F864007F480E30F2
:10385000FEF7A4FC7F4981F865000022012185481C
:10386000FFF742FA8448006840F008008249086087
:103870000846006840F01000086001207F49086099
:1038800000207F49C1F8A8017C4914390860FF2055
:10389000FFF75EFC1BE000216C481630FFF790FC40
:1038A00000217848FFF78CFC00217648801CFFF748
:1038B00087FCFFF79DFC65481630FEF76FFC6549F5
:1038C00081F85D00002161481A30FFF779FC97E22A
:1038D0005F48807A412841D05D48817A6A48FFF785
:1038E0006FFC5B48C17A6848801CFFF769FC584848
:1038F000017B6548001DFFF763FC5548417B62482A
:10390000801DFFF75DFC5248C27B807B42EA0021AC
:103910005D480830FFF754FC5B48FEF73FFC4D491B
:1039200081F866005848801CFEF738FC494981F848
:1039300067005548001DFEF731FC464981F86800D4
:103940005148801DFEF72AFC424981F869004E4823
:103950000830FEF723FC3F49A1F86A0050E23C48DA
:10396000807A38B101203849088001213748FFF7B3
:1039700027FC06E000203449088000213348FFF787
:103980001FFC3DE23248807A012825D13149087078
:10399000084601782D481830FFF712FC3B480078A4
:1039A00050B93B480078012802D13A49086022E02A
:1039B0000020384908601EE03448007801281AD1F8
:1039C0003448A838006818B900203249086012E06D
:1039D0000120304908600EE01D48807A58B9002067
:1039E0001C4908700846017818481830FFF7E8FBB2
:1039F00001202849086003E225480078012806D103
:103A00001348807A134988708878FEF7FBFEF7E147
:103A100000F046FBF4E100201F490870F0E1FDF7DB
:103A2000EBFBEDE1FCF7A0FBFF2190FBF1F201FBCA
:103A30001200084981F86E00084690F86E1003489D
:103A40001A30FFF7BDFBDBE1040100200490010800
:103A50003C040020C8030020008D2700001A4F00FE
:103A600000A7760000349E0000C1C500004EED00A6
:103A7000A40F0020000C004000040140B0012242CD
:103A800000002242001002084280010800000020CD
:103A90000A010020B481214209010020DA48807A1D
:103AA00001280AD1D948B0F85A0040F00101D7489E
:103AB000A0F85A1009E02DE0A8E0D448B0F85A0068
:103AC00020F00101D148A0F85A10D048B0F85A109F
:103AD000CF48FFF775FB93E140E1CB48807A01289E
:103AE00009D1CA48B0F85A0040F00201C748A0F80E
:103AF0005A1008E016E1C548B0F85A0020F002015B
:103B0000C248A0F85A10C148B0F85A10C048FFF790
:103B100057FB75E1BC48807A01280AD1BB48B0F850
:103B20005A0040F00401B948A0F85A1009E068E1D1
:103B300065E1B648B0F85A0020F00401B348A0F897
:103B40005A10B248B0F85A10B148FFF739FBFDF7E8
:103B500053FB55E1AC48807A012809D1AB48B0F855
:103B60005A0040F00801A948A0F85A1008E069E09E
:103B7000A648B0F85A0020F00801A448A0F85A104E
:103B8000A248B0F85A10A248FFF71AFB38E1FFE745
:103B90009D48807A012808D19C48B0F85A0040F02E
:103BA00010019A48A0F85A1007E09848B0F85A0057
:103BB00020F010019548A0F85A109448B0F85A1017
:103BC0009348FFF7FDFA1BE104E0E3E056E071E003
:103BD0008CE0FBE08C48807A012808D18B48B0F853
:103BE0005A0040F020018948A0F85A1007E08748A1
:103BF000B0F85A0020F020018448A0F85A108348F9
:103C0000B0F85A108248FFF7DBFAF9E07E48807A74
:103C1000012808D17D48B0F85A0040F040017B48A7
:103C2000A0F85A1007E07948B0F85A0020F0400197
:103C30007648A0F85A107548B0F85A107448FFF743
:103C4000BFFADDE07048807A012808D16F48B0F8EB
:103C50005A0040F080016D48A0F85A1007E06B4808
:103C6000B0F85A0020F080016848A0F85A10674860
:103C7000B0F85A106648FFF7A3FAC1E06248807AAC
:103C8000012808D16148B0F85A0040F480715F48BB
:103C9000A0F85A1007E05D48B0F85A0020F480718F
:103CA0005A48A0F85A105948B0F85A105848FFF727
:103CB00087FAA5E05448807A012808D15348B0F823
:103CC0005A0040F400715148A0F85A1007E04F48DC
:103CD000B0F85A0020F400714C48A0F85A104B4834
:103CE000B0F85A104A48FFF76BFA89E04648807AE4
:103CF000012808D14548B0F85A0040F48061434893
:103D0000A0F85A1007E04148B0F85A0020F480614A
:103D10003E48A0F85A103D48B0F85A103C48FFF70A
:103D20004FFA6DE03848807A012808D13748B0F85A
:103D30005A0040F400613548A0F85A1007E03348B3
:103D4000B0F85A0020F400613048A0F85A102F480B
:103D5000B0F85A102E48FFF733FA51E02A48807A1B
:103D6000012808D12948B0F85A0040F4805127486A
:103D7000A0F85A1007E02548B0F85A0020F4805106
:103D80002248A0F85A102148B0F85A102048FFF7EE
:103D900017FA35E01C48807A012808D11B48B0F892
:103DA0005A0040F400511948A0F85A1007E017488B
:103DB000B0F85A0020F400511448A0F85A101348E3
:103DC000B0F85A101248FFF7FBF919E00E48807A54
:103DD000012809D10D48B0F85A004FF6FF71084389
:103DE0000A49A1F85A0003E000210848A0F85A1037
:103DF0000648B0F85A100648FFF7E2F900E000BFA5
:103E000000BFBDE8FC8700003C040020C803002080
:103E10000E80010870B502460C46FF25FF2309E01D
:103E200012F8010B80EA05010648405C80EA0305B0
:103E30000548435C2000A4F10106F4B2F0D145EA44
:103E4000032070BD0C4300080C44000810B56FF04F
:103E50000400FEF7AFFD0A4800680A49B0FBF1F024
:103E6000094908700846007800EB4001C1EBC0101A
:103E70004FF6FF7101EAC0000449088010BD000040
:103E8000B003002000127A004C0100204E010020F7
:103E90000146114A12884A434FF0E0235A6100223A
:103EA0009A611A46126942F001021A6100BF4FF08E
:103EB000E022106900F001021AB100F48032002AF9
:103EC000F5D04FF0E022126922F001024FF0E0231A
:103ED0001A6100229A6170474E0100200146114A82
:103EE00012784A434FF0E0235A6100229A611A4641
:103EF000126942F001021A6100BF4FF0E02210691E
:103F000000F001021AB100F48032002AF5D04FF01F
:103F1000E022126922F001024FF0E0231A61002230
:103F20009A6170474C01002030B502460B460020D4
:103F3000002111E0555C6840002409E000F0010513
:103F40001DB1512585EA600000E04010651CECB20F
:103F5000082CF3DB4D1CE9B29942EBDB30BD0000CD
:103F600008B501210846FDF74DFF01214048FDF746
:103F70009DFA01213C20FDF745FF4FF4C050ADF8FC
:103F8000000010208DF8030003208DF80200694620
:103F90003848FDF7FFF90020374908603749C1F874
:103FA000B0014FF40050ADF8000069463448FDF709
:103FB000F1F90120334908604FF4E450ADF80000F6
:103FC00069463148FDF7E6F901203049C1F8B001F2
:103FD0000420ADF8000069462D48FDF7DBF901200B
:103FE0002C49086041F23B00ADF8000004208DF838
:103FF000030003208DF8020069462148FDF7CAF945
:104000004FF44070ADF8000069461F48FDF7C2F953
:1040100048208DF803000420ADF8000069461548DB
:10402000FDF7B8F900201C49086001201A49083939
:1040300008601649C1F8AC014FF4FA70FFF728FF89
:1040400000201549143908604FF4FA70FFF720FF7B
:104050004FF4FA70FFF71CFF01200F4908600020A1
:104060000D49083908600D49C1F8880108BD0000F4
:104070000002300000080140AC0121420000214252
:10408000000C0140B4812142001001400000224296
:104090000014014088812242B00122420080224265
:1040A00010B501211648FFF78BF81548FEF776F892
:1040B000144981F85C001448006820F00800124997
:1040C00008600846006820F01000086000210A20FF
:1040D000FEF736FC00200D4908600A498870887890
:1040E000FEF790FB00200A49C1F8B40101221146F5
:1040F0000848FEF7F9FD00200749086010BD0000E0
:1041000008900108C803002000040140AC012142CE
:1041100000802142000C0040A80122424FF4A06020
:10412000FDF78AFCFFF792FEFFF71AFF0AE0064848
:104130000068012803D100200449086002E0012042
:1041400002490860F3E7000008012142B4812142DE
:104150002DE9F14F86B04FF0000946244FF0000BD7
:104160000698FCF770FA05464FF033322C4BFCF7FB
:1041700095FA0CD20698FCF766FA05464FF06632BF
:10418000284BFCF773FA02D82748008E1FE00698E8
:10419000FCF759FA07464FF06632224BFCF724F938
:1041A000CDE9000121490698FCF748F880462049EE
:1041B000FCF73EF80746FCF746FA0546DDE9002322
:1041C000FCF787F9CDE90201FCF724FA80B20490EC
:1041D0004FF0000A1DE009EB040000EBD071C1F3C1
:1041E000470B114830F81B100498814206DA09EB9E
:1041F000040000EBD071C1F3470406E009EB0400B2
:1042000000EBD071C1F3470900BF0AF1010000F0D3
:10421000FF0ABAF1070FDEDB204607B0BDE8F08FDA
:104220003333074066660A403442000800D01D461A
:104230000000A543947F40793C739C6D38683863D7
:10424000745EEC59A0559051BC4D1A4A72476C43AC
:104250004C405E3D983AF03770350E33CA30A42E8C
:104260009C2CA82AD22810276625CE234A2220215A
:104270007A1F2C1EEC1CBA1B981A84197C187F1705
:104280009016AA15CE14FE1336137612C011101113
:104290006A10CA0F300F9E0E120E8C0D0C0D900C72
:1042A0001A0CAA0B3E0BD60A720A140AB809600946
:1042B0000C09BA086E082208DC0796075407150790
:1042C000D7060000FFFFFFFFFFFFFFFFFFFF00001B
:1042D000E1070C001A000A0014002800000303067E
:1042E00001040602050003051F1C1F1E1F1E1F1FC1
:1042F0001E1F1E1F008D2700001A4F0000A776000A
:1043000000349E0000C1C500004EED0000C1814098
:1043100001C0804101C0804100C1814001C0804195
:1043200000C1814000C1814001C0804101C0804185
:1043300000C1814000C1814001C0804100C1814075
:1043400001C0804101C0804100C1814001C0804165
:1043500000C1814000C1814001C0804100C1814055
:1043600001C0804101C0804100C1814000C1814045
:1043700001C0804101C0804100C1814001C0804135
:1043800000C1814000C1814001C0804101C0804125
:1043900000C1814000C1814001C0804100C1814015
:1043A00001C0804101C0804100C1814000C1814005
:1043B00001C0804101C0804100C1814001C08041F5
:1043C00000C1814000C1814001C0804100C18140E5
:1043D00001C0804101C0804100C1814001C08041D5
:1043E00000C1814000C1814001C0804101C08041C5
:1043F00000C1814000C1814001C0804100C18140B5
:1044000001C0804101C0804100C1814000C0C101A4
:10441000C30302C2C60607C705C5C404CC0C0DCD34
:104420000FCFCE0E0ACACB0BC90908C8D81819D9A4
:104430001BDBDA1A1EDEDF1FDD1D1CDC14D4D515D4
:10444000D71716D6D21213D311D1D010F03031F1C4
:1044500033F3F23236F6F737F53534F43CFCFD3DF4
:10446000FF3F3EFEFA3A3BFB39F9F83828E8E929E4
:10447000EB2B2AEAEE2E2FEF2DEDEC2CE42425E594
:1044800027E7E62622E2E323E12120E0A06061A104
:1044900063A3A26266A6A767A56564A46CACAD6DB4
:1044A000AF6F6EAEAA6A6BAB69A9A86878B8B97924
:1044B000BB7B7ABABE7E7FBF7DBDBC7CB47475B554
:1044C00077B7B67672B2B373B17170B05090915144
:1044D0009353529296565797559594549C5C5D9D74
:1044E0005F9F9E5E5A9A9B5B995958988848498964
:1044F0004B8B8A4A4E8E8F4F8D4D4C8C4484854514
:104500008747468682424383418180402C4500088C
:1045100000000020C8030000C80800084846000842
:10452000C8030020381B0000E03100084102FFF7FB
:10453000513264024601501180828486888A8C8EB2
:1045400090929496989A9C9E100D70616765206A6F
:1045500069656D690D0A1D72657374071825777298
:1045600069737472203134342C3133392C32303049
:104570002C34322C302C313035352C363535333522
:104580002C31027D332C2246018A22382A33264DD3
:10459000322C363736CE3633343838371A30019924
:1045A0003129698C32313669091133B9623C3237AD
:1045B00035317A31315D323533313119A8596429B9
:1045C0003239E06F5064436F64650EAC5162680F1E
:1045D000AA540DAA430DAB46770EAD53746F7010FD
:1045E000AE6E7562657211680E50445F636F6E74D3
:1045F000696E75697479150D176C6F636BEA19DC58
:10460000680A3035352C3631333039E99DD5FDB364
:10461000A3EBF932CE36333438383308082D514203
:1046200048B1A8BEAF360D31CBAED1B9376DBCB1F4
:10463000CDA3371183FFC984A24A044009010203B4
:08464000040607080900000050
:0400000508000131BD
:00000001FF
