:020000040800F2
:1000000040220020450100086F210008C91D00089A
:100010006B210008350E0008473F00080000000073
:100020000000000000000000000000003B2E00085F
:100030002D130008000000001125000819350008E4
:100040005F010008992300085F010008812900086A
:100050005F0100085F0100085F0100085F01000800
:100060003113000861130008B11300085F01000894
:100070005F0100085F0100085F0100085F010008E0
:100080005F0100085F0100085F0100085F010008D0
:100090005F0100085F0100085F01000849140008C3
:1000A0005F0100085F0100085F0100085F010008B0
:1000B0007D350008653600085F0100085F01000813
:1000C0005F0100085F0100085F0100085F01000890
:1000D0005F010008F93B0008653C00085F0100086B
:1000E0005F0100085F0100085F0100085F01000870
:1000F0005F0100085F0100085F0100085F01000860
:100100005F0100085F010008393700085F0100083F
:100110005F0100085F0100085F0100085F0100083F
:100120005F0100085F0100085F0100085F0100082F
:10013000DFF80CD000F0B6FB004800470D57000870
:10014000402200200648804706480047FEE7FEE7B9
:10015000FEE7FEE7FEE7FEE7FEE7FEE7FEE7FEE777
:100160001D350008310100080649074A0868504358
:1001700043F23902104408604008704701490860A2
:1001800070470000D80300206D4EC641F0B480EAED
:100190000102D40F4200B2EB410F02D202460846E0
:1001A00011464A0042D0C30DDDB2C1F3C752AD1AA9
:1001B000202D35DAC1F3160141F4000204B1524298
:1001C000C5F1200602FA06F12A411044B3EBD05FD4
:1001D00023D0C4B1012DA0EBC35009DCF0BC4FF01B
:1001E000004202EAC352DBB200F5000000F0CEBAD2
:1001F000400000F1807000EBC350A0F1807040EA35
:10020000D170490009E0490841EAC071A0EBC35030
:1002100000F50000400800EBC350F0BC00F0ADBAA0
:100220006142012202EB4101001BF6E7F0BC70477E
:1002300081F00041AAE780F00040A7E780EA0102D0
:1002400010B502F00043400022D04A001FD0010E3A
:1002500001EB1261C0F35600C2F3560240F40000F5
:1002600042F40002A0FB022000047F39140400D0F5
:10027000401C50EA124001D44000491EC2B20C0694
:1002800004EBD010401C4008802A02D003E000207C
:1002900010BD20F00100002900DA0020184310BD35
:1002A0002DE9FE4F804681EA0300C00F0C46009006
:1002B00021F0004123F00045B8EB0200A94105D22E
:1002C0004046214690461C460B46024623F000401D
:1002D000104347D0270DC7F30A00C3F30A51029019
:1002E000401A019040286BDAC3F3130040F4801BDE
:1002F0000098924620B10023D2EB030A63EB0B0B6C
:1003000001985946C0F14002504600F005FA0646F1
:100310000D4650465946019A00F01DFA10EB0800B0
:100320006141002487EA115284EAE7731A4340D0FE
:10033000009A62B3019A012A4FEA075215DC001BAA
:1003400061EB02014FF0004202EA0752CDE90042A0
:10035000001C41F5801132462B4600F054FA03B0E0
:10036000BDE8F08F40462146F9E7001B61EB020132
:10037000001C41F5801300185B412018A2F50017FE
:1003800047EB030140EAD570B6196D4111E06D08E5
:100390004FEA360645EAC0754FEA0752001B61EB8B
:1003A0000201001C41F5801149084FEA3000001994
:1003B000514132462B4603B0BDE8F04F00F014BA6D
:1003C0000098012240000023D0EB020263EBE073AF
:1003D000009821464FEAE074B8EB000061EB04019D
:1003E000E9E783F000435BE781F0004158E72DE93E
:1003F000FE4F81EA030404F0004421F00041009420
:100400004FF0000B23F0004350EA01045ED052EAA3
:1004100003045BD0C3F30A54C1F30A552C44A4F27D
:10042000F3340194A0FB0254C1F3130141F4801191
:10043000C3F3130343F4801301FB024400FB034E98
:10044000840A970A44EA815447EA8357A4FB076861
:1004500002958D0A05FB07854FEA932C04FB0C548B
:100460002705029D4FEA065847EA1637B5EB0805FF
:100470006EEB070C870E920E47EA811742EA831251
:10048000A7FB0201B6EB0B0164EB00042B0D43EA62
:100490000C335E1844EB1C50DA465146E7FB020170
:1004A000C5F313044FEA0B3343EA14534FEA043203
:1004B000019C43EA0603A4F10C040294009CCDE9DC
:1004C00000B400F0A0F903B0BDE8F08F00200146B1
:1004D000F9E72DE9F04D81EA030404F0004B21F027
:1004E000004514464FF0000A23F0004150EA05028F
:1004F00020D054EA01021DD0C5F30A570246C5F3C5
:100500001303C1F31300C1F30A5640F4801543F4FA
:100510008013A7EB0608101BD64608F2FD3873EBD4
:10052000050002D308F1010801E092185B41B8F11F
:10053000000F03DA00200146BDE8F08D00204FF4E3
:100540008011064684460EE0171B73EB050705D3A2
:10055000121B63EB050306434CEA010C49084FEA02
:10056000300092185B4150EA0107EDD152EA0300D6
:1005700012D082EA040083EA0501084305D0101B6B
:10058000AB4106D20122002306E000224FF00043D7
:1005900002E06FF0010253101AEB06004CEB085119
:1005A00010EB0A0041EB0B01BDE8F04D00F01CB967
:1005B0000EB5C10F80EAE0700844CA07002140F27E
:1005C00033438DE80E000A460B4600F01CF903B0D9
:1005D00000BD0EB540F2334102910021CDE900117A
:1005E0000A460B4600F00FF903B000BD20F00040B2
:1005F000C10DC0F3160040F400007F2901DA00208D
:100600007047962903DCC1F19601C84070479639BE
:1006100088407047C1F30A5210B5C1F3130140F28C
:10062000FF3341F480119A4201DA002010BD40F2FC
:1006300033439A42A2F2334203DC524200F07BF889
:1006400010BD904010BD00F0004230F000400AD0D4
:10065000C10D01F56071C0F3160042EA0151C208F4
:1006600040071143704700200146704730B5041E13
:1006700071F1000404DB4FF00044404264EB0101DF
:10068000141E73F1000405DB1C464FF00043524278
:1006900063EB04038B4208BF824230BD30B5041EB9
:1006A00071F1000404DB4FF00044404264EB0101AF
:1006B000141E73F1000405DB1C464FF00043524248
:1006C00063EB0403994208BF904230BD01F0004340
:1006D00030B421F0004150EA010206D00A0DA2F523
:1006E0006072C1F31301002A02DC30BC00207047A5
:1006F000440F44EAC104C100E01830BC00EBC25012
:1007000000F03BB8002801DBC0F10040002901DB0C
:10071000C1F1004188427047202A04DB203A00FAE8
:1007200002F1002070479140C2F1200320FA03F348
:10073000194390407047202A04DB203A21FA02F046
:100740000021704721FA02F3D040C2F1200291400B
:10075000084319467047202A06DBCB17203A41FA96
:1007600002F043EAE07306E041FA02F3D040C2F13E
:10077000200291400843194670470029A8BF7047DE
:10078000401C490008BF20F00100704710B4B0FAC7
:1007900080FC00FA0CF050EA010404BF10BC704762
:1007A00049B1CCF1200421FA04F411FA0CF118BF7C
:1007B000012121430843A3EB0C01CB1D4FEA00614B
:1007C0004FEA102042BF002010BC704700EBC3501E
:1007D00010440029A4BF10BC7047401C490008BF4A
:1007E00020F0010010BC704710B5141E73F1000416
:1007F00008DA401C41F1000192185B411A4301D113
:1008000020F0010010BD2DE9F04D92469B4611B13C
:10081000B1FA81F202E0B0FA80F220329046FFF79E
:100820007BFF04460F4640EA0A0041EA0B015346AB
:100830005A46084313D0114653EA010019D0C8F1B3
:1008400040025046FFF777FF05460E465046594690
:100850004246FFF761FF084305D0012004E020462F
:100860003946BDE8F08D0020054346EAE0762C438A
:1008700037430A986305E40AA0EB08000022FD0A4A
:1008800044EA47540A3002D500200146E9E7010551
:1008900010196941DDE9084500196941BDE8F04DCD
:1008A000A2E70000064C074D06E0E06840F00103B7
:1008B00094E8070098471034AC42F6D3FFF73CFCAD
:1008C000446000086460000870B58C1810F8015B83
:1008D00015F0070301D110F8013B2A1106D110F8D9
:1008E000012B03E010F8016B01F8016B5B1EF9D1DD
:1008F0002B0705D40023521E0DD401F8013BFAE763
:1009000010F8013BCB1A921C03E013F8015B01F8CD
:10091000015B521EF9D5A142D8D3002070BD21B190
:10092000826842F00102826003E0826822F00102E4
:100930008260704721B1826842F48072826003E075
:10094000826822F4807282607047000010B504460D
:100950001248844208D10121401501F053FE0021C4
:10096000601501F04FFE17E00D48844208D10121C7
:10097000001501F047FE0021201501F043FE0BE0B9
:100980000848844208D10121C80301F03BFE002140
:100990004FF4004001F036FE10BD0000002401407D
:1009A00000280140003C0140014600208A6802F016
:1009B00004020AB1012000E0002070470146002037
:1009C0008A6802F008020AB1012000E000207047A6
:1009D00030B502460020002350680F4C20400D79AE
:1009E0000C6844EA05242043506090680B4C20407A
:1009F000D1E902542C434D7944EA450420439060E8
:100A0000D06A20F470000C7C641EE4B2234340EAF8
:100A10000350D06230BD0000FFFEF0FFFDF7F1FF94
:100A2000F0B504460D4600200021092D11DDE068D7
:100A3000A5F10A0606EB4607072606FA07F18843E2
:100A4000A5F10A0606EB460603FA06F10843E06044
:100A50000CE0206905EB4507072606FA07F18843F5
:100A600005EB450603FA06F108432061072A0FDA71
:100A7000606B561E06EB86071F2606FA07F18843B1
:100A8000561E06EB860605FA06F10843606322E06F
:100A90000D2A0FDA206BD61F06EB86071F2606FAF3
:100AA00007F18843D61F06EB860605FA06F10843D0
:100AB000206310E0E06AA2F10D0606EB86071F2610
:100AC00006FA07F18843A2F10D0606EB860605FA41
:100AD00006F10843E062F0BD816841F008018160E1
:100AE000704721B1826842F4A002826003E082680C
:100AF00022F4A00282607047816841F004018160A5
:100B00007047000010B504461B48006820F008003C
:100B1000194908600846006820F0100008600020AD
:100B2000164988700120164908601649C1F88801E5
:100B30001548007820B900210A2002F09FFC03E04C
:100B400000200F49091F08600C49887802F0F8FB63
:100B50000A48007830B10A48A838006810B100206F
:100B60000A49086000200A4908600A49C1F8A8013A
:100B700009480470012010BD00040140DC0300207E
:100B8000B00121420080224200000020B4812142B5
:100B9000B0012242000022422C01002010B517486B
:100BA000006820F00800154908600846006820F039
:100BB0001000086000201249887001201149086067
:100BC0001148007820B900210A2002F057FC03E008
:100BD00000200C49091F08600949887802F0B0FB21
:100BE0000748007830B10748A838006810B10020E5
:100BF0000649086000200649086010BD0004014055
:100C0000DC030020B001214200000020B481214219
:100C1000A801224210B51948006820F008001749C1
:100C200008600846006820F01000086000201449A1
:100C300088700120134908601348007820B900210A
:100C40000A2002F01BFC03E000200E49091F086087
:100C50000B49887802F074FB0948007830B10948E4
:100C6000A838006810B10020084908600020084931
:100C700008600849C1F8A80110BD00000004014047
:100C8000DC030020B001214200000020B481214299
:100C9000B0012242000022422DE9F04F91B04C48B1
:100CA000806801904A48C0680290494800690390F2
:100CB0004748406904904648806905904448C069A7
:100CC00006904348006A07904148406A08904048AF
:100CD000806A09903E48C06A0A903D48006B0B90BC
:100CE0003B48406B0C903A48806B0D903848C06B85
:100CF0000E903748006C0F903548406C1090354886
:100D00000078102861DC00245BE04FF0000AD14637
:100D100023E004EBC40000EB04102F4901EB800139
:100D200009F1010031F8100004EBC40101EB0411DA
:100D3000294A02EB810121F8190004EBC40000EB01
:100D40000410114601EB800030F8190050441FFADE
:100D500080FA09F101001FFA80F9B9F1310FD8DBEF
:100D600001A951F824001D49FFF768FA0546FFF76D
:100D70003DFC04EBC40101EB0411174A02EB8101B5
:100D8000A1F8620004EBC40000EB0410114601EB73
:100D90008000B0F8620050441FFA80FA32209AFBBB
:100DA000F0FB5846FFF704FC07460D4A0D4BFFF7D2
:100DB0001EFB0546FFF72EFC0B4921F81400601CB2
:100DC00084B20448007884429FDB11B0BDE8F08F04
:100DD000DC03002064010020F60F00200000204109
:100DE000713D0AD7A370F13FD60F002010B5012046
:100DF00001F018FC002001F015FC10BD08B50146FB
:100E0000002000900348009000980844009000984B
:100E1000008808BD006C004008B500220092044A1A
:100E20000092009A02440092009A116008BD0000EE
:100E3000006C004000BFFEE72DE9F04700240025CC
:100E400000260027A046A14602F03EFB814601F0A5
:100E5000D1F9044601F05EFB054600F051FD8046E5
:100E600002F02AFE064600F00BF8074644EA0500A9
:100E70003043384340EA080040EA0900BDE8F08703
:100E80002DE9FE4F002002908249B1F85600FFF78D
:100E9000A0FB80460022804BFFF71BFB0646FFF7B6
:100EA00015FC0090FFF7CFFB04467C4A7C4BFFF714
:100EB00010FB8246FFF70AFC0190764890F85A0032
:100EC000C0F3C01000B3774800784006000E7549A3
:100ED0000870704988680199FFF714FC06D87148BA
:100EE000007840F001006F49087005E06D48007817
:100EF00000F0FE006B4908706A480078FF2803D1B3
:100F00000820FFF7FFFD02906248B0F85A00C0F3D6
:100F1000002000B3644800784006000E6249087063
:100F20005C49C8680199FFF7EDFB06D85E48007878
:100F300040F001005C49087005E05B48007800F073
:100F4000FE005949087058480078FF2803D109204D
:100F5000FFF7D8FD02904F48B0F85A00C0F3402088
:100F600000B3524800784006000E504908704949C5
:100F700008690199FFF7C6FB06D84C48007840F095
:100F800001004A49087005E04848007800F0FE007A
:100F90004649087045480078FF2803D10A20FFF72A
:100FA000B1FD02903B48B0F85A00C0F3802000B376
:100FB0003F4800784006000E3D49087035494869B1
:100FC0000199FFF79FFB06D83948007840F00100EF
:100FD0003749087005E03648007800F0FE003449D3
:100FE000087033480078FF2803D10B20FFF78AFDF3
:100FF00002902848B0F85A00C0F3C02000B32D4832
:1010000000784006000E2B49087022498869019932
:10101000FFF778FB06D82748007840F00100254903
:10102000087005E02348007800F0FE0021490870B0
:1010300020480078FF2803D10C20FFF763FD0290C1
:101040001448B0F85A00C0F3003000B31A480078D2
:101050004006000E184908700E49C8690199FFF74B
:1010600051FB06D81448007840F00100124908707E
:1010700005E01148007800F0FE000F4908700E48A6
:101080000078FF2803D10D20FFF73CFD0290029865
:10109000BDE8FE8FDC030020000024409A99999956
:1010A0009999F13F3E0100203F01002040010020BE
:1010B00041010020420100204301002000F0805146
:1010C00011B10349086001E002494860704700001F
:1010D000040402400000024000F0805111B10349B5
:1010E000086001E0024948607047000004040240C3
:1010F0000000024021B1026842F00102026004E0F7
:1011000002684FF6FE731A400260704701684FF69E
:10111000FE72114001600021016041608160C16088
:101120004B49884208D14A490839496841F00F01C2
:10113000474A083A51608AE045491431884208D14B
:1011400043490839496841F0F001414A083A516081
:101150007DE03F492831884208D13D490839496836
:1011600041F470613A4A083A516070E038493C31C4
:10117000884208D136490839496841F47041344AF7
:10118000083A516063E032495031884208D1304911
:101190000839496841F470212D4A083A516056E0F7
:1011A0002B496431884208D129490839496841F4FA
:1011B0007001274A083A516049E025497831884250
:1011C00008D123490839496841F07061204A083A3A
:1011D00051603CE01F49884206D1011F096841F077
:1011E0000F01021F116032E01A491431884208D100
:1011F0001849091F096841F0F001164A121F1160D1
:1012000025E014492831884208D11249091F09688C
:1012100041F470610F4A121F116018E00D493C3112
:10122000884208D10B49091F096841F47041094AF5
:10123000121F11600BE007495031884207D1054960
:10124000091F096841F47021024A121F116070479A
:1012500008000240080402400146486880B2704716
:1012600001460020002201F0805313B1054B1A689B
:1012700001E0054B1A6802EA01030BB1012000E00E
:101280000020704700040240000002401AB10368C9
:101290000B43036002E003688B430360704710B5A3
:1012A0000022026847F6F0739A430C6A8B68234366
:1012B0000C6923434C6923438C692343CC69234342
:1012C0004C6A23438C6A23431A430260CB68436011
:1012D0000B6883604B68C36010BD000010B500212F
:1012E0001048FFF707FF10480E4944390865807918
:1012F0000830886401210B48FFF7FCFE00BF4FF463
:101300000050FFF7ADFF0028F9D04FF40050FFF771
:10131000D5FE4FF48050FFF7DFFE00210148FFF7B4
:10132000E9FE10BD440002400400002070470000A8
:1013300010B5042000F098F868B10748006801284B
:1013400003D100200549086002E00120034908603C
:10135000042000F083F810BD08012142B48121422D
:1013600010B5082000F080F8B8B10C4890F85C0087
:1013700080B900200A4908600A49C1F8A8010A4951
:1013800008800120094908700122114606482438C6
:1013900002F06FFA082000F061F810BDDC030020B5
:1013A000AC01214200002242240400402A01002016
:1013B00010B5102000F058F8002832D0194890F8E5
:1013C0005C0058BB1848006820F47040164908605B
:1013D0000846006840F44050086014480078A8B9F6
:1013E000012013490870134908600E48007830B195
:1013F0001048A438006810B101200F49086001208E
:101400000E49086000200E49087002E000200949DA
:101410000860002201210B4802F02BFA102000F096
:101420001DF810BDDC030020040801402C01002041
:1014300000000020AC012142B4812142A8012242D7
:101440002A0100200004004010B5202000F00CF814
:1014500010B1202000F002F810BD00000149086022
:101460007047000014040140014600200022074B91
:101470001B6803EA0102054B14331B680B4013B1D0
:101480000AB1012000E00020704700000004014084
:10149000002123498279002A3AD00A46126803685B
:1014A0009A430B461A600A1D126803689A430B1D83
:1014B0001A60027911440A6803681A430A60184ADC
:1014C0000832126803689A43154B08331A601A1DD4
:1014D000126803689A43124B0C331A604279102A3F
:1014E0000ED11A1F126803681A430D4B08331A6095
:1014F0001A1D126803681A43094B0C331A600DE079
:101500000749427911440A6803681A430A6005E0F2
:10151000027911440A6803689A430A607047000020
:101520000004014010B51F480078012839D11E4839
:1015300090F86F00012824D11B484078642803DB11
:1015400064201949887003E017484078164988706C
:101550001548807805280CDD134880780A2803DABE
:101560000A201149C87007E00F4880780E49C870FA
:1015700002E000200C49C8700B49C87801F0E0FE79
:101580000FE009484078642803DB6420064988702E
:1015900003E005484078044988700349887801F0E1
:1015A000CFFE10BD00000020DC03002030B5044653
:1015B00004254FF4302000F06FF80546042D17D1B4
:1015C0000C48006940F002000A490861084644617D
:1015D000006940F0400008614FF4302000F05CF8F2
:1015E00005460448006941F6FD710840014908615B
:1015F000284630BD0020024004200B49C96801F094
:10160000010109B101200EE00749C96801F0040198
:1016100009B1022007E00449C96801F0100109B1CD
:10162000032000E0042070470020024003480069C6
:1016300040F080000149086170470000002002402E
:1016400070B504460D460426F00200F025F8064663
:10165000042E11D10948006940F0010007490861D2
:101660002580F00200F018F806460448006941F6AB
:10167000FE71084001490861304670BD00200240FB
:1016800002480349486003484860704723016745A2
:1016900000200240AB89EFCD00B502460423FFF7DE
:1016A000ABFF034603E0FFF7A7FF0346521E012BE3
:1016B00001D1002AF7D102B90523184600BD000068
:1016C00030B589B0474801F0C7FA04464648B0F83B
:1016D0004E0000128DF80400434890F84E008DF83B
:1016E00005004148B0F8500000128DF806003E4851
:1016F00090F850008DF807003B48B0F852000012F7
:101700008DF80800384890F852008DF809003648E6
:10171000B0F8540000128DF80A00334890F85400D5
:101720008DF80B003048B0F8560000128DF80C0010
:101730002D4890F856008DF80D002B48B0F8580051
:1017400000128DF80E00284890F858008DF80F0010
:101750002548B0F85A0042F20401884300128DF87F
:101760001000214890F85A0004218843C0B28DF837
:1017700011001D4890F866008DF812001A4890F884
:1017800067008DF81300184890F868008DF8140071
:10179000154890F869008DF815001348B0F86A00F4
:1017A00000128DF81600104890F86A008DF81700A6
:1017B000142101A803F006FB85B2A5420FD010202A
:1017C00001F03CFBFFF726FA0120084908600122DE
:1017D0001146074802F04DF810200649087009B07C
:1017E00030BD00004C800108DC0300209C01224237
:1017F000000C00402C01002010B588B03E48B0F825
:101800004E0000128DF800003B4890F84E008DF815
:1018100001003948B0F8500000128DF80200364837
:1018200090F850008DF803003348B0F852000012D1
:101830008DF80400304890F852008DF805002E48CD
:10184000B0F8540000128DF806002B4890F85400B0
:101850008DF807002848B0F8560000128DF80800EF
:10186000254890F856008DF809002348B0F8580034
:1018700000128DF80A00204890F858008DF80B00EF
:101880001D48B0F85A0042F20401884300128DF856
:101890000C00194890F85A0004218843C0B28DF812
:1018A0000D00154890F866008DF80E00124890F86B
:1018B00067008DF80F00104890F868008DF8100050
:1018C0000D4890F869008DF811000B48B0F86A00D7
:1018D00000128DF81200084890F86A008DF8130085
:1018E0001421684603F06EFA84B22146034802F0E0
:1018F00065FB08B010BD0000DC0300204C8001082F
:1019000010B500241F480088B0F5C87F33DD0020E3
:101910001C4908801C48B0F85A00C0F3403048B356
:101920001A4800884FF6FF7101EA40001749088005
:1019300017480068012823D103F0A8FA144800686A
:10194000012806D11148008840F001000F490880A5
:1019500006E00E4800884FF6FE7108400B490880EB
:101960000A4800884FF6FF71884209D10E20FFF720
:10197000C9F8044604E003480088401C0149088077
:10198000204610BD36010020DC0300203801002075
:101990002401224230B500228B071C0F0F2303FACB
:1019A00004F20B4B8C1053F824309343084C8D10E9
:1019B00044F8253023468C1053F824308C07240F2C
:1019C00000FA04F42343024C8D1044F8253030BD56
:1019D000080001402DE9F0410246002500260020C4
:1019E00000230024002791F803C00CF00F0591F8A4
:1019F00003C00CF0100CBCF1000F03D091F802C032
:101A00004CEA050591F800C0BCF1000F31D0146814
:101A100000202BE04FF0010C0CFA00F3B1F800C0ED
:101A20000CEA03069E4220D183004FF00F0C0CFA03
:101A300003F7BC4305FA03FC4CEA040491F803C025
:101A4000BCF1280F06D14FF0010C0CFA00FCC2F8D3
:101A500014C00AE091F803C0BCF1480F05D14FF063
:101A6000010C0CFA00FCC2F810C0401C0828D1D3AD
:101A70001460B1F800C0BCF1FF0F34DD54680020E1
:101A80002EE000F1080C4FF0010808FA0CF3B1F851
:101A900000C00CEA03069E4221D183004FF00F0CD8
:101AA0000CFA03F7BC4305FA03FC4CEA040491F872
:101AB00003C0BCF1280F05D100F1080C08FA0CF89E
:101AC000C2F8148091F803C0BCF1480F07D100F1AF
:101AD000080C4FF0010808FA0CF8C2F81080401CFE
:101AE0000828CED35460BDE8F0810000F0B50A4666
:101AF000002300240021002500F00046B6F1004F2D
:101B000002D11D4EF16901E01B4E7168C0F303451F
:101B100083B200F44016B6F5401F08D121F0706181
:101B2000154E766826F07066134F7E6012E000F462
:101B30008016B6F5801F06D1032606FA05F4A143E8
:101B400041F0706106E0460D360103FA06F6B14336
:101B500041F0706122B1460D360103FA06F63143B9
:101B600000F00046B6F1004F02D1034EF16101E0F2
:101B7000014E7160F0BD00000000014010B500F0A2
:101B80001DF800F003F8FFF7CDFC10BD70B5084D4F
:101B9000002406E00749085D00F09CFA01C5601CBE
:101BA000C4B2054800788442F4DBFFF775F870BDD5
:101BB000E4030020C60F0020640100202DE9F04F4F
:101BC00087B04FF0000900BF002405E0764800EB25
:101BD000041000888144641C142CF7D31420B9FB32
:101BE000F0FA5046FEF7F5FC07464FF066326F4BB1
:101BF000FEF7FDFB054600226D4BFEF76AFC002256
:101C00006C4BCDE90001FEF7F2FB6B4A6B4BCDE963
:101C10000201FEF75EFCCDE90401FEF7FBFC68491A
:101C200048704FF00009002405E05F4800EB041005
:101C3000C0888144641C142CF7D31420B9FBF0F045
:101C40000490FEF7C6FC07464FF06632574BFEF78E
:101C5000CEFB05460022564BFEF73BFC8246FEF7C4
:101C600035FD059003F05CFE554908714FF0000901
:101C7000002405E04C4800EB041000898144641CFA
:101C8000142CF7D31420B9FBF0FB5846FEF7A1FC47
:101C900005464FF06632454BFEF7A9FB074600228A
:101CA000434BFEF716FCCDE90401FEF70FFD82461B
:101CB00003F036FE424948714FF00009002405E068
:101CC000394800EB041040898144641C142CF7D37C
:101CD0001420B9FBF0F00490FEF77BFC05464FF0B2
:101CE0006632324BFEF783FB07460022304BFEF78D
:101CF000F0FB8246FEF7EAFC059003F011FE304946
:101D000088714FF00009002405E0274800EB04101B
:101D100080898144641C142CF7D31420B9FBF0FB98
:101D20005846FEF756FC05464FF066321F4BFEF74D
:101D30005EFB00221E4BCDE90401FEF7CAFB0746FD
:101D4000FEF7C4FC824603F0EBFD1D49C8714FF05D
:101D50000009002405E0144800EB0410C089814408
:101D6000641C962CF7D39620B9FBF0FA5046FEF788
:101D700030FC07464FF066320C4BFEF738FB002272
:101D80000B4BCDE90401FEF7A4FB0546FEF79EFCD4
:101D90000B4988640B480078012802D10846407836
:101DA000887007B0BDE8F08F5805002066660A40CD
:101DB0000000B04000005A409A99999999990140C1
:101DC000DC0300200000002000BFFEE710B500206B
:101DD0000949086000F086FF00200849C1F89C010D
:101DE00000F00EF801200449086000F009F8002016
:101DF0000249C1F8980110BD98812142008021421A
:101E000000BF00BF00BF00BF00BF704710B500207B
:101E10000949086000F066FF01200849C1F89C01EB
:101E2000FFF7EEFF012004490860FFF7E9FF0020FB
:101E30000249C1F8980110BD9881214200802142D9
:101E400070B50546002400F03DFF002614E0002098
:101E50000E490860FFF7D4FF01200D49C1F8980131
:101E60006006040E09487C38006808B1601CC4B2E2
:101E7000FFF7C6FF701CC6B2082EE8DB15B9FFF7E6
:101E8000C5FF01E0FFF7A2FF204670BD9881214207
:101E90000080214270B5044600F024FF00200E4966
:101EA0000860002514E0E0090B49091D0860600680
:101EB000040EFFF7A5FF01200849C1F89801FFF7BC
:101EC0009FFF002004490860FFF79AFF681CC5B215
:101ED000082DE8DB70BD000098812142008021427E
:101EE00010B500F0FFFE0120084908600849C1F85C
:101EF0009801FFF785FF002004490860FFF780FF85
:101F000000200349C1F8980110BD00009C812142C6
:101F10000080214210B500F0E5FE0020074908606E
:101F20000749C1F89C01FFF76BFF012003490860D6
:101F30000349C1F89C01FFF763FF10BD988121425E
:101F40000080214210B5002400F0BCFE01200E49A3
:101F50000860FFF755FF01200C49C1F89801FFF711
:101F60004FFF07E0601CC4B2FA2C03DDFFF7D2FF7D
:101F7000012010BD0448803800680028F2D10249D1
:101F8000091F086000BFF4E79C81214200802142C4
:101F900038B54FF400650121082000F023FBC02074
:101FA000ADF8000014208DF8030003208DF8020026
:101FB00069462048FFF70EFD01201F4908601F49B0
:101FC000C1F89C01002414E01D49085D002100F0C7
:101FD0003DF84FF6FF71884209D01948015D194854
:101FE00002780078401C174B187017488154601C09
:101FF000C4B2102CE8DB13480078062802DB062068
:102000001049087000240FE00F49085D43F6F712ED
:10201000002100F041F80C49085D4FF400620521F1
:1020200000F03AF8601CC4B2064800788442EBDB4A
:1020300038BD0000000C01409881214200802142FF
:102040005401002064010020C60F002070B5044632
:102050000D460026FFF744FF04F0FE00FFF71AFFCD
:10206000FFF770FF2846FFF715FFFFF76BFFFFF73D
:1020700037FF44F00100FFF70DFFFFF763FF01207A
:10208000FFF7DEFE06460020FFF7DAFE40EA0626EE
:10209000FFF740FF304670BD70B505460E4614464A
:1020A000FFF71EFF05F0FE00FFF7F4FEFFF74AFF03
:1020B0003046FFF7EFFEFFF745FF200AFFF7EAFE85
:1020C000FFF740FFE0B2FFF7E5FEFFF73BFFFFF74A
:1020D00021FF70BD2DE9FC5F834604215846FFF7C0
:1020E000B5FF82460AF4004008B1CAF30E0A504612
:1020F000FEF76FFA0A4A0B4BCDE90001FEF777F9BC
:1021000080460022084BFEF772F906460022074B74
:10211000FEF7DFF90446FEF7D9FABDE8FC9F0000A0
:10212000FCA9F1D24D62603F00002A4000002C4023
:102130000146CA1701EB92729210A1EB820292B98A
:10214000642091FBF0F200FB121050B94FF4C870FC
:1021500091FBF0F200FB121008B90120704700203B
:10216000FCE70120FAE70020F8E700BFFEE7704730
:1021700070B5002100230F22C47804B3154C2468E5
:1021800004F4E064C4F5E064210AC1F10403CA4028
:10219000447804FA03F184781440214309010E4C79
:1021A0000678A155047804F01F050124AC40057899
:1021B0006D11AD0005F1E025C5F8004109E0047896
:1021C00004F01F050124AC40044D0678761145F853
:1021D000264070BD0CED00E000E400E080E100E08E
:1021E00002490143024A1160704700000000FA05ED
:1021F0000CED00E070B50024604890F85A00C0F380
:102200004000002841D05E48007800283CD15B485F
:102210008078052838DD59498868FEF714FA0546A4
:102220004FF03332574BFEF739FA2DD2564800881B
:102230004FF6FF7101EA4000534908804F49886C0E
:10224000FEF701FA05460022504BFEF727FA0AD89E
:102250004F480068012806D14B48008840F0010033
:102260004949088006E0484800884FF6FE7108405A
:1022700045490880444800884FF6FF7188427AD16A
:102280000220FEF73FFC044675E03C4890F85A00F7
:10229000C0F34000D8B33A480078C0BB37488078D4
:1022A000052834DD35498868FEF7CDF905464FF03D
:1022B0003332344BFEF7F2F929D2334800884FF617
:1022C000FF7101EA4000304908802C49886CFEF714
:1022D000BAF9054600222D4BFEF7E0F906D82A4848
:1022E000008840F001002849088006E02648008860
:1022F0004FF6FE71084024490880234800884FF6B5
:10230000FF71884203D10220FEF7FCFB04461B4804
:1023100090F85A0000F0010068B31948007850BBEB
:1023200016488078052826DD14498868FEF78BF961
:1023300005464FF03332134BFEF7B0F91BD2144869
:102340000068012806D11348008840F001001149B7
:10235000088006E00F4800884FF6FE7108400D49DE
:1023600008800C4800884FF6FF71884203D1012095
:10237000FEF7C8FB0446204670BD0000DC030020C9
:102380002A0100203333E33F3201002000000A40DD
:10239000048121423001002010B54FF48030FFF756
:1023A0005DF80B480068401C0949086072B60121BD
:1023B0004FF0C05000F006F9012000F00BF804487F
:1023C00001782820FEF728FDFEF7E8FB10BD00008D
:1023D000AC030020014908627047000000000E4273
:1023E000464908700978F72901D1012100E0002150
:1023F000434A12780AB9012200E00022114011B1CB
:1024000001213F4A11703E490978082972D2DFE85C
:1024100001F071040E253C444C64F721394A1170D7
:102420000021394A11700221354A117063E03549A3
:102430008978324A127842EA0121324A518032497F
:102440000978491C304A117011460978022904D1D3
:102450000021117003212A4A11704CE029490979A1
:10246000264A127842EA0121264A918026490978B3
:10247000491C254A117011460978022904D100210E
:10248000117004211E4A117035E01C4909781D4A5B
:10249000917105211A4A11702DE018490978194ADD
:1024A000D1710621164A117025E014490A781549A0
:1024B0000831154B1B78CA5413490978491C124A34
:1024C00011701049C9791278914205D100210E4A44
:1024D000117007210A4A11700DE008490978094A6C
:1024E00082F807110021064A11700121074A117074
:1024F00001E0FFE700BF00BF704700000B010020B4
:1025000008010020500400200C01002001000020E0
:102510007047000010B5002418480078182825DD01
:10252000002016490870164890F85A00C0F3800041
:1025300008B314480068A8B9012002F0A7FC1148AC
:102540000068C0B910480078401C0F490870084660
:10255000007832280FDD002008700320FEF7D2FA41
:10256000044608E000200849087004E003480078A9
:10257000401C02490870204610BD000034010020B4
:10258000DC0300203081214235010020014600207B
:10259000034A506820F440400843506070470000F0
:1025A0000010024029B1064A52690243044B5A61A5
:1025B00004E0034A52698243014B5A6170470000AC
:1025C0000010024029B1064AD2690243044BDA6185
:1025D00004E0034AD2698243014BDA61704700008C
:1025E0000010024029B1064A92690243044B9A61E5
:1025F00004E0034A92698243014B9A6170470000EC
:102600000010024029B1064AD2680243044BDA6046
:1026100004E0034AD2688243014BDA60704700004D
:102620000010024001490860704700004004424227
:1026300030B500210022002400232D4D6D6805F0E7
:102640000C0121B1042905D0082923D105E0294D29
:10265000056022E0274D05601FE0254D6D6805F4FB
:102660007012234D6D6805F48034022505EB92420B
:102670001CB9214D554305600BE01D4D6D6805F4F7
:1026800000351DB11C4D5543056002E0194D554301
:10269000056002E0174D056000BF00BF144D6D6876
:1026A00005F0F0010909154D6B5C0568DD404560DA
:1026B0000F4D6D6805F4E061090A104D6B5C4568CB
:1026C000DD4085600A4D6D6805F46051C90A0B4D07
:1026D0006B5C4568DD40C560054D6D6805F44041A3
:1026E000890B074D6B5CC568B5FBF3F5056130BD23
:1026F0000010024000127A0000093D00C4030020CF
:10270000D403002010B501460022002300204A1106
:10271000012A02D1094C236806E0022A02D1074CA3
:10272000236A01E0054C636A01F01F020124944012
:102730001C400CB1012000E0002010BD0010024040
:1027400000210B4A11700A4A203A82F82010012811
:1027500002D0042808D103E00121054A117004E0E9
:102760000521034A117000E000BF00BF7047000060
:102770002010024001490860704700003C044242BA
:102780000249096A0143014A116270470010024080
:10279000024909888143014A11807047042800409A
:1027A0000348008840F0100001490880704700008D
:1027B00004280040034800884FF6EF7108400149A3
:1027C00008807047042800402DE9F04100260024CD
:1027D000002500F07DF8064607463948B6FBF0F4C0
:1027E00038480088A0423CD036490C8040F2B2758F
:1027F00010E02846FFF79CFC40B1B4F5B77F02D348
:10280000A4F5B77404E0681C85B206E0A4F26D1468
:10281000681C85B2B4F5B67FEBD800BF2A480580A6
:10282000002516E028490888FFF782FC30B1012D09
:1028300004D11D2C01D31D3C09E00CE02348405D70
:10284000A04203D82148405D241A00E003E0681C40
:1028500085B21C2CE6D200BF681C1B494880601C56
:1028600088801748B6FBF0F100FB11644FF46160FB
:10287000B4FBF0F01449C8804FF46160B4FBF0F190
:1028800000FB11403C21B0FBF1F00F4908814FF4EF
:102890006160B4FBF0F100FB11403C21B0FBF1F2B0
:1028A00001FB1200084948810B461A79997818886B
:1028B00000F02AF8044988813846BDE8F08100001C
:1028C0008051010010010020B80F0020205E000898
:1028D000002103480188001F008841EA004070473A
:1028E0001C28004001460020064A12880A40D0B247
:1028F000044A121F12880A4012B108B1012000E0F8
:102900000020704704280040F0B503460C461546E9
:10291000642093FBF0F0C6B2642093FBF0F700FB59
:102920001730C1B2132E02DD01F16400C1B20846B6
:10293000CF1701EB977701EBA707BAB2072092FBFD
:10294000F0F700FB172082B25719601EDFF82CC089
:102950001CF80000384482B2CF1701EB9777BF1004
:10296000A1EB87071FB9032C01DA501E82B20720A2
:1029700092FBF0F700FB1720C0B2F0BD145E000818
:1029800010B50220FFF7AEFF50B10220FFF700FFA5
:1029900000F022F902F07CFE0021022000F006F88F
:1029A0000720FFF7F5FE00F017F910BD29B1064A20
:1029B00012880243044B1A8004E0034A12888243BF
:1029C000014B1A807047000000280040FEB500242B
:1029D00001214FF0C050FFF7F5FD0120FFF7FAFC91
:1029E0000420FEF70BFA45F2AA5188424BD0FEF7BD
:1029F000FDF90120FFF7A4FE04E0601CC4B20A2028
:102A000002F01EFA4120FFF77DFE0028F5D0FA2CD7
:102A100001DB0120FEBD4FF48070FFF7B1FE012005
:102A2000FFF7A8FE00F0D8F800F0E0F80021012040
:102A3000FFF7BCFF00210220FFF7B8FF00F0CCF841
:102A4000FFF7AEFE47F6FF7000F0B6F800F0C4F8EE
:102A50001648807A1549097A144ECDE90010B379E9
:102A60003279B178308800F025F8FFF7A3FEFFF740
:102A70002FFF05460E48284400F082F845F2AA517F
:102A80000420FEF7C9F903208DF8080000208DF816
:102A900009008DF80A0001208DF80B0002A8FFF74D
:102AA00067FBFFF791FE0020B4E70000085E000816
:102AB00000A776002DE9F05F06460F46904699463E
:102AC000DDE90AAB002440F2B270864203DB40F637
:102AD0003300864202DD0120BDE8F09F40F2B2756E
:102AE0000AE02846FFF724FB10B12148044401E026
:102AF00020480444681C85B2B542F2DB002510E092
:102B00001D48405D40F2A321484304EBC014304609
:102B1000FFF70EFB18B1012D01D118480444681CC1
:102B200085B2781EA842EBDCA8F1010040F2A32197
:102B3000484304EBC014C9EB4910C0EB092004EB77
:102B40000014CAEB0A1004EB80045C4401214FF02E
:102B5000C050FFF737FD0120FFF73CFC204600F096
:102B60001DF800F039F8FFF72FFE0020B4E7000051
:102B70000085E2018033E101205E00088051010000
:102B800000B50246FFF70CFE100C03490880091D32
:102B90000A80FFF70FFE00BD2028004000B5024666
:102BA000FFF7FEFD100C03490880091D0A80FFF79E
:102BB00001FE00BD1828004000B50246FFF7F0FDF9
:102BC000C2F3034003490880091D0A80FFF7F2FDA4
:102BD00000BD00000828004000BF0348008800F046
:102BE00020000028F9D070470428004007480088DA
:102BF0004FF6F77108400549088000BF0348008878
:102C000000F008000028F9D07047000004280040B8
:102C100070B5054600260F4800F01EF804B2142CCB
:102C200014DC601B401E04B2002C02DA04F1140014
:102C300004B2002C0BDB142C09DA0649891C0C2287
:102C400002FB041000F008F8C6B200E0002630468F
:102C500070BD00000000020818B504460122694654
:102C6000204600F04FF8BDF8000018BD10B5022056
:102C7000084988710A20C8710020087208468079C6
:102C8000C01DC1B2034802F0ADF902494872FEF717
:102C900025FB10BD0400002010B5022008498871F2
:102CA0000A20C8710120087208468079C01DC1B28F
:102CB000034802F097F902494872FEF70FFB10BD76
:102CC0000400002010B58020044908804820C87006
:102CD000032088700248FEF77DFE10BD50010020E1
:102CE000000C014010B58020044908801420C870F1
:102CF000032088700248FEF76DFE10BD50010020D1
:102D0000000C014030B503460C461546002207E092
:102D1000184600F008F824F812009B1C501C82B2E0
:102D2000AA42F5DB30BD0146088870472DE9F05F07
:102D300080468A461746B8F1006F02D33348804573
:102D400001D3BDE8F09FFEF79BFCA8F1006B4FEAB2
:102D5000DB25CBF34909C9F58064A74200DC3C467A
:102D60004DE04FF0006101EBC5204A142849FFF700
:102D7000C9FF00260BE009EB0600254931F81000D9
:102D80004FF6FF71884200D003E0701C86B2A64265
:102D9000F1DB00BFA6421BDA4FF0006101EBC5205A
:102DA000FEF704FC002608E03AF8160006EB0901DD
:102DB000174A22F81100701C86B2A642F4DB4FF0CD
:102DC000006101EBC5204A14114900F023F804E02A
:102DD00022465146404600F01DF8A74200D10FE0C0
:102DE0006D1C4FF000090AEB440AA044381B87B25F
:102DF000B7F5806F02DD4FF4806400E03C46B0E739
:102E000000BFFEF713FC00BF9BE7000000000408B2
:102E1000361600202DE9F04105460E4617460024DF
:102E200007E036F814102846FEF70AFCAD1C601CBB
:102E300084B2BC42F5DBBDE8F081704710B50446B2
:102E40000320094988710120C871042008720846CE
:102E500044728079C01DC1B2034802F0C3F8024930
:102E60008872FEF73BFA10BD0400002000B58DB05B
:102E7000182201A93748FFF745FF1D203649887100
:102E80000120C87105200872BDF804004872BDF821
:102E9000060000128872BDF80600C872BDF808006E
:102EA0000873BDF80A004873BDF80C008873BDF8BC
:102EB0000E00C873BDF810000874BDF81200487405
:102EC000BDF814008874BDF816000012C8749DF88F
:102ED000160008759DF8180048759DF81A00887549
:102EE0009DF81C00C8759DF81E00087601A8007F9B
:102EF000487601A8807F8876BDF82400C876BDF8A2
:102F00002600001208779DF8260048779DF82800D3
:102F100088779DF82A00C8779DF82C0081F820005A
:102F20009DF82E0081F821009DF8300081F82200E4
:102F30009DF8320081F8230008468079C01DC1B297
:102F4000054802F04FF8044981F82400FEF7C6F95D
:102F50000DB000BD1280010804000020FEB505463A
:102F6000142D59DA3E48FFF777FE0446601984B203
:102F7000132C02DDA4F1140084B2142C6FDA38494A
:102F8000891C0C2202FB041005226946FFF7BAFED9
:102F90000720344988710120C87107200872BDF8E4
:102FA00000004872BDF80200A0F5FA608872BDF812
:102FB0000400C872BDF806000873BDF80800487325
:102FC00008468079C01DC1B2264802F00BF8254999
:102FD00088730846807A642801DA012000E0002026
:102FE0002049C97A0C2901DC012100E000210840B8
:102FF0001C49097B1F2901DC012100E00021084058
:103000001849497B182901DC012100E00021084012
:1030100008B1FEF763F922E01348FFF71DFE0646EC
:103020001148801CFFF718FE074607200D498871DC
:103030000120C87107200872002048723812887277
:10304000CF72301208734E7308468079C01DC1B22A
:10305000044801F0C7FF03498873FEF73FF9FEBD3E
:1030600000000208040000200010020870B5FFF7FD
:10307000ABFBFFF7BBFD734800782E2101EB40004E
:10308000714988710120C871062008726F4890F854
:103090004E0048726D4890F8500088726B4890F866
:1030A0005200C872694890F854000873674890F855
:1030B00056004873654890F8580088736348B0F824
:1030C0005A502812C8730D74604890F85C00487418
:1030D0005E4890F85E0088745C4890F85D00C874A3
:1030E0005A48B0F8600000120875584890F860001F
:1030F0004875564890F862008875544890F8630007
:10310000C875524890F864000876504890F86500F9
:1031100048764F480088001288764D480078C87677
:103120004B48807808774A48007948774848807942
:1031300088774748007AC8774548807A81F8200028
:103140004248807881F821004048007981F82200C7
:103150003E48407981F823003C48807981F824007A
:103160003A48C07981F825003648007881F8260071
:10317000364890F8660081F82700344890F86700D8
:1031800081F82800314890F8680081F829002F481C
:1031900090F8690081F82A002C48B0F86A00000A0B
:1031A00081F82B00294890F86A0081F82C00274804
:1031B00090F86E0081F82D002448B0F86C00000AE9
:1031C00081F82E00214890F86C0081F82F00002033
:1031D00081F8300081F8310081F832001B48B0F8E6
:1031E0005600000A81F833001848B0F85800000A69
:1031F00081F8340000240FE0164830F81400010A6A
:1032000004F13500104A1154124810F8141004F15A
:1032100036001154601CC4B20A4800788442EBDBCB
:1032200009488079C01DC1B2074801F0DBFE05499D
:103230000978352202EB4101034A5054FEF74EF85B
:1032400070BD00006401002004000020DC030020A9
:10325000B80F0020D60F002010B500F001F810BD07
:103260000CB50020019000903348006840F4803095
:103270003149086000BF3048006800F40030009019
:103280000198401C0190009818B90198B0F5A06F02
:10329000F1D12948006800F4003010B101200090FD
:1032A00001E0002000900098012843D123480068E5
:1032B00040F01000214908600846006820F0030033
:1032C00008600846006840F0020008601A4840683C
:1032D000194948600846406848600846406840F41C
:1032E000806048600846406820F47C1048600846CA
:1032F000406840F4E81048600846006840F080707C
:10330000086000BF0C48006800F000700028F9D089
:103310000948406820F003000749486008464068B3
:1033200040F00200486000BF0348406800F00C0015
:103330000828F9D10CBD0000001002400020024016
:103340002DE9F14F92B04249B1F85800FDF741F92B
:10335000074600223F4BFDF7BCF80546FDF7B6F9DE
:1033600010904FF0000949461098FCF761FF824623
:10337000FDF769F90746384A384BFDF738F8054636
:103380000022374BFDF7A5F8CDE90A014846FDF7C5
:103390005AF982468B461298FDF71BF90746884674
:1033A00049461098FCF744FF0190FDF74CF905469B
:1033B00000222C4BFDF78DF83A464346CDE9020139
:1033C000FDF715F852465B46CDE90401FCF768FFAE
:1033D000214A254BCDE90601FDF709F8CDE90801A1
:1033E000DDE90A23FCF75CFF0022204BCDE90C014C
:1033F000FCF7FDFFCDE90E01FDF768F904461C4915
:103400002046FCF71BFF8346FDF7F0F81FFA80FA11
:103410005046FDF7DEF807460022124BFDF759F83B
:103420000546FDF753F904462046FDF70CF907461B
:10343000104A114BFCF7DBFF0546FDF747F9044640
:103440002146012000F0F6FA13B0BDE8F08F00002D
:10345000DC030020000024407B14AE47E17A743F77
:103460000000344000005940E17A943F0000FE3FE4
:103470000000C842C3F5285C8FC2F13F70B5044616
:103480000D4600210E4800F03BFA00200C49243183
:1034900008800C48B0FBF4F0401E09492C3108802C
:1034A0000848B0FBF4F068436421B0FBF1F0044934
:1034B000403108800821024800F022FA70BD000067
:1034C000002C01404019010010B500240748006895
:1034D000012809D101F0DAFC04480068012803D171
:1034E0000F20FDF70FFB0446204610BD20012242AD
:1034F000042808D14FF0E021096941F004014FF0A0
:10350000E022116107E04FF0E021096921F0040198
:103510004FF0E022116170477047000010B513486A
:10352000006840F0010011490860084640681049F1
:1035300008400E494860084600680E4908400B499B
:1035400008600846006820F480200860084640684B
:1035500020F4FE0048604FF41F008860FFF77CFEF7
:103560004FF000600449086010BD000000100240E8
:103570000000FFF8FFFFF6FE08ED00E010B50121A6
:10358000880700F065F9002858D02D4890F85C00B5
:1035900040B9FEF7F3FA2B48007818B9FDF74CFC58
:1035A0002849087028480078642817D125480078F1
:1035B000A0B12648007888B900202349087001206E
:1035C0002349086001221146224800F052F922489E
:1035D0000078FFF733FC01201C4908701A48017875
:1035E0000078401C184A1070962921D100201146FD
:1035F00008701A480078152809DA18480078FFF78B
:10360000ADFC16480078401C1449087012E01448BC
:10361000007808B9FFF72AFD11480078401C1049CE
:10362000087008460078032804DB0020087001E0D9
:1036300000F0D4FD0121880700F0ECF810BD000077
:10364000DC03002046010020470100204501002046
:103650009C012242000C00402C01002009010020A6
:103660004401002010B501212A4800F0F1F800289B
:103670004ED000202849887028490860FFF760FE76
:1036800000202749C1F8A8012348007830B1234819
:10369000A438006810B100202249086000202249A7
:1036A00008702248006820F47040204908600846ED
:1036B000006840F4304008601A48A83800680128C3
:1036C0001DD10846006820F4704008600846006874
:1036D00040F4405008600120134908700E480078FB
:1036E00030B10E48A438006810B101200D490860BF
:1036F00000200F49086001200E49C1F8AC010022EA
:103700000121044800F0B5F80121024800F082F8D8
:1037100010BD000000040040DC030020AC01214289
:1037200000002242B4812142000000200408014030
:10373000A80122420000214210B50121274800F0D3
:1037400087F8002849D0264890F85C00E8B1254861
:103750000078401C2349087008460078022838DBAE
:10376000002008702048006808B9012000E000200F
:103770001D4908601D48D0F8B00108B9012000E0DB
:10378000002019491431086023E019480078401CD2
:103790001749087008460078052809DB00200870E2
:1037A0001148006808B9012000E000200E490860B7
:1037B0001048007828280CDA0E480078401C0D4983
:1037C000087008460078192803D10B48007800F0EB
:1037D000BDFB0121014800F01DF810BD000C0040A8
:1037E000DC0300204A0100209C012242000022420A
:1037F00049010020480100202C01002021B102884D
:1038000042F08002028004E002884FF67F731A4083
:1038100002807047CA430282704721B1028842F099
:103820000102028004E002884FF6FE731A40028013
:10383000704731B1B0F8442042F40042A0F844206F
:1038400005E0B0F84420C2F30E02A0F8442070470F
:1038500030B50246002000230024158A05EA010342
:10386000958905EA010413B10CB1012000E00020A4
:1038700030BD1AB183890B43838102E083898B4376
:103880008381704770B5002200230024058C4EF61A
:10389000FF7635400584038C8488828B48F6FF755B
:1038A0002A404FF6FF452A400D884FF6FF7606EA7C
:1038B00005252A434DF6FF752B400D8906EA05358F
:1038C0002B434D8806EA05352B430B4DA84202D009
:1038D0000A4DA84208D14BF6FF752C408D894FF652
:1038E000FF7606EA85152C4384808283CD88A0F874
:1038F0004050038470BD0000002C014000340140A2
:103900000A460021818B4FF2FF7319404FF6FF7377
:1039100003EA0223194381837047000000220288D2
:103920001D4B98420ED01D4B98420BD0B0F1804FEA
:1039300008D01B4B984205D01A4B984202D01A4B24
:10394000984204D14FF68F731A404B881A43174B95
:10395000984207D0164B984204D04FF6FF431A40C6
:10396000CB881A4302808B8883850B8803850A4B9A
:1039700098420BD0094B984208D00E4B984205D084
:103980000D4B984202D00D4B984201D10B7A038621
:103990000123838270470000002C01400034014065
:1039A0000004004000080040000C004000100040EF
:1039B0000014004000400140004401400048014024
:1039C00070B50446A007040E002507E004F080004F
:1039D00000F00AF86006040E681CC5B2022DF5DB83
:1039E000012000F001F870BD18B90021064A1160ED
:1039F00002E00121044A11600121044A1160002102
:103A0000034AC2F898117047BC81214298012242B2
:103A10000000224270B50446002507E004F0800053
:103A2000FFF7E2FF6006040E681CC5B2082DF5DB47
:103A300070BD00002DE9F04F85B083468A465046A0
:103A4000FCF701FE804600224FF08043FCF741FD69
:103A500000224FF08043CDE90001FCF73AFD00223F
:103A6000104BCDE90201FCF7C2FC064600220E4BCA
:103A7000FCF7B7FC0446FCF7CDFDC0B20490002073
:103A80000A4908605846FFF79BFF0498FFF7C2FFFA
:103A900000200749C1F8B80101200649086005B0B7
:103AA000BDE8F08F000070400000F03F9801224216
:103AB00000802142B881214270B50025494890F824
:103AC000544090F85A00C0F3C000E8B1464800786E
:103AD0004006000E4449087042480079A04205DBC8
:103AE0000846007840F00100087005E03E48007884
:103AF00000F0FE003C4908703B480078FF2803D1E5
:103B00000420FCF7FFFF0546364890F85A00C0F342
:103B10000010E8B1354800784006000E33490870BF
:103B200030484079A04205DB0846007840F00100AB
:103B3000087005E02D48007800F0FE002B49087061
:103B40002A480078FF2803D10520FCF7DBFF054653
:103B5000244890F85A00C0F34010E8B12448007897
:103B60004006000E224908701E488079A04205DBFD
:103B70000846007840F00100087005E01C48007815
:103B800000F0FE001A49087019480078FF2803D198
:103B90000620FCF7B7FF0546124890F85A00C0F31C
:103BA0008010E8B1134800784006000E11490870F3
:103BB0000C48C079A04205DB0846007840F00100BF
:103BC000087005E00B48007800F0FE000949087015
:103BD00008480078FF2803D10720FCF793FF05462B
:103BE000284670BDDC0300203A0100203B01002084
:103BF0003C0100203D01002070B540F224411648F0
:103C000000F0E0F830B314480088C5B21248001D37
:103C10000088C5B200211148FDF76CFA4FF48030DE
:103C2000FDF74CFA0D48FDF717FBC0F13C00C5B29B
:103C3000002405E00A49085DFEF7D2FB601CC4B20F
:103C4000AC42F7DB3C2005495839C86501210348DF
:103C5000FDF750FA70BD00000038014058000240E6
:103C6000B80E002010B50121354800F09EF830B1A3
:103C7000334800F063F90121314800F069F8082168
:103C80002F4800F092F830B12D4800F057F9082184
:103C90002B4800F05DF82021294800F086F8012823
:103CA0003BD1274800F04AF9264908702648008889
:103CB00000F4004088BB2448008800F4804070B1C4
:103CC000084600780A2803D000201F49088024E015
:103CD0001D48008840F400401B4908801DE0194839
:103CE00000780D2806D11848008840F48040164915
:103CF000088012E01348007813490988C1F30D01C8
:103D0000124A505410480088401C0F490880084649
:103D10000088092801DD0020088040F2255108486C
:103D200000F050F858B12021054800F011F840F299
:103D30002551034800F015F8014800F0FFF810BDC8
:103D400000440040A603002066010020361E00202B
:103D500001F40072B2F5007F00D100BFCA430280B7
:103D6000704710B50022002340F66A14A14200D12A
:103D700000BF0A1201249440A3B2DC43048010BDAA
:103D800021B1828942F40052828104E082894DF699
:103D9000FF731A40828170471AB1838A0B43838272
:103DA00002E0838A8B438382704702460020B1F58C
:103DB000007F00D100BF13880B400BB1012000E051
:103DC0000020704770B50246002400230025002023
:103DD00040F66A16B14200D100BFC1F3421501F0AE
:103DE0001F03012606FA03F3012D02D19689334001
:103DF00006E0022D02D1168A334001E0968A334054
:103E00000C12012606FA04F41688344013B10CB1E2
:103E1000012000E0002070BDF0B50346002400261C
:103E20000025002040F66A17B94200D100BF1846AD
:103E3000C1F3421401F01F06012707FA06F5012C11
:103E400001D10C3004E0022C01D1103000E014301C
:103E50001AB107682F43076002E00768AF430760A5
:103E6000F0BD00002DE9F04786B005460E4600245F
:103E7000A24600BFA1460027B08900B100BF2F466F
:103E80002C8A4CF6FF700440F08804432C82AC89E5
:103E90004EF6F3100440B088318908437189084315
:103EA0000443AC81AC8A4FF6FF400440B089044320
:103EB000AC8201A8FEF7BCFB1F48874202D1DDF8A7
:103EC00010A001E0DDF80CA0A88900F4004040B18A
:103ED0000AEBCA0000EB0A1031684900B0FBF1F8A8
:103EE00007E00AEBCA0000EB0A1031688900B0FB5A
:103EF000F1F86420B8FBF0F004012009642101FB13
:103F00001089A88900F4004040B1322000EBC900BC
:103F1000B0FBF1F000F00700044308E0322000EBB2
:103F200009106421B0FBF1F000F00F0004432C8174
:103F300006B0BDE8F08700000038014001468888DF
:103F4000C0F30800704700BFFEE700003EB505461D
:103F5000FEF73AFCFEF74AFEADF80050154800881F
:103F6000ADF8020013484088ADF80400114880887D
:103F7000ADF806000F48C088ADF808000E48FEF7FF
:103F80006BFE0446142C04DB00210B4800F016F8ED
:103F900000240949891C0C2202FB041005226946F1
:103FA000FEF7C4FE601C84B22146034800F006F808
:103FB0003EBD0000B80F00200000020813B5044603
:103FC000012201A92046FEF7B1FE1CBD02E008C88F
:103FD000121F08C1002AFAD170477047002001E083
:103FE00001C1121F002AFBD17047000000B591B03B
:103FF000012140F21C60FEF7F5FA01210846FEF7A8
:10400000D1FA4FF44040FEF7C1FA00208DF82F009E
:10401000CE20ADF82C000BA95B48FDF7DBFC01209E
:10402000ADF82C000BA95948FDF7D4FC3020ADF8B1
:104030002C000BA95648FDF7CDFC5648FDF766F855
:104040005548009055480190002002904FF496602A
:10405000039000200490802005904000069080008E
:104060000790202008900002099000200A906946DD
:104070004848FDF714F901214648FDF73BF846484A
:104080004C38FCF763FC00200C9001208DF83400C4
:104090008DF835004FF460200E9000200F9008201E
:1040A0008DF840000CA93C484C38FCF791FC0523E6
:1040B0000122114638484C38FCF7B2FC0523022295
:1040C000114635484C38FCF7ABFC0523032211465A
:1040D00031484C38FCF7A4FC0523042206212E4865
:1040E0004C38FCF79DFC05231A4607212A484C381A
:1040F000FCF796FC052306220E2127484C38FCF7D6
:104100008FFC052307220F2123484C38FCF788FC3D
:1041100005230822114620484C38FCF781FC012178
:104120001D484C38FCF706FC01211B484C38FCF7B5
:10413000F6FB19484C38FCF7CFFC00BF16484C384A
:10414000FCF73CFC0028F9D113484C38FCF7D4FCB0
:1041500000BF11484C38FCF727FC0028F9D1012199
:104160000D484C38FCF7BDFC0420ADF82C0048206D
:104170008DF82F0003208DF82E000BA90248FDF7C3
:1041800029FC11B000BD000000080140000C0140F6
:1041900000100140080002404C2401405805002056
:1041A0003EB50C4A07CA8DE8070000210A48FFF710
:1041B00005FF00240AE00849891C0C2202FB0410B8
:1041C00005226946FEF7B2FD601CC4B2142CF2DB76
:1041D0003EBD0000FC5D0008000002082DE9FC4720
:1041E000F748007801287DD10020F5490870F5488E
:1041F000407AF449097A40EA0120B0F5027F72D092
:1042000024DC40F20B12A0EB020190426CD00ADCDD
:10421000A0F201100A2868D2DFE800F043F7F5F4B5
:10422000F3F2F1F067EFF8297AD008DC012978D0B1
:10423000032977D0F62976D0F72956D16FE3FA29EA
:1042400072D0FB2971D0FC29F7D1B5E340F20952B5
:10425000811A90426AD00DDCA0F201500828DAD20F
:10426000DFE810F0EA030804240444046104820433
:104270009E04BA04062973D008DC012971D00229F2
:1042800070D004296FD00529D7D1F1E3F8296BD07C
:10429000B1F5206F69D0A1F5964103390029CCD141
:1042A000E7E3C94890F85C00002858D1C548807AF7
:1042B00001287DD1C54800780028F6D1C148C07AD0
:1042C00064284CDCBF48407B6428FADCBE4890F888
:1042D0006F0001284AD1BB48C07A05283FDD002283
:1042E000012103E0EFE36AE39EE1EDE3B848FFF765
:1042F000C0FAB548007828B1B648006810B101206E
:10430000B54908600120B5490860AE48C07AAE4999
:104310008870084680780A2809DA0A20C8700AE0FE
:1043200037E384E19FE2E5E23FE341E3FAE3A648B5
:104330008078A549C870A449C878FFF701F805201E
:1043400000F0A4FD0020A64908709E4A517B107B16
:10435000FFF794F80120A3490870FEF79DFC4BE09D
:10436000FDE3FDE3FDE3FDE3FDE363E10022012165
:104370009748FFF77EFA9448007828B1954800687E
:1043800010B10120944908600120944908608D48CB
:10439000C07A8D4988708878FEF7D2FF052000F03A
:1043A00075FD00208E490870864A517B107B00E025
:1043B00007E0FFF763F801208A490870FEF756FC12
:1043C0001AE000208049887001208549087000208B
:1043D000FEF7B6FF00210A20FFF750F87A48007870
:1043E00028B17C48006810B100207B49086000209B
:1043F0007A4908607B49087034E2FFE08AE07AE09D
:104400006AE05DE03EE01FE0FFE76E48807A6E49BB
:10441000A1F84E000846B0F84E107348FFF7CEFDE5
:104420006949B1F84E108800FCF7C2F8074600222F
:104430006E4BFCF74EF80546FCF748F982465146AC
:104440000020FFF7F7FAD7E75E48817A5E48A0F8C8
:104450005010B0F850106448801CFFF7AFFD5A4967
:10446000B1F85000FCF7B5F807460022604BFCF7A6
:1044700030F80546FCF72AF9824651460320FFF73B
:10448000D9FAB9E74F48817A4F48A0F85210B0F8EE
:1044900052105548001DFFF791FD4B49B1F85200ED
:1044A000FCF797F807460022514BFCF712F8054637
:1044B000FCF70CF9824651460220FFF7BBFA9BE756
:1044C0004048817A4048A0F85410B0F8541046484B
:1044D000801DFFF773FD8FE73A48C17A807A41EA81
:1044E00000213948A0F85610B0F856103E48083060
:1044F000FFF764FD80E73348C17A807A41EA002102
:104500003148A0F85810B0F8581037480A30FFF773
:1045100055FD71E72C48B0F85A0042F2040120EA38
:1045200001042848C17A807A41EA002042F204015D
:1045300020EA01094C450DD02248C17A807A41EA2F
:1045400000212148A0F85A10B0F85A1026480C3023
:10455000FFF734FD1B48C17A807A41EA002000F45D
:1045600000541848C17A807A41EA002000F004091A
:10457000B4F5005F07D101201E49488001211E4883
:10458000FFF71CFD06E000201A49488000211A4868
:10459000FFF714FDB9F1040F08D101201549088077
:1045A00001211548801EFFF709FD07E00020114991
:1045B000088000211048801EFFF700FDF6E3000090
:1045C0000100002050040020DC0300200000002037
:1045D0000004004008012142B4812142A801224286
:1045E0002A0100200A0100200280010800408F40BB
:1045F000000024400401002006900108FEF7D0F8D6
:10460000F848007CF749C97BF64DCDE90010EE7AF9
:10461000AD7A46EA0520F34DAB7B6A7B297BFEF73A
:1046200049FAFEF7C7F8C1E3FEF720FDBEE3FEF747
:104630001DFCBBE3EB48807A07287DD00021EA48C7
:10464000FFF7BCFCE848FEF707FBE84981F85C008F
:10465000FEF7BAF8FEF7C0FAFEF7C8FA0121022009
:10466000FEF7A4F9FEF7B8FAFEF79AF8DD48807A6B
:1046700007283FDADB48807A07283AD2DFE800F0E3
:10468000040C141C242C3400FEF722F9D8494518D8
:104690002846FEF775FA2CE0FEF71AF9D5494518B9
:1046A0002846FEF76DFA24E0FEF712F9D2494518C4
:1046B0002846FEF765FA1CE0FEF70AF9CF494518CF
:1046C0002846FEF75DFA14E0FEF702F9CC494518DA
:1046D0002846FEF755FA0CE0FEF7FAF8C9494518E6
:1046E0002846FEF74DFA04E000210220FEF75EF9AD
:1046F00000BF11E0FEF7ECF8BA49897AC91F01EB57
:104700004101C900C1EB01118900C1EB011100EBAE
:1047100081052846FEF734FAFEF75EFAFEF74AF8FE
:10472000B048817AB0481030FFF748FCAE481230EC
:10473000FEF792FA401C00E078E085B22946AA48CC
:104740001230FFF73BFCB0480188A748801CFFF7F8
:1047500035FCAD484188A448001DFFF72FFCAA484E
:104760008188A148801DFFF729FCA748C1889E4881
:104770000830FFF723FCA44801899B480A30FFF763
:104780001DFC99481230FEF767FA984981F85D00E0
:1047900095481030FEF760FA944981F85E0092481F
:1047A000FEF75AFA914981F85C008F48801CFEF7A9
:1047B00053FA8E49A1F860008B48001DFEF74CFAB1
:1047C0008A4981F862008848801DFEF745FA8749CA
:1047D00081F8630084480830FEF73EFA834981F887
:1047E000640081480A30FEF737FA804981F8650095
:1047F000002201218548FFF73CF88548006840F019
:104800000800834908600846006840F0100008600E
:1048100001208049086000207F49C1F8A8017D4936
:1048200014390860FF20FFF791FB1BE000216E4860
:104830001230FFF7C3FB00217848FFF7BFFB0021D0
:104840007648801CFFF7BAFBFFF7AAFC66481230D7
:10485000FEF702FA654981F85D00002162481630D2
:10486000FFF7ACFBA2E25F48807A412841D05D4867
:10487000817A6B48FFF7A2FB5A48C17A6848801CCE
:10488000FFF79CFB5748017B6548001DFFF796FB2F
:104890005448417B6248801DFFF790FB5148C27B22
:1048A000807B42EA00215E480830FFF787FB5C48C6
:1048B000FEF7D2F94D4981F866005948801CFEF791
:1048C000CBF94A4981F867005548001DFEF7C4F945
:1048D000464981F868005248801DFEF7BDF94349FA
:1048E00081F869004E480830FEF7B6F93F49A1F853
:1048F0006A005BE23B48807A40B101204949088068
:1049000001213948001FFFF759FB07E00020454906
:10491000088000213448001FFFF750FB46E2314871
:10492000807A012825D131490870084601782E483F
:104930001430FFF743FB3C48007850B93B480078FF
:10494000012802D13A49086022E000203849086075
:104950001EE03548007801281AD13548A83800688B
:1049600018B900203249086012E00120304908607F
:104970000EE01C48807A58B900201C49087008468F
:10498000017819481430FFF719FB01202849086005
:104990000CE226480078012806D11248807A134993
:1049A00088708878FEF7CCFC00E200F071FEFDE133
:1049B000002020490870F9E1FCF71EFFF6E1FBF743
:1049C000D3FBFF2190FBF1F201FB1200074981F8B4
:1049D0006E00084690F86E1003481630FFF7EEFAA6
:1049E000E4E100005004002008900108DC030020EE
:1049F000008D2700001A4F0000A7760000349E00AB
:104A000000C1C500004EED00B80F0020000C0040B2
:104A100000040140B00122420000224200100208BE
:104A20004280010804010020000000200A0100204B
:104A3000B481214209010020DE48807A012808D192
:104A4000DD48B0F85A0040F00101DB48A0F85A10E8
:104A500007E0D948B0F85A0020F00101D648A0F884
:104A60005A10D548B0F85A10D448FFF7A7FA9DE17C
:104A70005AE121E1CF48807A012808D1CE48B0F828
:104A80005A0040F00201CC48A0F85A1007E0CA488A
:104A9000B0F85A0020F00201C748A0F85A10C648E2
:104AA000B0F85A10C548FFF789FA7FE1C148807A0B
:104AB00001280AD1C048B0F85A0040F00401BE48AD
:104AC000A0F85A1009E072E16FE1BB48B0F85A0053
:104AD00020F00401B848A0F85A10B748B0F85A10AE
:104AE000B648FFF76BFAFCF787FE5FE1B148807AC2
:104AF000012808D1B048B0F85A0040F00801AE488B
:104B0000A0F85A1007E0AC48B0F85A0020F00801AD
:104B1000A948A0F85A10A848B0F85A10A748FFF7BB
:104B20004DFA43E174E0A348807A012808D1A248F5
:104B3000B0F85A0040F010019F48A0F85A1007E062
:104B40009D48B0F85A0020F010019B48A0F85A1078
:104B50009948B0F85A109948FFF730FA26E1FFE07B
:104B600072E08DE0C4E014E19248807A012808D117
:104B70009148B0F85A0040F020018F48A0F85A1030
:104B800007E08D48B0F85A0020F020018A48A0F8CC
:104B90005A108948B0F85A108848FFF70FFA05E113
:104BA0008448807A012808D18348B0F85A0040F040
:104BB00040018148A0F85A1007E07F48B0F85A0039
:104BC00020F040017C48A0F85A107B48B0F85A10F9
:104BD0007A48FFF7F3F9E9E07648807A012808D1AE
:104BE0007548B0F85A0040F080017348A0F85A1098
:104BF00007E07148B0F85A0020F080016E48A0F834
:104C00005A106D48B0F85A106C48FFF7D7F9CDE04C
:104C10006848807A012808D16748B0F85A0040F403
:104C200080716548A0F85A1007E06348B0F85A0050
:104C300020F480716048A0F85A105F48B0F85A100C
:104C40005E48FFF7BBF9B1E05A48807A012808D1E5
:104C50005948B0F85A0040F400715748A0F85A106B
:104C600007E05548B0F85A0020F400715248A0F807
:104C70005A105148B0F85A105048FFF79FF995E084
:104C80004C48807A012808D14B48B0F85A0040F4CB
:104C900080614948A0F85A1007E04748B0F85A0028
:104CA00020F480614448A0F85A104348B0F85A10E4
:104CB0004248FFF783F979E03E48807A012808D11D
:104CC0003D48B0F85A0040F400613B48A0F85A1043
:104CD00007E03948B0F85A0020F400613648A0F8DF
:104CE0005A103548B0F85A103448FFF767F95DE0BC
:104CF0003048807A012808D12F48B0F85A0040F493
:104D000080512D48A0F85A1007E02B48B0F85A00FF
:104D100020F480512848A0F85A102748B0F85A10BB
:104D20002648FFF74BF941E02248807A012808D154
:104D30002148B0F85A0040F400511F48A0F85A101A
:104D400007E01D48B0F85A0020F400511A48A0F8B6
:104D50005A101948B0F85A101848FFF72FF925E0F3
:104D60001448807A012809D11348B0F85A004FF648
:104D7000FF7108431049A1F85A0003E000210E48D2
:104D8000A0F85A100C48B0F85A100C48FFF716F962
:104D90000CE00848407A012803D100200849086047
:104DA00002E001200649086000E000BF00BFBDE846
:104DB000FC87000050040020DC0300200E80010866
:104DC000B481214270B502460C46FF25FF2309E05D
:104DD00012F8010B80EA05010648405C80EA0305F1
:104DE0000548435C201EA4F10106F4B2F0D145EA67
:104DF000032070BD445E0008445F000810B56FF0EA
:104E00000400FEF775FB0A4800680A49B0FBF1F0A0
:104E1000094908700846007800EB4001C1EBC0105A
:104E20004FF6FF7101EAC0000449088010BD000080
:104E3000B003002000127A004C0100204E01002037
:104E40000146114A12884A434FF0E0235A6100227A
:104E50009A611A46126942F001021A6100BF4FF0CE
:104E6000E022106900F001021AB100F48032002A39
:104E7000F5D04FF0E022126922F001024FF0E0235A
:104E80001A6100229A6170474E0100200146114AC2
:104E900012784A434FF0E0235A6100229A611A4681
:104EA000126942F001021A6100BF4FF0E02210695E
:104EB00000F001021AB100F48032002AF5D04FF060
:104EC000E022126922F001024FF0E0231A61002271
:104ED0009A6170474C0100200EB501211D20FDF79D
:104EE00081FB04210120FCF755FD102001900020DA
:104EF0008DF8080008208DF8090001208DF80A00BF
:104F000001A8FCF7C5FA0A208DF8000000208DF8F2
:104F1000010001208DF802008DF803006846FDF7BE
:104F200027F903210120FCF735FD0820019000201E
:104F30008DF808000C208DF8090001208DF80A007A
:104F400001A8FCF7A5FA09208DF8000000208DF8D3
:104F5000010001208DF802008DF803006846FDF77E
:104F600007F905210120FCF715FD20200190002004
:104F70008DF8080010208DF8090001208DF80A0036
:104F800001A8FCF785FA17208DF8000000208DF8A5
:104F9000010001208DF802008DF803006846FDF73E
:104FA000E7F802210020FCF7F5FC04200190002026
:104FB0008DF8080010208DF8090001208DF80A00F6
:104FC00001A8FCF765FA08208DF8000000208DF894
:104FD00001008DF8020001208DF803006846FDF7FE
:104FE000C7F80EBD30B502460B460020002111E087
:104FF000555C6840002409E000F001051DB1512511
:1050000085EA600000E04010651CECB2082CF3DB80
:105010004D1CE9B29942EBDB30BD00002DE9F05F99
:1050200006460F4690469946DDE90AAB002440F259
:10503000B270864203DB40F63300864202DD012077
:10504000BDE8F09F40F2B2750AE02846FDF770F81F
:1050500010B11948044401E018480444681C85B2A2
:10506000B542F2DB002510E01548405D40F2A32177
:10507000484304EBC0143046FDF75AF818B1012D2F
:1050800001D110480444681C85B2781EA842EBDCAC
:10509000A8F1010040F2A321484304EBC014C9EB7E
:1050A0004910C0EB092004EB0014CAEB0A1004EB12
:1050B00080045C442046C3E70085E2018033E101BF
:1050C000205E00088051010008B501210846FDF767
:1050D00089FA01214048FCF709FD01213C20FDF738
:1050E00081FA4FF4C050ADF8000010208DF8030095
:1050F00003208DF8020069463848FCF76BFC00205D
:10510000374908603749C1F8B0014FF40050ADF895
:10511000000069463448FCF75DFC01203349086013
:105120004FF4E450ADF8000069463148FCF752FCFA
:1051300001203049C1F8B0010420ADF800006946F3
:105140002D48FCF747FC01202C49086041F23B0048
:10515000ADF8000004208DF8030003208DF8020054
:1051600069462148FCF736FC4FF44070ADF800006A
:1051700069461F48FCF72EFC48208DF803000420E8
:10518000ADF8000069461548FCF724FC00201C49D6
:10519000086001201A49083908601649C1F8AC01B5
:1051A0004FF4FA70FFF74CFE0020154914390860DF
:1051B0004FF4FA70FFF744FE4FF4FA70FFF740FE29
:1051C00001200F49086000200D49083908600D4989
:1051D000C1F8880108BD000000023000000801404D
:1051E000AC01214200002142000C0140B481214267
:1051F0000010014000002242001401408881224238
:10520000B0012242008022422DE9F843FE48FDF71A
:1052100023FD4FF6FF7188427DD10020009046208B
:10522000FA49A1F84E001221F848A0F850101121B7
:10523000A0F852102821A0F85410C821A0F8561048
:105240006E21A0F85810FF21A0F85A100120EF4954
:105250000870002081F85C0081F85D00072081F86B
:105260005E0008460178EA48FEF7A8FEE748B0F875
:105270004E10E548801CFEF7A1FEE448B0F850103F
:10528000E148001DFEF79AFEE048B0F85210DE48F3
:10529000801DFEF793FEDD48B0F85410DA48083060
:1052A000FEF78CFED948B0F85610D7480A30FEF702
:1052B00085FED648B0F85810D3480C30FEF77EFE75
:1052C000D248B0F85A10D0480E30FEF777FECF48DB
:1052D00090F85C10CE481438FEF770FECB4890F87A
:1052E0005D10CB48801EFEF769FEC84890F85E103E
:1052F000C748001FFEF762FE0021C5481438FEF7BC
:105300005DFE40F2E271C2481238FEF757FE0821F6
:10531000BF48103800E051E0FEF750FE1521BC48B0
:105320000E38FEF74BFE0E21B9480C38FEF746FE4C
:105330000021B7480A38FEF741FE0121B24810307B
:10534000FEF73CFE0121B048FEF738FE0021B048D0
:10535000801EFEF733FE4121AB484230FEF72EFEA1
:105360000021A9484430FEF729FE0021A648463016
:10537000FEF724FE0021A4484830FEF71FFE00215E
:10538000A1484A30FEF71AFE0021A148801CFEF712
:1053900015FE33219E481C38FEF710FE01219C4863
:1053A0001838FEF70BFE012199481638FEF706FE65
:1053B000022269469748FDF7B9FC00BF94481C38A3
:1053C000FDF74AFC332843D0332191481C38FEF7BF
:1053D000F5FD01218E481838FEF7F0FD01218C48BB
:1053E0001638FEF7EBFD01218948FEF7E7FD0021A5
:1053F0008748001FFEF7E2FDFDF7E6F9FDF7F6FB33
:1054000002218348801EFEF7D9FD83480188804829
:105410001238FEF7D3FD804841887D481038FEF7EA
:10542000CDFD7D4881887A480E38FEF7C7FD7A4861
:10543000C18877480C38FEF7C1FD77480189744868
:105440000A38FEF7BBFD002171481438FEF7B6FD9F
:105450006F48FDF701FC6D4908706B48801CFDF733
:10546000FBFB6A49A1F84E006748001DFDF7F4FBFD
:105470006649A1F850006448801DFDF7EDFB6349C3
:10548000A1F8520060480830FDF7E6FB5F49A1F83B
:1054900054005D480A30FDF7DFFB5C49A1F8560077
:1054A00059480C30FDF7D8FB5849A1F85800564828
:1054B0000E30FDF7D1FB5549A1F85A005248423051
:1054C000FDF7CAFB514981F866004F484430FDF7AB
:1054D000C3FB4E4981F867004B484630FDF7BCFBE3
:1054E0004A4981F8680048484830FDF7B5FB47490C
:1054F00081F8690044484A30FDF7AEFB4349A1F802
:105500006A00FCF7DDF84248001FFDF7A5FB3F49A4
:1055100081F85E003E48801EFDF79EFB3B4981F806
:105520005D003B481438FDF797FB384981F85C0073
:1055300037481238FDF790FB3449A1F86000344831
:105540001038FDF789FB314981F8620030480E3888
:10555000FDF782FB2D4981F863002D480C38FDF7DB
:105560007BFB2A4981F8640029480A38FDF774FB5F
:10557000264981F865002648801CFDF76DFB23490C
:1055800081F86E006420A1F86C00084690F866006F
:10559000542803D1002081F86F0003E001201B494B
:1055A00081F86F001949B1F84E108800FBF700F838
:1055B00007460022194BFAF78CFF0546FBF786F8E1
:1055C000044621460020FEF735FA1049B1F8500094
:1055D000FAF7FFFF07460022114BFAF77AFF05465C
:1055E000FBF774F8044621460320FEF723FA074927
:1055F000B1F85200FAF7EDFF07460022084BFAF720
:1056000068FF05460EE0000000800108DC03002072
:105610001C90010800100208B80F002000408F40C5
:1056200000002440FBF752F8044621460220FEF712
:1056300001FA00210120FEF7FDF910480078012849
:1056400007D10F480068012803D100200D490860E8
:1056500002E001200B490860C9200849A1F8700048
:105660000948FDF7F9FA094908800748801CFDF749
:10567000F3FA06494880BDE8F8830000DC03002007
:1056800008012142B4812142049001080401002054
:1056900010B501211648FEF791FC1548FDF7DCFA1C
:1056A000144981F85C001448006820F00800124991
:1056B00008600846006820F01000086000210A20F9
:1056C000FDF7DCFE00200D4908600A4988708878E3
:1056D000FDF736FE00200A49C1F8B4010122114647
:1056E0000848FEF7C6F800200749086010BD000012
:1056F00008900108DC03002000040140AC012142B5
:1057000000802142000C0040A80122424FF4A0601A
:10571000FCF766FDFFF772FBFFF7D6FC00F062FABC
:1057200000F040FAFFF770FD00BFFDF74FF90028C9
:10573000FBD1FEF75BFC4FF47A70FFF781FBFCF7BF
:1057400027FC00F05FF9FFF7C7FB00F013F80748EC
:10575000FDF782FA012804D1012211460448FEF720
:1057600088F802E00A20FFF76BFBFBE708900108CE
:10577000000C00401CB5FDF727F859490860FDF7FB
:1057800035FA5848FDF768FA5749088055480E38E9
:10579000FDF762FA5549088052480C38FDF75CFA6B
:1057A000534908804F480A38FDF756FA5149088096
:1057B0004C480838FDF750FA4F4908804948801F87
:1057C000FDF74AFA4D49088000204D4908804648B7
:1057D0000088062854D044480088072850D0424802
:1057E0000088062818DA0846007844490978CDE987
:1057F0000010414803783F4802783D4801783B4813
:105800000088FFF70BFC3F49374A128851F82210F5
:1058100008443D4908601EE0394800783749097856
:10582000CDE90010344803783248027830480178D6
:105830002E480088FFF7F2FB2B490988C91F01EBAE
:105840004101C900C1EB01118900C1EB011100EB5D
:1058500081002D490860224800682B490968884268
:1058600002D3FFF715FF10E0274800681C490968BC
:10587000401A2649B0FBF1F02549A1F8700004E078
:105880004FF47A702249A1F8700000202149087075
:1058900020E020480078FDF7BBF9022804D11E481B
:1058A0000078401C1C4908701B48007804280CD163
:1058B0001120FDF7C3FA164890F86600542804D06A
:1058C000FFF7E6FE11201549087012480078401CC9
:1058D000104908700F4800780428DADB1CBD00006E
:1058E00014010020189001081C0100201E01002056
:1058F0002001002022010020240100202601002098
:10590000280100202C5E00081801002080510100B1
:10591000DC03002012010020130100202C010020D4
:105920002DE9F14F86B04FF0000946244FF0000BEF
:105930000698FAF788FE05464FF033322C4BFAF7FB
:10594000ADFE0CD20698FAF77EFE05464FF06632A1
:10595000284BFAF78BFE02D82748008E1FE00698E6
:10596000FAF771FE07464FF06632224BFAF73CFD1C
:10597000CDE9000121490698FAF760FC80462049EC
:10598000FAF756FC0746FAF75EFE0546DDE9002306
:10599000FAF79FFDCDE90201FAF73CFE80B20490D0
:1059A0004FF0000A1DE009EB040000EBD071C1F3D9
:1059B000470B114830F81B100498814206DA09EBB6
:1059C000040000EBD071C1F3470406E009EB0400CA
:1059D00000EBD071C1F3470900BF0AF1010000F0EC
:1059E000FF0ABAF1070FDEDB204607B0BDE8F08FF3
:1059F0003333074066660A406C5D000800D01D46E0
:105A00000000A54300B589B0012140F60400FCF771
:105A1000E9FD01210F20FCF7D5FD40F2E730ADF89C
:105A20001C0041F61F40ADF818000020ADF81E0024
:105A3000ADF81A0006A95748FDF770FF0121554837
:105A4000FDF7EBFE002201215248FDF712FF322044
:105A50008DF8040000208DF8050003208DF8060065
:105A600001208DF8070001A8FCF782FB0920ADF8A2
:105A70001C0041F61F40ADF818000020ADF81E00D4
:105A8000ADF81A0006A94FF08040FDF747FF01214D
:105A90008807FDF7C2FE012211469007FDF7E9FED7
:105AA0001C208DF8040002208DF805008DF80600FA
:105AB00001208DF8070001A8FCF75AFB41F287305E
:105AC000ADF81C0041F61F40ADF818000020ADF8FD
:105AD0001E00ADF81A0006A92F48FDF71FFF01218F
