:020000040800F2
:10000000101F0020450100083B210008951D000835
:1000100037210008310E0008933E00080000000060
:10002000000000000000000000000000AF2D0008EC
:100030002913000800000000DD24000865340008D2
:100040005F010008652300085F0100084D290008D2
:100050005F0100085F0100085F0100085F01000800
:100060005F0100082D1300087D1300085F010008E0
:100070005F0100085F0100085F0100085F010008E0
:100080005F0100085F0100085F0100085F010008D0
:100090005F0100085F0100085F01000815140008F7
:1000A0005F0100085F0100085F0100085F010008B0
:1000B000C9340008B13500085F0100085F0100087D
:1000C0005F0100085F0100085F0100085F01000890
:1000D0005F010008453B0008B13B00085F010008D4
:1000E0005F0100085F0100085F0100085F01000870
:1000F0005F0100085F0100085F0100085F01000860
:100100005F0100085F010008853600085F010008F4
:100110005F0100085F0100085F0100085F0100083F
:100120005F0100085F0100085F0100085F0100082F
:10013000DFF80CD000F0B6FB00480047F55500088A
:10014000101F00200648804706480047FEE7FEE7EC
:10015000FEE7FEE7FEE7FEE7FEE7FEE7FEE7FEE777
:1001600069340008310100080649074A086850430D
:1001700043F23902104408604008704701490860A2
:1001800070470000D80300206D4EC641F0B480EAED
:100190000102D40F4200B2EB410F02D202460846E0
:1001A00011464A0042D0C30DDDB2C1F3C752AD1AA9
:1001B000202D35DAC1F3160141F4000204B1524298
:1001C000C5F1200602FA06F12A411044B3EBD05FD4
:1001D00023D0C4B1012DA0EBC35009DCF0BC4FF01B
:1001E000004202EAC352DBB200F5000000F0CEBAD2
:1001F000400000F1807000EBC350A0F1807040EA35
:10020000D170490009E0490841EAC071A0EBC35030
:1002100000F50000400800EBC350F0BC00F0ADBAA0
:100220006142012202EB4101001BF6E7F0BC70477E
:1002300081F00041AAE780F00040A7E780EA0102D0
:1002400010B502F00043400022D04A001FD0010E3A
:1002500001EB1261C0F35600C2F3560240F40000F5
:1002600042F40002A0FB022000047F39140400D0F5
:10027000401C50EA124001D44000491EC2B20C0694
:1002800004EBD010401C4008802A02D003E000207C
:1002900010BD20F00100002900DA0020184310BD35
:1002A0002DE9FE4F804681EA0300C00F0C46009006
:1002B00021F0004123F00045B8EB0200A94105D22E
:1002C0004046214690461C460B46024623F000401D
:1002D000104347D0270DC7F30A00C3F30A51029019
:1002E000401A019040286BDAC3F3130040F4801BDE
:1002F0000098924620B10023D2EB030A63EB0B0B6C
:1003000001985946C0F14002504600F005FA0646F1
:100310000D4650465946019A00F01DFA10EB0800B0
:100320006141002487EA115284EAE7731A4340D0FE
:10033000009A62B3019A012A4FEA075215DC001BAA
:1003400061EB02014FF0004202EA0752CDE90042A0
:10035000001C41F5801132462B4600F054FA03B0E0
:10036000BDE8F08F40462146F9E7001B61EB020132
:10037000001C41F5801300185B412018A2F50017FE
:1003800047EB030140EAD570B6196D4111E06D08E5
:100390004FEA360645EAC0754FEA0752001B61EB8B
:1003A0000201001C41F5801149084FEA3000001994
:1003B000514132462B4603B0BDE8F04F00F014BA6D
:1003C0000098012240000023D0EB020263EBE073AF
:1003D000009821464FEAE074B8EB000061EB04019D
:1003E000E9E783F000435BE781F0004158E72DE93E
:1003F000FE4F81EA030404F0004421F00041009420
:100400004FF0000B23F0004350EA01045ED052EAA3
:1004100003045BD0C3F30A54C1F30A552C44A4F27D
:10042000F3340194A0FB0254C1F3130141F4801191
:10043000C3F3130343F4801301FB024400FB034E98
:10044000840A970A44EA815447EA8357A4FB076861
:1004500002958D0A05FB07854FEA932C04FB0C548B
:100460002705029D4FEA065847EA1637B5EB0805FF
:100470006EEB070C870E920E47EA811742EA831251
:10048000A7FB0201B6EB0B0164EB00042B0D43EA62
:100490000C335E1844EB1C50DA465146E7FB020170
:1004A000C5F313044FEA0B3343EA14534FEA043203
:1004B000019C43EA0603A4F10C040294009CCDE9DC
:1004C00000B400F0A0F903B0BDE8F08F00200146B1
:1004D000F9E72DE9F04D81EA030404F0004B21F027
:1004E000004514464FF0000A23F0004150EA05028F
:1004F00020D054EA01021DD0C5F30A570246C5F3C5
:100500001303C1F31300C1F30A5640F4801543F4FA
:100510008013A7EB0608101BD64608F2FD3873EBD4
:10052000050002D308F1010801E092185B41B8F11F
:10053000000F03DA00200146BDE8F08D00204FF4E3
:100540008011064684460EE0171B73EB050705D3A2
:10055000121B63EB050306434CEA010C49084FEA02
:10056000300092185B4150EA0107EDD152EA0300D6
:1005700012D082EA040083EA0501084305D0101B6B
:10058000AB4106D20122002306E000224FF00043D7
:1005900002E06FF0010253101AEB06004CEB085119
:1005A00010EB0A0041EB0B01BDE8F04D00F01CB967
:1005B0000EB5C10F80EAE0700844CA07002140F27E
:1005C00033438DE80E000A460B4600F01CF903B0D9
:1005D00000BD0EB540F2334102910021CDE900117A
:1005E0000A460B4600F00FF903B000BD20F00040B2
:1005F000C10DC0F3160040F400007F2901DA00208D
:100600007047962903DCC1F19601C84070479639BE
:1006100088407047C1F30A5210B5C1F3130140F28C
:10062000FF3341F480119A4201DA002010BD40F2FC
:1006300033439A42A2F2334203DC524200F07BF889
:1006400010BD904010BD00F0004230F000400AD0D4
:10065000C10D01F56071C0F3160042EA0151C208F4
:1006600040071143704700200146704730B5041E13
:1006700071F1000404DB4FF00044404264EB0101DF
:10068000141E73F1000405DB1C464FF00043524278
:1006900063EB04038B4208BF824230BD30B5041EB9
:1006A00071F1000404DB4FF00044404264EB0101AF
:1006B000141E73F1000405DB1C464FF00043524248
:1006C00063EB0403994208BF904230BD01F0004340
:1006D00030B421F0004150EA010206D00A0DA2F523
:1006E0006072C1F31301002A02DC30BC00207047A5
:1006F000440F44EAC104C100E01830BC00EBC25012
:1007000000F03BB8002801DBC0F10040002901DB0C
:10071000C1F1004188427047202A04DB203A00FAE8
:1007200002F1002070479140C2F1200320FA03F348
:10073000194390407047202A04DB203A21FA02F046
:100740000021704721FA02F3D040C2F1200291400B
:10075000084319467047202A06DBCB17203A41FA96
:1007600002F043EAE07306E041FA02F3D040C2F13E
:10077000200291400843194670470029A8BF7047DE
:10078000401C490008BF20F00100704710B4B0FAC7
:1007900080FC00FA0CF050EA010404BF10BC704762
:1007A00049B1CCF1200421FA04F411FA0CF118BF7C
:1007B000012121430843A3EB0C01CB1D4FEA00614B
:1007C0004FEA102042BF002010BC704700EBC3501E
:1007D00010440029A4BF10BC7047401C490008BF4A
:1007E00020F0010010BC704710B5141E73F1000416
:1007F00008DA401C41F1000192185B411A4301D113
:1008000020F0010010BD2DE9F04D92469B4611B13C
:10081000B1FA81F202E0B0FA80F220329046FFF79E
:100820007BFF04460F4640EA0A0041EA0B015346AB
:100830005A46084313D0114653EA010019D0C8F1B3
:1008400040025046FFF777FF05460E465046594690
:100850004246FFF761FF084305D0012004E020462F
:100860003946BDE8F08D0020054346EAE0762C438A
:1008700037430A986305E40AA0EB08000022FD0A4A
:1008800044EA47540A3002D500200146E9E7010551
:1008900010196941DDE9084500196941BDE8F04DCD
:1008A000A2E70000064C074D06E0E06840F00103B7
:1008B00094E8070098471034AC42F6D3FFF73CFCAD
:1008C0002C5F00084C5F000870B58C1810F8015BB5
:1008D00015F0070301D110F8013B2A1106D110F8D9
:1008E000012B03E010F8016B01F8016B5B1EF9D1DD
:1008F0002B0705D40023521E0DD401F8013BFAE763
:1009000010F8013BCB1A921C03E013F8015B01F8CD
:10091000015B521EF9D5A142D8D3002070BD21B190
:10092000826842F00102826003E0826822F00102E4
:100930008260704721B1826842F48072826003E075
:10094000826822F4807282607047000010B504460D
:100950001248844208D10121401501F039FE0021DE
:10096000601501F035FE17E00D48844208D10121E1
:10097000001501F02DFE0021201501F029FE0BE0ED
:100980000848844208D10121C80301F021FE00215A
:100990004FF4004001F01CFE10BD00000024014097
:1009A00000280140003C0140014600208A6802F016
:1009B00004020AB1012000E0002070470146002037
:1009C0008A6802F008020AB1012000E000207047A6
:1009D00030B502460020002350680F4C20400D79AE
:1009E0000C6844EA05242043506090680B4C20407A
:1009F000D1E902542C434D7944EA450420439060E8
:100A0000D06A20F470000C7C641EE4B2234340EAF8
:100A10000350D06230BD0000FFFEF0FFFDF7F1FF94
:100A2000F0B504460D4600200021092D11DDE068D7
:100A3000A5F10A0606EB4607072606FA07F18843E2
:100A4000A5F10A0606EB460603FA06F10843E06044
:100A50000CE0206905EB4507072606FA07F18843F5
:100A600005EB450603FA06F108432061072A0FDA71
:100A7000606B561E06EB86071F2606FA07F18843B1
:100A8000561E06EB860605FA06F10843606322E06F
:100A90000D2A0FDA206BD61F06EB86071F2606FAF3
:100AA00007F18843D61F06EB860605FA06F10843D0
:100AB000206310E0E06AA2F10D0606EB86071F2610
:100AC00006FA07F18843A2F10D0606EB860605FA41
:100AD00006F10843E062F0BD816841F008018160E1
:100AE000704721B1826842F4A002826003E082680C
:100AF00022F4A00282607047816841F004018160A5
:100B00007047000010B504461B48006820F008003C
:100B1000194908600846006820F0100008600020AD
:100B2000164988700120164908601649C1F88801E5
:100B30001548007820B900210A2002F045FC03E0A6
:100B400000200F49091F08600C49887802F09EFBBD
:100B50000A48007830B10A48A838006810B100206F
:100B60000A49086000200A4908600A49C1F8A8013A
:100B700009480470012010BD00040140DC0300207E
:100B8000B00121420080224200000020B4812142B5
:100B9000B0012242000022422C01002010B517486B
:100BA000006820F00800154908600846006820F039
:100BB0001000086000201249887001201149086067
:100BC0001148007820B900210A2002F0FDFB03E063
:100BD00000200C49091F08600949887802F056FB7B
:100BE0000748007830B10748A838006810B10020E5
:100BF0000649086000200649086010BD0004014055
:100C0000DC030020B001214200000020B481214219
:100C1000A801224210B51948006820F008001749C1
:100C200008600846006820F01000086000201449A1
:100C300088700120134908601348007820B900210A
:100C40000A2002F0C1FB03E000200E49091F0860E2
:100C50000B49887802F01AFB0948007830B109483E
:100C6000A838006810B10020084908600020084931
:100C700008600849C1F8A80110BD00000004014047
:100C8000DC030020B001214200000020B481214299
:100C9000B0012242000022422DE9F04F91B04B48B2
:100CA000806801904948C0680290484800690390F4
:100CB0004648406904904548806905904348C069AA
:100CC00006904248006A07904048406A08903F48B2
:100CD000806A09903D48C06A0A903C48006B0B90BE
:100CE0003A48406B0C903948806B0D903748C06B88
:100CF0000E903648006C0F903448406C1090344889
:100D0000007810285FDC002459E04FF0000AD1463B
:100D100022E004EBC40000EB04102E4901EB40017B
:100D200009F10100085C04EBC40101EB0411294A3C
:100D300002EB410101F8090004EBC40000EB0410D0
:100D4000114601EB400010F8090050441FFA80FAE8
:100D500009F1010000F0FF09B9F1310FD9DB01A958
:100D600051F824001C49FFF769FA0546FFF73EFCDD
:100D700004EBC40101EB0411164A02EB410181F8B6
:100D8000310004EBC40000EB0410114601EB4000FD
:100D900090F8310050441FFA80FA32209AFBF0FBA1
:100DA0005846FFF705FC07460C4A0D4BFFF71FFBA3
:100DB0000546FFF72FFC0B490855601CC4B20448D8
:100DC00000788442A1DB11B0BDE8F08FDC03002085
:100DD00064010020E60F002000002041713D0AD789
:100DE000A370F13FD60F002010B5012001F000FCE8
:100DF000002001F0FDFB10BD08B501460020009069
:100E0000034800900098084400900098008808BDAE
:100E1000006C004008B500220092044A0092009A3B
:100E200002440092009A116008BD0000006C00406E
:100E300000BFFEE72DE9F04700240025002600272B
:100E4000A046A14602F0E6FA814601F0B9F904464F
:100E500001F046FB054600F039FD804602F0D2FD68
:100E6000064600F00BF8074644EA050030433843D5
:100E700040EA080040EA0900BDE8F0872DE9FE4F8E
:100E8000002002908249B1F85600FFF7A2FB80468D
:100E90000022804BFFF71DFB0646FFF717FC009072
:100EA000FFF7D1FB04467C4A7C4BFFF712FB8246DE
:100EB000FFF70CFC0190764890F85A00C0F3C01080
:100EC00000B3774800784006000E754908707049F5
:100ED00088680199FFF716FC06D87148007840F041
:100EE00001006F49087005E06D48007800F0FE00D1
:100EF0006B4908706A480078FF2803D10820FFF783
:100F000001FE02906248B0F85A00C0F3002000B31E
:100F1000644800784006000E624908705C49C86861
:100F20000199FFF7EFFB06D85E48007840F001001A
:100F30005C49087005E05B48007800F0FE00594904
:100F4000087058480078FF2803D10920FFF7DAFD20
:100F500002904F48B0F85A00C0F3402000B3524806
:100F600000784006000E5049087049490869019907
:100F7000FFF7C8FB06D84C48007840F001004A490A
:100F8000087005E04848007800F0FE004649087007
:100F900045480078FF2803D10A20FFF7B3FD0290EF
:100FA0003B48B0F85A00C0F3802000B33F480078B7
:100FB0004006000E3D490870354948690199FFF720
:100FC000A1FB06D83948007840F001003749087085
:100FD00005E03648007800F0FE00344908703348D8
:100FE0000078FF2803D10B20FFF78CFD02902848E2
:100FF000B0F85A00C0F3C02000B32D480078400676
:10100000000E2B490870224988690199FFF77AFB85
:1010100006D82748007840F001002549087005E00F
:101020002348007800F0FE0021490870204800782D
:10103000FF2803D10C20FFF765FD02901448B0F89B
:101040005A00C0F3003000B31A4800784006000E82
:10105000184908700E49C8690199FFF753FB06D873
:101060001448007840F001001249087005E011486A
:10107000007800F0FE000F4908700E480078FF2845
:1010800003D10D20FFF73EFD02900298BDE8FE8FD0
:10109000DC030020000024409A9999999999F13F26
:1010A0003E0100203F0100204001002041010020BE
:1010B000420100204301002000F0805111B103499A
:1010C000086001E0024948607047000004040240E3
:1010D0000000024000F0805111B10349086001E0B6
:1010E00002494860704700000404024000000240CA
:1010F00021B1026842F00102026004E002684FF68A
:10110000FE731A400260704701684FF6FE7211408C
:1011100001600021016041608160C1604B498842EB
:1011200008D14A490839496841F00F01474A083A4D
:1011300051608AE045491431884208D14349083951
:10114000496841F0F001414A083A51607DE03F4969
:101150002831884208D13D490839496841F4706115
:101160003A4A083A516070E038493C31884208D127
:1011700036490839496841F47041344A083A5160A7
:1011800063E032495031884208D130490839496812
:1011900041F470212D4A083A516056E02B496431E0
:1011A000884208D129490839496841F47001274A21
:1011B000083A516049E025497831884208D12349ED
:1011C0000839496841F07061204A083A51603CE0B2
:1011D0001F49884206D1011F096841F00F01021F13
:1011E000116032E01A491431884208D11849091FA8
:1011F000096841F0F001164A121F116025E01449F8
:101200002831884208D11249091F096841F47061E8
:101210000F4A121F116018E00D493C31884208D175
:101220000B49091F096841F47041094A121F1160F6
:101230000BE007495031884207D10549091F096869
:1012400041F47021024A121F1160704708000240E9
:10125000080402400146486880B2704701460020F9
:10126000002201F0805313B1054B1A6801E0054BD1
:101270001A6802EA01030BB1012000E00020704768
:1012800000040240000002401AB103680B430360EF
:1012900002E003688B430360704710B500220268C8
:1012A00047F6F0739A430C6A8B6823430C69234317
:1012B0004C6923438C692343CC6923434C6A234301
:1012C0008C6A23431A430260CB6843600B688360D7
:1012D0004B68C36010BD000010B500211048FFF737
:1012E00007FF10480E494439086580790830886442
:1012F00001210B48FFF7FCFE00BF4FF40050FFF741
:10130000ADFF0028F9D04FF40050FFF7D5FE4FF4A1
:101310008050FFF7DFFE00210148FFF7E9FE10BD16
:1013200044000240040000207047000010B508206F
:1013300000F080F8B8B10C4890F85C0080B900204B
:101340000A4908600A49C1F8A8010A490880012031
:1013500009490870012211460648243802F02FFA84
:10136000082000F061F810BDDC030020AC01214230
:1013700000002242240400402A01002010B5102061
:1013800000F058F8002832D0194890F85C0058BB9B
:101390001848006820F47040164908600846006844
:1013A00040F44050086014480078A8B9012013495F
:1013B0000870134908600E48007830B11048A4380E
:1013C000006810B101200F49086001200E49086033
:1013D00000200E49087002E0002009490860002240
:1013E00001210B4802F0EBF9102000F01DF810BDB0
:1013F000DC030020040801402C0100200000002034
:10140000AC012142B4812142A80122422A010020DC
:101410000004004010B5202000F00CF810B120208E
:1014200000F002F810BD000001490860704700009C
:1014300014040140014600200022074B1B6803EA08
:101440000102054B14331B680B4013B10AB1012094
:1014500000E0002070470000000401400021234903
:101460008279002A3AD00A46126803689A430B46EA
:101470001A600A1D126803689A430B1D1A600279EC
:1014800011440A6803681A430A60184A083212684D
:1014900003689A43154B08331A601A1D12680368D3
:1014A0009A43124B0C331A604279102A0ED11A1F3C
:1014B000126803681A430D4B08331A601A1D12682C
:1014C00003681A43094B0C331A600DE0074942794F
:1014D00011440A6803681A430A6005E0027911445E
:1014E0000A6803689A430A607047000000040140DC
:1014F00010B51F480078012839D11E4890F86F00B8
:10150000012824D11B484078642803DB6420194952
:10151000887003E01748407816498870154880782D
:1015200005280CDD134880780A2803DA0A201149BF
:10153000C87007E00F4880780E49C87002E00020AC
:101540000C49C8700B49C87801F0A0FE0FE00948AB
:101550004078642803DB64200649887003E005486E
:101560004078044988700349887801F08FFE10BDE7
:1015700000000020DC03002030B5044604254FF4B1
:10158000302000F06FF80546042D17D10C48006993
:1015900040F002000A49086108464461006940F0D1
:1015A000400008614FF4302000F05CF80546044824
:1015B000006941F6FD71084001490861284630BDC7
:1015C0000020024004200B49C96801F0010109B163
:1015D00001200EE00749C96801F0040109B10220A9
:1015E00007E00449C96801F0100109B1032000E0D7
:1015F00004207047002002400348006940F080004A
:1016000001490861704700000020024070B504469F
:101610000D460426F00200F025F80646042E11D1EE
:101620000948006940F00100074908612580F0027F
:1016300000F018F806460448006941F6FE710840BB
:1016400001490861304670BD00200240024803494C
:101650004860034848607047230167450020024006
:10166000AB89EFCD00B502460423FFF7ABFF03467D
:1016700003E0FFF7A7FF0346521E012B01D1002A0A
:10168000F7D102B90523184600BD000030B589B076
:10169000474801F0C7FA04464648B0F84E00001229
:1016A0008DF80400434890F84E008DF8050041483D
:1016B000B0F8500000128DF806003E4890F8500037
:1016C0008DF807003B48B0F8520000128DF8080072
:1016D000384890F852008DF809003648B0F85400A8
:1016E00000128DF80A00334890F854008DF80B0072
:1016F0003048B0F8560000128DF80C002D4890F8D4
:1017000056008DF80D002B48B0F8580000128DF8E7
:101710000E00284890F858008DF80F002548B0F8C2
:101720005A0042F20401884300128DF8100021484B
:1017300090F85A0004218843C0B28DF811001D486A
:1017400090F866008DF812001A4890F867008DF83E
:101750001300184890F868008DF81400154890F8A8
:1017600069008DF815001348B0F86A0000128DF872
:101770001600104890F86A008DF81700142101A88F
:1017800003F0B8FA85B2A5420FD0102001F010FB8B
:10179000FFF740FA01200849086001221146074876
:1017A00002F00DF810200649087009B030BD0000A5
:1017B0004C800108DC0300209C012242000C004008
:1017C0002C01002010B588B03E48B0F84E00001241
:1017D0008DF800003B4890F84E008DF80100394824
:1017E000B0F8500000128DF80200364890F8500012
:1017F0008DF803003348B0F8520000128DF8040051
:10180000304890F852008DF805002E48B0F854008A
:1018100000128DF806002B4890F854008DF8070050
:101820002848B0F8560000128DF80800254890F8B6
:1018300056008DF809002348B0F8580000128DF8C2
:101840000A00204890F858008DF80B001D48B0F8A9
:101850005A0042F20401884300128DF80C00194826
:1018600090F85A0004218843C0B28DF80D00154845
:1018700090F866008DF80E00124890F867008DF819
:101880000F00104890F868008DF810000D4890F88F
:1018900069008DF811000B48B0F86A0000128DF84D
:1018A0001200084890F86A008DF813001421684669
:1018B00003F020FA84B22146034802F025FB08B069
:1018C00010BD0000DC0300204C80010810B500248E
:1018D0001F480088B0F5C87F33DD00201C49088010
:1018E0001C48B0F85A00C0F3403048B31A4800888A
:1018F0004FF6FF7101EA4000174908801748006859
:10190000012823D103F05AFA14480068012806D1AF
:101910001148008840F001000F49088006E00E4899
:1019200000884FF6FE7108400B4908800A4800887D
:101930004FF6FF71884209D10E20FFF7E3F8044605
:1019400004E003480088401C01490880204610BD7F
:1019500036010020DC03002038010020240122424F
:1019600030B500228B071C0F0F2303FA04F20B4B38
:101970008C1053F824309343084C8D1044F82530D4
:1019800023468C1053F824308C07240F00FA04F4FB
:101990002343024C8D1044F8253030BD080001402F
:1019A0002DE9F041024600250026002000230024F6
:1019B000002791F803C00CF00F0591F803C00CF05C
:1019C000100CBCF1000F03D091F802C04CEA0505E1
:1019D00091F800C0BCF1000F31D0146800202BE05A
:1019E0004FF0010C0CFA00F3B1F800C00CEA03064A
:1019F0009E4220D183004FF00F0C0CFA03F7BC433A
:101A000005FA03FC4CEA040491F803C0BCF1280F6A
:101A100006D14FF0010C0CFA00FCC2F814C00AE029
:101A200091F803C0BCF1480F05D14FF0010C0CFA3E
:101A300000FCC2F810C0401C0828D1D31460B1F8D3
:101A400000C0BCF1FF0F34DD546800202EE000F12F
:101A5000080C4FF0010808FA0CF3B1F800C00CEACA
:101A600003069E4221D183004FF00F0C0CFA03F7BE
:101A7000BC4305FA03FC4CEA040491F803C0BCF132
:101A8000280F05D100F1080C08FA0CF8C2F81480F0
:101A900091F803C0BCF1480F07D100F1080C4FF0DA
:101AA000010808FA0CF8C2F81080401C0828CED3B0
:101AB0005460BDE8F0810000F0B50A460023002420
:101AC0000021002500F00046B6F1004F02D11D4E66
:101AD000F16901E01B4E7168C0F3034583B200F465
:101AE0004016B6F5401F08D121F07061154E76689A
:101AF00026F07066134F7E6012E000F48016B6F593
:101B0000801F06D1032606FA05F4A14341F0706157
:101B100006E0460D360103FA06F6B14341F0706166
:101B200022B1460D360103FA06F6314300F00046B5
:101B3000B6F1004F02D1034EF16101E0014E716038
:101B4000F0BD00000000014010B500F01DF800F0ED
:101B500003F8FFF7CDFC10BD70B5084D002406E07A
:101B60000749085D00F09CFA01C5601CC4B2054835
:101B700000788442F4DBFFF78FF870BDE4030020A7
:101B8000C60F0020640100202DE9F04F87B04FF010
:101B9000000900BF002405E0764800EB041000882F
:101BA0008144641C142CF7D31420B9FBF0FA50467E
:101BB000FEF70FFD07464FF066326F4BFEF717FC3E
:101BC000054600226D4BFEF784FC00226C4BCDE9EC
:101BD0000001FEF70CFC6B4A6B4BCDE90201FEF7EE
:101BE00078FCCDE90401FEF715FD684948704FF017
:101BF0000009002405E05F4800EB0410C088814420
:101C0000641C142CF7D31420B9FBF0F00490FEF7F9
:101C1000E0FC07464FF06632574BFEF7E8FB0546FF
:101C20000022564BFEF755FC8246FEF74FFD05900D
:101C300003F0EAFD554908714FF00009002405E062
:101C40004C4800EB041000898144641C142CF7D329
:101C50001420B9FBF0FB5846FEF7BBFC05464FF0DD
:101C60006632454BFEF7C3FB07460022434BFEF7A7
:101C700030FCCDE90401FEF729FD824603F0C4FDE6
:101C8000424948714FF00009002405E0394800EB53
:101C9000041040898144641C142CF7D31420B9FB30
:101CA000F0F00490FEF795FC05464FF06632324B9B
:101CB000FEF79DFB07460022304BFEF70AFC8246EA
:101CC000FEF704FD059003F09FFD304988714FF049
:101CD0000009002405E0274800EB041080898144B6
:101CE000641C142CF7D31420B9FBF0FB5846FEF704
:101CF00070FC05464FF066321F4BFEF778FB002262
:101D00001E4BCDE90401FEF7E4FB0746FEF7DEFCBF
:101D1000824603F079FD1D49C8714FF00009002487
:101D200005E0144800EB0410C0898144641C962C23
:101D3000F7D39620B9FBF0FA5046FEF74AFC074667
:101D40004FF066320C4BFEF752FB00220B4BCDE9F5
:101D50000401FEF7BEFB0546FEF7B8FC0B4988649C
:101D60000B480078012802D108464078887007B0F7
:101D7000BDE8F08F5805002066660A400000B040BC
:101D800000005A409A99999999990140DC030020E2
:101D90000000002000BFFEE710B5002009490860E0
:101DA00000F05AFF00200849C1F89C0100F00EF82D
:101DB00001200449086000F009F800200249C1F838
:101DC000980110BD988121420080214200BF00BFD0
:101DD00000BF00BF00BF704710B500200949086070
:101DE00000F03AFF01200849C1F89C01FFF7EEFF1F
:101DF000012004490860FFF7E9FF00200249C1F80B
:101E0000980110BD988121420080214270B505469D
:101E1000002400F011FF002614E000200E490860A5
:101E2000FFF7D4FF01200D49C1F898016006040EA8
:101E300009487C38006808B1601CC4B2FFF7C6FFCF
:101E4000701CC6B2082EE8DB15B9FFF7C5FF01E02C
:101E5000FFF7A2FF204670BD9881214200802142F9
:101E600070B5044600F0F8FE00200E490860002519
:101E700014E0E0090B49091D08606006040EFFF735
:101E8000A5FF01200849C1F89801FFF79FFF002036
:101E900004490860FFF79AFF681CC5B2082DE8DB0B
:101EA00070BD0000988121420080214210B500F0F1
:101EB000D3FE0120084908600849C1F89801FFF7DE
:101EC00085FF002004490860FFF780FF00200349D8
:101ED000C1F8980110BD00009C8121420080214280
:101EE00010B500F0B9FE0020074908600749C1F8A5
:101EF0009C01FFF76BFF0120034908600349C1F80B
:101F00009C01FFF763FF10BD9881214200802142B0
:101F100010B5002400F090FE01200E490860FFF784
:101F200055FF01200C49C1F89801FFF74FFF07E06A
:101F3000601CC4B2FA2C03DDFFF7D2FF012010BDF4
:101F40000448803800680028F2D10249091F08605F
:101F500000BFF4E79C8121420080214238B54FF454
:101F600000650121082000F023FBC020ADF800002F
:101F700014208DF8030003208DF8020069462048E4
:101F8000FFF70EFD01201F4908601F49C1F89C01A1
:101F9000002414E01D49085D002100F03DF84FF6D3
:101FA000FF71884209D01948015D1948027800780C
:101FB000401C174B187017488154601CC4B2102C79
:101FC000E8DB13480078062802DB06201049087079
:101FD00000240FE00F49085D43F6F712002100F0DE
:101FE00041F80C49085D4FF40062052100F03AF811
:101FF000601CC4B2064800788442EBDB38BD0000A8
:10200000000C0140988121420080214254010020AF
:1020100064010020C60F002070B504460D4600265E
:10202000FFF744FF04F0FE00FFF71AFFFFF770FF11
:102030002846FFF715FFFFF76BFFFFF737FF44F068
:102040000100FFF70DFFFFF763FF0120FFF7DEFE42
:1020500006460020FFF7DAFE40EA0626FFF740FFBB
:10206000304670BD70B505460E461446FFF71EFF9C
:1020700005F0FE00FFF7F4FEFFF74AFF3046FFF7DA
:10208000EFFEFFF745FF200AFFF7EAFEFFF740FFEC
:10209000E0B2FFF7E5FEFFF73BFFFFF721FF70BD62
:1020A0002DE9FC5F834604215846FFF7B5FF8246C1
:1020B0000AF4004008B1CAF30E0A5046FEF789FA46
:1020C0000A4A0B4BCDE90001FEF791F98046002248
:1020D000084BFEF78CF906460022074BFEF7F9F98C
:1020E0000446FEF7F3FABDE8FC9F0000FCA9F1D21C
:1020F0004D62603F00002A4000002C400146CA1794
:1021000001EB92729210A1EB820292B9642091FBD2
:10211000F0F200FB121050B94FF4C87091FBF0F2CE
:1021200000FB121008B9012070470020FCE70120D5
:10213000FAE70020F8E700BFFEE7704770B500211E
:1021400000230F22C47804B3154C246804F4E0641F
:10215000C4F5E064210AC1F10403CA40447804FADA
:1021600003F184781440214309010E4C0678A155EF
:10217000047804F01F050124AC4005786D11AD0012
:1021800005F1E025C5F8004109E0047804F01F05D9
:102190000124AC40044D0678761145F8264070BD08
:1021A0000CED00E000E400E080E100E002490143C2
:1021B000024A1160704700000000FA050CED00E0D3
:1021C00070B50024604890F85A00C0F34000002821
:1021D00041D05E48007800283CD15B4880780528D3
:1021E00038DD59498868FEF72EFA05464FF033323C
:1021F000574BFEF753FA2DD2564800884FF6FF7121
:1022000001EA4000534908804F49886CFEF71BFAE9
:1022100005460022504BFEF741FA0AD84F480068A5
:10222000012806D14B48008840F001004949088048
:1022300006E0484800884FF6FE710840454908808E
:10224000444800884FF6FF7188427AD10220FEF799
:1022500059FC044675E03C4890F85A00C0F3400031
:10226000D8B33A480078C0BB37488078052834DDB9
:1022700035498868FEF7E7F905464FF03332344BAD
:10228000FEF70CFA29D2334800884FF6FF7101EAB5
:102290004000304908802C49886CFEF7D4F9054687
:1022A00000222D4BFEF7FAF906D82A48008840F0A4
:1022B00001002849088006E0264800884FF6FE7194
:1022C000084024490880234800884FF6FF7188425F
:1022D00003D10220FEF716FC04461B4890F85A0072
:1022E00000F0010068B31948007850BB16488078A8
:1022F000052826DD14498868FEF7A5F905464FF044
:102300003332134BFEF7CAF91BD214480068012878
:1023100006D11348008840F001001149088006E00A
:102320000F4800884FF6FE7108400D4908800C48A0
:1023300000884FF6FF71884203D10120FEF7E2FBCF
:102340000446204670BD0000DC0300202A01002066
:102350003333E33F3201002000000A400481214270
:102360003001002010B54FF48030FFF75DF80B48C6
:102370000068401C0949086072B601214FF0C05046
:1023800000F006F9012000F00BF80448017828203D
:10239000FEF740FDFEF702FC10BD0000AC0300207C
:1023A000014908627047000000000E42464908706B
:1023B0000978F72901D1012100E00021434A127870
:1023C0000AB9012200E00022114011B101213F4A67
:1023D00011703E490978082972D2DFE801F07104D2
:1023E0000E253C444C64F721394A11700021394ACA
:1023F00011700221354A117063E035498978324AFB
:10240000127842EA0121324A518032490978491C46
:10241000304A117011460978022904D10021117047
:1024200003212A4A11704CE029490979264A127879
:1024300042EA0121264A918026490978491C254A09
:10244000117011460978022904D10021117004216C
:102450001E4A117035E01C4909781D4A9171052109
:102460001A4A11702DE018490978194AD1710621CC
:10247000164A117025E014490A7815490831154BA0
:102480001B78CA5413490978491C124A1170104923
:10249000C9791278914205D100210E4A11700721A5
:1024A0000A4A11700DE008490978094A82F80711B3
:1024B0000021064A11700121074A117001E0FFE76F
:1024C00000BF00BF704700000B0100200801002082
:1024D000500400200C010020010000207047000083
:1024E00010B5002418480078182825DD002016496A
:1024F0000870164890F85A00C0F3800008B31448DA
:102500000068A8B9012002F059FC11480068C0B960
:1025100010480078401C0F4908700846007832289F
:102520000FDD002008700320FEF7ECFA044608E0F7
:1025300000200849087004E003480078401C024964
:102540000870204610BD000034010020DC0300208C
:10255000308121423501002001460020034A5068A5
:1025600020F44040084350607047000000100240D3
:1025700029B1064A52690243044B5A6104E0034AF6
:1025800052698243014B5A617047000000100240BB
:1025900029B1064AD2690243044BDA6104E0034AD6
:1025A000D2698243014BDA6170470000001002409B
:1025B00029B1064A92690243044B9A6104E0034A36
:1025C00092698243014B9A617047000000100240FB
:1025D00029B1064AD2680243044BDA6004E0034A98
:1025E000D2688243014BDA6070470000001002405D
:1025F00001490860704700004004424230B50021A4
:102600000022002400232D4D6D6805F00C0121B13E
:10261000042905D0082923D105E0294D056022E0D1
:10262000274D05601FE0254D6D6805F47012234DA0
:102630006D6805F48034022505EB92421CB9214DEA
:10264000554305600BE01D4D6D6805F400351DB167
:102650001C4D5543056002E0194D5543056002E0ED
:10266000174D056000BF00BF144D6D6805F0F00107
:102670000909154D6B5C0568DD4045600F4D6D68BF
:1026800005F4E061090A104D6B5C4568DD4085602A
:102690000A4D6D6805F46051C90A0B4D6B5C4568C5
:1026A000DD40C560054D6D6805F44041890B074D5F
:1026B0006B5CC568B5FBF3F5056130BD00100240E9
:1026C00000127A0000093D00C4030020D40300205A
:1026D00010B501460022002300204A11012A02D130
:1026E000094C236806E0022A02D1074C236A01E064
:1026F000054C636A01F01F02012494401C400CB198
:10270000012000E0002010BD0010024000210B4A13
:1027100011700A4A203A82F82010012802D00428B9
:1027200008D103E00121054A117004E00521034AA4
:10273000117000E000BF00BF704700002010024091
:1027400001490860704700003C0442420249096A9E
:102750000143014A11627047001002400249098892
:102760008143014A118070470428004003480088D3
:1027700040F0100001490880704700000428004024
:10278000034800884FF6EF71084001490880704700
:10279000042800402DE9F04100260024002500F027
:1027A0007DF8064607463948B6FBF0F438480088FD
:1027B000A0423CD036490C8040F2B27510E0284669
:1027C000FFF79CFC40B1B4F5B77F02D3A4F5B77412
:1027D00004E0681C85B206E0A4F26D14681C85B2A2
:1027E000B4F5B67FEBD800BF2A480580002516E077
:1027F00028490888FFF782FC30B1012D04D11D2C37
:1028000001D31D3C09E00CE02348405DA04203D801
:102810002148405D241A00E003E0681C85B21C2CAE
:10282000E6D200BF681C1B494880601C888017489E
:10283000B6FBF0F100FB11644FF46160B4FBF0F003
:102840001449C8804FF46160B4FBF0F100FB114003
:102850003C21B0FBF1F00F4908814FF46160B4FBFB
:10286000F0F100FB11403C21B0FBF1F201FB120042
:10287000084948810B461A799978188800F02AF897
:10288000044988813846BDE8F0810000805101008C
:1028900010010020B80F0020085D00080021034847
:1028A0000188001F008841EA004070471C28004052
:1028B00001460020064A12880A40D0B2044A121F7C
:1028C00012880A4012B108B1012000E000207047D0
:1028D00004280040F0B503460C461546642093FBDF
:1028E000F0F0C6B2642093FBF0F700FB1730C1B2E2
:1028F000132E02DD01F16400C1B20846CF1701EBCF
:10290000977701EBA707BAB2072092FBF0F700FB1D
:10291000172082B25719601EDFF82CC01CF8000087
:10292000384482B2CF1701EB9777BF10A1EB87072E
:102930001FB9032C01DA501E82B2072092FBF0F778
:1029400000FB1720C0B2F0BDFC5C000810B50220EF
:10295000FFF7AEFF50B10220FFF700FF00F022F9B1
:1029600002F00AFE0021022000F006F80720FFF71F
:10297000F5FE00F017F910BD29B1064A128802438E
:10298000044B1A8004E0034A12888243014B1A80E8
:102990007047000000280040FEB5002401214FF0E0
:1029A000C050FFF7F5FD0120FFF7FAFC0420FEF709
:1029B00023FA45F2AA5188424BD0FEF715FA0120BE
:1029C000FFF7A4FE04E0601CC4B20A2002F0D0F9B4
:1029D0004120FFF77DFE0028F5D0FA2C01DB012015
:1029E000FEBD4FF48070FFF7B1FE0120FFF7A8FE97
:1029F00000F0D8F800F0E0F800210120FFF7BCFF5C
:102A000000210220FFF7B8FF00F0CCF8FFF7AEFE80
:102A100047F6FF7000F0B6F800F0C4F81648807A68
:102A20001549097A144ECDE90010B3793279B1789D
:102A3000308800F025F8FFF7A3FEFFF72FFF0546CB
:102A40000E48284400F082F845F2AA510420FEF70F
:102A5000E1F903208DF8080000208DF809008DF8B9
:102A60000A0001208DF80B0002A8FFF767FBFFF7B3
:102A700091FE0020B4E70000F05C000800A776009B
:102A80002DE9F05F06460F4690469946DDE90AAB10
:102A9000002440F2B270864203DB40F633008642E7
:102AA00002DD0120BDE8F09F40F2B2750AE0284641
:102AB000FFF724FB10B12148044401E020480444FE
:102AC000681C85B2B542F2DB002510E01D48405D70
:102AD00040F2A321484304EBC0143046FFF70EFB3D
:102AE00018B1012D01D118480444681C85B2781E24
:102AF000A842EBDCA8F1010040F2A321484304EB1B
:102B0000C014C9EB4910C0EB092004EB0014CAEB58
:102B10000A1004EB80045C4401214FF0C050FFF721
:102B200037FD0120FFF73CFC204600F01DF800F0C7
:102B300039F8FFF72FFE0020B4E700000085E2011E
:102B40008033E101085D00088051010000B50246B4
:102B5000FFF70CFE100C03490880091D0A80FFF7DF
:102B60000FFE00BD2028004000B50246FFF7FEFD25
:102B7000100C03490880091D0A80FFF701FE00BD03
:102B80001828004000B50246FFF7F0FDC2F30340ED
:102B900003490880091D0A80FFF7F2FD00BD00000F
:102BA0000828004000BF0348008800F020000028EB
:102BB000F9D0704704280040074800884FF6F771A5
:102BC00008400549088000BF0348008800F008005D
:102BD0000028F9D0704700000428004070B5054671
:102BE00000260F4800F01EF804B2142C14DC601B01
:102BF000401E04B2002C02DA04F1140004B2002CCE
:102C00000BDB142C09DA0649891C0C2202FB041088
:102C100000F008F8C6B200E00026304670BD0000A3
:102C20000000020818B5044601226946204600F05B
:102C300023F8BDF8000018BD10B5802004490880B5
:102C40004820C870032088700248FEF7A9FE10BD16
:102C500050010020000C014010B58020044908807C
:102C60001420C870032088700248FEF799FE10BD3A
:102C700050010020000C014030B503460C461546BB
:102C8000002207E0184600F008F824F812009B1C08
:102C9000501C82B2AA42F5DB30BD0146088870475D
:102CA0002DE9F05F80468A461746B8F1006F02D3DF
:102CB0003348804501D3BDE8F09FFEF7C7FCA8F17B
:102CC000006B4FEADB25CBF34909C9F58064A742C5
:102CD00000DC3C464DE04FF0006101EBC5204A149A
:102CE0002849FFF7C9FF00260BE009EB060025493C
:102CF00031F810004FF6FF71884200D003E0701CDD
:102D000086B2A642F1DB00BFA6421BDA4FF000619B
:102D100001EBC520FEF730FC002608E03AF816006B
:102D200006EB0901174A22F81100701C86B2A64270
:102D3000F4DB4FF0006101EBC5204A14114900F0AB
:102D400023F804E022465146404600F01DF8A74211
:102D500000D10FE06D1C4FF000090AEB440AA044BB
:102D6000381B87B2B7F5806F02DD4FF4806400E056
:102D70003C46B0E700BFFEF73FFC00BF9BE700000A
:102D800000000408061300202DE9F04105460E4618
:102D90001746002407E036F814102846FEF736FCE4
:102DA000AD1C601C84B2BC42F5DBBDE8F08170470D
:102DB00010B504460320094988710120C871042018
:102DC0000872084644728079C01DC1B2034802F0FF
:102DD00081F802498872FEF77FFA10BD04000020D6
:102DE00000B58DB0182201A93748FFF745FF1D2017
:102DF000364988710120C87105200872BDF80400A9
:102E00004872BDF8060000128872BDF80600C8724C
:102E1000BDF808000873BDF80A004873BDF80C003F
:102E20008873BDF80E00C873BDF810000874BDF8B3
:102E300012004874BDF814008874BDF81600001222
:102E4000C8749DF8160008759DF8180048759DF81F
:102E50001A0088759DF81C00C8759DF81E0008763C
:102E600001A8007F487601A8807F8876BDF82400FD
:102E7000C876BDF82600001208779DF8260048772E
:102E80009DF8280088779DF82A00C8779DF82C00C7
:102E900081F820009DF82E0081F821009DF8300077
:102EA00081F822009DF8320081F8230008468079DD
:102EB000C01DC1B2054802F00DF8044981F8240094
:102EC000FEF70AFA0DB000BD1280010804000020D0
:102ED000FEB50546142D59DA3E48FFF7A3FE044619
:102EE000601984B2132C02DDA4F1140084B2142CF6
:102EF0006FDA3849891C0C2202FB0410052269464E
:102F0000FFF7BAFE0720344988710120C8710720F5
:102F10000872BDF800004872BDF80200A0F5FA6022
:102F20008872BDF80400C872BDF806000873BDF8C9
:102F30000800487308468079C01DC1B2264801F0D8
:102F4000C9FF254988730846807A642801DA012080
:102F500000E000202049C97A0C2901DC012100E0B1
:102F6000002108401C49097B1F2901DC012100E0E8
:102F7000002108401849497B182901DC012100E0A3
:102F80000021084008B1FEF7A7F922E01348FFF737
:102F900049FE06461148801CFFF744FE07460720FD
:102FA0000D4988710120C8710720087200204872FD
:102FB00038128872CF72301208734E7308468079C7
:102FC000C01DC1B2044801F085FF03498873FEF7B4
:102FD00083F9FEBD00000208040000200010020872
:102FE00070B5FFF7D7FBFFF7E7FD694800782E3093
:102FF000684988710120C87106200872664890F8F7
:103000004E004872644890F850008872624890F808
:103010005200C872604890F8540008735E4890F8F7
:10302000560048735C4890F8580088735A48B0F8C6
:103030005A502812C8730D74574890F85C004874B1
:10304000554890F85E008874534890F85D00C87445
:103050005148B0F86000001208754F4890F86000C1
:1030600048754D4890F8620088754B4890F86300A9
:10307000C875494890F864000876474890F865009C
:103080004876464800880012887644480078C8761A
:103090004248807808774148007948773F488079EE
:1030A00088773E48007AC8773C48807A81F82000CB
:1030B0003948807881F821003748007981F822006A
:1030C0003548407981F823003348807981F824001D
:1030D0003148C07981F825002D48007881F8260014
:1030E0002D4890F8660081F827002B4890F867007B
:1030F00081F82800284890F8680081F829002648BF
:1031000090F8690081F82A002348B0F86A00000AA4
:1031100081F82B00204890F86A0081F82C001E48A6
:1031200090F86E0081F82D001B48B0F86C00000A82
:1031300081F82E00184890F86C0081F82F000020CC
:1031400081F8300081F8310081F8320081F83300D5
:1031500081F83400002407E01148015D04F13500D6
:103160000C4A1154601CC4B2094800788442F3DB55
:1031700008488079C01DC1B2064801F0ABFE044981
:1031800009783531034A5054FEF7A6F870BD0000A7
:103190006401002004000020DC030020B80F0020A0
:1031A000D60F002010B500F001F810BD0CB50020BE
:1031B000019000903348006840F480303149086045
:1031C00000BF3048006800F4003000900198401CB7
:1031D0000190009818B90198B0F5A06FF1D1294875
:1031E000006800F4003010B10120009001E00020E0
:1031F00000900098012843D12348006840F0100057
:10320000214908600846006820F00300086008466D
:10321000006840F0020008601A4840681949486098
:103220000846406848600846406840F4806048604E
:103230000846406820F47C1048600846406840F426
:10324000E81048600846006840F08070086000BFE1
:103250000C48006800F000700028F9D00948406868
:1032600020F00300074948600846406840F002002B
:10327000486000BF0348406800F00C000828F9D1FE
:103280000CBD000000100240002002402DE9F14F6B
:1032900092B04249B1F85800FDF79BF90746002269
:1032A0003F4BFDF716F90546FDF710FA10904FF069
:1032B000000949461098FCF7BBFF8246FDF7C3F9A9
:1032C0000746384A384BFDF792F805460022374B3F
:1032D000FDF7FFF8CDE90A014846FDF7B4F982464B
:1032E0008B461298FDF775F90746884649461098AF
:1032F000FCF79EFF0190FDF7A6F9054600222C4B36
:10330000FDF7E7F83A464346CDE90201FDF76FF8CD
:1033100052465B46CDE90401FCF7C2FF214A254B2A
:10332000CDE90601FDF763F8CDE90801DDE90A23DF
:10333000FCF7B6FF0022204BCDE90C01FDF757F852
:10334000CDE90E01FDF7C2F904461C492046FCF701
:1033500075FF8346FDF74AF91FFA80FA5046FDF7DC
:1033600038F907460022124BFDF7B3F80546FDF782
:10337000ADF904462046FDF766F90746104A114BA1
:10338000FDF735F80546FDF7A1F904462146012071
:1033900000F0F6FA13B0BDE8F08F0000DC03002067
:1033A000000024407B14AE47E17A743F00003440B3
:1033B00000005940E17A943F0000FE3F0000C842FF
:1033C000C3F5285C8FC2F13F70B504460D4600215D
:1033D0000E4800F03BFA00200C49243108800C48CC
:1033E000B0FBF4F0401E09492C3108800848B0FBBE
:1033F000F4F068436421B0FBF1F0044940310880E7
:103400000821024800F022FA70BD0000002C0140A3
:103410004019010010B5002407480068012809D1AF
:1034200001F0CCFC04480068012803D10F20FDF70F
:1034300069FB0446204610BD20012242042808D121
:103440004FF0E021096941F004014FF0E0221161E1
:1034500007E04FF0E021096921F004014FF0E0227C
:10346000116170477047000010B51348006840F0C4
:1034700001001149086008464068104908400E499B
:103480004860084600680E4908400B490860084635
:10349000006820F4802008600846406820F4FE00A0
:1034A00048604FF41F008860FFF77CFE4FF000601B
:1034B0000449086010BD0000001002400000FFF841
:1034C000FFFFF6FE08ED00E010B50121880700F0CF
:1034D00065F9002858D02D4890F85C0040B9FEF7F7
:1034E00033FB2B48007818B9FDF7A4FC2849087075
:1034F00028480078642817D125480078A0B12648CC
:10350000007888B900202349087001202349086009
:1035100001221146224800F052F922480078FFF7B4
:1035200047FC01201C4908701A4801780078401CAB
:10353000184A1070962921D10020114608701A48A7
:103540000078152809DA18480078FFF7C1FC1648FA
:103550000078401C1449087012E01448007808B93B
:10356000FFF73EFD11480078401C104908700846DE
:103570000078032804DB0020087001E000F0C6FD9D
:103580000121880700F0ECF810BD0000DC030020EA
:103590004601002047010020450100209C012242F5
:1035A000000C00402C0100200901002044010020F3
:1035B00010B501212A4800F0F1F800284ED0002073
:1035C0002849887028490860FFF760FE00202749D5
:1035D000C1F8A8012348007830B12348A438006816
:1035E00010B10020224908600020224908702248BA
:1035F000006820F47040204908600846006840F4E4
:10360000304008601A48A838006801281DD10846D3
:10361000006820F4704008600846006840F440509C
:1036200008600120134908700E48007830B10E4838
:10363000A438006810B101200D49086000200F492E
:10364000086001200E49C1F8AC01002201210448A4
:1036500000F0B5F80121024800F082F810BD00002A
:1036600000040040DC030020AC01214200002242A3
:10367000B48121420000002004080140A801224238
:103680000000214210B50121274800F087F80028EA
:1036900049D0264890F85C00E8B125480078401CE5
:1036A0002349087008460078022838DB002008709B
:1036B0002048006808B9012000E000201D4908608A
:1036C0001D48D0F8B00108B9012000E000201949D8
:1036D0001431086023E019480078401C174908702D
:1036E00008460078052809DB0020087011480068AA
:1036F00008B9012000E000200E4908601048007859
:1037000028280CDA0E480078401C0D49087008463D
:103710000078192803D10B48007800F0BDFB012187
:10372000014800F01DF810BD000C0040DC03002033
:103730004A0100209C01224200002242490100204F
:10374000480100202C01002021B1028842F08002B3
:10375000028004E002884FF67F731A4002807047AF
:10376000CA430282704721B1028842F001020280FE
:1037700004E002884FF6FE731A400280704731B1B0
:10378000B0F8442042F40042A0F8442005E0B0F82C
:103790004420C2F30E02A0F84420704730B5024620
:1037A000002000230024158A05EA0103958905EA13
:1037B000010413B10CB1012000E0002030BD1AB1AA
:1037C00083890B43838102E083898B438381704724
:1037D00070B5002200230024058C4EF6FF7635409C
:1037E0000584038C8488828B48F6FF752A404FF647
:1037F000FF452A400D884FF6FF7606EA05252A4345
:103800004DF6FF752B400D8906EA05352B434D8893
:1038100006EA05352B430B4DA84202D00A4DA842BB
:1038200008D14BF6FF752C408D894FF6FF7606EADE
:1038300085152C4384808283CD88A0F84050038472
:1038400070BD0000002C0140003401400A460021F8
:10385000818B4FF2FF7319404FF6FF7303EA022387
:103860001943818370470000002202881D4B984253
:103870000ED01D4B98420BD0B0F1804F08D01B4B9F
:10388000984205D01A4B984202D01A4B984204D164
:103890004FF68F731A404B881A43174B984207D044
:1038A000164B984204D04FF6FF431A40CB881A4378
:1038B00002808B8883850B8803850A4B98420BD046
:1038C000094B984208D00E4B984205D00D4B9842B8
:1038D00002D00D4B984201D10B7A038601238382DB
:1038E00070470000002C01400034014000040040FB
:1038F00000080040000C0040001000400014004090
:1039000000400140004401400048014070B50446B9
:10391000A007040E002507E004F0800000F00AF87C
:103920006006040E681CC5B2022DF5DB012000F014
:1039300001F870BD18B90021064A116002E00121AA
:10394000044A11600121044A11600021034AC2F8AF
:1039500098117047BC812142980122420000224206
:1039600070B50446002507E004F08000FFF7E2FF91
:103970006006040E681CC5B2082DF5DB70BD0000A2
:103980002DE9F04F85B083468A465046FCF75BFE32
:10399000804600224FF08043FCF79BFD00224FF051
:1039A0008043CDE90001FCF794FD0022104BCDE9E6
:1039B0000201FCF71CFD064600220E4BFCF711FD30
:1039C0000446FCF727FEC0B2049000200A490860B4
:1039D0005846FFF79BFF0498FFF7C2FF00200749F6
:1039E000C1F8B80101200649086005B0BDE8F08FB4
:1039F000000070400000F03F980122420080214208
:103A0000B881214270B50025494890F8544090F89B
:103A10005A00C0F3C000E8B1464800784006000EE6
:103A20004449087042480079A04205DB0846007806
:103A300040F00100087005E03E48007800F0FE000C
:103A40003C4908703B480078FF2803D10420FDF76B
:103A500059F80546364890F85A00C0F30010E8B10E
:103A6000354800784006000E3349087030484079E8
:103A7000A04205DB0846007840F00100087005E030
:103A80002D48007800F0FE002B4908702A48007885
:103A9000FF2803D10520FDF735F80546244890F8A6
:103AA0005A00C0F34010E8B1244800784006000EE8
:103AB000224908701E488079A04205DB084600783C
:103AC00040F00100087005E01C48007800F0FE009E
:103AD0001A49087019480078FF2803D10620FDF71D
:103AE00011F80546124890F85A00C0F38010E8B16A
:103AF000134800784006000E114908700C48C07940
:103B0000A04205DB0846007840F00100087005E09F
:103B10000B48007800F0FE0009490870084800785A
:103B2000FF2803D10720FCF7EDFF0546284670BDAE
:103B3000DC0300203A0100203B0100203C01002072
:103B40003D01002070B540F22441164800F0E0F835
:103B500030B314480088C5B21248001D0088C5B2B1
:103B600000211148FDF7C4FA4FF48030FDF7A4FAA4
:103B70000D48FDF76FFBC0F13C00C5B2002405E025
:103B80000A49085DFEF712FC601CC4B2AC42F7DBC8
:103B90003C2005495839C86501210348FDF7A8FABA
:103BA00070BD00000038014058000240B80E0020EF
:103BB00010B50121354800F09EF830B1334800F0CF
:103BC00063F90121314800F069F808212F4800F01D
:103BD00092F830B12D4800F057F908212B4800F039
:103BE0005DF82021294800F086F801283BD12748BC
:103BF00000F04AF9264908702648008800F4004081
:103C000088BB2448008800F4804070B108460078E2
:103C10000A2803D000201F49088024E01D4800889E
:103C200040F400401B4908801DE0194800780D2829
:103C300006D11848008840F480401649088012E0F8
:103C40001348007813490988C1F30D01124A5054F2
:103C500010480088401C0F49088008460088092841
:103C600001DD0020088040F22551084800F050F89E
:103C700058B12021054800F011F840F225510348C1
:103C800000F015F8014800F0FFF810BD00440040B6
:103C9000A603002066010020061B002001F400722C
:103CA000B2F5007F00D100BFCA430280704710B553
:103CB0000022002340F66A14A14200D100BF0A127C
:103CC00001249440A3B2DC43048010BD21B1828959
:103CD00042F40052828104E082894DF6FF731A405B
:103CE000828170471AB1838A0B43838202E0838A00
:103CF0008B438382704702460020B1F5007F00D1DC
:103D000000BF13880B400BB1012000E0002070477A
:103D100070B50246002400230025002040F66A16F4
:103D2000B14200D100BFC1F3421501F01F030126CB
:103D300006FA03F3012D02D19689334006E0022DE5
:103D400002D1168A334001E0968A33400C120126D4
:103D500006FA04F41688344013B10CB1012000E0D7
:103D6000002070BDF0B50346002400260025002089
:103D700040F66A17B94200D100BF1846C1F3421499
:103D800001F01F06012707FA06F5012C01D10C30BE
:103D900004E0022C01D1103000E014301AB10768A1
:103DA0002F43076002E00768AF430760F0BD0000E3
:103DB0002DE9F04786B005460E460024A24600BF16
:103DC000A1460027B08900B100BF2F462C8A4CF6CF
:103DD000FF700440F08804432C82AC894EF6F31047
:103DE0000440B08831890843718908430443AC8199
:103DF000AC8A4FF6FF400440B0890443AC8201A86E
:103E0000FEF7FCFB1F48874202D1DDF810A001E05D
:103E1000DDF80CA0A88900F4004040B10AEBCA000C
:103E200000EB0A1031684900B0FBF1F807E00AEB3B
:103E3000CA0000EB0A1031688900B0FBF1F8642079
:103E4000B8FBF0F004012009642101FB1089A88966
:103E500000F4004040B1322000EBC900B0FBF1F0AB
:103E600000F00700044308E0322000EB0910642151
:103E7000B0FBF1F000F00F0004432C8106B0BDE868
:103E8000F08700000038014001468888C0F3080030
:103E9000704700BFFEE700003EB50546FEF77AFC1E
:103EA000FEF78AFEADF8005015480088ADF8020014
:103EB00013484088ADF8040011488088ADF806002A
:103EC0000F48C088ADF808000E48FEF7ABFE044668
:103ED000142C04DB00210B4800F016F800240949DB
:103EE000891C0C2202FB041005226946FEF7D8FE4D
:103EF000601C84B22146034800F006F83EBD000075
:103F0000B80F00200000020813B50446012201A9E1
:103F10002046FEF7C5FE1CBD02E008C8121F08C1FE
:103F2000002AFAD170477047002001E001C1121F3A
:103F3000002AFBD17047000000B591B0012140F28A
:103F40001C60FEF735FB01210846FEF711FB4FF41C
:103F50004040FEF701FB00208DF82F00CE20ADF889
:103F60002C000BA95448FDF71BFD0120ADF82C00D7
:103F70000BA95248FDF714FD3020ADF82C000BA919
:103F80004F48FDF70DFD4F48FDF7BEF84E48009035
:103F90004E480190002002904FF49660039000205C
:103FA000049080200590400006908000079020201B
:103FB00008900002099000200A9069464148FDF7E8
:103FC0006CF901213F48FDF793F83F484C38FCF766
:103FD000BDFC00200C9001208DF834008DF83500D8
:103FE0004FF460200E9000200F9008208DF84000C4
:103FF0000CA935484C38FCF7EBFC0523012211468F
:1040000031484C38FCF70CFD0523022211462E489E
:104010004C38FCF705FD0523032211462A484C388D
:10402000FCF7FEFC05230422062127484C38FCF748
:10403000F7FC05231A46072123484C38FCF7F0FC0F
:10404000052306220E2120484C38FCF7E9FC052305
:1040500007220F211C484C38FCF7E2FC05230822FC
:10406000114619484C38FCF7DBFC012116484C3846
:10407000FCF760FC012114484C38FCF750FC124856
:104080004C38FCF729FD00BF0F484C38FCF796FC74
:104090000028F9D10C484C38FCF72EFD00BF0A4827
:1040A0004C38FCF781FC0028F9D1012106484C3836
:1040B000FCF717FD11B000BD00080140000C0140E5
:1040C00000100140080002404C2401405805002027
:1040D0003EB50C4A07CA8DE8070000210A48FFF7E1
:1040E00013FF00240AE00849891C0C2202FB04107B
:1040F00005226946FEF7D4FD601CC4B2142CF2DB25
:104100003EBD0000E45C0008000002082DE9FC4709
:10411000F848007801287DD10020F6490870F6485B
:10412000407AF549097A40EA012040F20722811AD3
:10413000904270D025DCB0F5857F6DD009DCA0F20F
:104140000110082869D2DFE800F053FDFCFBFAF902
:10415000F8F740F20222811A90427DD00ADCA0F2E8
:104160000B10002879D0012878D0032877D0F628C2
:1041700053D164E3012973D0032972D00429F7D104
:10418000B9E340F20132881A91426BD018DC40F258
:10419000FD22A1EB0200914271D00ADC01296FD00F
:1041A000A1F2FA2100296CD001296BD00229DFD1BC
:1041B000F1E3012867D002287DD00328D8D1EBE3B2
:1041C000062879D008DC012877D0022876D0032889
:1041D00075D00528CCD1EFE3072871D0A0F60120D7
:1041E00000286ED0A0F5824003380028C0D1F1E34A
:1041F000C24890F85C0000285CD1BF48807A012852
:104200007ED1BF4800780028F6D1BB48C07A642828
:1042100050DC03E0FBE372E392E1F9E3B648407B54
:104220006428F5DCB54890F86F0001284AD1B248FF
:10423000C07A05283EDD00220121B248FFF7BFFA0F
:10424000AE48007828B1B048006810B10120AF49ED
:1042500008600120AE4906E004E387E189E1A7E2B6
:104260003AE345E3F3E30860A348C07AA3498870C2
:10427000084680780A2807DA0A20C87008E0D9E3DF
:1042800040E37BE399E3F2E39C4880789B49C87064
:104290009A49C878FEF7FAFF052000F08FFD00204C
:1042A0009C490870944A517B107BFFF78DF80120E0
:1042B0009949087052E0F7E3F7E3F7E3F7E3F7E330
:1042C000F7E359E1002201218E48FFF778FA8B4885
:1042D000007828B18C48006810B101208B49086033
:1042E00001208B4908608448C07A844988708878A6
:1042F000FEF7CCFF052000F061FD0020854900E0BD
:1043000009E008707C4A517B107BFFF75DF80120C3
:104310008149087022E000207849887001207D4999
:1043200008700020FEF7B2FF00210A20FFF74CF8CA
:104330007248007868B106E090E083E076E069E0DA
:104340004AE02BE00BE07048006810B100206F4994
:10435000086000206E4908606F49087027E26648CF
:10436000807A6649A1F84E000846B0F84E106B48B6
:10437000FFF7CAFD6149B1F84E108800FCF718F943
:1043800007460022664BFCF7A4F80546FCF79EF9A9
:10439000824651460020FFF7F3FADFE75648817A5C
:1043A0005648A0F85010B0F850105C48801CFFF739
:1043B000ABFD5249B1F85000FCF70BF9074600225B
:1043C000584BFCF786F80546FCF780F982465146C3
:1043D0000320FFF7D5FAC1E74748817A4748A0F89C
:1043E0005210B0F852104D48001DFFF78DFD4349A3
:1043F000B1F85200FCF7EDF807460022494BFCF7F4
:1044000068F80546FCF762F9824651460220FFF73C
:10441000B7FAA3E73848817A3848A0F85410B0F8C2
:1044200054103E48801DFFF76FFD97E73248817AB0
:104430003248A0F85610B0F8561038480830FFF748
:1044400063FD8BE72C48817A2C48A0F85810B0F80F
:10445000581032480A30FFF757FD7FE72748B0F879
:104460005A0042F2040120EA01042348C17A807A0A
:1044700041EA002042F2040120EA01094C450DD036
:104480001D48C17A807A41EA00211C48A0F85A10E0
:10449000B0F85A1021480C30FFF736FD1648C17AA3
:1044A000807A41EA002000F400541348C17A807AEF
:1044B00041EA002000F00409B4F5005F07D10120B3
:1044C0001949488001211948FFF71EFD06E0002028
:1044D0001549488000211548FFF716FDB9F1040F72
:1044E00026D101201049088001211048801EFFF7C5
:1044F0000BFD24E00100002050040020DC0300201C
:10450000000000200004004008012142B481214243
:10451000A80122422A0100200A010020028001088D
:1045200000408F4000002440040100200690010854
:104530000020FD4908800021FC48FFF7E5FCCFE39F
:10454000FEF714F9FA48007CF949C97BF84DCDE92A
:104550000010EE7AAD7A46EA0520F54DAB7B6A7B1A
:10456000297BFEF78DFAFEF70BF9B9E3FEF738FD6C
:10457000B6E3FEF735FCB3E3ED48807A07287CD03C
:104580000021EA48001DFFF7BFFCE848001DFEF7C8
:1045900049FBE84981F85C00FEF7FCF8FEF702FBF6
:1045A000FEF70AFB01210220FEF7E6F9FEF7FAFA10
:1045B000FEF7DCF8DE48807A07283FDADC48807AAC
:1045C00007283AD2DFE800F0040C141C242C340035
:1045D000FEF764F9D84945182846FEF7B7FA2CE0EB
:1045E000FEF75CF9D54945182846FEF7AFFA24E0F6
:1045F000FEF754F9D24945182846FEF7A7FA1CE001
:10460000FEF74CF9CF4945182846FEF79FFA14E00B
:10461000FEF744F9CC4945182846FEF797FA0CE016
:10462000FEF73CF9C94945182846FEF78FFA04E021
:1046300000210220FEF7A0F900BF11E0FEF72EF9DD
:10464000BB49897AC91F01EB4101C900C1EB0111C6
:104650008900C1EB011100EB81052846FEF776FACF
:10466000FEF7A0FAFEF78CF8B148817AAF48143013
:10467000FFF74AFCAD48163000E07CE0FEF7D2FAC6
:10468000401C85B22946A9481630FFF73DFCB048CA
:104690000188A648801DFFF737FCAD484188A34834
:1046A0000830FFF731FCAA488188A0480A30FFF79C
:1046B0002BFCA748C1889D480C30FFF725FCA44877
:1046C00001899A480E30FFF71FFC98481630FEF714
:1046D000A9FA984981F85D0094481430FEF7A2FACF
:1046E000944981F85E009148001DFEF79BFA9149BC
:1046F00081F85C008D48801DFEF794FA8D49A1F881
:1047000060008A480830FEF78DFA8A4981F8620015
:1047100086480A30FEF786FA864981F863008348A6
:104720000C30FEF77FFA834981F864007F480E3031
:10473000FEF778FA7F4981F865000022012185485B
:10474000FFF73DF88448006840F00800824908609F
:104750000846006840F01000086001207F490860AA
:1047600000207F49C1F8A8017C4914390860FF2066
:10477000FFF792FB1BE000216C481630FFF7C4FBEB
:1047800000217848FFF7C0FB00217648801CFFF726
:10479000BBFBFFF79DFC65481630FEF743FA654901
:1047A00081F85D00002161481A30FFF7ADFB97E208
:1047B0005F48807A412841D05D48817A6A48FFF796
:1047C000A3FB5B48C17A6848801CFFF79DFB5848F3
:1047D000017B6548001DFFF797FB5548417B624808
:1047E000801DFFF791FB5248C27B807B42EA00218B
:1047F0005D480830FFF788FB5B48FEF713FA4D4928
:1048000081F866005848801CFEF70CFA494981F887
:1048100067005548001DFEF705FA464981F8680013
:104820005148801DFEF7FEF9424981F869004E4863
:104830000830FEF7F7F93F49A1F86A0050E23C481A
:10484000807A38B101203849088001213748FFF7C4
:104850005BFB06E000203449088000213348FFF765
:1048600053FB3DE23248807A012825D13149087056
:10487000084601782D481830FFF746FB3B48007882
:1048800050B93B480078012802D13A49086022E03B
:104890000020384908601EE03448007801281AD109
:1048A0003448A838006818B900203249086012E07E
:1048B0000120304908600EE01D48807A58B9002078
:1048C0001C4908700846017818481830FFF71CFB8F
:1048D00001202849086003E225480078012806D114
:1048E0001348807A134988708878FEF7CFFCF7E187
:1048F00000F042FEF4E100201F490870F0E1FCF7EF
:1049000061FFEDE1FBF730FCFF2190FBF1F201FBD1
:104910001200084981F86E00084690F86E100348AE
:104920001A30FFF7F1FADBE10401002004900108DE
:1049300050040020DC030020008D2700001A4F00E7
:1049400000A7760000349E0000C1C500004EED00B7
:10495000B80F0020000C004000040140B0012242CA
:1049600000002242001002084280010800000020DE
:104970000A010020B481214209010020DA48807A2E
:1049800001280AD1D948B0F85A0040F00101D748AF
:10499000A0F85A1009E02DE0A8E0D448B0F85A0079
:1049A00020F00101D148A0F85A10D048B0F85A10B0
:1049B000CF48FFF7A9FA93E140E1CB48807A01287C
:1049C00009D1CA48B0F85A0040F00201C748A0F81F
:1049D0005A1008E016E1C548B0F85A0020F002016C
:1049E000C248A0F85A10C148B0F85A10C048FFF7A2
:1049F0008BFA75E1BC48807A01280AD1BB48B0F82F
:104A00005A0040F00401B948A0F85A1009E068E1E2
:104A100065E1B648B0F85A0020F00401B348A0F8A8
:104A20005A10B248B0F85A10B148FFF76DFAFCF7C7
:104A3000C9FE55E1AC48807A012809D1AB48B0F8ED
:104A40005A0040F00801A948A0F85A1008E069E0AF
:104A5000A648B0F85A0020F00801A448A0F85A105F
:104A6000A248B0F85A10A248FFF74EFA38E1FFE723
:104A70009D48807A012808D19C48B0F85A0040F03F
:104A800010019A48A0F85A1007E09848B0F85A0068
:104A900020F010019548A0F85A109448B0F85A1028
:104AA0009348FFF731FA1BE104E0E3E056E071E0E0
:104AB0008CE0FBE08C48807A012808D18B48B0F864
:104AC0005A0040F020018948A0F85A1007E08748B2
:104AD000B0F85A0020F020018448A0F85A1083480A
:104AE000B0F85A108248FFF70FFAF9E07E48807A52
:104AF000012808D17D48B0F85A0040F040017B48B9
:104B0000A0F85A1007E07948B0F85A0020F04001A8
:104B10007648A0F85A107548B0F85A107448FFF754
:104B2000F3F9DDE07048807A012808D16F48B0F8C9
:104B30005A0040F080016D48A0F85A1007E06B4819
:104B4000B0F85A0020F080016848A0F85A10674871
:104B5000B0F85A106648FFF7D7F9C1E06248807A8A
:104B6000012808D16148B0F85A0040F480715F48CC
:104B7000A0F85A1007E05D48B0F85A0020F48071A0
:104B80005A48A0F85A105948B0F85A105848FFF738
:104B9000BBF9A5E05448807A012808D15348B0F801
:104BA0005A0040F400715148A0F85A1007E04F48ED
:104BB000B0F85A0020F400714C48A0F85A104B4845
:104BC000B0F85A104A48FFF79FF989E04648807AC2
:104BD000012808D14548B0F85A0040F480614348A4
:104BE000A0F85A1007E04148B0F85A0020F480615C
:104BF0003E48A0F85A103D48B0F85A103C48FFF71C
:104C000083F96DE03848807A012808D13748B0F838
:104C10005A0040F400613548A0F85A1007E03348C4
:104C2000B0F85A0020F400613048A0F85A102F481C
:104C3000B0F85A102E48FFF767F951E02A48807AF9
:104C4000012808D12948B0F85A0040F4805127487B
:104C5000A0F85A1007E02548B0F85A0020F4805117
:104C60002248A0F85A102148B0F85A102048FFF7FF
:104C70004BF935E01C48807A012808D11B48B0F870
:104C80005A0040F400511948A0F85A1007E017489C
:104C9000B0F85A0020F400511448A0F85A101348F4
:104CA000B0F85A101248FFF72FF919E00E48807A31
:104CB000012809D10D48B0F85A004FF6FF7108439A
:104CC0000A49A1F85A0003E000210848A0F85A1048
:104CD0000648B0F85A100648FFF716F900E000BF82
:104CE00000BFBDE8FC87000050040020DC0300206A
:104CF0000E80010870B502460C46FF25FF2309E02F
:104D000012F8010B80EA05010648405C80EA0305C1
:104D10000548435C2000A4F10106F4B2F0D145EA55
:104D2000032070BD2C5D00082C5E000810B56FF0EC
:104D30000400FEF783FB0A4800680A49B0FBF1F063
:104D4000094908700846007800EB4001C1EBC0102B
:104D50004FF6FF7101EAC0000449088010BD000051
:104D6000B003002000127A004C0100204E01002008
:104D70000146114A12884A434FF0E0235A6100224B
:104D80009A611A46126942F001021A6100BF4FF09F
:104D9000E022106900F001021AB100F48032002A0A
:104DA000F5D04FF0E022126922F001024FF0E0232B
:104DB0001A6100229A6170474E0100200146114A93
:104DC00012784A434FF0E0235A6100229A611A4652
:104DD000126942F001021A6100BF4FF0E02210692F
:104DE00000F001021AB100F48032002AF5D04FF031
:104DF000E022126922F001024FF0E0231A61002242
:104E00009A6170474C0100200EB501211D20FDF76D
:104E1000CFFB04210120FCF7A3FD1020019000200E
:104E20008DF8080008208DF8090001208DF80A008F
:104E300001A8FCF713FB0A208DF8000000208DF874
:104E4000010001208DF802008DF803006846FDF78F
:104E500075F903210120FCF783FD08200190002053
:104E60008DF808000C208DF8090001208DF80A004B
:104E700001A8FCF7F3FA09208DF8000000208DF856
:104E8000010001208DF802008DF803006846FDF74F
:104E900055F905210120FCF763FD20200190002039
:104EA0008DF8080010208DF8090001208DF80A0007
:104EB00001A8FCF7D3FA17208DF8000000208DF828
:104EC000010001208DF802008DF803006846FDF70F
:104ED00035F90EBD30B502460B460020002111E029
:104EE000555C6840002409E000F001051DB1512522
:104EF00085EA600000E04010651CECB2082CF3DB92
:104F00004D1CE9B29942EBDB30BD00002DE9F05FAA
:104F100006460F4690469946DDE90AAB002440F26A
:104F2000B270864203DB40F63300864202DD012088
:104F3000BDE8F09F40F2B2750AE02846FDF7DEF8C2
:104F400010B11948044401E018480444681C85B2B3
:104F5000B542F2DB002510E01548405D40F2A32188
:104F6000484304EBC0143046FDF7C8F818B1012DD2
:104F700001D110480444681C85B2781EA842EBDCBD
:104F8000A8F1010040F2A321484304EBC014C9EB8F
:104F90004910C0EB092004EB0014CAEB0A1004EB23
:104FA00080045C442046C3E70085E2018033E101D0
:104FB000085D00088051010008B501210846FDF791
:104FC000F7FA01213E48FCF777FD01213C20FDF76F
:104FD000EFFA4FF40060ADF8000010208DF80300E8
:104FE00003208DF8020069463648FCF7D9FC002002
:104FF000354908603549C1F8B0014FF40050ADF8AB
:10500000000069463248FCF7CBFC012031490860BA
:105010004FF4E450ADF8000069462F48FCF7C0FC9F
:1050200001202E49C1F8B0010420ADF80000694606
:105030002B48FCF7B5FC01202A49086041F23B00EF
:10504000ADF8000004208DF8030003208DF8020065
:1050500069461F48FCF7A4FC4FF44070ADF800000F
:1050600069461D48FCF79CFC0420ADF80000694629
:105070001448FCF795FC00201B49086001201A49E0
:10508000083908601549C1F8AC014FF4FA70FFF710
:105090006FFE00201449143908604FF4FA70FFF7CE
:1050A00067FE4FF4FA70FFF763FE01200E490860B7
:1050B00000200D49083908600C49C1F8880108BD75
:1050C0000002300000080140AC01214200002142F2
:1050D000000C0140B4812142001001400000224236
:1050E0000014014088812242B00122420080224205
:1050F0002DE9F843FE48FDF795FD4FF6FF71884214
:105100007DD1002000904620FA49A1F84E001221DE
:10511000F848A0F850101121A0F852102821A0F84A
:105120005410C821A0F856106E21A0F85810FF2185
:10513000A0F85A100120EF490870002081F85C00A7
:1051400081F85D00072081F85E0008460178EA4892
:10515000FEF7DAFEE748B0F84E10E548801CFEF78F
:10516000D3FEE448B0F85010E148001DFEF7CCFE35
:10517000E048B0F85210DE48801DFEF7C5FEDD485D
:10518000B0F85410DA480830FEF7BEFED948B0F83F
:105190005610D7480A30FEF7B7FED648B0F8581078
:1051A000D3480C30FEF7B0FED248B0F85A10D048C1
:1051B0000E30FEF7A9FECF4890F85C10CE481438A8
:1051C000FEF7A2FECB4890F85D10CB48801EFEF79C
:1051D0009BFEC84890F85E10C748001FFEF794FE7B
:1051E0000021C5481438FEF78FFE40F2E271C24834
:1051F0001238FEF789FE0821BF48103800E051E060
:10520000FEF782FE1521BC480E38FEF77DFE0E210A
:10521000B9480C38FEF778FE0021B7480A38FEF787
:1052200073FE0121B2481030FEF76EFE0121B04836
:10523000FEF76AFE0021B048801EFEF765FE4121A0
:10524000AB484230FEF760FE0021A9484430FEF72B
:105250005BFE0021A6484630FEF756FE0021A4481A
:105260004830FEF751FE0021A1484A30FEF74CFEBF
:105270000021A148801CFEF747FE33219E481C38C0
:10528000FEF742FE01219C481838FEF73DFE012141
:1052900099481638FEF738FE022269469748FDF70E
:1052A000FFFC00BF94481C38FDF7BCFC332843D0FA
:1052B000332191481C38FEF727FE01218E4818380B
:1052C000FEF722FE01218C481638FEF71DFE012153
:1052D0008948FEF719FE00218748001FFEF714FEDB
:1052E000FDF758FAFDF768FC02218348801EFEF79F
:1052F0000BFE8348018880481238FEF705FE80487F
:1053000041887D481038FEF7FFFD7D4881887A4846
:105310000E38FEF7F9FD7A48C18877480C38FEF759
:10532000F3FD7748018974480A38FEF7EDFD002146
:1053300071481438FEF7E8FD6F48FDF773FC6D49BE
:1053400008706B48801CFDF76DFC6A49A1F84E009F
:105350006748001DFDF766FC6649A1F850006448E7
:10536000801DFDF75FFC6349A1F8520060480830DA
:10537000FDF758FC5F49A1F854005D480A30FDF77D
:1053800051FC5C49A1F8560059480C30FDF74AFC25
:105390005849A1F8580056480E30FDF743FC5549CE
:1053A000A1F85A0052484230FDF73CFC514981F8BF
:1053B00066004F484430FDF735FC4E4981F86700E0
:1053C0004B484630FDF72EFC4A4981F868004848B2
:1053D0004830FDF727FC474981F8690044484A30C6
:1053E000FDF720FC4349A1F86A00FCF74FF9424859
:1053F000001FFDF717FC3F4981F85E003E48801E04
:10540000FDF710FC3B4981F85D003B481438FDF77F
:1054100009FC384981F85C0037481238FDF702FC76
:105420003449A1F8600034481038FDF7FBFB3149DE
:1054300081F8620030480E38FDF7F4FB2D4981F801
:1054400063002D480C38FDF7EDFB2A4981F8640014
:1054500029480A38FDF7E6FB264981F86500264809
:10546000801CFDF7DFFB234981F86E006420A1F862
:105470006C00084690F86600542803D1002081F89B
:105480006F0003E001201B4981F86F001949B1F852
:105490004E108800FBF78CF807460022194BFBF7EB
:1054A00018F80546FBF712F9044621460020FEF7DE
:1054B00067FA1049B1F85000FBF78BF80746002255
:1054C000114BFBF706F80546FBF700F904462146A9
:1054D0000320FEF755FA0749B1F85200FBF779F8B7
:1054E00007460022084BFAF7F4FF05460EE00000DD
:1054F00000800108DC0300201C9001080010020855
:10550000B80F002000408F4000002440FBF7DEF879
:10551000044621460220FEF733FA00210120FEF75F
:105520002FFA10480078012807D10F480068012899
:1055300003D100200D49086002E001200B490860FA
:10554000C9200849A1F870000948FDF76BFB09491B
:1055500008800748801CFDF765FB06494880BDE8C8
:10556000F8830000DC03002008012142B4812142BD
:10557000049001080401002010B501211648FEF72F
:10558000C3FC1548FDF74EFB144981F85C00144834
:10559000006820F00800124908600846006820F002
:1055A0001000086000210A20FDF70EFF00200D49C1
:1055B00008600A4988708878FDF768FE00200A496B
:1055C000C1F8B401012211460848FEF7F8F800209E
:1055D0000749086010BD000008900108DC030020A6
:1055E00000040140AC01214200802142000C004037
:1055F000A80122424FF4A060FCF7D8FDFFF796FB0C
:10560000FFF7DAFC00F062FA00F040FAFFF770FDF5
:1056100000BFFDF7C1F90028FBD1FEF78DFC4FF468
:105620007A70FFF7A5FBFCF799FC00F05FF9FFF734
:10563000EBFB00F013F80748FDF7F4FA012804D15A
:10564000012211460448FEF7BAF802E00A20FFF7EB
:105650008FFBFBE708900108000C00401CB5FDF72C
:1056600099F859490860FDF7A7FA5848FDF7DAFAA2
:105670005749088055480E38FDF7D4FA5549088037
:1056800052480C38FDF7CEFA534908804F480A3883
:10569000FDF7C8FA514908804C480838FDF7C2FAAE
:1056A0004F4908804948801FFDF7BCFA4D490880E2
:1056B00000204D49088046480088062854D04448B8
:1056C0000088072850D042480088062818DA084683
:1056D000007844490978CDE90010414803783F48F3
:1056E00002783D4801783B480088FFF70FFC3F49AE
:1056F000374A128851F8221008443D4908601EE0DC
:105700003948007837490978CDE9001034480378E2
:1057100032480278304801782E480088FFF7F6FBBF
:105720002B490988C91F01EB4101C900C1EB0111D7
:105730008900C1EB011100EB81002D49086022486E
:1057400000682B490968884202D3FFF715FF10E073
:10575000274800681C490968401A2649B0FBF1F047
:105760002549A1F8700004E04FF47A702249A1F8AD
:10577000700000202149087020E020480078FDF7E3
:105780002DFA022804D11E480078401C1C490870DC
:105790001B48007804280CD11120FDF709FB16489E
:1057A00090F86600542804D0FFF7E6FE1120154952
:1057B000087012480078401C104908700F480078A3
:1057C0000428DADB1CBD0000140100201890010839
:1057D0001C0100201E0100202001002022010020C9
:1057E000240100202601002028010020145D00086B
:1057F0001801002080510100DC030020120100206C
:10580000130100202C0100202DE9F14F86B04FF04C
:10581000000946244FF0000B0698FAF714FF0546DE
:105820004FF033322C4BFAF739FF0CD20698FAF7C7
:105830000AFF05464FF06632284BFAF717FF02D8E9
:105840002748008E1FE00698FAF7FDFE07464FF046
:105850006632224BFAF7C8FDCDE9000121490698CE
:10586000FAF7ECFC80462049FAF7E2FC0746FAF723
:10587000EAFE0546DDE90023FAF72BFECDE9020139
:10588000FAF7C8FE80B204904FF0000A1DE009EB61
:10589000040000EBD071C1F3470B114830F81B1026
:1058A0000498814206DA09EB040000EBD071C1F3E1
:1058B000470406E009EB040000EBD071C1F347098F
:1058C00000BF0AF1010000F0FF0ABAF1070FDEDBAA
:1058D000204607B0BDE8F08F3333074066660A40C4
:1058E000545C000800D01D460000A54300B589B0F7
:1058F000012140F60400FCF75BFE01210F20FCF7BC
:1059000047FE40F2E730ADF81C0041F61F40ADF80D
:1059100018000020ADF81E00ADF81A0006A957487F
:10592000FDF7A2FF01215548FDF71DFF00220121CF
:105930005248FDF744FF32208DF8040000208DF816
:10594000050003208DF8060001208DF8070001A84E
:10595000FCF7F4FB0920ADF81C0041F61F40ADF840
:1059600018000020ADF81E00ADF81A0006A94FF08F
:105970008040FDF779FF01218807FDF7F4FE012241
:1059800011469007FDF71BFF1C208DF80400022034
:105990008DF805008DF8060001208DF8070001A89C
:1059A000FCF7CCFB41F28730ADF81C0041F61F40FC
:1059B000ADF818000020ADF81E00ADF81A0006A9D9
:1059C0002F48FDF751FF01212D48FDF7CCFE0022A5
:1059D00001212B48FDF7F3FE1D208DF80400022065
:1059E0008DF8050003208DF8060001208DF80700D2
:1059F00001A8FCF7A3FB4FF40060ADF800001820ED
:105A00008DF8030003208DF8020069461D48FBF75E
:105A1000C7FF41F61F40ADF81C000020ADF818008C
:105A2000ADF81E00ADF81A0006A91748FDF71CFFD7
:105A30007020ADF808000120ADF80A000020ADF894
:105A40000E000220ADF8100002A90F48FDF7C0FEBD
:105A500001210D48FDF793FE08210B48FDF7F6FEE6
:105A600001210948FDF770FE01210748FDF77BFE83
:105A700000210A20FDF7A8FC09B000BD000C004081
:105A80000004004000080140002C014008B501213D
:105A90001820FCF78DFD4FF44040ADF800001020B9
:105AA0008DF8030003208DF8020069460548FBF7D6
:105AB00077FF4020ADF8000069460348FBF770FF10
:105AC00008BD0000000C01400010014000B591B07D
:105AD000012144F20400FCF76BFD01210846FCF7AC
