:020000040800F2
:10000000101F00204501000883200008FD1C000887
:100010007F200008C10D00080F3E0008000000000E
:10002000000000000000000000000000F72C0008A5
:100030009912000800000000252400085D33000824
:100040005F010008AD2200085F0100089528000844
:100050005F0100085F0100085F0100085F01000800
:100060005F0100089D120008ED1200085F01000802
:100070005F0100085F0100085F0100085F010008E0
:100080005F0100085F0100085F0100085F010008D0
:100090005F0100085F0100085F0100087D13000890
:1000A0005F0100085F0100085F0100085F010008B0
:1000B000C1330008A93400086D3500085F0100084D
:1000C0005F0100085F0100085F0100085F01000890
:1000D0005F010008C13A00082D3B00085F010008DD
:1000E0005F0100085F0100085F0100085F01000870
:1000F0005F0100085F0100085F0100085F01000860
:100100005F0100085F010008013600085F01000878
:100110005F0100085F0100085F0100085F0100083F
:100120005F0100085F0100085F0100085F0100082F
:10013000DFF80CD000F0A4FB004800473D55000854
:10014000101F00200648804706480047FEE7FEE7EC
:10015000FEE7FEE7FEE7FEE7FEE7FEE7FEE7FEE777
:100160006133000831010008F0B480EA0102D40FC5
:100170004200B2EB410F02D20246084611464A0045
:1001800042D0C30DDDB2C1F3C752AD1A202D35DA0E
:10019000C1F3160141F4000204B15242C5F1200638
:1001A00002FA06F12A411044B3EBD05F23D0C4B168
:1001B000012DA0EBC35009DCF0BC4FF0004202EA75
:1001C000C352DBB200F5000000F0CEBA400000F1EF
:1001D000807000EBC350A0F1807040EAD1704900FC
:1001E00009E0490841EAC071A0EBC35000F50000E6
:1001F000400800EBC350F0BC00F0ADBA61420122F0
:1002000002EB4101001BF6E7F0BC704781F00041B2
:10021000AAE780F00040A7E780EA010210B502F0EB
:100220000043400022D04A001FD0010E01EB1261B2
:10023000C0F35600C2F3560240F4000042F400023C
:10024000A0FB022000047F39140400D0401C50EAB7
:10025000124001D44000491EC2B20C0604EBD0107B
:10026000401C4008802A02D003E0002010BD20F08E
:100270000100002900DA0020184310BD2DE9FE4FCF
:10028000804681EA0300C00F0C46009021F0004137
:1002900023F00045B8EB0200A94105D240462146B3
:1002A00090461C460B46024623F00040104347D0C0
:1002B000270DC7F30A00C3F30A510290401A0190B8
:1002C00040286BDAC3F3130040F4801B0098924679
:1002D00020B10023D2EB030A63EB0B0B01985946C4
:1002E000C0F14002504600F005FA06460D46504661
:1002F0005946019A00F01DFA10EB080061410024F4
:1003000087EA115284EAE7731A4340D0009A62B335
:10031000019A012A4FEA075215DC001B61EB02012A
:100320004FF0004202EA0752CDE90042001C41F5BD
:10033000801132462B4600F054FA03B0BDE8F08F2E
:1003400040462146F9E7001B61EB0201001C41F524
:10035000801300185B412018A2F5001747EB03013A
:1003600040EAD570B6196D4111E06D084FEA3606C6
:1003700045EAC0754FEA0752001B61EB0201001C01
:1003800041F5801149084FEA3000001951413246C9
:100390002B4603B0BDE8F04F00F014BA00980122DC
:1003A00040000023D0EB020263EBE073009821468B
:1003B0004FEAE074B8EB000061EB0401E9E783F079
:1003C00000435BE781F0004158E72DE9FE4F81EAE9
:1003D000030404F0004421F0004100944FF0000BAE
:1003E00023F0004350EA01045ED052EA03045BD0DC
:1003F000C3F30A54C1F30A552C44A4F2F334019414
:10040000A0FB0254C1F3130141F48011C3F31303A1
:1004100043F4801301FB024400FB034E840A970A55
:1004200044EA815447EA8357A4FB076802958D0A82
:1004300005FB07854FEA932C04FB0C542705029D0E
:100440004FEA065847EA1637B5EB08056EEB070C7E
:10045000870E920E47EA811742EA8312A7FB020138
:10046000B6EB0B0164EB00042B0D43EA0C335E1872
:1004700044EB1C50DA465146E7FB0201C5F3130476
:100480004FEA0B3343EA14534FEA0432019C43EA28
:100490000603A4F10C040294009CCDE900B400F022
:1004A000A0F903B0BDE8F08F00200146F9E72DE97F
:1004B000F04D81EA030404F0004B21F0004514469E
:1004C0004FF0000A23F0004150EA050220D054EA20
:1004D00001021DD0C5F30A570246C5F31303C1F349
:1004E0001300C1F30A5640F4801543F48013A7EBC0
:1004F0000608101BD64608F2FD3873EB050002D340
:1005000008F1010801E092185B41B8F1000F03DA2D
:1005100000200146BDE8F08D00204FF48011064612
:1005200084460EE0171B73EB050705D3121B63EB24
:10053000050306434CEA010C49084FEA30009218C3
:100540005B4150EA0107EDD152EA030012D082EA82
:10055000040083EA0501084305D0101BAB4106D215
:100560000122002306E000224FF0004302E06FF07A
:10057000010253101AEB06004CEB085110EB0A0075
:1005800041EB0B01BDE8F04D00F01CB90EB5C10FF9
:1005900080EAE0700844CA07002140F233438DE846
:1005A0000E000A460B4600F01CF903B000BD0EB564
:1005B00040F2334102910021CDE900110A460B4679
:1005C00000F00FF903B000BD20F00040C10DC0F3F2
:1005D000160040F400007F2901DA002070479629B8
:1005E00003DCC1F19601C8407047963988407047D6
:1005F000C1F30A5210B5C1F3130140F2FF3341F4C5
:1006000080119A4201DA002010BD40F233439A4231
:10061000A2F2334203DC524200F07BF810BD90405E
:1006200010BD00F0004230F000400AD0C10D01F5CD
:100630006071C0F3160042EA0151C208400711433D
:10064000704700200146704730B5041E71F1000468
:1006500004DB4FF00044404264EB0101141E73F1CF
:10066000000405DB1C464FF00043524263EB0403D9
:100670008B4208BF824230BD30B5041E71F10004C8
:1006800004DB4FF00044404264EB0101141E73F19F
:10069000000405DB1C464FF00043524263EB0403A9
:1006A000994208BF904230BD01F0004330B421F0C0
:1006B000004150EA010206D00A0DA2F56072C1F3B2
:1006C0001301002A02DC30BC00207047440F44EACA
:1006D000C104C100E01830BC00EBC25000F03BB8D0
:1006E000002801DBC0F10040002901DBC1F100411D
:1006F00088427047202A04DB203A00FA02F10020E9
:1007000070479140C2F1200320FA03F3194390404F
:100710007047202A04DB203A21FA02F000217047BA
:1007200021FA02F3D040C2F1200291400843194659
:100730007047202A06DBCB17203A41FA02F043EA41
:10074000E07306E041FA02F3D040C2F1200291408A
:100750000843194670470029A8BF7047401C49004C
:1007600008BF20F00100704710B4B0FA80FC00FA16
:100770000CF050EA010404BF10BC704749B1CCF141
:10078000200421FA04F411FA0CF118BF01212143CD
:100790000843A3EB0C01CB1D4FEA00614FEA102088
:1007A00042BF002010BC704700EBC350104400292A
:1007B000A4BF10BC7047401C490008BF20F00100D6
:1007C00010BC704710B5141E73F1000408DA401C09
:1007D00041F1000192185B411A4301D120F0010060
:1007E00010BD2DE9F04D92469B4611B1B1FA81F250
:1007F00002E0B0FA80F220329046FFF77BFF044619
:100800000F4640EA0A0041EA0B0153465A460843A4
:1008100013D0114653EA010019D0C8F140025046E6
:10082000FFF777FF05460E46504659464246FFF70A
:1008300061FF084305D0012004E020463946BDE8A9
:10084000F08D0020054346EAE0762C4337430A98B2
:100850006305E40AA0EB08000022FD0A44EA4754BD
:100860000A3002D500200146E9E701051019694167
:10087000DDE9084500196941BDE8F04DA2E7000037
:10088000064C074D06E0E06840F0010394E80700DD
:1008900098471034AC42F6D3FFF74EFCCC5E00080C
:1008A000EC5E000870B58C1810F8015B15F00703BA
:1008B00001D110F8013B2A1106D110F8012B03E0F9
:1008C00010F8016B01F8016B5B1EF9D12B0705D401
:1008D0000023521E0DD401F8013BFAE710F8013B4A
:1008E000CB1A921C03E013F8015B01F8015B521E66
:1008F000F9D5A142D8D3002070BD21B1826842F061
:100900000102826003E0826822F001028260704787
:1009100021B1826842F48072826003E0826822F42E
:10092000807282607047000010B50446124884420D
:1009300008D10121401501F0EFFD0021601501F003
:10094000EBFD17E00D48844208D10121001501F0AC
:10095000E3FD0021201501F0DFFD0BE00848844293
:1009600008D10121C80301F0D7FD00214FF4004058
:1009700001F0D2FD10BD000000240140002801401C
:10098000003C0140014600208A6802F004020AB1DE
:10099000012000E000207047014600208A6802F034
:1009A00008020AB1012000E00020704730B502467D
:1009B0000020002350680F4C20400D790C6844EA59
:1009C00005242043506090680B4C2040D1E902542C
:1009D0002C434D7944EA450420439060D06A20F4CA
:1009E00070000C7C641EE4B2234340EA0350D062E2
:1009F00030BD0000FFFEF0FFFDF7F1FFF0B504464B
:100A00000D4600200021092D11DDE068A5F10A0640
:100A100006EB4607072606FA07F18843A5F10A0602
:100A200006EB460603FA06F10843E0600CE0206995
:100A300005EB4507072606FA07F1884305EB45064F
:100A400003FA06F108432061072A0FDA606B561E8D
:100A500006EB86071F2606FA07F18843561E06EBAB
:100A6000860605FA06F10843606322E00D2A0FDAD4
:100A7000206BD61F06EB86071F2606FA07F1884370
:100A8000D61F06EB860605FA06F10843206310E040
:100A9000E06AA2F10D0606EB86071F2606FA07F1AB
:100AA0008843A2F10D0606EB860605FA06F1084317
:100AB000E062F0BD816841F008018160704721B1BA
:100AC000826842F4A002826003E0826822F4A002FD
:100AD00082607047816841F00401816070470000C6
:100AE00010B504461948006820F00800174908604E
:100AF0000846006820F01000086000201449887043
:100B00000120144908601449C1F88801134800788D
:100B100020B900210A2002F0D3FB03E000200D4998
:100B2000091F08600A49887802F054FB08480078D9
:100B300010B100200A49086000200A4908600A49EB
:100B4000C1F8A80109480470012010BD000401404B
:100B5000D8030020B0012142008022420000002082
:100B6000B4812142B001224200002242280100202B
:100B700010B51548006820F00800134908600846C1
:100B8000006820F0100008600020104988700120E3
:100B90000F4908600F48007820B900210A2002F0B0
:100BA0008FFB03E000200A49091F08600749887885
:100BB00002F010FB0548007810B1002006490860DB
:100BC00000200649086010BD00040140D803002041
:100BD000B001214200000020B4812142A80122423C
:100BE00010B51748006820F008001549086008464D
:100BF000006820F010000860002012498870012071
:100C0000114908601148007820B900210A2002F03B
:100C100057FB03E000200C49091F08600949887848
:100C200002F0D8FA0748007810B10020084908609F
:100C30000020084908600849C1F8A80110BD00005B
:100C400000040140D8030020B00121420000002030
:100C5000B4812142B001224200002242F0B591B09D
:100C60004048806801903F48C06802903D48006954
:100C700003903C48406904903A488069059039489F
:100C8000C06906903748006A07903648406A089065
:100C90003448806A09903348C06A0A903148006B32
:100CA0000B903048406B0C902E48806B0D902D4877
:100CB000C06B0E902B48006C0F902A48406C10902F
:100CC0002948007810284BDC002445E00026002548
:100CD0001CE004EBC40000EB0410244901EB4001CC
:100CE000681C085C04EBC40101EB04111F4A02EB11
:100CF0004101485504EBC40000EB0410114601EB20
:100D00004000405D304486B2681CC5B2312DE0DB46
:100D100001A951F824001649FFF77EFA0746FFF7AC
:100D200053FC04EBC40101EB0411104A02EB410136
:100D300081F8310004EBC40000EB0410114601EB14
:100D4000400090F83100304486B2322096FBF0F03B
:100D500008490855601CC4B2034800788442B5DBDA
:100D600011B0F0BDD803002064010020E20F002084
:100D700000002041D20F002010B5012001F0DCFB63
:100D8000002001F0D9FB10BD08B5014600200090FD
:100D9000034800900098084400900098008808BD1F
:100DA000006C004008B500220092044A0092009AAC
:100DB00002440092009A116008BD0000006C0040DF
:100DC00000BFFEE72DE9F04700240025002600279C
:100DD000A046A14602F09AFA814601F095F9044630
:100DE00001F022FB054600F025FD804602F0C8FD1B
:100DF000064600F00BF8074644EA05003043384346
:100E000040EA080040EA0900BDE8F0872DE9F04714
:100E100000247D49B1F85600FFF7C9FB07460022C0
:100E20007A4BFFF744FB0546FFF73EFC81467648C8
:100E300090F85A00C0F3C01000B37548007840061F
:100E4000000E73490870704988684946FFF748FCEE
:100E500006D86F48007840F001006D49087005E041
:100E60006B48007800F0FE00694908706848007817
:100E7000FF2803D10820FFF733FE04466248B0F88C
:100E80005A00C0F3002000B3624800784006000E0C
:100E9000604908705C49C8684946FFF721FC06D8DC
:100EA0005C48007840F001005A49087005E0594854
:100EB000007800F0FE005749087056480078FF2877
:100EC00003D10920FFF70CFE04464F48B0F85A0042
:100ED000C0F3402000B3504800784006000E4E4951
:100EE0000870494908694946FFF7FAFB06D84A489D
:100EF000007840F001004849087005E04648007855
:100F000000F0FE004449087043480078FF2803D1F0
:100F10000A20FFF7E5FD04463B48B0F85A00C0F34D
:100F2000802000B33D4800784006000E3B49087021
:100F3000354948694946FFF7D3FB06D8374800785A
:100F400040F001003549087005E03448007800F0B1
:100F5000FE003249087031480078FF2803D10B2089
:100F6000FFF7BEFD04462848B0F85A00C0F3C02081
:100F700000B32B4800784006000E2949087022492A
:100F800088694946FFF7ACFB06D82548007840F051
:100F900001002349087005E02148007800F0FE00B8
:100FA0001F4908701E480078FF2803D10C20FFF766
:100FB00097FD04461448B0F85A00C0F3003000B35F
:100FC000184800784006000E164908700E49C86996
:100FD0004946FFF785FB06D81248007840F001002B
:100FE0001049087005E00F48007800F0FE000D4938
:100FF00008700C480078FF2803D10D20FFF770FD22
:1010000004462046BDE8F087D803002000002440B5
:101010003A0100203B0100203C0100203D0100205E
:101020003E0100203F01002000F0805111B1034932
:10103000086001E002494860704700000404024073
:101040000000024000F0805111B10349086001E046
:10105000024948607047000004040240000002405A
:1010600021B1026842F00102026004E002684FF61A
:10107000FE731A400260704701684FF6FE7211401D
:1010800001600021016041608160C1604B4988427C
:1010900008D14A490839496841F00F01474A083ADE
:1010A00051608AE045491431884208D143490839E2
:1010B000496841F0F001414A083A51607DE03F49FA
:1010C0002831884208D13D490839496841F47061A6
:1010D0003A4A083A516070E038493C31884208D1B8
:1010E00036490839496841F47041344A083A516038
:1010F00063E032495031884208D1304908394968A3
:1011000041F470212D4A083A516056E02B49643170
:10111000884208D129490839496841F47001274AB1
:10112000083A516049E025497831884208D123497D
:101130000839496841F07061204A083A51603CE042
:101140001F49884206D1011F096841F00F01021FA3
:10115000116032E01A491431884208D11849091F38
:10116000096841F0F001164A121F116025E0144988
:101170002831884208D11249091F096841F4706179
:101180000F4A121F116018E00D493C31884208D106
:101190000B49091F096841F47041094A121F116087
:1011A0000BE007495031884207D10549091F0968FA
:1011B00041F47021024A121F11607047080002407A
:1011C000080402400146486880B27047014600208A
:1011D000002201F0805313B1054B1A6801E0054B62
:1011E0001A6802EA01030BB1012000E000207047F9
:1011F00000040240000002401AB103680B43036080
:1012000002E003688B430360704710B50022026858
:1012100047F6F0739A430C6A8B6823430C692343A7
:101220004C6923438C692343CC6923434C6A234391
:101230008C6A23431A430260CB6843600B68836067
:101240004B68C36010BD000010B500211048FFF7C7
:1012500007FF10480E4944390865807908308864D2
:1012600001210B48FFF7FCFE00BF4FF40050FFF7D1
:10127000ADFF0028F9D04FF40050FFF7D5FE4FF432
:101280008050FFF7DFFE00210148FFF7E9FE10BDA7
:1012900044000240020000207047000010B5082002
:1012A00000F07CF8B8B10C4890F85C0080B90020E0
:1012B0000A4908600A49C1F8A8010A4908800120C2
:1012C00009490870012211460648243802F035FA0F
:1012D000082000F05DF810BDD8030020AC012142C9
:1012E00000002242240400402601002010B51020F6
:1012F00000F054F800282ED0174890F85C0038BB56
:101300001648006820F470401449086008460068D8
:1013100040F4405008601248007888B90120114913
:101320000870114908600C48007810B101200F497D
:10133000086001200E49086000200E49087002E094
:10134000002009490860002201210B4802F0F5F94C
:10135000102000F01DF810BDD80300200408014043
:101360002801002000000020AC012142B48121426C
:10137000A8012242260100200004004010B52020D0
:1013800000F00CF810B1202000F002F810BD0000B1
:101390000149086070470000140401400146002024
:1013A0000022074B1B6803EA0102054B14331B683C
:1013B0000B4013B10AB1012000E00020704700008B
:1013C00000040140002123498279002A3AD00A46CC
:1013D000126803689A430B461A600A1D1268036874
:1013E0009A430B1D1A60027911440A6803681A4374
:1013F0000A60184A0832126803689A43154B08338A
:101400001A601A1D126803689A43124B0C331A6053
:101410004279102A0ED11A1F126803681A430D4B25
:1014200008331A601A1D126803681A43094B0C33FB
:101430001A600DE00749427911440A6803681A43AB
:101440000A6005E0027911440A6803689A430A6059
:10145000704700000004014010B51F4800780128C3
:1014600039D11E4890F86F00012824D11B484078DC
:10147000642803DB64201949887003E0174840782A
:10148000164988701548807805280CDD1348807847
:101490000A2803DA0A201149C87007E00F4880784B
:1014A0000E49C87002E000200C49C8700B49C8788A
:1014B00001F090FE0FE009484078642803DB6420C7
:1014C0000649887003E0054840780449887003495C
:1014D000887801F07FFE10BD00000020D8030020B6
:1014E00030B5044604254FF4302000F06FF805466F
:1014F000042D17D10C48006940F002000A49086128
:1015000008464461006940F0400008614FF4302013
:1015100000F05CF805460448006941F6FD7108409A
:1015200001490861284630BD0020024004200B49D3
:10153000C96801F0010109B101200EE00749C9683D
:1015400001F0040109B1022007E00449C96801F073
:10155000100109B1032000E0042070470020024080
:101560000348006940F080000149086170470000AD
:101570000020024070B504460D460426F00200F03B
:1015800025F80646042E11D10948006940F00100F3
:10159000074908612580F00200F018F80646044863
:1015A000006941F6FE71084001490861304670BD8E
:1015B00000200240024803494860034848607047E1
:1015C0002301674500200240AB89EFCD00B50246FC
:1015D0000423FFF7ABFF034603E0FFF7A7FF034633
:1015E000521E012B01D1002AF7D102B9052318465A
:1015F00000BD000030B589B0474801F0B7FA044695
:101600004648B0F84E0000128DF80400434890F8A8
:101610004E008DF805004148B0F8500000128DF8DA
:1016200006003E4890F850008DF807003B48B0F89F
:10163000520000128DF80800384890F852008DF8DA
:1016400009003648B0F8540000128DF80A003348FB
:1016500090F854008DF80B003048B0F85600001296
:101660008DF80C002D4890F856008DF80D002B4891
:10167000B0F8580000128DF80E00284890F8580075
:101680008DF80F002548B0F85A0042F20401884353
:1016900000128DF81000214890F85A000421884368
:1016A000C0B28DF811001D4890F866008DF8120048
:1016B0001A4890F867008DF81300184890F86800F1
:1016C0008DF81400154890F869008DF8150013483E
:1016D000B0F86A0000128DF81600104890F86A0001
:1016E0008DF81700142101A803F0B4FA85B2A542C1
:1016F0000FD0102001F000FBFFF772FA012008491B
:10170000086001221146074802F017F81020064928
:10171000087009B030BD00004C800108D8030020DB
:101720009C012242000C00402801002010B588B026
:101730003E48B0F84E0000128DF800003B4890F88B
:101740004E008DF801003948B0F8500000128DF8B5
:101750000200364890F850008DF803003348B0F886
:10176000520000128DF80400304890F852008DF8B5
:1017700005002E48B0F8540000128DF806002B48E2
:1017800090F854008DF807002848B0F85600001271
:101790008DF80800254890F856008DF80900234878
:1017A000B0F8580000128DF80A00204890F8580050
:1017B0008DF80B001D48B0F85A0042F2040188432E
:1017C00000128DF80C00194890F85A000421884343
:1017D000C0B28DF80D00154890F866008DF80E0027
:1017E000124890F867008DF80F00104890F86800D4
:1017F0008DF810000D4890F869008DF811000B4825
:10180000B0F86A0000128DF81200084890F86A00DB
:101810008DF813001421684603F01CFA84B22146A7
:10182000034802F02FFB08B010BD0000D8030020D1
:101830004C80010810B500241F480088B0F5C87F0F
:1018400033DD00201C4908801C48B0F85A00C0F362
:10185000403048B31A4800884FF6FF7101EA400053
:101860001749088017480068012823D103F056FA69
:1018700014480068012806D11148008840F0010092
:101880000F49088006E00E4800884FF6FE710840B8
:101890000B4908800A4800884FF6FF71884209D139
:1018A0000E20FFF71DF9044604E003480088401CA1
:1018B00001490880204610BD32010020D8030020D5
:1018C000340100202401224230B500228B071C0F76
:1018D0000F2303FA04F20B4B8C1053F8243093437C
:1018E000084C8D1044F8253023468C1053F82430D2
:1018F0008C07240F00FA04F42343024C8D1044F8A3
:10190000253030BD080001402DE9F0410246002598
:101910000026002000230024002791F803C00CF0CB
:101920000F0591F803C00CF0100CBCF1000F03D0B0
:1019300091F802C04CEA050591F800C0BCF1000F17
:1019400031D0146800202BE04FF0010C0CFA00F3AA
:10195000B1F800C00CEA03069E4220D183004FF08C
:101960000F0C0CFA03F7BC4305FA03FC4CEA040421
:1019700091F803C0BCF1280F06D14FF0010C0CFA0E
:1019800000FCC2F814C00AE091F803C0BCF1480F93
:1019900005D14FF0010C0CFA00FCC2F810C0401C3D
:1019A0000828D1D31460B1F800C0BCF1FF0F34DDBA
:1019B000546800202EE000F1080C4FF0010808FAEE
:1019C0000CF3B1F800C00CEA03069E4221D183005B
:1019D0004FF00F0C0CFA03F7BC4305FA03FC4CEA7A
:1019E000040491F803C0BCF1280F05D100F1080CE4
:1019F00008FA0CF8C2F8148091F803C0BCF1480F43
:101A000007D100F1080C4FF0010808FA0CF8C2F8F1
:101A10001080401C0828CED35460BDE8F08100003F
:101A2000F0B50A46002300240021002500F00046FE
:101A3000B6F1004F02D11D4EF16901E01B4E7168F5
:101A4000C0F3034583B200F44016B6F5401F08D139
:101A500021F07061154E766826F07066134F7E6037
:101A600012E000F48016B6F5801F06D1032606FAB0
:101A700005F4A14341F0706106E0460D360103FA1A
:101A800006F6B14341F0706122B1460D360103FA0A
:101A900006F6314300F00046B6F1004F02D1034E86
:101AA000F16101E0014E7160F0BD000000000140F5
:101AB00010B500F01DF800F003F8FFF7CDFC10BDE5
:101AC00070B5084D002406E00749085D00F09CFA57
:101AD00001C5601CC4B2054800788442F4DBFFF7FE
:101AE000BDF870BDE0030020C20F0020640100209B
:101AF0002DE9F04F87B04FF0000900BF002405E04A
:101B0000764800EB041000888144641C142CF7D341
:101B10001420B9FBF0FA5046FEF749FD07464FF096
:101B200066326F4BFEF751FC054600226D4BFEF707
:101B3000BEFC00226C4BCDE90001FEF746FC6B4A6F
:101B40006B4BCDE90201FEF7B2FCCDE90401FEF7D3
:101B50004FFD684948704FF00009002405E05F48D8
:101B600000EB0410C0888144641C142CF7D31420AB
:101B7000B9FBF0F00490FEF71AFD07464FF066320D
:101B8000574BFEF722FC05460022564BFEF78FFC12
:101B90008246FEF789FD059003F0DAFD554908718C
:101BA0004FF00009002405E04C4800EB04100089C8
:101BB0008144641C142CF7D31420B9FBF0FB584665
:101BC000FEF7F5FC05464FF06632454BFEF7FDFB90
:101BD00007460022434BFEF76AFCCDE90401FEF7FD
:101BE00063FD824603F0B4FD424948714FF000099D
:101BF000002405E0394800EB041040898144641C4E
:101C0000142CF7D31420B9FBF0F00490FEF7CFFCAE
:101C100005464FF06632324BFEF7D7FB07460022EF
:101C2000304BFEF744FC8246FEF73EFD059003F084
:101C30008FFD304988714FF00009002405E02748E6
:101C400000EB041080898144641C142CF7D3142009
:101C5000B9FBF0FB5846FEF7AAFC05464FF066328A
:101C60001F4BFEF7B2FB00221E4BCDE90401FEF72D
:101C70001EFC0746FEF718FD824603F069FD1D496C
:101C8000C8714FF00009002405E0144800EB04106F
:101C9000C0898144641C962CF7D39620B9FBF0FAD6
:101CA0005046FEF784FC07464FF066320C4BFEF7B9
:101CB0008CFB00220B4BCDE90401FEF7F8FB054637
:101CC000FEF7F2FC0B4988640B480078012802D12A
:101CD00008464078887007B0BDE8F08F54050020B2
:101CE00066660A400000B04000005A409A999999EF
:101CF00099990140D80300200000002000BFFEE7B2
:101D000010B500200949086000F04AFF002008498A
:101D1000C1F89C0100F00EF801200449086000F0B1
:101D200009F800200249C1F8980110BD98812142AC
:101D30000080214200BF00BF00BF00BF00BF70474E
:101D400010B500200949086000F02AFF0120084969
:101D5000C1F89C01FFF7EEFF012004490860FFF77E
:101D6000E9FF00200249C1F8980110BD9881214285
:101D70000080214270B50546002400F001FF0026D6
:101D800014E000200E490860FFF7D4FF01200D4940
:101D9000C1F898016006040E09487C38006808B153
:101DA000601CC4B2FFF7C6FF701CC6B2082EE8DB89
:101DB00015B9FFF7C5FF01E0FFF7A2FF204670BD90
:101DC000988121420080214270B5044600F0E8FE6F
:101DD00000200E490860002514E0E0090B49091DA8
:101DE00008606006040EFFF7A5FF01200849C1F84E
:101DF0009801FFF79FFF002004490860FFF79AFF52
:101E0000681CC5B2082DE8DB70BD00009881214236
:101E10000080214210B500F0C3FE0120084908608F
:101E20000849C1F89801FFF785FF002004490860C0
:101E3000FFF780FF00200349C1F8980110BD0000A2
:101E40009C8121420080214210B500F0A9FE0020B3
:101E5000074908600749C1F89C01FFF76BFF0120A3
:101E6000034908600349C1F89C01FFF763FF10BDF7
:101E7000988121420080214210B5002400F080FEAC
:101E800001200E490860FFF755FF01200C49C1F8F9
:101E90009801FFF74FFF07E0601CC4B2FA2C03DD86
:101EA000FFF7D2FF012010BD0448803800680028E9
:101EB000F2D10249091F086000BFF4E79C8121426A
:101EC0000080214238B54FF400650121082000F060
:101ED00013FBC020ADF8000014208DF80300032090
:101EE0008DF8020069462048FFF70EFD01201F49CA
:101EF00008601F49C1F89C01002414E01D49085DD9
:101F0000002100F03DF84FF6FF71884209D01948D2
:101F1000015D194802780078401C174B187017486B
:101F20008154601CC4B2102CE8DB134800780628EA
:101F300002DB06201049087000240FE00F49085DFD
:101F400043F6F712002100F041F80C49085D4FF408
:101F50000062052100F03AF8601CC4B2064800781F
:101F60008442EBDB38BD0000000C01409881214227
:101F7000008021425401002064010020C20F002093
:101F800070B504460D460026FFF744FF04F0FE003E
:101F9000FFF71AFFFFF770FF2846FFF715FFFFF75F
:101FA0006BFFFFF737FF44F00100FFF70DFFFFF76E
:101FB00063FF0120FFF7DEFE06460020FFF7DAFE92
:101FC00040EA0626FFF740FF304670BD70B5054673
:101FD0000E461446FFF71EFF05F0FE00FFF7F4FE65
:101FE000FFF74AFF3046FFF7EFFEFFF745FF200AF5
:101FF000FFF7EAFEFFF740FFE0B2FFF7E5FEFFF76D
:102000003BFFFFF721FF70BD2DE9F047814604211A
:102010004846FFF7B5FF044604F4004008B1C4F396
:102020000E042046FEF7C3FA0746044A044BFEF7A7
:10203000CCF90546FEF738FBBDE8F087FCA9F1D2E4
:102040004D62503F0146CA1701EB92729210A1EB0C
:10205000820292B9642091FBF0F200FB121050B999
:102060004FF4C87091FBF0F200FB121008B9012088
:1020700070470020FCE70120FAE70020F8E700BFE6
:10208000FEE7704770B5002100230F22C47804B327
:10209000154C246804F4E064C4F5E064210AC1F13D
:1020A0000403CA40447804FA03F1847814402143BD
:1020B00009010E4C0678A155047804F01F0501248F
:1020C000AC4005786D11AD0005F1E025C5F8004183
:1020D00009E0047804F01F050124AC40044D0678A3
:1020E000761145F8264070BD0CED00E000E400E0FC
:1020F00080E100E002490143024A1160704700009C
:102100000000FA050CED00E070B50024604890F87E
:102110005A00C0F34000002841D05E4800780028F3
:102120003CD15B488078052838DD59498868FEF73E
:1021300078FA05464FF03332574BFEF79DFA2DD211
:10214000564800884FF6FF7101EA40005349088065
:102150004F49886CFEF765FA05460022504BFEF7A2
:102160008BFA0AD84F480068012806D14B480088EE
:1021700040F001004949088006E0484800884FF6D1
:10218000FE71084045490880444800884FF6FF71B9
:1021900088427AD10220FEF7A3FC044675E03C4851
:1021A00090F85A00C0F34000D8B33A480078C0BB5A
:1021B00037488078052834DD35498868FEF731FADC
:1021C00005464FF03332344BFEF756FA29D23348E6
:1021D00000884FF6FF7101EA4000304908802C4921
:1021E000886CFEF71EFA054600222D4BFEF744FAD6
:1021F00006D82A48008840F001002849088006E0F7
:10220000264800884FF6FE7108402449088023487C
:1022100000884FF6FF71884203D10220FEF760FC70
:1022200004461B4890F85A0000F0010068B31948B2
:10223000007850BB16488078052826DD1449886848
:10224000FEF7EFF905464FF03332134BFEF714FA61
:102250001BD214480068012806D11348008840F0BA
:1022600001001149088006E00F4800884FF6FE7112
:1022700008400D4908800C4800884FF6FF718842DD
:1022800003D10120FEF72CFC0446204670BD00005F
:10229000D8030020260100203333E33F2E01002025
:1022A00000000A40048121422C01002010B54FF4A7
:1022B0008030FFF76DF80B480068401C0949086042
:1022C00072B601214FF0C05000F006F9012000F075
:1022D0000BF8044801782820FEF764FDFEF748FC5F
:1022E00010BD0000AC0300200149086270470000E7
:1022F00000000E42464908700978F72901D10121F2
:1023000000E00021434A12780AB9012200E00022CD
:10231000114011B101213F4A11703E490978082945
:1023200072D2DFE801F071040E253C444C64F721C1
:10233000394A11700021394A11700221354A117051
:1023400063E035498978324A127842EA0121324AFB
:10235000518032490978491C304A11701146097878
:10236000022904D10021117003212A4A11704CE086
:1023700029490979264A127842EA0121264A9180A0
:1023800026490978491C254A117011460978022905
:1023900004D10021117004211E4A117035E01C493E
:1023A00009781D4A917105211A4A11702DE01849CA
:1023B0000978194AD1710621164A117025E014498D
:1023C0000A7815490831154B1B78CA541349097806
:1023D000491C124A11701049C9791278914205D1ED
:1023E00000210E4A117007210A4A11700DE00849B8
:1023F0000978094A82F807110021064A1170012163
:10240000074A117001E0FFE700BF00BF70470000FE
:1024100009010020060100204C0400200A010020D0
:10242000010000207047000010B500241848007813
:10243000182825DD002016490870164890F85A0023
:10244000C0F3800008B314480068A8B9012002F066
:1024500065FC11480068C0B910480078401C0F495D
:1024600008700846007832280FDD0020087003202D
:10247000FEF736FB044608E000200849087004E037
:1024800003480078401C02490870204610BD000037
:1024900030010020D803002030812142310100208A
:1024A00001460020034A506820F440400843506031
:1024B000704700000010024029B1064A52690243E9
:1024C000044B5A6104E0034A52698243014B5A614A
:1024D000704700000010024029B1064AD269024349
:1024E000044BDA6104E0034AD2698243014BDA61AA
:1024F000704700000010024029B1064A9269024369
:10250000044B9A6104E0034A92698243014B9A6149
:10251000704700000010024029B1064AD268024309
:10252000044BDA6004E0034AD2688243014BDA606C
:102530007047000000100240014908607047000029
:102540004004424230B500210022002400232D4DDA
:102550006D6805F00C0121B1042905D0082923D1AB
:1025600005E0294D056022E0274D05601FE0254D5F
:102570006D6805F47012234D6D6805F480340225F2
:1025800005EB92421CB9214D554305600BE01D4DF2
:102590006D6805F400351DB11C4D5543056002E022
:1025A000194D5543056002E0174D056000BF00BF9F
:1025B000144D6D6805F0F0010909154D6B5C056857
:1025C000DD4045600F4D6D6805F4E061090A104D6E
:1025D0006B5C4568DD4085600A4D6D6805F46051AF
:1025E000C90A0B4D6B5C4568DD40C560054D6D68E3
:1025F00005F44041890B074D6B5CC568B5FBF3F5ED
:10260000056130BD0010024000127A0000093D0053
:10261000C4030020D403002010B50146002200238B
:1026200000204A11012A02D1094C236806E0022A3F
:1026300002D1074C236A01E0054C636A01F01F02D6
:10264000012494401C400CB1012000E0002010BD8A
:102650000010024000210B4A11700A4A203A82F809
:102660002010012802D0042808D103E00121054AE6
:10267000117004E00521034A117000E000BF00BFA3
:1026800070470000201002400149086070470000B8
:102690003C0442420249096A0143014A11627047FF
:1026A00000100240024909888143014A11807047A5
:1026B000042800400348008840F0100001490880C9
:1026C0007047000004280040034800884FF6EF716F
:1026D0000840014908807047042800402DE9F04176
:1026E00000260024002500F07DF8064607463948FC
:1026F000B6FBF0F438480088A0423CD036490C8044
:1027000040F2B27510E02846FFF79CFC40B1B4F5EA
:10271000B77F02D3A4F5B77404E0681C85B206E065
:10272000A4F26D14681C85B2B4F5B67FEBD800BF77
:102730002A480580002516E028490888FFF782FC12
:1027400030B1012D04D11D2C01D31D3C09E00CE05A
:102750002348405DA04203D82148405D241A00E090
:1027600003E0681C85B21C2CE6D200BF681C1B4924
:102770004880601C88801748B6FBF0F100FB1164AC
:102780004FF46160B4FBF0F01449C8804FF461600D
:10279000B4FBF0F100FB11403C21B0FBF1F00F491C
:1027A00008814FF46160B4FBF0F100FB11403C2163
:1027B000B0FBF1F201FB1200084948810B461A797F
:1027C0009978188800F02AF8044988813846BDE8CD
:1027D000F0810000805101000C010020B40F0020A6
:1027E000A85C0008002103480188001F008841EA16
:1027F000004070471C28004001460020064A12880D
:102800000A40D0B2044A121F12880A4012B108B11D
:10281000012000E00020704704280040F0B5034686
:102820000C461546642093FBF0F0C6B2642093FB7F
:10283000F0F700FB1730C1B2132E02DD01F1640086
:10284000C1B20846CF1701EB977701EBA707BAB2E1
:10285000072092FBF0F700FB172082B25719601E89
:10286000DFF82CC01CF80000384482B2CF1701EB0F
:102870009777BF10A1EB87071FB9032C01DA501E11
:1028800082B2072092FBF0F700FB1720C0B2F0BD28
:102890009C5C000810B50220FFF7AEFF50B102208B
:1028A000FFF700FF00F022F902F00AFE00210220EB
:1028B00000F006F80720FFF7F5FE00F017F910BD4D
:1028C00029B1064A12880243044B1A8004E0034AE5
:1028D00012888243014B1A80704700000028004094
:1028E000FEB5002401214FF0C050FFF7F5FD012097
:1028F000FFF7FAFC0420FEF747FA45F2AA51884296
:102900004BD0FEF739FA0120FFF7A4FE04E0601C6B
:10291000C4B20A2002F0DCF94120FFF77DFE002856
:10292000F5D0FA2C01DB0120FEBD4FF48070FFF7DB
:10293000B1FE0120FFF7A8FE00F0D8F800F0E0F8A3
:1029400000210120FFF7BCFF00210220FFF7B8FFA4
:1029500000F0CCF8FFF7AEFE47F6FF7000F0B6F8D7
:1029600000F0C4F81648807A1549097A144ECDE96A
:102970000010B3793279B178308800F025F8FFF78C
:10298000A3FEFFF72FFF05460E48284400F082F80B
:1029900045F2AA510420FEF705FA03208DF808003D
:1029A00000208DF809008DF80A0001208DF80B0039
:1029B00002A8FFF767FBFFF791FE0020B4E70000D5
:1029C000905C000800A776002DE9F05F06460F46F0
:1029D00090469946DDE90AAB002440F2B270864287
:1029E00003DB40F63300864202DD0120BDE8F09FA4
:1029F00040F2B2750AE02846FFF724FB10B12148E7
:102A0000044401E020480444681C85B2B542F2DB6E
:102A1000002510E01D48405D40F2A321484304EB2F
:102A2000C0143046FFF70EFB18B1012D01D1184834
:102A30000444681C85B2781EA842EBDCA8F10100B2
:102A400040F2A321484304EBC014C9EB4910C0EB8A
:102A5000092004EB0014CAEB0A1004EB80045C4468
:102A600001214FF0C050FFF737FD0120FFF73CFC7C
:102A7000204600F01DF800F039F8FFF72FFE002087
:102A8000B4E700000085E2018033E101A85C0008A2
:102A90008051010000B50246FFF70CFE100C0349FF
:102AA0000880091D0A80FFF70FFE00BD20280040A6
:102AB00000B50246FFF7FEFD100C03490880091D12
:102AC0000A80FFF701FE00BD1828004000B502464D
:102AD000FFF7F0FDC2F3034003490880091D0A8097
:102AE000FFF7F2FD00BD00000828004000BF0348CA
:102AF000008800F020000028F9D07047042800402A
:102B0000074800884FF6F77108400549088000BF64
:102B10000348008800F008000028F9D07047000042
:102B20000428004070B5054600260F4800F01EF846
:102B300004B2142C14DC601B401E04B2002C02DA18
:102B400004F1140004B2002C0BDB142C09DA064942
:102B5000891C0C2202FB041000F008F8C6B200E049
:102B60000026304670BD00000000020818B504467B
:102B700001226946204600F023F8BDF8000018BD88
:102B800010B58020044908804820C8700320887050
:102B90000248FEF7B9FE10BD50010020000C0140B4
:102BA00010B58020044908801420C8700320887064
:102BB0000248FEF7A9FE10BD50010020000C0140A4
:102BC00030B503460C461546002207E0184600F0D3
:102BD00008F824F812009B1C501C82B2AA42F5DBB4
:102BE00030BD0146088870472DE9F05F80468A466F
:102BF0001746B8F1006F02D33348804501D3BDE8D2
:102C0000F09FFEF7D7FCA8F1006B4FEADB25CBF372
:102C10004909C9F58064A74200DC3C464DE04FF00D
:102C2000006101EBC5204A142849FFF7C9FF0026BF
:102C30000BE009EB0600254931F810004FF6FF7153
:102C4000884200D003E0701C86B2A642F1DB00BFD0
:102C5000A6421BDA4FF0006101EBC520FEF740FCF5
:102C6000002608E03AF8160006EB0901174A22F898
:102C70001100701C86B2A642F4DB4FF0006101EB3C
:102C8000C5204A14114900F023F804E022465146B9
:102C9000404600F01DF8A74200D10FE06D1C4FF038
:102CA00000090AEB440AA044381B87B2B7F5806FCD
:102CB00002DD4FF4806400E03C46B0E700BFFEF761
:102CC0004FFC00BF9BE70000000004080213002037
:102CD0002DE9F04105460E461746002407E036F878
:102CE00014102846FEF746FCAD1C601C84B2BC42A2
:102CF000F5DBBDE8F081704710B5044603200949B3
:102D000088710120C87104200872084644728079D5
:102D1000C01DC1B2034802F08DF802498872FEF767
:102D200093FA10BD0200002000B58DB0182201A951
:102D30003748FFF745FF1D20364988710120C871CB
:102D400005200872BDF804004872BDF806000012A4
:102D50008872BDF80600C872BDF808000873BDF897
:102D60000A004873BDF80C008873BDF80E00C873E4
:102D7000BDF810000874BDF812004874BDF81400C6
:102D80008874BDF816000012C8749DF81600087506
:102D90009DF8180048759DF81A0088759DF81C006C
:102DA000C8759DF81E00087601A8007F487601A826
:102DB000807F8876BDF82400C876BDF82600001212
:102DC00008779DF8260048779DF8280088779DF8B9
:102DD0002A00C8779DF82C0081F820009DF82E006D
:102DE00081F821009DF8300081F822009DF8320022
:102DF00081F8230008468079C01DC1B2054802F061
:102E000019F8044981F82400FEF71EFA0DB000BD40
:102E10001280010802000020FEB50546142D59DA83
:102E20003E48FFF7A3FE0446601984B2132C02DD6E
:102E3000A4F1140084B2142C6FDA3849891C0C22D6
:102E400002FB041005226946FFF7BAFE0720344949
:102E500088710120C87107200872BDF8000048720F
:102E6000BDF80200A0F5FA608872BDF80400C872CF
:102E7000BDF806000873BDF808004873084680795D
:102E8000C01DC1B2264801F0D5FF25498873084608
:102E9000807A642801DA012000E000202049C97A04
:102EA0000C2901DC012100E0002108401C49097BBC
:102EB0001F2901DC012100E0002108401849497B5D
:102EC000182901DC012100E00021084008B1FEF7CB
:102ED000BBF922E01348FFF749FE06461148801C63
:102EE000FFF744FE074607200D4988710120C8718D
:102EF000072008720020487238128872CF72301290
:102F000008734E7308468079C01DC1B2044801F0B1
:102F100091FF03498873FEF797F9FEBD0000020890
:102F2000020000200010020870B5FFF7D7FBFFF782
:102F3000E7FD694800782E30684988710120C87122
:102F400006200872664890F84E004872644890F86F
:102F500050008872624890F85200C872604890F839
:102F6000540008735E4890F8560048735C4890F827
:102F7000580088735A48B0F85A502812C8730D7414
:102F8000574890F85C004874554890F85E00887483
:102F9000534890F85D00C8745148B0F860000012C2
:102FA00008754F4890F8600048754D4890F86200E9
:102FB00088754B4890F86300C875494890F86400DC
:102FC0000876474890F86500487646480088001221
:102FD000887644480078C876424880780877414827
:102FE000007948773F48807988773E48007AC877EB
:102FF0003C48807A81F820003948807881F82100A7
:103000003748007981F822003548407981F823005B
:103010003348807981F824003148C07981F825004F
:103020002D48007881F826002D4890F8660081F838
:1030300027002B4890F8670081F82800284890F86E
:10304000680081F82900264890F8690081F82A0074
:103050002348B0F86A00000A81F82B00204890F855
:103060006A0081F82C001E4890F86E0081F82D004F
:103070001B48B0F86C00000A81F82E00184890F840
:103080006C0081F82F00002081F8300081F83100B9
:1030900081F8320081F8330081F83400002407E021
:1030A0001148015D04F135000C4A1154601CC4B292
:1030B000094800788442F3DB08488079C01DC1B21A
:1030C000064801F0B7FE044909783531034A5054E7
:1030D000FEF7BAF870BD0000640100200200002075
:1030E000D8030020B40F0020D20F002010B500F04C
:1030F00001F810BD0CB50020019000903348006825
:1031000040F480303149086000BF3048006800F466
:10311000003000900198401C0190009818B9019867
:10312000B0F5A06FF1D12948006800F4003010B16B
:103130000120009001E0002000900098012843D178
:103140002348006840F010002149086008460068E4
:1031500020F0030008600846006840F002000860A4
:103160001A4840681949486008464068486008465F
:10317000406840F4806048600846406820F47C1055
:1031800048600846406840F4E81048600846006817
:1031900040F08070086000BF0C48006800F00070CC
:1031A0000028F9D00948406820F00300074948602A
:1031B0000846406840F00200486000BF034840688D
:1031C00000F00C000828F9D10CBD000000100240EE
:1031D000002002402DE9F14F90B03149B1F858007C
:1031E000FDF7E5F9074600222E4BFDF760F905468D
:1031F000FDF75AFA0E904FF000094846FDF711FA14
:10320000CDE904011098FDF7D2F9CDE90201494654
:103210000E98FCF7FBFF0190FDF703FA054600222C
:10322000214BFDF744F90746DDE90223FDF7CDF810
:103230008246DDE90423FDF721F81C4A1C4BCDE949
:103240000601FDF7C2F8194A1A4BCDE90801FDF74E
:1032500015F80022184BCDE90A01FDF7B6F8CDE9C3
:103260000C01FDF721FA044614492046FCF7D4FF6F
:103270008346FDF7A9F91FFA80FA5046FDF797F942
:1032800007460022084BFDF712F90546FDF70CFA38
:1032900004462146012000F031FB11B0BDE8F08F5B
:1032A000D803002000002440000059407B14AE47A2
:1032B000E17A943FE17A743F000007400000C84281
:1032C00070B504460D4600210E4800F07DFA00203E
:1032D0000C49243108800C48B0FBF4F0401E094929
:1032E0002C3108800848B0FBF4F068436421B0FB3F
:1032F000F1F00449403108800821024800F064FAE6
:1033000070BD0000002C01404019010010B50024E0
:1033100007480068012809D101F000FD0448006851
:10332000012803D10F20FDF7DBFB0446204610BD2A
:1033300020012242042808D14FF0E021096941F020
:1033400004014FF0E022116107E04FF0E02109692C
:1033500021F004014FF0E022116170477047000036
:1033600010B51348006840F0010011490860084694
:103370004068104908400E494860084600680E49F8
:1033800008400B4908600846006820F48020086067
:103390000846406820F4FE0048604FF41F00886033
:1033A000FFF7A4FE4FF000600449086010BD000064
:1033B000001002400000FFF8FFFFF6FE08ED00E0FD
:1033C00010B50121880700F0A7F9002858D02D4832
:1033D00090F85C0040B9FEF76BFB2B48007818B9F9
:1033E000FDF7F0FC2849087028480078642817D1B8
:1033F00025480078A0B12648007888B900202349E4
:10340000087001202349086001221146224800F07B
:1034100094F922480078FFF76FFC01201C490870DE
:103420001A4801780078401C184A1070962921D15A
:103430000020114608701A480078152809DA184843
:103440000078FFF7E9FC16480078401C1449087022
:1034500012E01448007808B9FFF766FD11480078BB
:10346000401C1049087008460078032804DB00203F
:10347000087001E000F008FE0121880700F02EF935
:1034800010BD0000D80300204201002043010020AD
:10349000410100209C012242000C00402801002034
:1034A000070100204001002010B50121264800F04E
:1034B00033F9002846D00020244988702449086048
:1034C000FFF788FE00202349C1F8A8011F480078B3
:1034D00010B10020204908600020204908702048D1
:1034E000006820F470401E4908600846006840F4F7
:1034F000304008601848A8380068012819D10846EB
:10350000006820F4704008600846006840F44050AD
:1035100008600120114908700C48007810B10120A2
:103520000D49086000200F49086001200E49C1F8CC
:10353000AC0100220121044800F0FFF801210248FB
:1035400000F0CCF810BD000000040040D8030020BB
:10355000AC01214200002242B4812142000000203F
:1035600004080140A80122420000214210B50121B7
:103570001E4800F0D1F8002837D01D4880780A286E
:103580002FDB1C480088401C1A4908800846008828
:103590003C2826DD002008801748FFF7E7FA174986
:1035A0000880084600884AF6C00188420ADA1348B3
:1035B0000088401C11490880084601880E4800F028
:1035C00061FC0EE000210C4800F05CFC0A48801C05
:1035D000FFF7CCFA401C84B221460748801C00F05B
:1035E00051FC0121014800F079F810BD00080040AD
:1035F000D8030020460100200010020844010020EA
:1036000010B50121274800F087F8002849D0264846
:1036100090F85C00E8B125480078401C2349087008
:1036200008460078022838DB00200870204800682F
:1036300008B9012000E000201D4908601D48D0F8AD
:10364000B00108B9012000E00020194914310860D8
:1036500023E019480078401C174908700846007894
:10366000052809DB002008701148006808B901200E
:1036700000E000200E4908601048007828280CDA85
:103680000E480078401C0D4908700846007819283B
:1036900003D10B48007800F0BDFB0121014800F088
:1036A0001DF810BD000C0040D80300204A01002086
:1036B0009C012242000022424901002048010020D2
:1036C0002801002021B1028842F08002028004E03B
:1036D00002884FF67F731A4002807047CA43028205
:1036E000704721B1028842F00102028004E00288A2
:1036F0004FF6FE731A400280704731B1B0F8442093
:1037000042F40042A0F8442005E0B0F84420C2F39F
:103710000E02A0F84420704730B502460020002376
:103720000024158A05EA0103958905EA010413B10D
:103730000CB1012000E0002030BD1AB183890B4399
:10374000838102E083898B438381704770B50022B7
:1037500000230024058C4EF6FF7635400584038C4B
:103760008488828B48F6FF752A404FF6FF452A4031
:103770000D884FF6FF7606EA05252A434DF6FF75BC
:103780002B400D8906EA05352B434D8806EA0535A1
:103790002B430B4DA84202D00A4DA84208D14BF64C
:1037A000FF752C408D894FF6FF7606EA85152C4370
:1037B00084808283CD88A0F84050038470BD0000CF
:1037C000002C0140003401400A460021818B4FF259
:1037D000FF7319404FF6FF7303EA022319438183F5
:1037E00070470000002202881D4B98420ED01D4BEE
:1037F00098420BD0B0F1804F08D01B4B984205D0B7
:103800001A4B984202D01A4B984204D14FF68F734C
:103810001A404B881A43174B984207D0164B9842D0
:1038200004D04FF6FF431A40CB881A4302808B889E
:1038300083850B8803850A4B98420BD0094B98422D
:1038400008D00E4B984205D00D4B984202D00D4B3C
:10385000984201D10B7A03860123838270470000CE
:10386000002C0140003401400004004000080040EA
:10387000000C0040001000400014004000400140D7
:10388000004401400048014070B50446A007040E02
:10389000002507E004F0800000F00AF86006040E3E
:1038A000681CC5B2022DF5DB012000F001F870BDE7
:1038B00018B90021064A116002E00121044A116092
:1038C0000121044A11600021034AC2F8981170478F
:1038D000BC812142980122420000224270B5044678
:1038E000002507E004F08000FFF7E2FF6006040E09
:1038F000681CC5B2082DF5DB70BD00002DE9F04F46
:1039000085B083468A465046FCF78BFE80460022EF
:103910004FF08043FCF7CBFD00224FF08043CDE910
:103920000001FCF7C4FD0022104BCDE90201FCF7B9
:103930004CFD064600220E4BFCF741FD0446FCF709
:1039400057FEC0B2049000200A4908605846FFF7AD
:103950009BFF0498FFF7C2FF00200749C1F8B80198
:1039600001200649086005B0BDE8F08F00007040F6
:103970000000F03F9801224200802142B88121429C
:1039800070B50025494890F8544090F85A00C0F3AB
:10399000C000E8B1464800784006000E444908706F
:1039A00042480079A04205DB0846007840F001005B
:1039B000087005E03E48007800F0FE003C490870C1
:1039C0003B480078FF2803D10420FDF789F805461D
:1039D000364890F85A00C0F30010E8B13548007836
:1039E0004006000E3349087030484079A04205DB9C
:1039F0000846007840F00100087005E02D48007886
:103A000000F0FE002B4908702A480078FF2803D1F7
:103A10000520FDF765F80546244890F85A00C0F3E4
:103A20004010E8B1244800784006000E2249087092
:103A30001E488079A04205DB0846007840F001006E
:103A4000087005E01C48007800F0FE001A49087074
:103A500019480078FF2803D10620FDF741F80546F4
:103A6000124890F85A00C0F38010E8B1134800786B
:103A70004006000E114908700C48C079A04205DBD1
:103A80000846007840F00100087005E00B48007817
:103A900000F0FE000949087008480078FF2803D1AB
:103AA0000720FDF71DF80546284670BDD803002005
:103AB00036010020370100203801002039010020A4
:103AC00070B540F22441164800F0E0F830B31448D5
:103AD0000088C5B21248001D0088C5B200211148F7
:103AE000FDF7BEFA4FF48030FDF79EFA0D48FDF762
:103AF00069FBC0F13C00C5B2002405E00A49085D3D
:103B0000FEF7F8FB601CC4B2AC42F7DB3C20054971
:103B10005839C86501210348FDF7A2FA70BD0000BD
:103B20000038014058000240B40E002010B50121B9
:103B3000354800F09EF830B1334800F063F90121B8
:103B4000314800F069F808212F4800F092F830B1B0
:103B50002D4800F057F908212B4800F05DF820218E
:103B6000294800F086F801283BD1274800F04AF99F
:103B7000264908702648008800F4004088BB244885
:103B8000008800F4804070B1084600780A2803D00D
:103B900000201F49088024E01D48008840F40040B0
:103BA0001B4908801DE0194800780D2806D11848E7
:103BB000008840F480401649088012E013480078DD
:103BC00013490988C1F30D01124A50541048008866
:103BD000401C0F49088008460088092801DD0020A4
:103BE000088040F22551084800F050F858B12021D3
:103BF000054800F011F840F22551034800F015F88F
:103C0000014800F0FFF810BD00440040A60300206A
:103C100066010020021B002001F40072B2F5007F53
:103C200000D100BFCA430280704710B500220023B4
:103C300040F66A14A14200D100BF0A120124944048
:103C4000A3B2DC43048010BD21B1828942F400524A
:103C5000828104E082894DF6FF731A4082817047A9
:103C60001AB1838A0B43838202E0838A8B43838267
:103C7000704702460020B1F5007F00D100BF1388D5
:103C80000B400BB1012000E00020704770B50246E8
:103C9000002400230025002040F66A16B14200D11E
:103CA00000BFC1F3421501F01F03012606FA03F31A
:103CB000012D02D19689334006E0022D02D1168AE9
:103CC000334001E0968A33400C12012606FA04F4D0
:103CD0001688344013B10CB1012000E0002070BD03
:103CE000F0B50346002400260025002040F66A17A0
:103CF000B94200D100BF1846C1F3421401F01F06BB
:103D0000012707FA06F5012C01D10C3004E0022C42
:103D100001D1103000E014301AB107682F4307605A
:103D200002E00768AF430760F0BD00002DE9F047EF
:103D300086B005460E460024A24600BFA1460027D5
:103D4000B08900B100BF2F462C8A4CF6FF700440AA
:103D5000F08804432C82AC894EF6F3100440B088FE
:103D600031890843718908430443AC81AC8A4FF61A
:103D7000FF400440B0890443AC8201A8FEF7E2FB97
:103D80001F48874202D1DDF810A001E0DDF80CA049
:103D9000A88900F4004040B10AEBCA0000EB0A1009
:103DA00031684900B0FBF1F807E00AEBCA0000EB0C
:103DB0000A1031688900B0FBF1F86420B8FBF0F01C
:103DC00004012009642101FB1089A88900F4004046
:103DD00040B1322000EBC900B0FBF1F000F0070069
:103DE000044308E0322000EB09106421B0FBF1F03D
:103DF00000F00F0004432C8106B0BDE8F0870000FE
:103E00000038014001468888C0F30800704700BFB1
:103E1000FEE700003EB50546FEF760FCFEF770FECB
:103E2000ADF8005015480088ADF8020013484088EE
:103E3000ADF8040011488088ADF806000F48C0882E
:103E4000ADF808000E48FEF791FE0446142C04DB82
:103E500000210B4800F016F800240949891C0C22A7
:103E600002FB041005226946FEF7BEFE601C84B208
:103E70002146034800F006F83EBD0000B40F0020C4
:103E80000000020813B50446012201A92046FEF7EE
:103E9000ABFE1CBD02E008C8121F08C1002AFAD1FF
:103EA00070477047002001E001C1121F002AFBD1BA
:103EB0007047000000B591B0012140F21C60FEF790
:103EC0001BFB01210846FEF7F7FA4FF44040FEF7CE
:103ED000E7FA00208DF82F00CE20ADF82C000BA9BA
:103EE0005448FDF711FD0120ADF82C000BA95248F4
:103EF000FDF70AFD3020ADF82C000BA94F48FDF767
:103F000003FD4F48FDF7B8F84E4800904E48019029
:103F1000002002904FF496600390002004908020CF
:103F20000590400006908000079020200890000235
:103F3000099000200A9069464148FDF766F9012181
:103F40003F48FDF78DF83F484C38FCF7EDFC00206A
:103F50000C9001208DF834008DF835004FF460206E
:103F60000E9000200F9008208DF840000CA93548D5
:103F70004C38FCF71BFD05230122114631484C3813
:103F8000FCF73CFD0523022211462E484C38FCF775
:103F900035FD0523032211462A484C38FCF72EFD37
:103FA00005230422062127484C38FCF727FD05236A
:103FB0001A46072123484C38FCF720FD052306222A
:103FC0000E2120484C38FCF719FD052307220F214C
:103FD0001C484C38FCF712FD0523082211461948ED
:103FE0004C38FCF70BFD012116484C38FCF790FCCF
:103FF000012114484C38FCF780FC12484C38FCF77F
:1040000059FD00BF0F484C38FCF7C6FC0028F9D119
:104010000C484C38FCF75EFD00BF0A484C38FCF7F2
:10402000B1FC0028F9D1012106484C38FCF747FDC6
:1040300011B000BD00080140000C0140001001401B
:10404000080002404C240140540500203EB50C4AB3
:1040500007CA8DE8070000210A48FFF713FF002474
:104060000AE00849891C0C2202FB0410052269465B
:10407000FEF7BAFD601CC4B2142CF2DB3EBD00009A
:10408000845C0008000002082DE9FC47F94800782C
:1040900001287DD10020F7490870F748407AF64999
:1040A000097A40EA012040F20722811A904270D03A
:1040B00025DCB0F5857F6DD009DCA0F20110082861
:1040C00069D2DFE800F053FDFCFBFAF9F8F740F2A3
:1040D0000222811A90427DD00ADCA0F20B10002847
:1040E00079D0012878D0032877D0F62853D159E326
:1040F000012973D0032972D00429F7D1B0E340F22B
:104100000132881A91426BD018DC40F2FD22A1EBFB
:10411000020091427ED00ADC01297CD0A1F2FA2172
:10412000002979D0012978D00229DFD1BBE3012809
:1041300074D0022873D00328D8D1F0E306286FD0BA
:1041400008DC01286DD002286CD003286BD005282C
:10415000CCD1F2E3072867D0A0F6012000287DD05B
:10416000A0F5824003380028C0D1E7E3C34890F8A7
:104170005C00002860D1C048807A01286FD1C04817
:1041800000780028F6D1BC48C07A642854DC03E0EB
:10419000F1E369E38AE1EFE3B748407B64284BDC55
:1041A000B64890F86F00012847D1B348C07A052877
:1041B00042DD00220121B348FFF7BFFAAF48007883
:1041C00010B10120B04908600120B0490860AA4838
:1041D000C07A06E0FBE27FE181E19CE231E33CE36F
:1041E000F6E3A6498870084680780A2802DA0A2091
:1041F000C87003E0A1488078A049C8709F49C8787A
:10420000FEF7E8FF052000F089FD0020A0490870B6
:10421000994A0AE0C0E32AE338E381E3D9E3F4E30F
:10422000F4E3F4E3F4E3F4E3F4E3517B107BFFF70E
:1042300047F801209749087046E000220121914883
:10424000FFF77BFA8D48007810B101208E49086095
:1042500001208E4908608848C07A01E042E113E0FD
:10426000864988708878FEF7B5FF052000F056FD76
:10427000002087490870804A517B107BFFF720F8A7
:104280000120844908701FE000207C4988700120CB
:104290007F4908700020FEF79DFF00210A20FFF7EC
:1042A0000FF87648007810B10020774908600020A8
:1042B000764906E088E07BE06EE061E042E023E0E2
:1042C00003E008607349087024E26B48807A6B4908
:1042D000A1F84E000846B0F84E106F48FFF7D2FD27
:1042E0006649B1F84E108800FCF750F907460022E5
:1042F0006A4BFCF7DCF80546FCF7D6F982465146D6
:104300000020FFF7FBFADFE75B48817A5B48A0F803
:104310005010B0F850106048801CFFF7B3FD5749AB
:10432000B1F85000FCF743F9074600225C4BFCF75C
:10433000BEF80546FCF7B8F9824651460320FFF760
:10434000DDFAC1E74C48817A4C48A0F85210B0F829
:1043500052105148001DFFF795FD4849B1F8520031
:10436000FCF725F9074600224D4BFCF7A0F805465F
:10437000FCF79AF9824651460220FFF7BFFAA3E7FD
:104380003D48817A3D48A0F85410B0F85410424896
:10439000801DFFF777FD97E73748817A3748A0F807
:1043A0005610B0F856103C480830FFF76BFD8BE70D
:1043B0003148817A3148A0F85810B0F85810364882
:1043C0000A30FFF75FFD7FE72C48B0F85A0042F251
:1043D000040120EA01042848C17A807A41EA0020D9
:1043E00042F2040120EA01094C450DD02248C17A6D
:1043F000807A41EA00212148A0F85A10B0F85A10FA
:1044000025480C30FFF73EFD1B48C17A807A41EA0F
:10441000002000F400541848C17A807A41EA002054
:1044200000F00409B4F5005F07D101201D49488060
:1044300001211D48FFF726FD06E0002019494880AC
:1044400000211948FFF71EFDB9F1040F08D1012022
:104450001449088001211448801EFFF713FD07E06E
:1044600000201049088000210F48801EFFF70AFD38
:10447000E7E30000010000204C040020D8030020E6
:104480000000002000040040B4812142A801224223
:1044900026010020080100200280010800408F4012
:1044A000000024400201002006900108FEF702F9F6
:1044B000FD48007CFC49C97BFB4DCDE90010EE7A3C
:1044C000AD7A46EA0520F84DAB7B6A7B297BFEF787
:1044D0007BFAFEF7F9F8B4E3FEF726FDB1E3FEF749
:1044E00023FCAEE3F048807A07287DD00021EF4816
:1044F000FFF7C8FCED48FEF739FBED4981F85C0099
:10450000FEF7ECF8FEF7F2FAFEF7FAFA01210220C4
:10451000FEF7D6F9FEF7EAFAFEF7CCF8E248807A21
:1045200007283FDAE048807A07283AD2DFE800F02F
:10453000040C141C242C3400FEF754F9DD494518F2
:104540002846FEF7A7FA2CE0FEF74CF9DA494518A1
:104550002846FEF79FFA24E0FEF744F9D7494518AC
:104560002846FEF797FA1CE0FEF73CF9D4494518B7
:104570002846FEF78FFA14E0FEF734F9D1494518C2
:104580002846FEF787FA0CE0FEF72CF9CE494518CD
:104590002846FEF77FFA04E000210220FEF790F99A
:1045A00000BF11E0FEF71EF9BF49897AC91F01EB70
:1045B0004101C900C1EB01118900C1EB011100EB00
:1045C00081052846FEF766FAFEF790FAFEF77CF8BA
:1045D000B548817AB5481030FFF754FCB348123023
:1045E000FEF7C4FA401C00E078E085B22946AF48E7
:1045F0001230FFF747FCB5480188AC48801CFFF734
:1046000041FCB2484188A948001DFFF73BFCAF4878
:104610008188A648801DFFF735FCAC48C188A348B7
:104620000830FFF72FFCA9480189A0480A30FFF79E
:1046300029FC9E481230FEF799FA9D4981F85D00E9
:104640009A481030FEF792FA994981F85E0097482F
:10465000FEF78CFA964981F85C009448801CFEF7BE
:1046600085FA9349A1F860009048001DFEF77EFA94
:104670008F4981F862008D48801DFEF777FA8C49DA
:1046800081F8630089480830FEF770FA884981F89C
:10469000640086480A30FEF769FA854981F86500AA
:1046A000002201218A48FFF748F88A48006840F054
:1046B0000800884908600846006840F0100008605B
:1046C00001208549086000208449C1F8A801824979
:1046D00014390860FF20FFF79DFB1BE001217348A0
:1046E0001230FFF7CFFB00217D48FFF7CBFB002105
:1046F0007B48801CFFF7C6FBFFF7A8FC6B48123015
:10470000FEF734FA6A4981F85D00002167481630E7
:10471000FFF7B8FB95E26448807A542841D062489C
:10472000817A7048FFF7AEFB5F48C17A6D48801C04
:10473000FFF7A8FB5C48017B6A48001DFFF7A2FB5E
:104740005948417B6748801DFFF79CFB5648C27B58
:10475000807B42EA002163480830FFF793FB614801
:10476000FEF704FA524981F866005E48801CFEF7A5
:10477000FDF94F4981F867005A48001DFEF7F6F928
:104780004B4981F868005748801DFEF7EFF948490A
:1047900081F8690053480830FEF7E8F94449A1F868
:1047A0006A004EE24048807A40B101204E490880BC
:1047B00001213E48001FFFF765FB07E000204A4942
:1047C000088000213948001FFFF75CFB39E23648BA
:1047D000807A012825D13649087008460178334887
:1047E0001430FFF74FFB4148007850B9404800783B
:1047F000012802D13F49086022E000203D490860BD
:104800001EE03A48007801281AD13A48A8380068D2
:1048100018B900203749086012E0012035490860C6
:104820000EE02148807A58B90020214908700846D6
:1048300001781E481430FFF725FB01202D49086040
:10484000FFE12B480078012806D11748807A1849E3
:1048500088708878FEF7BEFCF3E100F031FEF0E1ED
:10486000002025490870ECE1FCF760FFE9E12348EE
:10487000007850B10E4890F86E00411C0B4816307D
:10488000FFF700FB00201D490870DAE10648807A36
:10489000012835D10648B0F85A0040F0010104481B
:1048A000A0F85A1034E059E04C04002008900108A8
:1048B000D8030020008D2700001A4F0000A77600C3
:1048C00000349E0000C1C500004EED00B40F002072
:1048D000000C004000040140B001224200002242CE
:1048E00000100208428001080201002000000020A0
:1048F00008010020B4812142070100200B010020A3
:10490000D148B0F85A0020F00101CF48A0F85A1061
:10491000CD48B0F85A10CD48FFF7B4FA91E196E0CF
:10492000CB48807A01280AD1C748B0F85A0040F035
:104930000201C548A0F85A1009E030E113E1C2486D
:10494000B0F85A0020F00201BF48A0F85A10BE4843
:10495000B0F85A10BD48FFF795FA72E1BC48807A6A
:1049600001280AD1B848B0F85A0040F00401B6480E
:10497000A0F85A1009E065E162E1B348B0F85A00C6
:1049800020F00401B048A0F85A10AF48B0F85A100F
:10499000AE48FFF777FA54E1AD48807A012808D194
:1049A000A948B0F85A0040F00801A748A0F85A10EA
:1049B00007E0A548B0F85A0020F00801A248A0F886
:1049C0005A10A148B0F85A10A048FFF75BFA38E136
:1049D00059E09F48807A012808D19B48B0F85A00D6
:1049E00040F010019848A0F85A1007E09648B0F837
:1049F0005A0020F010019448A0F85A109248B0F8DC
:104A00005A109248FFF73EFA1BE104E0E3E056E05B
:104A100071E08CE0FBE08E48807A012808D18A485A
:104A2000B0F85A0040F020018748A0F85A1007E07B
:104A30008548B0F85A0020F020018348A0F85A10A9
:104A40008148B0F85A108148FFF71CFAF9E0804815
:104A5000807A012808D17C48B0F85A0040F0400123
:104A60007948A0F85A1007E07748B0F85A0020F0CB
:104A700040017548A0F85A107348B0F85A107348AE
:104A8000FFF700FADDE07248807A012808D16E480D
:104A9000B0F85A0040F080016B48A0F85A1007E0C7
:104AA0006948B0F85A0020F080016748A0F85A1011
:104AB0006548B0F85A106548FFF7E4F9C1E064486A
:104AC000807A012808D16048B0F85A0040F480711B
:104AD0005D48A0F85A1007E05B48B0F85A0020F48F
:104AE00080715948A0F85A105748B0F85A105748E2
:104AF000FFF7C8F9A5E05648807A012808D1524846
:104B0000B0F85A0040F400714F48A0F85A1007E07E
:104B10004D48B0F85A0020F400714B48A0F85A10E4
:104B20004948B0F85A104948FFF7ACF989E04848BD
:104B3000807A012808D14448B0F85A0040F48061D6
:104B40004148A0F85A1007E03F48B0F85A0020F456
:104B500080613D48A0F85A103B48B0F85A103B48D5
:104B6000FFF790F96DE03A48807A012808D136487D
:104B7000B0F85A0040F400613348A0F85A1007E03A
:104B80003148B0F85A0020F400612F48A0F85A10BC
:104B90002D48B0F85A102D48FFF774F951E02C4811
:104BA000807A012808D12848B0F85A0040F4805192
:104BB0002548A0F85A1007E02348B0F85A0020F41E
:104BC00080512148A0F85A101F48B0F85A101F48C9
:104BD000FFF758F935E01E48807A012808D11A48B5
:104BE000B0F85A0040F400511748A0F85A1007E0F6
:104BF0001548B0F85A0020F400511348A0F85A1094
:104C00001148B0F85A101148FFF73CF919E0104864
:104C1000807A012809D10C48B0F85A004FF6FF718C
:104C200008430949A1F85A0003E000210648A0F80A
:104C30005A100548B0F85A100448FFF723F900E06D
:104C400000BF00BFBDE8FC87D80300200E8001082C
:104C50004C04002070B502460C46FF25FF2309E0F6
:104C600012F8010B80EA05010648405C80EA030562
:104C70000548435C2000A4F10106F4B2F0D145EAF6
:104C8000032070BDCC5C0008CC5D000810B56FF04F
:104C90000400FEF74FFB0A4800680A49B0FBF1F038
:104CA000094908700846007800EB4001C1EBC010CC
:104CB0004FF6FF7101EAC0000449088010BD0000F2
:104CC000B003002000127A004C0100204E010020A9
:104CD0000146114A12884A434FF0E0235A610022EC
:104CE0009A611A46126942F001021A6100BF4FF040
:104CF000E022106900F001021AB100F48032002AAB
:104D0000F5D04FF0E022126922F001024FF0E023CB
:104D10001A6100229A6170474E0100200146114A33
:104D200012784A434FF0E0235A6100229A611A46F2
:104D3000126942F001021A6100BF4FF0E0221069CF
:104D400000F001021AB100F48032002AF5D04FF0D1
:104D5000E022126922F001024FF0E0231A610022E2
:104D60009A6170474C0100200EB501211D20FDF70E
:104D7000C3FB04210120FCF7A7FD102001900020B7
:104D80008DF8080008208DF8090001208DF80A0030
:104D900001A8FCF717FB0A208DF8000000208DF811
:104DA000010001208DF802008DF803006846FDF730
:104DB00069F903210120FCF787FD082001900020FC
:104DC0008DF808000C208DF8090001208DF80A00EC
:104DD00001A8FCF7F7FA09208DF8000000208DF8F3
:104DE000010001208DF802008DF803006846FDF7F0
:104DF00049F905210120FCF767FD202001900020E2
:104E00008DF8080010208DF8090001208DF80A00A7
:104E100001A8FCF7D7FA17208DF8000000208DF8C4
:104E2000010001208DF802008DF803006846FDF7AF
:104E300029F90EBD30B502460B460020002111E0D5
:104E4000555C6840002409E000F001051DB15125C2
:104E500085EA600000E04010651CECB2082CF3DB32
:104E60004D1CE9B29942EBDB30BD00002DE9F05F4B
:104E700006460F4690469946DDE90AAB002440F20B
:104E8000B270864203DB40F63300864202DD012029
:104E9000BDE8F09F40F2B2750AE02846FDF7D2F86F
:104EA00010B11948044401E018480444681C85B254
:104EB000B542F2DB002510E01548405D40F2A32129
:104EC000484304EBC0143046FDF7BCF818B1012D7F
:104ED00001D110480444681C85B2781EA842EBDC5E
:104EE000A8F1010040F2A321484304EBC014C9EB30
:104EF0004910C0EB092004EB0014CAEB0A1004EBC4
:104F000080045C442046C3E70085E2018033E10170
:104F1000A85C00088051010008B501210846FDF792
:104F2000EBFA01213B48FCF77BFD01213C20FDF71A
:104F3000E3FA4FF4C050ADF8000010208DF80300E4
:104F400003208DF8020069463348FCF7DDFC0020A1
:104F5000324908603249C1F8B0014FF40050ADF851
:104F6000000069462F48FCF7CFFC01202E4908605D
:104F70004FF4E450ADF8000069462C48FCF7C4FC3F
:104F800001202B49C1F8B0010420ADF800006946AA
:104F90002848FCF7B9FC01202749086041F23B0092
:104FA000ADF8000004208DF8030003208DF8020006
:104FB00069461C48FCF7A8FC4FF44070ADF80000AF
:104FC00069461A48FCF7A0FC00201C490860012033
:104FD0001A49083908601649C1F8AC014FF4FA7053
:104FE000FFF776FE00201549143908604FF4FA7077
:104FF000FFF76EFE4FF4FA70FFF76AFE01200F49CB
:10500000086000200D49083908600D49C1F8880181
:1050100008BD00000002300000080140AC01214240
:1050200000002142000C0140B481214200100140E7
:10503000000022420014014088812242B001224235
:10504000008022422DE9F843FE48FDF78FFD4FF620
:10505000FF7188427DD1002000904620FA49A1F8D6
:105060004E001221F848A0F850101121A0F852105B
:105070002821A0F85410C821A0F856106E21A0F8DD
:105080005810FF21A0F85A100120EF4908700020A5
:1050900081F85C0081F85D00072081F85E00084619
:1050A0000178EA48FEF7EEFEE748B0F84E10E54812
:1050B000801CFEF7E7FEE448B0F85010E148001D00
:1050C000FEF7E0FEE048B0F85210DE48801DFEF723
:1050D000D9FEDD48B0F85410DA480830FEF7D2FEA9
:1050E000D948B0F85610D7480A30FEF7CBFED6485C
:1050F000B0F85810D3480C30FEF7C4FED248B0F8D0
:105100005A10D0480E30FEF7BDFECF4890F85C1024
:10511000CE481438FEF7B6FECB4890F85D10CB4869
:10512000801EFEF7AFFEC84890F85E10C748001F0B
:10513000FEF7A8FE0021C5481438FEF7A3FE40F292
:10514000E271C2481238FEF79DFE0821BF481038B0
:1051500000E051E0FEF796FE1521BC480E38FEF740
:1051600091FE0E21B9480C38FEF78CFE0021B7489D
:105170000A38FEF787FE0121B2481030FEF782FEA2
:105180000121B048FEF77EFE0021B048801EFEF7E8
:1051900079FE5421AB484230FEF774FE0021A94845
:1051A0004430FEF76FFE0021A6484630FEF76AFE47
:1051B0000021A4484830FEF765FE0021A1484A308E
:1051C000FEF760FE0021A148801CFEF75BFE332144
:1051D0009E481C38FEF756FE01219C481838FEF701
:1051E00051FE012199481638FEF74CFE022269460D
:1051F0009748FDF7F9FC00BF94481C38FDF7B6FC52
:10520000332843D0332191481C38FEF73BFE01215F
:105210008E481838FEF736FE01218C481638FEF706
:1052200031FE01218948FEF72DFE00218748001F2D
:10523000FEF728FEFDF752FAFDF762FC02218348D3
:10524000801EFEF71FFE8348018880481238FEF753
:1052500019FE804841887D481038FEF713FE7D48CE
:1052600081887A480E38FEF70DFE7A48C188774863
:105270000C38FEF707FE7748018974480A38FEF7B4
:1052800001FE002171481438FEF7FCFD6F48FDF760
:105290006DFC6D4908706B48801CFDF767FC6A491E
:1052A000A1F84E006748001DFDF760FC6649A1F8B3
:1052B00050006448801DFDF759FC6349A1F8520075
:1052C00060480830FDF752FC5F49A1F854005D4882
:1052D0000A30FDF74BFC5C49A1F8560059480C30E8
:1052E000FDF744FC5849A1F8580056480E30FDF728
:1052F0003DFC5549A1F85A0052484230FDF736FCB2
:10530000514981F866004F484430FDF72FFC4E4963
:1053100081F867004B484630FDF728FC4A4981F880
:10532000680048484830FDF721FC474981F869008A
:1053300044484A30FDF71AFC4349A1F86A00FCF7DB
:1053400059F94248001FFDF711FC3F4981F85E0002
:105350003E48801EFDF70AFC3B4981F85D003B4852
:105360001438FDF703FC384981F85C0037481238DF
:10537000FDF7FCFB3449A1F8600034481038FDF714
:10538000F5FB314981F8620030480E38FDF7EEFB3D
:105390002D4981F863002D480C38FDF7E7FB2A49B9
:1053A00081F8640029480A38FDF7E0FB264981F8B6
:1053B00065002648801CFDF7D9FB234981F86E0063
:1053C0004FF49770A1F86C00084690F866005428D6
:1053D00003D1002081F86F0003E001201A4981F811
:1053E0006F001949B1F84E108800FBF7CFF8074657
:1053F0000022194BFBF75BF80546FBF755F904460D
:1054000021460020FEF77AFA0F49B1F85000FBF769
:10541000CEF807460022114BFBF749F80546FBF78B
:1054200043F9044621460320FEF768FA0649B1F81D
:105430005200FBF7BCF807460022084BFBF737F891
:1054400005460DE000800108D80300201C900108EB
:1054500000100208B40F002000408F4000002440DC
:10546000FBF722F9044621460220FEF747FA002105
:105470000120FEF743FA0E480078012803D10020EE
:105480000C49086002E001200A490860C920084967
:10549000A1F870000848FDF769FB08490880064834
:1054A000801CFDF763FB05494880BDE8F8830000D8
:1054B000D8030020B4812142049001080201002099
:1054C00010B501211648FEF7DDFC1548FDF74EFB2F
:1054D000144981F85C001448006820F00800124963
:1054E00008600846006820F01000086000210A20CB
:1054F000FDF7E6FE00200D4908600A4988708878AB
:10550000FDF768FE00200A49C1F8B40101221146E6
:105510000848FEF712F900200749086010BD000096
:1055200008900108D803002000040140AC0121428A
:1055300000802142000C0040A80122424FF4A060EC
:10554000FCF7D8FDFFF7A2FBFFF7E6FC00F08EFAB0
:1055500000F06CFAFFF776FD00BFFDF7C1F90028F7
:10556000FBD1FEF7A7FC4FF47A70FFF7B1FBFCF715
:10557000A9FC00F05FF9FFF7F7FB00F013F807480C
:10558000FDF7F4FA012804D1012211460448FEF780
:10559000D4F802E00A20FFF79BFBFBE70890010824
:1055A000000C00401CB5FDF799F859490860FDF75B
:1055B000A7FA5848FDF7DAFA5749088055480E38D7
:1055C000FDF7D4FA5549088052480C38FDF7CEFA59
:1055D000534908804F480A38FDF7C8FA51490880F6
:1055E0004C480838FDF7C2FA4F4908804948801FE7
:1055F000FDF7BCFA4D49088000204D490880464817
:105600000088062854D044480088072850D04248D3
:105610000088062818DA0846007844490978CDE958
:105620000010414803783F4802783D4801783B48E4
:105630000088FFF71BFC3F49374A128851F82210B7
:1056400008443D4908601EE0394800783749097828
:10565000CDE90010344803783248027830480178A8
:105660002E480088FFF702FC2B490988C91F01EB6F
:105670004101C900C1EB01118900C1EB011100EB2F
:1056800081002D490860224800682B49096888423A
:1056900002D3FFF715FF10E0274800681C4909688E
:1056A000401A2649B0FBF1F02549A1F8700004E04A
:1056B0004FF47A702249A1F8700000202149087047
:1056C00020E020480078FDF72DFA022804D11E487A
:1056D0000078401C1C4908701B48007804280CD135
:1056E0001120FDF709FB164890F86600542804D0F5
:1056F000FFF7E6FE11201549087012480078401C9B
:10570000104908700F4800780428DADB1CBD00003F
:105710001001002018900108180100201A01002033
:105720001C0100201E010020200100202201002079
:1057300024010020B45C0008140100208051010005
:10574000D80300200E0100200F01002028010020B6
:105750002DE9F14F86B04FF0000946244FF0000BC1
:105760000698FAF75EFF05464FF033322C4BFAF7F6
:1057700083FF0CD20698FAF754FF05464FF06632C5
:10578000284BFAF761FF02D82748008E1FE00698E1
:10579000FAF747FF07464FF06632224BFAF712FE40
:1057A000CDE9000121490698FAF736FD80462049E7
:1057B000FAF72CFD0746FAF734FF0546DDE900232A
:1057C000FAF775FECDE90201FAF712FF80B20490F4
:1057D0004FF0000A1DE009EB040000EBD071C1F3AB
:1057E000470B114830F81B100498814206DA09EB88
:1057F000040000EBD071C1F3470406E009EB04009C
:1058000000EBD071C1F3470900BF0AF1010000F0BD
:10581000FF0ABAF1070FDEDB204607B0BDE8F08FC4
:105820003333074066660A40F45B000800D01D462B
:105830000000A54300B589B0012140F60400FCF743
:105840005BFE01210F20FCF747FE40F2E730ADF888
:105850001C0041F61F40ADF818000020ADF81E00F6
:10586000ADF81A0006A96C48FDF7BCFF01216A4893
:10587000FDF737FF002201216748FDF75EFF322068
:105880008DF8040000208DF8050003208DF8060037
:1058900001208DF8070001A8FCF7F4FB0920ADF802
:1058A0001C0041F61F40ADF818000020ADF81E00A6
:1058B000ADF81A0006A94FF08040FDF793FF0121D3
:1058C0008807FDF70EFF012211469007FDF735FF0F
:1058D0001C208DF8040002208DF805008DF80600CC
:1058E00001208DF8070001A8FCF7CCFB42F20F70F5
:1058F000ADF81C0041F61F40ADF818000020ADF8CF
:105900001E00ADF81A0006A94448FDF76BFF0121FF
:105910004248FDF7E6FE012211464048FDF70DFF23
:105920001E208DF8040002208DF8050003208DF85C
:10593000060001208DF8070001A8FCF7A3FB41F247
:105940008730ADF81C0041F61F40ADF8180000206C
:10595000ADF81E00ADF81A0006A93148FDF742FF68
:1059600001212F48FDF7BDFE002201212C48FDF743
:10597000E4FE1D208DF8040002208DF805000320B0
:105980008DF8060001208DF8070001A8FCF77AFBCE
:105990004FF40060ADF8000018208DF803000320DC
:1059A0008DF8020069461F48FBF7AEFF41F61F4025
:1059B000ADF81C000020ADF81800ADF81E00ADF8E1
:1059C0001A0006A91848FDF70DFF7020ADF8080071
:1059D0000120ADF80A000020ADF80E000220ADF85D
:1059E000100002A91048FDF7B1FE01210E48FDF795
:1059F00084FE08210C48FDF7E7FE01210A48FDF767
:105A000061FE01210848FDF76CFE00210A20FDF728
:105A100057FC09B000BD0000000C00400008004029
:105A20000004004000080140002C014008B501219D
:105A30001820FCF761FD4FF44040ADF80000102045
:105A40008DF8030003208DF8020069460548FBF736
:105A50005BFF4020ADF8000069460348FBF754FFA8
:105A600008BD0000000C01400010014000B591B0DD
:105A7000012144F20400FCF73FFD01210846FCF738
:105A80001BFD4FF40070ADF8400003208DF842007C
:105A900018208DF8430010A95148FBF735FF4FF44B
:105AA0008060ADF8400004208DF8430010A94C48F8
:105AB000FBF72AFF25208DF82C0001208DF82D0002
:105AC00000208DF82E0001208DF82F000BA8FCF788
:105AD000D9FA00214348FBF7C3FA4248FBF7CCFA56
