:020000040800F2
:10000000101F002045010008FB200008551D0008B6
:10001000F7200008190E0008433E00080000000009
:100020000000000000000000000000006F2D00082C
:10003000F1120008000000009D240008253400088B
:100040005F010008252300085F0100080D29000852
:100050005F0100085F0100085F0100085F01000800
:100060005F010008F5120008451300085F01000851
:100070005F0100085F0100085F0100085F010008E0
:100080005F0100085F0100085F0100085F010008D0
:100090005F0100085F0100085F010008D513000838
:1000A0005F0100085F0100085F0100085F010008B0
:1000B00089340008713500085F0100085F010008FD
:1000C0005F0100085F0100085F0100085F01000890
:1000D0005F010008F53A0008613B00085F01000875
:1000E0005F0100085F0100085F0100085F01000870
:1000F0005F0100085F0100085F0100085F01000860
:100100005F0100085F010008353600085F01000844
:100110005F0100085F0100085F0100085F0100083F
:100120005F0100085F0100085F0100085F0100082F
:10013000DFF80CD000F0B6FB004800477955000806
:10014000101F00200648804706480047FEE7FEE7EC
:10015000FEE7FEE7FEE7FEE7FEE7FEE7FEE7FEE777
:1001600029340008310100080649074A086850434D
:1001700043F23902104408604008704701490860A2
:1001800070470000D80300206D4EC641F0B480EAED
:100190000102D40F4200B2EB410F02D202460846E0
:1001A00011464A0042D0C30DDDB2C1F3C752AD1AA9
:1001B000202D35DAC1F3160141F4000204B1524298
:1001C000C5F1200602FA06F12A411044B3EBD05FD4
:1001D00023D0C4B1012DA0EBC35009DCF0BC4FF01B
:1001E000004202EAC352DBB200F5000000F0CEBAD2
:1001F000400000F1807000EBC350A0F1807040EA35
:10020000D170490009E0490841EAC071A0EBC35030
:1002100000F50000400800EBC350F0BC00F0ADBAA0
:100220006142012202EB4101001BF6E7F0BC70477E
:1002300081F00041AAE780F00040A7E780EA0102D0
:1002400010B502F00043400022D04A001FD0010E3A
:1002500001EB1261C0F35600C2F3560240F40000F5
:1002600042F40002A0FB022000047F39140400D0F5
:10027000401C50EA124001D44000491EC2B20C0694
:1002800004EBD010401C4008802A02D003E000207C
:1002900010BD20F00100002900DA0020184310BD35
:1002A0002DE9FE4F804681EA0300C00F0C46009006
:1002B00021F0004123F00045B8EB0200A94105D22E
:1002C0004046214690461C460B46024623F000401D
:1002D000104347D0270DC7F30A00C3F30A51029019
:1002E000401A019040286BDAC3F3130040F4801BDE
:1002F0000098924620B10023D2EB030A63EB0B0B6C
:1003000001985946C0F14002504600F005FA0646F1
:100310000D4650465946019A00F01DFA10EB0800B0
:100320006141002487EA115284EAE7731A4340D0FE
:10033000009A62B3019A012A4FEA075215DC001BAA
:1003400061EB02014FF0004202EA0752CDE90042A0
:10035000001C41F5801132462B4600F054FA03B0E0
:10036000BDE8F08F40462146F9E7001B61EB020132
:10037000001C41F5801300185B412018A2F50017FE
:1003800047EB030140EAD570B6196D4111E06D08E5
:100390004FEA360645EAC0754FEA0752001B61EB8B
:1003A0000201001C41F5801149084FEA3000001994
:1003B000514132462B4603B0BDE8F04F00F014BA6D
:1003C0000098012240000023D0EB020263EBE073AF
:1003D000009821464FEAE074B8EB000061EB04019D
:1003E000E9E783F000435BE781F0004158E72DE93E
:1003F000FE4F81EA030404F0004421F00041009420
:100400004FF0000B23F0004350EA01045ED052EAA3
:1004100003045BD0C3F30A54C1F30A552C44A4F27D
:10042000F3340194A0FB0254C1F3130141F4801191
:10043000C3F3130343F4801301FB024400FB034E98
:10044000840A970A44EA815447EA8357A4FB076861
:1004500002958D0A05FB07854FEA932C04FB0C548B
:100460002705029D4FEA065847EA1637B5EB0805FF
:100470006EEB070C870E920E47EA811742EA831251
:10048000A7FB0201B6EB0B0164EB00042B0D43EA62
:100490000C335E1844EB1C50DA465146E7FB020170
:1004A000C5F313044FEA0B3343EA14534FEA043203
:1004B000019C43EA0603A4F10C040294009CCDE9DC
:1004C00000B400F0A0F903B0BDE8F08F00200146B1
:1004D000F9E72DE9F04D81EA030404F0004B21F027
:1004E000004514464FF0000A23F0004150EA05028F
:1004F00020D054EA01021DD0C5F30A570246C5F3C5
:100500001303C1F31300C1F30A5640F4801543F4FA
:100510008013A7EB0608101BD64608F2FD3873EBD4
:10052000050002D308F1010801E092185B41B8F11F
:10053000000F03DA00200146BDE8F08D00204FF4E3
:100540008011064684460EE0171B73EB050705D3A2
:10055000121B63EB050306434CEA010C49084FEA02
:10056000300092185B4150EA0107EDD152EA0300D6
:1005700012D082EA040083EA0501084305D0101B6B
:10058000AB4106D20122002306E000224FF00043D7
:1005900002E06FF0010253101AEB06004CEB085119
:1005A00010EB0A0041EB0B01BDE8F04D00F01CB967
:1005B0000EB5C10F80EAE0700844CA07002140F27E
:1005C00033438DE80E000A460B4600F01CF903B0D9
:1005D00000BD0EB540F2334102910021CDE900117A
:1005E0000A460B4600F00FF903B000BD20F00040B2
:1005F000C10DC0F3160040F400007F2901DA00208D
:100600007047962903DCC1F19601C84070479639BE
:1006100088407047C1F30A5210B5C1F3130140F28C
:10062000FF3341F480119A4201DA002010BD40F2FC
:1006300033439A42A2F2334203DC524200F07BF889
:1006400010BD904010BD00F0004230F000400AD0D4
:10065000C10D01F56071C0F3160042EA0151C208F4
:1006600040071143704700200146704730B5041E13
:1006700071F1000404DB4FF00044404264EB0101DF
:10068000141E73F1000405DB1C464FF00043524278
:1006900063EB04038B4208BF824230BD30B5041EB9
:1006A00071F1000404DB4FF00044404264EB0101AF
:1006B000141E73F1000405DB1C464FF00043524248
:1006C00063EB0403994208BF904230BD01F0004340
:1006D00030B421F0004150EA010206D00A0DA2F523
:1006E0006072C1F31301002A02DC30BC00207047A5
:1006F000440F44EAC104C100E01830BC00EBC25012
:1007000000F03BB8002801DBC0F10040002901DB0C
:10071000C1F1004188427047202A04DB203A00FAE8
:1007200002F1002070479140C2F1200320FA03F348
:10073000194390407047202A04DB203A21FA02F046
:100740000021704721FA02F3D040C2F1200291400B
:10075000084319467047202A06DBCB17203A41FA96
:1007600002F043EAE07306E041FA02F3D040C2F13E
:10077000200291400843194670470029A8BF7047DE
:10078000401C490008BF20F00100704710B4B0FAC7
:1007900080FC00FA0CF050EA010404BF10BC704762
:1007A00049B1CCF1200421FA04F411FA0CF118BF7C
:1007B000012121430843A3EB0C01CB1D4FEA00614B
:1007C0004FEA102042BF002010BC704700EBC3501E
:1007D00010440029A4BF10BC7047401C490008BF4A
:1007E00020F0010010BC704710B5141E73F1000416
:1007F00008DA401C41F1000192185B411A4301D113
:1008000020F0010010BD2DE9F04D92469B4611B13C
:10081000B1FA81F202E0B0FA80F220329046FFF79E
:100820007BFF04460F4640EA0A0041EA0B015346AB
:100830005A46084313D0114653EA010019D0C8F1B3
:1008400040025046FFF777FF05460E465046594690
:100850004246FFF761FF084305D0012004E020462F
:100860003946BDE8F08D0020054346EAE0762C438A
:1008700037430A986305E40AA0EB08000022FD0A4A
:1008800044EA47540A3002D500200146E9E7010551
:1008900010196941DDE9084500196941BDE8F04DCD
:1008A000A2E70000064C074D06E0E06840F00103B7
:1008B00094E8070098471034AC42F6D3FFF73CFCAD
:1008C000B05E0008D05E000870B58C1810F8015BAF
:1008D00015F0070301D110F8013B2A1106D110F8D9
:1008E000012B03E010F8016B01F8016B5B1EF9D1DD
:1008F0002B0705D40023521E0DD401F8013BFAE763
:1009000010F8013BCB1A921C03E013F8015B01F8CD
:10091000015B521EF9D5A142D8D3002070BD21B190
:10092000826842F00102826003E0826822F00102E4
:100930008260704721B1826842F48072826003E075
:10094000826822F4807282607047000010B504460D
:100950001248844208D10121401501F019FE0021FE
:10096000601501F015FE17E00D48844208D1012101
:10097000001501F00DFE0021201501F009FE0BE02D
:100980000848844208D10121C80301F001FE00217A
:100990004FF4004001F0FCFD10BD000000240140B8
:1009A00000280140003C0140014600208A6802F016
:1009B00004020AB1012000E0002070470146002037
:1009C0008A6802F008020AB1012000E000207047A6
:1009D00030B502460020002350680F4C20400D79AE
:1009E0000C6844EA05242043506090680B4C20407A
:1009F000D1E902542C434D7944EA450420439060E8
:100A0000D06A20F470000C7C641EE4B2234340EAF8
:100A10000350D06230BD0000FFFEF0FFFDF7F1FF94
:100A2000F0B504460D4600200021092D11DDE068D7
:100A3000A5F10A0606EB4607072606FA07F18843E2
:100A4000A5F10A0606EB460603FA06F10843E06044
:100A50000CE0206905EB4507072606FA07F18843F5
:100A600005EB450603FA06F108432061072A0FDA71
:100A7000606B561E06EB86071F2606FA07F18843B1
:100A8000561E06EB860605FA06F10843606322E06F
:100A90000D2A0FDA206BD61F06EB86071F2606FAF3
:100AA00007F18843D61F06EB860605FA06F10843D0
:100AB000206310E0E06AA2F10D0606EB86071F2610
:100AC00006FA07F18843A2F10D0606EB860605FA41
:100AD00006F10843E062F0BD816841F008018160E1
:100AE000704721B1826842F4A002826003E082680C
:100AF00022F4A00282607047816841F004018160A5
:100B00007047000010B504461948006820F008003E
:100B1000174908600846006820F0100008600020AF
:100B2000144988700120144908601449C1F88801EB
:100B30001348007820B900210A2002F025FC03E0C8
:100B400000200D49091F08600A49887802F07EFBE1
:100B50000848007810B100200A49086000200A49BE
:100B600008600A49C1F8A80109480470012010BDB5
:100B700000040140DC030020B00121420080224239
:100B800000000020B4812142B00122420000224234
:100B90002C01002010B51548006820F0080013490A
:100BA00008600846006820F0100008600020104926
:100BB000887001200F4908600F48007820B9002193
:100BC0000A2002F0E1FB03E000200A49091F086047
:100BD0000749887802F03AFB0548007810B10020F8
:100BE0000649086000200649086010BD0004014065
:100BF000DC030020B001214200000020B48121422A
:100C0000A801224210B51748006820F008001549D5
:100C100008600846006820F01000086000201249B3
:100C200088700120114908601148007820B900211E
:100C30000A2002F0A9FB03E000200C49091F08600C
:100C40000949887802F002FB0748007810B10020BB
:100C5000084908600020084908600849C1F8A8014F
:100C600010BD000000040140DC030020B00121425F
:100C700000000020B4812142B00122420000224243
:100C80002DE9F04F91B04B48806801904948C06809
:100C900002904848006903904648406904904548DE
:100CA000806905904348C06906904248006A0790F1
:100CB0004048406A08903F48806A09903D48C06AB1
:100CC0000A903C48006B0B903A48406B0C903948B6
:100CD000806B0D903748C06B0E903648006C0F90BB
:100CE0003448406C10903448007810285FDC0024B1
:100CF00059E04FF0000AD14622E004EBC40000EBBB
:100D000004102E4901EB400109F10100085C04EBDD
:100D1000C40101EB0411294A02EB410101F8090069
:100D200004EBC40000EB0410114601EB400010F886
:100D3000090050441FFA80FA09F1010000F0FF0990
:100D4000B9F1310FD9DB01A951F824001C49FFF793
:100D500075FA0546FFF74AFC04EBC40101EB0411E8
:100D6000164A02EB410181F8310004EBC40000EBAC
:100D70000410114601EB400090F8310050441FFA76
:100D800080FA32209AFBF0FB5846FFF711FC074629
:100D90000C4A0D4BFFF72BFB0546FFF73BFC0B49BD
:100DA0000855601CC4B2044800788442A1DB11B02D
:100DB000BDE8F08FDC03002064010020E60F002076
:100DC00000002041713D0AD7A370F13FD60F0020EB
:100DD00010B5012001F0ECFB002001F0E9FB10BD93
:100DE00008B5014600200090034800900098084490
:100DF00000900098008808BD006C004008B50022F3
:100E00000092044A0092009A02440092009A1160F3
:100E100008BD0000006C004000BFFEE72DE9F04770
:100E20000024002500260027A046A14602F0D2FAA1
:100E3000814601F0A5F9044601F032FB054600F0B9
:100E400025FD804602F0B6FD064600F00BF8074689
:100E500044EA05003043384340EA080040EA09000C
:100E6000BDE8F0872DE9F04700247D49B1F8560030
:100E7000FFF7AFFB074600227A4BFFF72AFB054638
:100E8000FFF724FC8146764890F85A00C0F3C01062
:100E900000B3754800784006000E73490870704929
:100EA00088684946FFF72EFC06D86F48007840F066
:100EB00001006D49087005E06B48007800F0FE0005
:100EC0006949087068480078FF2803D10820FFF7B7
:100ED00019FE04466248B0F85A00C0F3002000B37F
:100EE000624800784006000E604908705C49C86896
:100EF0004946FFF707FC06D85C48007840F001003F
:100F00005A49087005E05948007800F0FE0057493A
:100F1000087056480078FF2803D10920FFF7F2FD3A
:100F200004464F48B0F85A00C0F3402000B3504880
:100F300000784006000E4E49087049490869494644
:100F4000FFF7E0FB06D84A48007840F00100484926
:100F5000087005E04648007800F0FE00444908703B
:100F600043480078FF2803D10A20FFF7CBFD044651
:100F70003B48B0F85A00C0F3802000B33D480078E9
:100F80004006000E3B490870354948694946FFF75D
:100F9000B9FB06D83748007840F0010035490870A1
:100FA00005E03448007800F0FE003249087031480E
:100FB0000078FF2803D10B20FFF7A4FD0446284842
:100FC000B0F85A00C0F3C02000B32B4800784006A8
:100FD000000E29490870224988694946FFF792FBAB
:100FE00006D82548007840F001002349087005E044
:100FF0002148007800F0FE001F4908701E48007864
:10100000FF2803D10C20FFF77DFD04461448B0F8FB
:101010005A00C0F3003000B3184800784006000EB4
:10102000164908700E49C8694946FFF76BFB06D898
:101030001248007840F001001049087005E00F48A0
:10104000007800F0FE000D4908700C480078FF2879
:1010500003D10D20FFF756FD04462046BDE8F0877A
:10106000DC030020000024403E0100203F0100205E
:1010700040010020410100204201002043010020E6
:1010800000F0805111B10349086001E00249486055
:1010900070470000040402400000024000F080514C
:1010A00011B10349086001E002494860704700003F
:1010B000040402400000024021B1026842F0010233
:1010C000026004E002684FF6FE731A400260704747
:1010D00001684FF6FE72114001600021016041601D
:1010E0008160C1604B49884208D14A490839496842
:1010F00041F00F01474A083A51608AE045491431EE
:10110000884208D143490839496841F0F001414A11
:10111000083A51607DE03F492831884208D13D4975
:101120000839496841F470613A4A083A516070E000
:1011300038493C31884208D136490839496841F478
:101140007041344A083A516063E032495031884274
:1011500008D130490839496841F470212D4A083ACC
:10116000516056E02B496431884208D12949083939
:10117000496841F47001274A083A516049E025491D
:101180007831884208D123490839496841F07061B3
:10119000204A083A51603CE01F49884206D1011FAD
:1011A000096841F00F01021F116032E01A49143141
:1011B000884208D11849091F096841F0F001164A10
:1011C000121F116025E014492831884208D11249C4
:1011D000091F096841F470610F4A121F116018E07D
:1011E0000D493C31884208D10B49091F096841F477
:1011F0007041094A121F11600BE0074950318842C3
:1012000007D10549091F096841F47021024A121FDC
:101210001160704708000240080402400146486817
:1012200080B2704701460020002201F0805313B1C4
:10123000054B1A6801E0054B1A6802EA01030BB17D
:10124000012000E00020704700040240000002403E
:101250001AB103680B43036002E003688B43036029
:10126000704710B50022026847F6F0739A430C6A83
:101270008B6823430C6923434C6923438C692343C4
:10128000CC6923434C6A23438C6A23431A4302608C
:10129000CB6843600B6883604B68C36010BD00007F
:1012A00010B500211048FFF707FF10480E494439D8
:1012B000086580790830886401210B48FFF7FCFE3F
:1012C00000BF4FF40050FFF7ADFF0028F9D04FF4F6
:1012D0000050FFF7D5FE4FF48050FFF7DFFE0021EE
:1012E0000148FFF7E9FE10BD440002400400002061
:1012F0007047000010B5082000F07CF8B8B10C4829
:1013000090F85C0080B900200A4908600A49C1F8D9
:10131000A8010A49088001200949087001221146E4
:101320000648243802F023FA082000F05DF810BDCA
:10133000DC030020AC0121420000224224040040D2
:101340002A01002010B5102000F054F800282ED0FB
:10135000174890F85C0038BB1648006820F47040CD
:10136000144908600846006840F44050086012487C
:10137000007888B9012011490870114908600C48AB
:10138000007810B101200F49086001200E49086063
:1013900000200E49087002E0002009490860002280
:1013A00001210B4802F0E3F9102000F01DF810BDF8
:1013B000DC030020040801402C0100200000002074
:1013C000AC012142B4812142A80122422A0100201D
:1013D0000004004010B5202000F00CF810B12020CF
:1013E00000F002F810BD00000149086070470000DD
:1013F00014040140014600200022074B1B6803EA49
:101400000102054B14331B680B4013B10AB10120D4
:1014100000E0002070470000000401400021234943
:101420008279002A3AD00A46126803689A430B462A
:101430001A600A1D126803689A430B1D1A6002792C
:1014400011440A6803681A430A60184A083212688D
:1014500003689A43154B08331A601A1D1268036813
:101460009A43124B0C331A604279102A0ED11A1F7C
:10147000126803681A430D4B08331A601A1D12686C
:1014800003681A43094B0C331A600DE0074942798F
:1014900011440A6803681A430A6005E0027911449E
:1014A0000A6803689A430A6070470000000401401C
:1014B00010B51F480078012839D11E4890F86F00F8
:1014C000012824D11B484078642803DB6420194993
:1014D000887003E01748407816498870154880786E
:1014E00005280CDD134880780A2803DA0A20114900
:1014F000C87007E00F4880780E49C87002E00020ED
:101500000C49C8700B49C87801F0A0FE0FE00948EB
:101510004078642803DB64200649887003E00548AE
:101520004078044988700349887801F08FFE10BD27
:1015300000000020DC03002030B5044604254FF4F1
:10154000302000F06FF80546042D17D10C480069D3
:1015500040F002000A49086108464461006940F011
:10156000400008614FF4302000F05CF80546044864
:10157000006941F6FD71084001490861284630BD07
:101580000020024004200B49C96801F0010109B1A3
:1015900001200EE00749C96801F0040109B10220E9
:1015A00007E00449C96801F0100109B1032000E017
:1015B00004207047002002400348006940F080008A
:1015C00001490861704700000020024070B50446E0
:1015D0000D460426F00200F025F80646042E11D12F
:1015E0000948006940F00100074908612580F002C0
:1015F00000F018F806460448006941F6FE710840FC
:1016000001490861304670BD00200240024803498C
:101610004860034848607047230167450020024046
:10162000AB89EFCD00B502460423FFF7ABFF0346BD
:1016300003E0FFF7A7FF0346521E012B01D1002A4A
:10164000F7D102B90523184600BD000030B589B0B6
:10165000474801F0C7FA04464648B0F84E00001269
:101660008DF80400434890F84E008DF8050041487D
:10167000B0F8500000128DF806003E4890F8500077
:101680008DF807003B48B0F8520000128DF80800B2
:10169000384890F852008DF809003648B0F85400E8
:1016A00000128DF80A00334890F854008DF80B00B2
:1016B0003048B0F8560000128DF80C002D4890F814
:1016C00056008DF80D002B48B0F8580000128DF828
:1016D0000E00284890F858008DF80F002548B0F803
:1016E0005A0042F20401884300128DF8100021488C
:1016F00090F85A0004218843C0B28DF811001D48AB
:1017000090F866008DF812001A4890F867008DF87E
:101710001300184890F868008DF81400154890F8E8
:1017200069008DF815001348B0F86A0000128DF8B2
:101730001600104890F86A008DF81700142101A8CF
:1017400003F0A6FA85B2A5420FD0102001F010FBDD
:10175000FFF758FA0120084908600122114607489E
:1017600002F005F810200649087009B030BD0000ED
:101770004C800108DC0300209C012242000C004048
:101780002C01002010B588B03E48B0F84E00001281
:101790008DF800003B4890F84E008DF80100394864
:1017A000B0F8500000128DF80200364890F8500052
:1017B0008DF803003348B0F8520000128DF8040091
:1017C000304890F852008DF805002E48B0F85400CB
:1017D00000128DF806002B4890F854008DF8070091
:1017E0002848B0F8560000128DF80800254890F8F7
:1017F00056008DF809002348B0F8580000128DF803
:101800000A00204890F858008DF80B001D48B0F8E9
:101810005A0042F20401884300128DF80C00194866
:1018200090F85A0004218843C0B28DF80D00154885
:1018300090F866008DF80E00124890F867008DF859
:101840000F00104890F868008DF810000D4890F8CF
:1018500069008DF811000B48B0F86A0000128DF88D
:101860001200084890F86A008DF8130014216846A9
:1018700003F00EFA84B22146034802F01DFB08B0C3
:1018800010BD0000DC0300204C80010810B50024CE
:101890001F480088B0F5C87F33DD00201C49088050
:1018A0001C48B0F85A00C0F3403048B31A480088CA
:1018B0004FF6FF7101EA4000174908801748006899
:1018C000012823D103F048FA14480068012806D102
:1018D0001148008840F001000F49088006E00E48DA
:1018E00000884FF6FE7108400B4908800A480088BE
:1018F0004FF6FF71884209D10E20FFF703F9044625
:1019000004E003480088401C01490880204610BDBF
:1019100036010020DC03002038010020240122428F
:1019200030B500228B071C0F0F2303FA04F20B4B78
:101930008C1053F824309343084C8D1044F8253014
:1019400023468C1053F824308C07240F00FA04F43B
:101950002343024C8D1044F8253030BD080001406F
:101960002DE9F04102460025002600200023002436
:10197000002791F803C00CF00F0591F803C00CF09C
:10198000100CBCF1000F03D091F802C04CEA050521
:1019900091F800C0BCF1000F31D0146800202BE09A
:1019A0004FF0010C0CFA00F3B1F800C00CEA03068A
:1019B0009E4220D183004FF00F0C0CFA03F7BC437A
:1019C00005FA03FC4CEA040491F803C0BCF1280FAB
:1019D00006D14FF0010C0CFA00FCC2F814C00AE06A
:1019E00091F803C0BCF1480F05D14FF0010C0CFA7F
:1019F00000FCC2F810C0401C0828D1D31460B1F814
:101A000000C0BCF1FF0F34DD546800202EE000F16F
:101A1000080C4FF0010808FA0CF3B1F800C00CEA0A
:101A200003069E4221D183004FF00F0C0CFA03F7FE
:101A3000BC4305FA03FC4CEA040491F803C0BCF172
:101A4000280F05D100F1080C08FA0CF8C2F8148030
:101A500091F803C0BCF1480F07D100F1080C4FF01A
:101A6000010808FA0CF8C2F81080401C0828CED3F0
:101A70005460BDE8F0810000F0B50A460023002460
:101A80000021002500F00046B6F1004F02D11D4EA6
:101A9000F16901E01B4E7168C0F3034583B200F4A5
:101AA0004016B6F5401F08D121F07061154E7668DA
:101AB00026F07066134F7E6012E000F48016B6F5D3
:101AC000801F06D1032606FA05F4A14341F0706198
:101AD00006E0460D360103FA06F6B14341F07061A7
:101AE00022B1460D360103FA06F6314300F00046F6
:101AF000B6F1004F02D1034EF16101E0014E716079
:101B0000F0BD00000000014010B500F01DF800F02D
:101B100003F8FFF7CDFC10BD70B5084D002406E0BA
:101B20000749085D00F09CFA01C5601CC4B2054875
:101B300000788442F4DBFFF7A3F870BDE4030020D3
:101B4000C60F0020640100202DE9F04F87B04FF050
:101B5000000900BF002405E0764800EB041000886F
:101B60008144641C142CF7D31420B9FBF0FA5046BE
:101B7000FEF72FFD07464FF066326F4BFEF737FC3E
:101B8000054600226D4BFEF7A4FC00226C4BCDE90C
:101B90000001FEF72CFC6B4A6B4BCDE90201FEF70E
:101BA00098FCCDE90401FEF735FD684948704FF017
:101BB0000009002405E05F4800EB0410C088814460
:101BC000641C142CF7D31420B9FBF0F00490FEF73A
:101BD00000FD07464FF06632574BFEF708FC0546FE
:101BE0000022564BFEF775FC8246FEF76FFD05900E
:101BF00003F0CCFD554908714FF00009002405E0C1
:101C00004C4800EB041000898144641C142CF7D369
:101C10001420B9FBF0FB5846FEF7DBFC05464FF0FD
:101C20006632454BFEF7E3FB07460022434BFEF7C7
:101C300050FCCDE90401FEF749FD824603F0A6FD04
:101C4000424948714FF00009002405E0394800EB93
:101C5000041040898144641C142CF7D31420B9FB70
:101C6000F0F00490FEF7B5FC05464FF06632324BBB
:101C7000FEF7BDFB07460022304BFEF72AFC8246EA
:101C8000FEF724FD059003F081FD304988714FF087
:101C90000009002405E0274800EB041080898144F6
:101CA000641C142CF7D31420B9FBF0FB5846FEF744
:101CB00090FC05464FF066321F4BFEF798FB002262
:101CC0001E4BCDE90401FEF704FC0746FEF7FEFCBF
:101CD000824603F05BFD1D49C8714FF000090024E6
:101CE00005E0144800EB0410C0898144641C962C64
:101CF000F7D39620B9FBF0FA5046FEF76AFC074688
:101D00004FF066320C4BFEF772FB00220B4BCDE915
:101D10000401FEF7DEFB0546FEF7D8FC0B4988649C
:101D20000B480078012802D108464078887007B037
:101D3000BDE8F08F5805002066660A400000B040FC
:101D400000005A409A99999999990140DC03002022
:101D50000000002000BFFEE710B500200949086020
:101D600000F05AFF00200849C1F89C0100F00EF86D
:101D700001200449086000F009F800200249C1F878
:101D8000980110BD988121420080214200BF00BF10
:101D900000BF00BF00BF704710B5002009490860B0
:101DA00000F03AFF01200849C1F89C01FFF7EEFF5F
:101DB000012004490860FFF7E9FF00200249C1F84B
:101DC000980110BD988121420080214270B50546DE
:101DD000002400F011FF002614E000200E490860E6
:101DE000FFF7D4FF01200D49C1F898016006040EE9
:101DF00009487C38006808B1601CC4B2FFF7C6FF10
:101E0000701CC6B2082EE8DB15B9FFF7C5FF01E06C
:101E1000FFF7A2FF204670BD988121420080214239
:101E200070B5044600F0F8FE00200E490860002559
:101E300014E0E0090B49091D08606006040EFFF775
:101E4000A5FF01200849C1F89801FFF79FFF002076
:101E500004490860FFF79AFF681CC5B2082DE8DB4B
:101E600070BD0000988121420080214210B500F031
:101E7000D3FE0120084908600849C1F89801FFF71E
:101E800085FF002004490860FFF780FF0020034918
:101E9000C1F8980110BD00009C81214200802142C0
:101EA00010B500F0B9FE0020074908600749C1F8E5
:101EB0009C01FFF76BFF0120034908600349C1F84B
:101EC0009C01FFF763FF10BD9881214200802142F1
:101ED00010B5002400F090FE01200E490860FFF7C5
:101EE00055FF01200C49C1F89801FFF74FFF07E0AB
:101EF000601CC4B2FA2C03DDFFF7D2FF012010BD35
:101F00000448803800680028F2D10249091F08609F
:101F100000BFF4E79C8121420080214238B54FF494
:101F200000650121082000F023FBC020ADF800006F
:101F300014208DF8030003208DF802006946204824
:101F4000FFF70EFD01201F4908601F49C1F89C01E1
:101F5000002414E01D49085D002100F03DF84FF613
:101F6000FF71884209D01948015D1948027800784C
:101F7000401C174B187017488154601CC4B2102CB9
:101F8000E8DB13480078062802DB062010490870B9
:101F900000240FE00F49085D43F6F712002100F01E
:101FA00041F80C49085D4FF40062052100F03AF851
:101FB000601CC4B2064800788442EBDB38BD0000E8
:101FC000000C0140988121420080214254010020F0
:101FD00064010020C60F002070B504460D4600269F
:101FE000FFF744FF04F0FE00FFF71AFFFFF770FF52
:101FF0002846FFF715FFFFF76BFFFFF737FF44F0A9
:102000000100FFF70DFFFFF763FF0120FFF7DEFE82
:1020100006460020FFF7DAFE40EA0626FFF740FFFB
:10202000304670BD70B505460E461446FFF71EFFDC
:1020300005F0FE00FFF7F4FEFFF74AFF3046FFF71A
:10204000EFFEFFF745FF200AFFF7EAFEFFF740FF2C
:10205000E0B2FFF7E5FEFFF73BFFFFF721FF70BDA2
:102060002DE9FC5F834604215846FFF7B5FF824601
:102070000AF4004008B1CAF30E0A5046FEF7A9FA66
:102080000A4A0B4BCDE90001FEF7B1F98046002268
:10209000084BFEF7ACF906460022074BFEF719FA8B
:1020A0000446FEF713FBBDE8FC9F0000FCA9F1D23B
:1020B0004D62603F00002A4000002C400146CA17D4
:1020C00001EB92729210A1EB820292B9642091FB13
:1020D000F0F200FB121050B94FF4C87091FBF0F20F
:1020E00000FB121008B9012070470020FCE7012016
:1020F000FAE70020F8E700BFFEE7704770B500215F
:1021000000230F22C47804B3154C246804F4E0645F
:10211000C4F5E064210AC1F10403CA40447804FA1A
:1021200003F184781440214309010E4C0678A1552F
:10213000047804F01F050124AC4005786D11AD0052
:1021400005F1E025C5F8004109E0047804F01F0519
:102150000124AC40044D0678761145F8264070BD48
:102160000CED00E000E400E080E100E00249014302
:10217000024A1160704700000000FA050CED00E013
:1021800070B50024604890F85A00C0F34000002861
:1021900041D05E48007800283CD15B488078052813
:1021A00038DD59498868FEF74EFA05464FF033325C
:1021B000574BFEF773FA2DD2564800884FF6FF7141
:1021C00001EA4000534908804F49886CFEF73BFA0A
:1021D00005460022504BFEF761FA0AD84F480068C6
:1021E000012806D14B48008840F001004949088089
:1021F00006E0484800884FF6FE71084045490880CF
:10220000444800884FF6FF7188427AD10220FEF7D9
:1022100079FC044675E03C4890F85A00C0F3400051
:10222000D8B33A480078C0BB37488078052834DDF9
:1022300035498868FEF707FA05464FF03332344BCC
:10224000FEF72CFA29D2334800884FF6FF7101EAD5
:102250004000304908802C49886CFEF7F4F90546A7
:1022600000222D4BFEF71AFA06D82A48008840F0C3
:1022700001002849088006E0264800884FF6FE71D4
:10228000084024490880234800884FF6FF7188429F
:1022900003D10220FEF736FC04461B4890F85A0092
:1022A00000F0010068B31948007850BB16488078E8
:1022B000052826DD14498868FEF7C5F905464FF064
:1022C0003332134BFEF7EAF91BD214480068012899
:1022D00006D11348008840F001001149088006E04B
:1022E0000F4800884FF6FE7108400D4908800C48E1
:1022F00000884FF6FF71884203D10120FEF702FCEF
:102300000446204670BD0000DC0300202A010020A6
:102310003333E33F3201002000000A4004812142B0
:102320003001002010B54FF48030FFF75DF80B4806
:102330000068401C0949086072B601214FF0C05086
:1023400000F006F9012000F00BF80448017828207D
:10235000FEF754FDFEF71EFC10BD0000AC0300208C
:10236000014908627047000000000E4246490870AB
:102370000978F72901D1012100E00021434A1278B0
:102380000AB9012200E00022114011B101213F4AA7
:1023900011703E490978082972D2DFE801F0710412
:1023A0000E253C444C64F721394A11700021394A0A
:1023B00011700221354A117063E035498978324A3B
:1023C000127842EA0121324A518032490978491C87
:1023D000304A117011460978022904D10021117088
:1023E00003212A4A11704CE029490979264A1278BA
:1023F00042EA0121264A918026490978491C254A4A
:10240000117011460978022904D1002111700421AC
:102410001E4A117035E01C4909781D4A9171052149
:102420001A4A11702DE018490978194AD17106210C
:10243000164A117025E014490A7815490831154BE0
:102440001B78CA5413490978491C124A1170104963
:10245000C9791278914205D100210E4A11700721E5
:102460000A4A11700DE008490978094A82F80711F3
:102470000021064A11700121074A117001E0FFE7AF
:1024800000BF00BF704700000B01002008010020C2
:10249000500400200C0100200100002070470000C3
:1024A00010B5002418480078182825DD00201649AA
:1024B0000870164890F85A00C0F3800008B314481A
:1024C0000068A8B9012002F047FC11480068C0B9B3
:1024D00010480078401C0F490870084600783228E0
:1024E0000FDD002008700320FEF70CFB044608E017
:1024F00000200849087004E003480078401C0249A5
:102500000870204610BD000034010020DC030020CC
:10251000308121423501002001460020034A5068E5
:1025200020F4404008435060704700000010024013
:1025300029B1064A52690243044B5A6104E0034A36
:1025400052698243014B5A617047000000100240FB
:1025500029B1064AD2690243044BDA6104E0034A16
:10256000D2698243014BDA617047000000100240DB
:1025700029B1064A92690243044B9A6104E0034A76
:1025800092698243014B9A6170470000001002403B
:1025900029B1064AD2680243044BDA6004E0034AD8
:1025A000D2688243014BDA6070470000001002409D
:1025B00001490860704700004004424230B50021E4
:1025C0000022002400232D4D6D6805F00C0121B17F
:1025D000042905D0082923D105E0294D056022E012
:1025E000274D05601FE0254D6D6805F47012234DE1
:1025F0006D6805F48034022505EB92421CB9214D2B
:10260000554305600BE01D4D6D6805F400351DB1A7
:102610001C4D5543056002E0194D5543056002E02D
:10262000174D056000BF00BF144D6D6805F0F00147
:102630000909154D6B5C0568DD4045600F4D6D68FF
:1026400005F4E061090A104D6B5C4568DD4085606A
:102650000A4D6D6805F46051C90A0B4D6B5C456805
:10266000DD40C560054D6D6805F44041890B074D9F
:102670006B5CC568B5FBF3F5056130BD0010024029
:1026800000127A0000093D00C4030020D40300209A
:1026900010B501460022002300204A11012A02D170
:1026A000094C236806E0022A02D1074C236A01E0A4
:1026B000054C636A01F01F02012494401C400CB1D8
:1026C000012000E0002010BD0010024000210B4A54
:1026D00011700A4A203A82F82010012802D00428FA
:1026E00008D103E00121054A117004E00521034AE5
:1026F000117000E000BF00BF7047000020100240D2
:1027000001490860704700003C0442420249096ADE
:102710000143014A116270470010024002490988D2
:102720008143014A11807047042800400348008813
:1027300040F0100001490880704700000428004064
:10274000034800884FF6EF71084001490880704740
:10275000042800402DE9F04100260024002500F067
:102760007DF8064607463948B6FBF0F4384800883D
:10277000A0423CD036490C8040F2B27510E02846A9
:10278000FFF79CFC40B1B4F5B77F02D3A4F5B77452
:1027900004E0681C85B206E0A4F26D14681C85B2E2
:1027A000B4F5B67FEBD800BF2A480580002516E0B7
:1027B00028490888FFF782FC30B1012D04D11D2C77
:1027C00001D31D3C09E00CE02348405DA04203D842
:1027D0002148405D241A00E003E0681C85B21C2CEF
:1027E000E6D200BF681C1B494880601C88801748DF
:1027F000B6FBF0F100FB11644FF46160B4FBF0F044
:102800001449C8804FF46160B4FBF0F100FB114043
:102810003C21B0FBF1F00F4908814FF46160B4FB3B
:10282000F0F100FB11403C21B0FBF1F201FB120082
:10283000084948810B461A799978188800F02AF8D7
:10284000044988813846BDE8F081000080510100CC
:1028500010010020B80F00208C5C00080021034804
:102860000188001F008841EA004070471C28004092
:1028700001460020064A12880A40D0B2044A121FBC
:1028800012880A4012B108B1012000E00020704710
:1028900004280040F0B503460C461546642093FB1F
:1028A000F0F0C6B2642093FBF0F700FB1730C1B222
:1028B000132E02DD01F16400C1B20846CF1701EB0F
:1028C000977701EBA707BAB2072092FBF0F700FB5E
:1028D000172082B25719601EDFF82CC01CF80000C8
:1028E000384482B2CF1701EB9777BF10A1EB87076F
:1028F0001FB9032C01DA501E82B2072092FBF0F7B9
:1029000000FB1720C0B2F0BD805C000810B50220AB
:10291000FFF7AEFF50B10220FFF700FF00F022F9F1
:1029200002F0ECFD0021022000F006F80720FFF77E
:10293000F5FE00F017F910BD29B1064A12880243CE
:10294000044B1A8004E0034A12888243014B1A8028
:102950007047000000280040FEB5002401214FF020
:10296000C050FFF7F5FD0120FFF7FAFC0420FEF749
:1029700037FA45F2AA5188424BD0FEF729FA0120D6
:10298000FFF7A4FE04E0601CC4B20A2002F0BEF906
:102990004120FFF77DFE0028F5D0FA2C01DB012055
:1029A000FEBD4FF48070FFF7B1FE0120FFF7A8FED7
:1029B00000F0D8F800F0E0F800210120FFF7BCFF9C
:1029C00000210220FFF7B8FF00F0CCF8FFF7AEFEC1
:1029D00047F6FF7000F0B6F800F0C4F81648807AA9
:1029E0001549097A144ECDE90010B3793279B178DE
:1029F000308800F025F8FFF7A3FEFFF72FFF05460C
:102A00000E48284400F082F845F2AA510420FEF74F
:102A1000F5F903208DF8080000208DF809008DF8E5
:102A20000A0001208DF80B0002A8FFF767FBFFF7F3
:102A300091FE0020B4E70000745C000800A7760057
:102A40002DE9F05F06460F4690469946DDE90AAB50
:102A5000002440F2B270864203DB40F63300864227
:102A600002DD0120BDE8F09F40F2B2750AE0284681
:102A7000FFF724FB10B12148044401E0204804443E
:102A8000681C85B2B542F2DB002510E01D48405DB0
:102A900040F2A321484304EBC0143046FFF70EFB7D
:102AA00018B1012D01D118480444681C85B2781E64
:102AB000A842EBDCA8F1010040F2A321484304EB5B
:102AC000C014C9EB4910C0EB092004EB0014CAEB99
:102AD0000A1004EB80045C4401214FF0C050FFF762
:102AE00037FD0120FFF73CFC204600F01DF800F008
:102AF00039F8FFF72FFE0020B4E700000085E2015F
:102B00008033E1018C5C00088051010000B5024671
:102B1000FFF70CFE100C03490880091D0A80FFF71F
:102B20000FFE00BD2028004000B50246FFF7FEFD65
:102B3000100C03490880091D0A80FFF701FE00BD43
:102B40001828004000B50246FFF7F0FDC2F303402D
:102B500003490880091D0A80FFF7F2FD00BD00004F
:102B60000828004000BF0348008800F0200000282B
:102B7000F9D0704704280040074800884FF6F771E5
:102B800008400549088000BF0348008800F008009D
:102B90000028F9D0704700000428004070B50546B1
:102BA00000260F4800F01EF804B2142C14DC601B41
:102BB000401E04B2002C02DA04F1140004B2002C0E
:102BC0000BDB142C09DA0649891C0C2202FB0410C9
:102BD00000F008F8C6B200E00026304670BD0000E4
:102BE0000000020818B5044601226946204600F09C
:102BF00023F8BDF8000018BD10B5802004490880F6
:102C00004820C870032088700248FEF7A9FE10BD56
:102C100050010020000C014010B5802004490880BC
:102C20001420C870032088700248FEF799FE10BD7A
:102C300050010020000C014030B503460C461546FB
:102C4000002207E0184600F008F824F812009B1C48
:102C5000501C82B2AA42F5DB30BD0146088870479D
:102C60002DE9F05F80468A461746B8F1006F02D31F
:102C70003348804501D3BDE8F09FFEF7C7FCA8F1BB
:102C8000006B4FEADB25CBF34909C9F58064A74205
:102C900000DC3C464DE04FF0006101EBC5204A14DA
:102CA0002849FFF7C9FF00260BE009EB060025497C
:102CB00031F810004FF6FF71884200D003E0701C1D
:102CC00086B2A642F1DB00BFA6421BDA4FF00061DC
:102CD00001EBC520FEF730FC002608E03AF81600AC
:102CE00006EB0901174A22F81100701C86B2A642B1
:102CF000F4DB4FF0006101EBC5204A14114900F0EC
:102D000023F804E022465146404600F01DF8A74251
:102D100000D10FE06D1C4FF000090AEB440AA044FB
:102D2000381B87B2B7F5806F02DD4FF4806400E096
:102D30003C46B0E700BFFEF73FFC00BF9BE700004A
:102D400000000408061300202DE9F04105460E4658
:102D50001746002407E036F814102846FEF736FC24
:102D6000AD1C601C84B2BC42F5DBBDE8F08170474D
:102D700010B504460320094988710120C871042058
:102D80000872084644728079C01DC1B2034802F03F
:102D90006FF802498872FEF783FA10BD0400002024
:102DA00000B58DB0182201A93748FFF745FF1D2057
:102DB000364988710120C87105200872BDF80400E9
:102DC0004872BDF8060000128872BDF80600C8728D
:102DD000BDF808000873BDF80A004873BDF80C0080
:102DE0008873BDF80E00C873BDF810000874BDF8F4
:102DF00012004874BDF814008874BDF81600001263
:102E0000C8749DF8160008759DF8180048759DF85F
:102E10001A0088759DF81C00C8759DF81E0008767C
:102E200001A8007F487601A8807F8876BDF824003D
:102E3000C876BDF82600001208779DF8260048776E
:102E40009DF8280088779DF82A00C8779DF82C0007
:102E500081F820009DF82E0081F821009DF83000B7
:102E600081F822009DF8320081F82300084680791D
:102E7000C01DC1B2054801F0FBFF044981F82400E0
:102E8000FEF70EFA0DB000BD12800108040000200C
:102E9000FEB50546142D59DA3E48FFF7A3FE044659
:102EA000601984B2132C02DDA4F1140084B2142C36
:102EB0006FDA3849891C0C2202FB0410052269468E
:102EC000FFF7BAFE0720344988710120C871072036
:102ED0000872BDF800004872BDF80200A0F5FA6063
:102EE0008872BDF80400C872BDF806000873BDF80A
:102EF0000800487308468079C01DC1B2264801F019
:102F0000B7FF254988730846807A642801DA0120D2
:102F100000E000202049C97A0C2901DC012100E0F1
:102F2000002108401C49097B1F2901DC012100E028
:102F3000002108401849497B182901DC012100E0E3
:102F40000021084008B1FEF7ABF922E01348FFF773
:102F500049FE06461148801CFFF744FE074607203D
:102F60000D4988710120C87107200872002048723D
:102F700038128872CF72301208734E730846807907
:102F8000C01DC1B2044801F073FF03498873FEF706
:102F900087F9FEBD000002080400002000100208AE
:102FA00070B5FFF7D7FBFFF7E7FD694800782E30D3
:102FB000684988710120C87106200872664890F837
:102FC0004E004872644890F850008872624890F849
:102FD0005200C872604890F8540008735E4890F838
:102FE000560048735C4890F8580088735A48B0F807
:102FF0005A502812C8730D74574890F85C004874F2
:10300000554890F85E008874534890F85D00C87485
:103010005148B0F86000001208754F4890F8600001
:1030200048754D4890F8620088754B4890F86300E9
:10303000C875494890F864000876474890F86500DC
:103040004876464800880012887644480078C8765A
:103050004248807808774148007948773F4880792E
:1030600088773E48007AC8773C48807A81F820000B
:103070003948807881F821003748007981F82200AA
:103080003548407981F823003348807981F824005D
:103090003148C07981F825002D48007881F8260054
:1030A0002D4890F8660081F827002B4890F86700BB
:1030B00081F82800284890F8680081F829002648FF
:1030C00090F8690081F82A002348B0F86A00000AE5
:1030D00081F82B00204890F86A0081F82C001E48E7
:1030E00090F86E0081F82D001B48B0F86C00000AC3
:1030F00081F82E00184890F86C0081F82F0000200D
:1031000081F8300081F8310081F8320081F8330015
:1031100081F83400002407E01148015D04F1350016
:103120000C4A1154601CC4B2094800788442F3DB95
:1031300008488079C01DC1B2064801F099FE0449D3
:1031400009783531034A5054FEF7AAF870BD0000E3
:103150006401002004000020DC030020B80F0020E0
:10316000D60F002010B500F001F810BD0CB50020FE
:10317000019000903348006840F480303149086085
:1031800000BF3048006800F4003000900198401CF7
:103190000190009818B90198B0F5A06FF1D12948B5
:1031A000006800F4003010B10120009001E0002020
:1031B00000900098012843D12348006840F0100097
:1031C000214908600846006820F0030008600846AE
:1031D000006840F0020008601A48406819494860D9
:1031E0000846406848600846406840F4806048608F
:1031F0000846406820F47C1048600846406840F467
:10320000E81048600846006840F08070086000BF21
:103210000C48006800F000700028F9D009484068A8
:1032200020F00300074948600846406840F002006B
:10323000486000BF0348406800F00C000828F9D13E
:103240000CBD000000100240002002402DE9F14FAB
:1032500092B04249B1F85800FDF7BBF90746002289
:103260003F4BFDF736F90546FDF730FA10904FF069
:10327000000949461098FCF7DBFF8246FDF7E3F9A9
:103280000746384A384BFDF7B2F805460022374B5F
:10329000FDF71FF9CDE90A014846FDF7D4F982464A
:1032A0008B461298FDF795F90746884649461098CF
:1032B000FCF7BEFF0190FDF7C6F9054600222C4B36
:1032C000FDF707F93A464346CDE90201FDF78FF8CD
:1032D00052465B46CDE90401FCF7E2FF214A254B4B
:1032E000CDE90601FDF783F8CDE90801DDE90A2300
:1032F000FCF7D6FF0022204BCDE90C01FDF777F853
:10330000CDE90E01FDF7E2F904461C492046FCF721
:1033100095FF8346FDF76AF91FFA80FA5046FDF7DC
:1033200058F907460022124BFDF7D3F80546FDF782
:10333000CDF904462046FDF786F90746104A114BA1
:10334000FDF755F80546FDF7C1F904462146012071
:1033500000F0EEFA13B0BDE8F08F0000DC030020AF
:10336000000024407B14AE47E17A743F00003440F3
:1033700000005940E17A943F0000FE3F0000C8423F
:10338000C3F5285C8FC2F13F70B504460D4600219D
:103390000E4800F033FA00200C49243108800C4814
:1033A000B0FBF4F0401E09492C3108800848B0FBFE
:1033B000F4F068436421B0FBF1F004494031088027
:1033C0000821024800F01AFA70BD0000002C0140EC
:1033D0004019010010B5002407480068012809D1F0
:1033E00001F0BAFC04480068012803D10F20FDF762
:1033F00089FB0446204610BD20012242042808D142
:103400004FF0E021096941F004014FF0E022116121
:1034100007E04FF0E021096921F004014FF0E022BC
:10342000116170477047000010B51348006840F004
:1034300001001149086008464068104908400E49DB
:103440004860084600680E4908400B490860084675
:10345000006820F4802008600846406820F4FE00E0
:1034600048604FF41F008860FFF77CFE4FF000605B
:103470000449086010BD0000001002400000FFF881
:10348000FFFFF6FE08ED00E010B50121880700F00F
:103490005DF9002858D02D4890F85C0040B9FEF73F
:1034A00033FB2B48007818B9FDF7B8FC28490870A1
:1034B00028480078642817D125480078A0B126480C
:1034C000007888B90020234908700120234908604A
:1034D00001221146224800F04AF922480078FFF7FD
:1034E00047FC01201C4908701A4801780078401CEC
:1034F000184A1070962921D10020114608701A48E8
:103500000078152809DA18480078FFF7C1FC16483A
:103510000078401C1449087012E01448007808B97B
:10352000FFF73EFD11480078401C1049087008461E
:103530000078032804DB0020087001E000F0BEFDE5
:103540000121880700F0E4F810BD0000DC03002032
:103550004601002047010020450100209C01224235
:10356000000C00402C010020090100204401002033
:1035700010B50121264800F0E9F8002846D00020C7
:103580002449887024490860FFF760FE0020234921
:10359000C1F8A8011F48007810B100202049086038
:1035A0000020204908702048006820F470401E491F
:1035B00008600846006840F4304008601848A838A1
:1035C0000068012819D10846006820F4704008609E
:1035D0000846006840F44050086001201149087016
:1035E0000C48007810B101200D49086000200F49F7
:1035F000086001200E49C1F8AC01002201210448F5
:1036000000F0B5F80121024800F082F810BD00007A
:1036100000040040DC030020AC01214200002242F3
:10362000B48121420000002004080140A801224288
:103630000000214210B50121274800F087F800283A
:1036400049D0264890F85C00E8B125480078401C35
:103650002349087008460078022838DB00200870EB
:103660002048006808B9012000E000201D490860DA
:103670001D48D0F8B00108B9012000E00020194928
:103680001431086023E019480078401C174908707D
:1036900008460078052809DB0020087011480068FA
:1036A00008B9012000E000200E49086010480078A9
:1036B00028280CDA0E480078401C0D49087008468E
:1036C0000078192803D10B48007800F0BDFB0121D8
:1036D000014800F01DF810BD000C0040DC03002084
:1036E0004A0100209C0122420000224249010020A0
:1036F000480100202C01002021B1028842F0800204
:10370000028004E002884FF67F731A4002807047FF
:10371000CA430282704721B1028842F0010202804E
:1037200004E002884FF6FE731A400280704731B100
:10373000B0F8442042F40042A0F8442005E0B0F87C
:103740004420C2F30E02A0F84420704730B5024670
:10375000002000230024158A05EA0103958905EA63
:10376000010413B10CB1012000E0002030BD1AB1FA
:1037700083890B43838102E083898B438381704774
:1037800070B5002200230024058C4EF6FF763540EC
:103790000584038C8488828B48F6FF752A404FF697
:1037A000FF452A400D884FF6FF7606EA05252A4395
:1037B0004DF6FF752B400D8906EA05352B434D88E4
:1037C00006EA05352B430B4DA84202D00A4DA8420C
:1037D00008D14BF6FF752C408D894FF6FF7606EA2F
:1037E00085152C4384808283CD88A0F840500384C3
:1037F00070BD0000002C0140003401400A46002149
:10380000818B4FF2FF7319404FF6FF7303EA0223D7
:103810001943818370470000002202881D4B9842A3
:103820000ED01D4B98420BD0B0F1804F08D01B4BEF
:10383000984205D01A4B984202D01A4B984204D1B4
:103840004FF68F731A404B881A43174B984207D094
:10385000164B984204D04FF6FF431A40CB881A43C8
:1038600002808B8883850B8803850A4B98420BD096
:10387000094B984208D00E4B984205D00D4B984208
:1038800002D00D4B984201D10B7A0386012383822B
:1038900070470000002C014000340140000400404B
:1038A00000080040000C00400010004000140040E0
:1038B00000400140004401400048014070B504460A
:1038C000A007040E002507E004F0800000F00AF8CD
:1038D0006006040E681CC5B2022DF5DB012000F065
:1038E00001F870BD18B90021064A116002E00121FB
:1038F000044A11600121044A11600021034AC2F800
:1039000098117047BC812142980122420000224256
:1039100070B50446002507E004F08000FFF7E2FFE1
:103920006006040E681CC5B2082DF5DB70BD0000F2
:103930002DE9F04F85B083468A465046FCF783FE5A
:10394000804600224FF08043FCF7C3FD00224FF079
:103950008043CDE90001FCF7BCFD0022104BCDE90E
:103960000201FCF744FD064600220E4BFCF739FD30
:103970000446FCF74FFEC0B2049000200A490860DC
:103980005846FFF79BFF0498FFF7C2FF0020074946
:10399000C1F8B80101200649086005B0BDE8F08F04
:1039A000000070400000F03F980122420080214258
:1039B000B881214270B50025494890F8544090F8EC
:1039C0005A00C0F3C000E8B1464800784006000E37
:1039D0004449087042480079A04205DB0846007857
:1039E00040F00100087005E03E48007800F0FE005D
:1039F0003C4908703B480078FF2803D10420FDF7BC
:103A000081F80546364890F85A00C0F30010E8B136
:103A1000354800784006000E334908703048407938
:103A2000A04205DB0846007840F00100087005E080
:103A30002D48007800F0FE002B4908702A480078D5
:103A4000FF2803D10520FDF75DF80546244890F8CE
:103A50005A00C0F34010E8B1244800784006000E38
:103A6000224908701E488079A04205DB084600788C
:103A700040F00100087005E01C48007800F0FE00EE
:103A80001A49087019480078FF2803D10620FDF76D
:103A900039F80546124890F85A00C0F38010E8B192
:103AA000134800784006000E114908700C48C07990
:103AB000A04205DB0846007840F00100087005E0F0
:103AC0000B48007800F0FE000949087008480078AB
:103AD000FF2803D10720FDF715F80546284670BDDD
:103AE000DC0300203A0100203B0100203C010020C3
:103AF0003D01002070B540F22441164800F0E0F886
:103B000030B314480088C5B21248001D0088C5B201
:103B100000211148FDF7D0FA4FF48030FDF7B0FADC
:103B20000D48FDF77BFBC0F13C00C5B2002405E069
:103B30000A49085DFEF71AFC601CC4B2AC42F7DB10
:103B40003C2005495839C86501210348FDF7B4FAFE
:103B500070BD00000038014058000240B80E00203F
:103B600010B50121354800F09EF830B1334800F01F
:103B700063F90121314800F069F808212F4800F06D
:103B800092F830B12D4800F057F908212B4800F089
:103B90005DF82021294800F086F801283BD127480C
:103BA00000F04AF9264908702648008800F40040D1
:103BB00088BB2448008800F4804070B10846007833
:103BC0000A2803D000201F49088024E01D480088EF
:103BD00040F400401B4908801DE0194800780D287A
:103BE00006D11848008840F480401649088012E049
:103BF0001348007813490988C1F30D01124A505443
:103C000010480088401C0F49088008460088092891
:103C100001DD0020088040F22551084800F050F8EE
:103C200058B12021054800F011F840F22551034811
:103C300000F015F8014800F0FFF810BD0044004006
:103C4000A603002066010020061B002001F400727C
:103C5000B2F5007F00D100BFCA430280704710B5A3
:103C60000022002340F66A14A14200D100BF0A12CC
:103C700001249440A3B2DC43048010BD21B18289A9
:103C800042F40052828104E082894DF6FF731A40AB
:103C9000828170471AB1838A0B43838202E0838A50
:103CA0008B438382704702460020B1F5007F00D12C
:103CB00000BF13880B400BB1012000E000207047CB
:103CC00070B50246002400230025002040F66A1645
:103CD000B14200D100BFC1F3421501F01F0301261C
:103CE00006FA03F3012D02D19689334006E0022D36
:103CF00002D1168A334001E0968A33400C12012625
:103D000006FA04F41688344013B10CB1012000E027
:103D1000002070BDF0B503460024002600250020D9
:103D200040F66A17B94200D100BF1846C1F34214E9
:103D300001F01F06012707FA06F5012C01D10C300E
:103D400004E0022C01D1103000E014301AB10768F1
:103D50002F43076002E00768AF430760F0BD000033
:103D60002DE9F04786B005460E460024A24600BF66
:103D7000A1460027B08900B100BF2F462C8A4CF61F
:103D8000FF700440F08804432C82AC894EF6F31097
:103D90000440B08831890843718908430443AC81E9
:103DA000AC8A4FF6FF400440B0890443AC8201A8BE
:103DB000FEF704FC1F48874202D1DDF810A001E0A5
:103DC000DDF80CA0A88900F4004040B10AEBCA005D
:103DD00000EB0A1031684900B0FBF1F807E00AEB8C
:103DE000CA0000EB0A1031688900B0FBF1F86420CA
:103DF000B8FBF0F004012009642101FB1089A889B7
:103E000000F4004040B1322000EBC900B0FBF1F0FB
:103E100000F00700044308E0322000EB09106421A1
:103E2000B0FBF1F000F00F0004432C8106B0BDE8B8
:103E3000F08700000038014001468888C0F3080080
:103E4000704700BFFEE700003EB50546FEF782FC66
:103E5000FEF792FEADF8005015480088ADF802005C
:103E600013484088ADF8040011488088ADF806007A
:103E70000F48C088ADF808000E48FEF7B3FE0446B0
:103E8000142C04DB00210B4800F016F8002409492B
:103E9000891C0C2202FB041005226946FEF7E0FE95
:103EA000601C84B22146034800F006F83EBD0000C5
:103EB000B80F00200000020813B50446012201A932
:103EC0002046FEF7CDFE1CBD02E008C8121F08C147
:103ED000002AFAD170477047002001E001C1121F8B
:103EE000002AFBD17047000000B591B0012140F2DB
:103EF0001C60FEF73DFB01210846FEF719FB4FF45D
:103F00004040FEF709FB00208DF82F00CE20ADF8D1
:103F10002C000BA95448FDF723FD0120ADF82C001F
:103F20000BA95248FDF71CFD3020ADF82C000BA961
:103F30004F48FDF715FD4F48FDF7CAF84E48009071
:103F40004E480190002002904FF4966003900020AC
:103F5000049080200590400006908000079020206B
:103F600008900002099000200A9069464148FDF738
:103F700078F901213F48FDF79FF83F484C38FCF79E
:103F8000E5FC00200C9001208DF834008DF8350000
:103F90004FF460200E9000200F9008208DF8400014
:103FA0000CA935484C38FCF713FD052301221146B6
:103FB00031484C38FCF734FD0523022211462E48C7
:103FC0004C38FCF72DFD0523032211462A484C38B6
:103FD000FCF726FD05230422062127484C38FCF770
:103FE0001FFD05231A46072123484C38FCF718FD0E
:103FF000052306220E2120484C38FCF711FD05232D
:1040000007220F211C484C38FCF70AFD0523082223
:10401000114619484C38FCF703FD012116484C386D
:10402000FCF788FC012114484C38FCF778FC124856
:104030004C38FCF751FD00BF0F484C38FCF7BEFC74
:104040000028F9D10C484C38FCF756FD00BF0A484F
:104050004C38FCF7A9FC0028F9D1012106484C385E
:10406000FCF73FFD11B000BD00080140000C01400D
:1040700000100140080002404C2401405805002077
:104080003EB50C4A07CA8DE8070000210A48FFF731
:1040900013FF00240AE00849891C0C2202FB0410CB
:1040A00005226946FEF7DCFD601CC4B2142CF2DB6D
:1040B0003EBD0000685C0008000002082DE9FC47D6
:1040C000F948007801287DD10020F7490870F748A9
:1040D000407AF649097A40EA012040F20722811A23
:1040E000904270D025DCB0F5857F6DD009DCA0F260
:1040F0000110082869D2DFE800F053FDFCFBFAF953
:10410000F8F740F20222811A90427DD00ADCA0F238
:104110000B10002879D0012878D0032877D0F62812
:1041200053D159E3012973D0032972D00429F7D15F
:10413000B0E340F20132881A91426BD018DC40F2B1
:10414000FD22A1EB020091427ED00ADC01297CD045
:10415000A1F2FA21002979D0012978D00229DFD1F2
:10416000F8E3012874D0022873D00328D8D1F2E3F1
:1041700006286FD008DC01286DD002286CD00328F7
:104180006BD00528CCD1E7E3072867D0A0F6012043
:1041900000287DD0A0F5824003380028C0D1F8E384
:1041A000C34890F85C00002860D1C048807A01289C
:1041B0006FD1C04800780028F6D1BC48C07A642886
:1041C00054DC03E0F3E369E38AE1F1E3B748407BC1
:1041D00064284BDCB64890F86F00012847D1B348FB
:1041E000C07A052842DD00220121B348FFF7BFFA5B
:1041F000AF48007810B10120B04908600120B049F3
:104200000860AA48C07A06E0FBE27FE181E19CE217
:1042100031E33CE3FAE3A6498870084680780A282F
:1042200002DA0A20C87003E0A1488078A049C8706B
:104230009F49C878FFF70AF8052000F08DFD00209F
:10424000A0490870994A0AE0C4E32AE366E384E3DC
:10425000DDE3F8E3F8E3F8E3F8E3F8E3F8E3517BB0
:10426000107BFFF791F801209749087046E0002283
:1042700001219148FFF77BFA8D48007810B10120A9
:104280008E49086001208E4908608848C07A01E0A4
:1042900042E113E0864988708878FEF7D7FF052051
:1042A00000F05AFD002087490870804A517B107B3E
:1042B000FFF76AF80120844908701FE000207C495C
:1042C000887001207F4908700020FEF7BFFF0021A1
:1042D0000A20FFF759F87648007810B10020774996
:1042E00008600020764906E088E07BE06EE061E04F
:1042F00042E023E003E008607349087024E26B4861
:10430000807A6B49A1F84E000846B0F84E106F480D
:10431000FFF7D2FD6649B1F84E108800FCF748F966
:10432000074600226A4BFCF7D4F80546FCF7CEF9A5
:10433000824651460020FFF7FBFADFE75B48817AAF
:104340005B48A0F85010B0F850106048801CFFF790
:10435000B3FD5749B1F85000FCF73BF9074600227E
:104360005C4BFCF7B6F80546FCF7B0F982465146BF
:104370000320FFF7DDFAC1E74C48817A4C48A0F8EA
:104380005210B0F852105148001DFFF795FD4849F2
:10439000B1F85200FCF71DF9074600224D4BFCF71F
:1043A00098F80546FCF792F9824651460220FFF73D
:1043B000BFFAA3E73D48817A3D48A0F85410B0F811
:1043C00054104248801DFFF777FD97E73748817A00
:1043D0003748A0F85610B0F856103C480830FFF7A0
:1043E0006BFD8BE73148817A3148A0F85810B0F85E
:1043F000581036480A30FFF75FFD7FE72C48B0F8C9
:104400005A0042F2040120EA01042848C17A807A65
:1044100041EA002042F2040120EA01094C450DD096
:104420002248C17A807A41EA00212148A0F85A1036
:10443000B0F85A1025480C30FFF73EFD1B48C17AF2
:10444000807A41EA002000F400541848C17A807A4A
:1044500041EA002000F00409B4F5005F07D1012013
:104460001D49488001211D48FFF726FD06E0002078
:104470001949488000211948FFF71EFDB9F1040FC2
:1044800008D101201449088001211448801EFFF73B
:1044900013FD07E000201049088000210F48801E0E
:1044A000FFF70AFDEBE300000100002050040020AC
:1044B000DC0300200000002000040040B481214201
:1044C000A80122422A0100200A01002002800108DE
:1044D00000408F40000024400401002006900108A5
:1044E000FEF724F9F848007CF749C97BF64DCDE981
:1044F0000010EE7AAD7A46EA0520F34DAB7B6A7B7D
:10450000297BFEF79DFAFEF71BF9B8E3FEF748FD9D
:10451000B5E3FEF745FCB2E3EB48807A07287DD08F
:104520000021EA48FFF7C8FCE848FEF75BFBE849D2
:1045300081F85C00FEF70EF9FEF714FBFEF71CFB9A
:1045400001210220FEF7F8F9FEF70CFBFEF7EEF86A
:10455000DD48807A07283FDADB48807A07283AD29C
:10456000DFE800F0040C141C242C3400FEF776F96C
:10457000D84945182846FEF7C9FA2CE0FEF76EF92F
:10458000D54945182846FEF7C1FA24E0FEF766F93A
:10459000D24945182846FEF7B9FA1CE0FEF75EF945
:1045A000CF4945182846FEF7B1FA14E0FEF756F950
:1045B000CC4945182846FEF7A9FA0CE0FEF74EF95B
:1045C000C94945182846FEF7A1FA04E00021022057
:1045D000FEF7B2F900BF11E0FEF740F9BA49897A57
:1045E000C91F01EB4101C900C1EB01118900C1EBF9
:1045F000011100EB81052846FEF788FAFEF7B2FAB2
:10460000FEF79EF8B048817AB0481030FFF754FCAE
:10461000AE481230FEF7E6FA401C00E078E085B2C2
:104620002946AA481230FFF747FCB0480188A7483E
:10463000801CFFF741FCAD484188A448001DFFF7EE
:104640003BFCAA488188A148801DFFF735FCA7489C
:10465000C1889E480830FFF72FFCA44801899B4879
:104660000A30FFF729FC99481230FEF7BBFA984947
:1046700081F85D0095481030FEF7B4FA944981F84E
:104680005E009248FEF7AEFA914981F85C008F48CF
:10469000801CFEF7A7FA8E49A1F860008B48001D28
:1046A000FEF7A0FA8A4981F862008848801DFEF76B
:1046B00099FA874981F8630084480830FEF792FA36
:1046C000834981F8640081480A30FEF78BFA8049FB
:1046D00081F86500002201218548FFF748F88548E8
:1046E000006840F00800834908600846006840F010
:1046F0001000086001208049086000207F49C1F84F
:10470000A8017D4914390860FF20FFF79DFB1BE0DD
:1047100000216E481230FFF7CFFB00217848FFF7E9
:10472000CBFB00217648801CFFF7C6FBFFF7A8FCF7
:1047300066481230FEF756FA654981F85D0000219F
:1047400062481630FFF7B8FB99E25F48807A41284B
:1047500041D05D48817A6B48FFF7AEFB5A48C17A79
:104760006848801CFFF7A8FB5748017B6548001D7F
:10477000FFF7A2FB5448417B6248801DFFF79CFB7A
:104780005148C27B807B42EA00215E480830FFF737
:1047900093FB5C48FEF726FA4D4981F866005948BC
:1047A000801CFEF71FFA4A4981F867005548001D32
:1047B000FEF718FA464981F868005248801DFEF756
:1047C00011FA434981F869004E480830FEF70AFAA9
:1047D0003F49A1F86A0052E23B48807A40B101208B
:1047E0004949088001213948001FFFF765FB07E0B0
:1047F00000204549088000213448001FFFF75CFB7A
:104800003DE23148807A012825D1314908700846B7
:1048100001782E481430FFF74FFB3C48007850B920
:104820003B480078012802D13A49086022E0002084
:10483000384908601EE03548007801281AD135480B
:10484000A838006818B900203249086012E0012039
:10485000304908600EE01C48807A58B900201C4995
:1048600008700846017819481430FFF725FB01202D
:104870002849086003E226480078012806D112483A
:10488000807A134988708878FEF7E0FCF7E100F041
:1048900035FEF4E1002020490870F0E1FCF772FFDA
:1048A000EDE1FBF761FCFF2190FBF1F201FB12004F
:1048B000074981F86E00084690F86E1003481630DC
:1048C000FFF7FAFADBE1000050040020089001082D
:1048D000DC030020008D2700001A4F0000A776009F
:1048E00000349E0000C1C500004EED00B80F00204E
:1048F000000C004000040140B001224200002242AE
:10490000001002084280010804010020000000207D
:104910000A010020B481214209010020D948807A8F
:10492000012808D1D848B0F85A0040F00101D64813
:10493000A0F85A1007E0D448B0F85A0020F001015E
:10494000D148A0F85A10D048B0F85A10CF48FFF715
:10495000B3FA94E11EE098E03FE1CA48807A01286A
:1049600008D1C948B0F85A0040F00201C648A0F882
:104970005A1007E0C448B0F85A0020F00201C248BB
:10498000A0F85A10C048B0F85A10C048FFF794FA7F
:1049900075E106E1BB48807A01280AD1BA48B0F82F
:1049A0005A0040F00401B848A0F85A1009E067E145
:1049B00064E1B548B0F85A0020F00401B248A0F80C
:1049C0005A10B148B0F85A10B048FFF775FAFCF722
:1049D000D9FE54E1AB48807A012808D1AA48B0F842
:1049E0005A0040F00801A848A0F85A1007E0A6486D
:1049F000B0F85A0020F00801A348A0F85A10A248C5
:104A0000B0F85A10A148FFF757FA38E159E09D482D
:104A1000807A012808D19C48B0F85A0040F0100173
:104A20009948A0F85A1007E09748B0F85A0020F0CB
:104A300010019548A0F85A109348B0F85A109348BE
:104A4000FFF73AFA1BE104E0E3E056E071E08CE0A6
:104A5000FBE08C48807A012808D18B48B0F85A00D6
:104A600040F020018848A0F85A1007E08648B0F8C6
:104A70005A0020F020018448A0F85A108248B0F86B
:104A80005A108248FFF718FAF9E07E48807A012828
:104A900008D17D48B0F85A0040F040017A48A0F8AB
:104AA0005A1007E07848B0F85A0020F040017648E4
:104AB000A0F85A107448B0F85A107448FFF7FCF97F
:104AC000DDE07048807A012808D16F48B0F85A00BC
:104AD00040F080016C48A0F85A1007E06A48B0F82E
:104AE0005A0020F080016848A0F85A106648B0F8D3
:104AF0005A106648FFF7E0F9C1E06248807A012861
:104B000008D16148B0F85A0040F480715E48A0F8BE
:104B10005A1007E05C48B0F85A0020F480715A48F7
:104B2000A0F85A105848B0F85A105848FFF7C4F97E
:104B3000A5E05448807A012808D15348B0F85A00BB
:104B400040F400715048A0F85A1007E04E48B0F801
:104B50005A0020F400714C48A0F85A104A48B0F8A6
:104B60005A104A48FFF7A8F989E04648807A012898
:104B700008D14548B0F85A0040F480614248A0F896
:104B80005A1007E04048B0F85A0020F480613E48CF
:104B9000A0F85A103C48B0F85A103C48FFF78CF97E
:104BA0006DE03848807A012808D13748B0F85A00BB
:104BB00040F400613448A0F85A1007E03248B0F8D9
:104BC0005A0020F400613048A0F85A102E48B0F87E
:104BD0005A102E48FFF770F951E02A48807A0128D0
:104BE00008D12948B0F85A0040F480512648A0F86E
:104BF0005A1007E02448B0F85A0020F480512248A7
:104C0000A0F85A102048B0F85A102048FFF754F97D
:104C100035E01C48807A012808D11B48B0F85A00BA
:104C200040F400511848A0F85A1007E01648B0F8B0
:104C30005A0020F400511448A0F85A101248B0F855
:104C40005A101248FFF738F919E00E48807A012807
:104C500009D10D48B0F85A004FF6FF7108430A49D0
:104C6000A1F85A0003E000210748A0F85A100648AE
:104C7000B0F85A100548FFF71FF900E000BF00BF69
:104C8000BDE8FC8750040020DC0300200E800108F2
:104C900070B502460C46FF25FF2309E012F8010B10
:104CA00080EA05010648405C80EA03050548435C4C
:104CB0002000A4F10106F4B2F0D145EA032070BD52
:104CC000B05C0008B05D000810B56FF00400FEF79E
:104CD00095FB0A4800680A49B0FBF1F009490870E1
:104CE0000846007800EB4001C1EBC0104FF6FF71A1
:104CF00001EAC0000449088010BD0000B003002094
:104D000000127A004C0100204E0100200146114A99
:104D100012884A434FF0E0235A6100229A611A46F2
:104D2000126942F001021A6100BF4FF0E0221069DF
:104D300000F001021AB100F48032002AF5D04FF0E1
:104D4000E022126922F001024FF0E0231A610022F2
:104D50009A6170474E0100200146114A12784A4379
:104D60004FF0E0235A6100229A611A46126942F01C
:104D700001021A6100BF4FF0E022106900F0010249
:104D80001AB100F48032002AF5D04FF0E022126907
:104D900022F001024FF0E0231A6100229A6170476D
:104DA0004C0100200EB501211D20FDF7E1FB04217F
:104DB0000120FCF7B5FD1020019000208DF80800BF
:104DC00008208DF8090001208DF80A0001A8FCF7E1
:104DD00025FB0A208DF8000000208DF8010001203D
:104DE0008DF802008DF803006846FDF787F903216E
:104DF0000120FCF795FD0820019000208DF80800A7
:104E00000C208DF8090001208DF80A0001A8FCF79C
:104E100005FB09208DF8000000208DF8010001201D
:104E20008DF802008DF803006846FDF767F905214B
:104E30000120FCF775FD2020019000208DF808006E
:104E400010208DF8090001208DF80A0001A8FCF758
:104E5000E5FA17208DF8000000208DF801000120F0
:104E60008DF802008DF803006846FDF747F90EBD86
:104E700030B502460B460020002111E0555C684029
:104E8000002409E000F001051DB1512585EA60000C
:104E900000E04010651CECB2082CF3DB4D1CE9B2BD
:104EA0009942EBDB30BD00002DE9F05F06460F466E
:104EB00090469946DDE90AAB002440F2B270864282
:104EC00003DB40F63300864202DD0120BDE8F09F9F
:104ED00040F2B2750AE02846FDF7F0F810B1194823
:104EE000044401E018480444681C85B2B542F2DB72
:104EF000002510E01548405D40F2A321484304EB33
:104F0000C0143046FDF7DAF818B1012D01D1104870
:104F10000444681C85B2781EA842EBDCA8F10100AD
:104F200040F2A321484304EBC014C9EB4910C0EB85
:104F3000092004EB0014CAEB0A1004EB80045C4463
:104F40002046C3E70085E2018033E1018C5C000864
:104F50008051010008B501210846FDF709FB012138
:104F60003B48FCF789FD01213C20FDF701FB4FF494
:104F7000C050ADF8000010208DF8030003208DF81C
:104F8000020069463348FCF7EBFC00203249086018
:104F90003249C1F8B0014FF40050ADF80000694645
:104FA0002F48FCF7DDFC01202E4908604FF4E45047
:104FB000ADF8000069462C48FCF7D2FC01202B49D3
:104FC000C1F8B0010420ADF8000069462848FCF79C
:104FD000C7FC01202749086041F23B00ADF8000002
:104FE00004208DF8030003208DF8020069461C4858
:104FF000FCF7B6FC4FF44070ADF8000069461A4863
:10500000FCF7AEFC00201C49086001201A49083951
:1050100008601649C1F8AC014FF4FA70FFF776FE4C
:1050200000201549143908604FF4FA70FFF76EFE3E
:105030004FF4FA70FFF76AFE01200F490860002064
:105040000D49083908600D49C1F8880108BD000004
:105050000002300000080140AC0121420000214262
:10506000000C0140B48121420010014000002242A6
:105070000014014088812242B00122420080224275
:105080002DE9F843FE48FDF7ADFD4FF6FF7188426C
:105090007DD1002000904620FA49A1F84E0012214F
:1050A000F848A0F850101121A0F852102821A0F8BB
:1050B0005410C821A0F856106E21A0F85810FF21F6
:1050C000A0F85A100120EF490870002081F85C0018
:1050D00081F85D00072081F85E0008460178EA4803
:1050E000FEF7EAFEE748B0F84E10E548801CFEF7F0
:1050F000E3FEE448B0F85010E148001DFEF7DCFE86
:10510000E048B0F85210DE48801DFEF7D5FEDD48BD
:10511000B0F85410DA480830FEF7CEFED948B0F89F
:105120005610D7480A30FEF7C7FED648B0F85810D8
:10513000D3480C30FEF7C0FED248B0F85A10D04821
:105140000E30FEF7B9FECF4890F85C10CE48143808
:10515000FEF7B2FECB4890F85D10CB48801EFEF7FC
:10516000ABFEC84890F85E10C748001FFEF7A4FECB
:105170000021C5481438FEF79FFE40F2E271C24894
:105180001238FEF799FE0821BF48103800E051E0C0
:10519000FEF792FE1521BC480E38FEF78DFE0E215B
:1051A000B9480C38FEF788FE0021B7480A38FEF7E8
:1051B00083FE0121B2481030FEF77EFE0121B04887
:1051C000FEF77AFE0021B048801EFEF775FE4121F1
:1051D000AB484230FEF770FE0021A9484430FEF78C
:1051E0006BFE0021A6484630FEF766FE0021A4486B
:1051F0004830FEF761FE0021A1484A30FEF75CFE10
:105200000021A148801CFEF757FE33219E481C3820
:10521000FEF752FE01219C481838FEF74DFE012191
:1052200099481638FEF748FE022269469748FDF76E
:1052300017FD00BF94481C38FDF7D4FC332843D039
:10524000332191481C38FEF737FE01218E4818386B
:10525000FEF732FE01218C481638FEF72DFE0121A3
:105260008948FEF729FE00218748001FFEF724FE2B
:10527000FDF770FAFDF780FC02218348801EFEF7DF
:105280001BFE8348018880481238FEF715FE8048CF
:1052900041887D481038FEF70FFE7D4881887A48A6
:1052A0000E38FEF709FE7A48C18877480C38FEF7B9
:1052B00003FE7748018974480A38FEF7FDFD002196
:1052C00071481438FEF7F8FD6F48FDF78BFC6D4907
:1052D00008706B48801CFDF785FC6A49A1F84E00F8
:1052E0006748001DFDF77EFC6649A1F85000644840
:1052F000801DFDF777FC6349A1F852006048083033
:10530000FDF770FC5F49A1F854005D480A30FDF7D5
:1053100069FC5C49A1F8560059480C30FDF762FC65
:105320005849A1F8580056480E30FDF75BFC554926
:10533000A1F85A0052484230FDF754FC514981F817
:1053400066004F484430FDF74DFC4E4981F8670038
:105350004B484630FDF746FC4A4981F8680048480A
:105360004830FDF73FFC474981F8690044484A301E
:10537000FDF738FC4349A1F86A00FCF767F9424899
:10538000001FFDF72FFC3F4981F85E003E48801E5C
:10539000FDF728FC3B4981F85D003B481438FDF7D8
:1053A00021FC384981F85C0037481238FDF71AFCB7
:1053B0003449A1F8600034481038FDF713FC314936
:1053C00081F8620030480E38FDF70CFC2D4981F859
:1053D00063002D480C38FDF705FC2A4981F864006C
:1053E00029480A38FDF7FEFB264981F86500264862
:1053F000801CFDF7F7FB234981F86E006420A1F8BB
:105400006C00084690F86600542803D1002081F80B
:105410006F0003E001201B4981F86F001949B1F8C2
:105420004E108800FBF7C4F807460022194BFBF723
:1054300050F80546FBF74AF9044621460020FEF7DE
:1054400077FA1049B1F85000FBF7C3F8074600227D
:10545000114BFBF73EF80546FBF738F904462146A9
:105460000320FEF765FA0749B1F85200FBF7B1F8DF
:1054700007460022084BFBF72CF805460EE000001B
:1054800000800108DC0300201C90010800100208C5
:10549000B80F002000408F4000002440FBF716F9B1
:1054A000044621460220FEF743FA00210120FEF7C0
:1054B0003FFA0E480078012803D100200C4908600B
:1054C00002E001200A490860C9200849A1F87000DB
:1054D0000848FDF787FB084908800648801CFDF74F
:1054E00081FB05494880BDE8F8830000DC0300200B
:1054F000B4812142049001080401002010B501216B
:105500001648FEF7D9FC1548FDF76CFB144981F8E5
:105510005C001448006820F0080012490860084642
:10552000006820F01000086000210A20FDF72CFF21
:1055300000200D4908600A4988708878FDF786FECA
:1055400000200A49C1F8B401012211460848FEF7BB
:105550000EF900200749086010BD000008900108FE
:10556000DC03002000040140AC0121420080214204
:10557000000C0040A80122424FF4A060FCF7F6FDA9
:10558000FFF7A2FBFFF7E6FC00F062FA00F040FA3A
:10559000FFF776FD00BFFDF7DFF90028FBD1FEF72E
:1055A000A3FC4FF47A70FFF7B1FBFCF7B7FC00F0F7
:1055B0005FF9FFF7F7FB00F013F80748FDF712FB60
:1055C000012804D1012211460448FEF7D0F802E078
:1055D0000A20FFF79BFBFBE708900108000C004046
:1055E0001CB5FDF7B7F859490860FDF7C5FA5848EA
:1055F000FDF7F8FA5749088055480E38FDF7F2FADA
:105600005549088052480C38FDF7ECFA5349088098
:105610004F480A38FDF7E6FA514908804C480838E7
:10562000FDF7E0FA4F4908804948801FFDF7DAFA94
:105630004D49088000204D490880464800880628CA
:1056400054D044480088072850D042480088062893
:1056500018DA0846007844490978CDE90010414835
:1056600003783F4802783D4801783B480088FFF7BF
:105670001BFC3F49374A128851F8221008443D4923
:1056800008601EE03948007837490978CDE90010F4
:105690003448037832480278304801782E48008830
:1056A000FFF702FC2B490988C91F01EB4101C90022
:1056B000C1EB01118900C1EB011100EB81002D4903
:1056C0000860224800682B490968884202D3FFF726
:1056D00015FF10E0274800681C490968401A264950
:1056E000B0FBF1F02549A1F8700004E04FF47A70A6
:1056F0002249A1F8700000202149087020E02048CC
:105700000078FDF74BFA022804D11E480078401CAF
:105710001C4908701B48007804280CD11120FDF7A3
:1057200027FB164890F86600542804D0FFF7E6FEE1
:1057300011201549087012480078401C1049087063
:105740000F4800780428DADB1CBD0000140100209B
:10575000189001081C0100201E01002020010020DB
:105760002201002024010020260100202801002021
:10577000985C00081801002080510100DC03002023
:1057800012010020130100202C0100202DE9F14F0F
:1057900086B04FF0000946244FF0000B0698FAF748
:1057A00052FF05464FF033322C4BFAF777FF0CD2FD
:1057B0000698FAF748FF05464FF06632284BFAF78D
:1057C00055FF02D82748008E1FE00698FAF73BFFE6
:1057D00007464FF06632224BFAF706FECDE900018C
:1057E00021490698FAF72AFD80462049FAF720FD5C
:1057F0000746FAF728FF0546DDE90023FAF769FEB8
:10580000CDE90201FAF706FF80B204904FF0000ADA
:105810001DE009EB040000EBD071C1F3470B114808
:1058200030F81B100498814206DA09EB040000EB03
:10583000D071C1F3470406E009EB040000EBD0711E
:10584000C1F3470900BF0AF1010000F0FF0ABAF1F5
:10585000070FDEDB204607B0BDE8F08F333307408B
:1058600066660A40D85B000800D01D460000A543CC
:1058700000B589B0012140F60400FCF779FE012152
:105880000F20FCF765FE40F2E730ADF81C0041F652
:105890001F40ADF818000020ADF81E00ADF81A004A
:1058A00006A95748FDF7B8FF01215548FDF733FF1A
:1058B000002201215248FDF75AFF32208DF80400E2
:1058C00000208DF8050003208DF8060001208DF8DA
:1058D000070001A8FCF712FC0920ADF81C0041F6F6
:1058E0001F40ADF818000020ADF81E00ADF81A00FA
:1058F00006A94FF08040FDF78FFF01218807FDF7D3
:105900000AFF012211469007FDF731FF1C208DF898
:10591000040002208DF805008DF8060001208DF8A6
:10592000070001A8FCF7EAFB41F28730ADF81C0044
:1059300041F61F40ADF818000020ADF81E00ADF88C
:105940001A0006A92F48FDF767FF01212D48FDF732
:10595000E2FE002201212B48FDF709FF1D208DF8F2
:10596000040002208DF8050003208DF806000120B8
:105970008DF8070001A8FCF7C1FB4FF40060ADF8FB
:10598000000018208DF8030003208DF802006946FE
:105990001D48FBF7E5FF41F61F40ADF81C00002055
:1059A000ADF81800ADF81E00ADF81A0006A91748AA
:1059B000FDF732FF7020ADF808000120ADF80A00B5
:1059C0000020ADF80E000220ADF8100002A90F482B
:1059D000FDF7D6FE01210D48FDF7A9FE08210B4871
:1059E000FDF70CFF01210948FDF786FE012107485C
:1059F000FDF791FE00210A20FDF7C6FC09B000BDAD
:105A0000000C00400004004000080140002C014050
:105A100008B501211820FCF7ABFD4FF44040ADF86C
:105A2000000010208DF8030003208DF80200694665
:105A30000548FBF795FF4020ADF800006946034894
:105A4000FBF78EFF08BD0000000C01400010014074
:105A500000B591B0012144F20400FCF789FD012159
:105A60000846FCF765FD4FF40070ADF840000320D8
:105A70008DF8420018208DF8430010A95148FBF71B
:105A80006FFF4FF48060ADF8400004208DF84300B4
:105A900010A94C48FBF764FF25208DF82C0001204D
:105AA0008DF82D0000208DF82E0001208DF82F009C
:105AB0000BA8FCF723FB00214348FBF7FDFA424803
:105AC000FBF706FB414800904148019010200290EE
:105AD0003C20039000200490802005900020069038
