:020000040800F2
:10000000101F0020450100087F200008F91C00088F
:100010007B200008C10D00082B3E000800000000F6
:10002000000000000000000000000000EB2C0008B1
:10003000991200080000000021240008793300080C
:100040005F010008A92200085F0100088928000854
:100050005F0100085F0100085F0100085F01000800
:100060005F0100089D120008ED1200085F01000802
:100070005F0100085F0100085F0100085F010008E0
:100080005F0100085F0100085F0100085F010008D0
:100090005F0100085F0100085F0100087D13000890
:1000A0005F0100085F0100085F0100085F010008B0
:1000B000DD330008C5340008893500085F010008F9
:1000C0005F0100085F0100085F0100085F01000890
:1000D0005F010008DD3A0008493B00085F010008A5
:1000E0005F0100085F0100085F0100085F01000870
:1000F0005F0100085F0100085F0100085F01000860
:100100005F0100085F0100081D3600085F0100085C
:100110005F0100085F0100085F0100085F0100083F
:100120005F0100085F0100085F0100085F0100082F
:10013000DFF80CD000F0A4FB004800476551000830
:10014000101F00200648804706480047FEE7FEE7EC
:10015000FEE7FEE7FEE7FEE7FEE7FEE7FEE7FEE777
:100160007D33000831010008F0B480EA0102D40FA9
:100170004200B2EB410F02D20246084611464A0045
:1001800042D0C30DDDB2C1F3C752AD1A202D35DA0E
:10019000C1F3160141F4000204B15242C5F1200638
:1001A00002FA06F12A411044B3EBD05F23D0C4B168
:1001B000012DA0EBC35009DCF0BC4FF0004202EA75
:1001C000C352DBB200F5000000F0CEBA400000F1EF
:1001D000807000EBC350A0F1807040EAD1704900FC
:1001E00009E0490841EAC071A0EBC35000F50000E6
:1001F000400800EBC350F0BC00F0ADBA61420122F0
:1002000002EB4101001BF6E7F0BC704781F00041B2
:10021000AAE780F00040A7E780EA010210B502F0EB
:100220000043400022D04A001FD0010E01EB1261B2
:10023000C0F35600C2F3560240F4000042F400023C
:10024000A0FB022000047F39140400D0401C50EAB7
:10025000124001D44000491EC2B20C0604EBD0107B
:10026000401C4008802A02D003E0002010BD20F08E
:100270000100002900DA0020184310BD2DE9FE4FCF
:10028000804681EA0300C00F0C46009021F0004137
:1002900023F00045B8EB0200A94105D240462146B3
:1002A00090461C460B46024623F00040104347D0C0
:1002B000270DC7F30A00C3F30A510290401A0190B8
:1002C00040286BDAC3F3130040F4801B0098924679
:1002D00020B10023D2EB030A63EB0B0B01985946C4
:1002E000C0F14002504600F005FA06460D46504661
:1002F0005946019A00F01DFA10EB080061410024F4
:1003000087EA115284EAE7731A4340D0009A62B335
:10031000019A012A4FEA075215DC001B61EB02012A
:100320004FF0004202EA0752CDE90042001C41F5BD
:10033000801132462B4600F054FA03B0BDE8F08F2E
:1003400040462146F9E7001B61EB0201001C41F524
:10035000801300185B412018A2F5001747EB03013A
:1003600040EAD570B6196D4111E06D084FEA3606C6
:1003700045EAC0754FEA0752001B61EB0201001C01
:1003800041F5801149084FEA3000001951413246C9
:100390002B4603B0BDE8F04F00F014BA00980122DC
:1003A00040000023D0EB020263EBE073009821468B
:1003B0004FEAE074B8EB000061EB0401E9E783F079
:1003C00000435BE781F0004158E72DE9FE4F81EAE9
:1003D000030404F0004421F0004100944FF0000BAE
:1003E00023F0004350EA01045ED052EA03045BD0DC
:1003F000C3F30A54C1F30A552C44A4F2F334019414
:10040000A0FB0254C1F3130141F48011C3F31303A1
:1004100043F4801301FB024400FB034E840A970A55
:1004200044EA815447EA8357A4FB076802958D0A82
:1004300005FB07854FEA932C04FB0C542705029D0E
:100440004FEA065847EA1637B5EB08056EEB070C7E
:10045000870E920E47EA811742EA8312A7FB020138
:10046000B6EB0B0164EB00042B0D43EA0C335E1872
:1004700044EB1C50DA465146E7FB0201C5F3130476
:100480004FEA0B3343EA14534FEA0432019C43EA28
:100490000603A4F10C040294009CCDE900B400F022
:1004A000A0F903B0BDE8F08F00200146F9E72DE97F
:1004B000F04D81EA030404F0004B21F0004514469E
:1004C0004FF0000A23F0004150EA050220D054EA20
:1004D00001021DD0C5F30A570246C5F31303C1F349
:1004E0001300C1F30A5640F4801543F48013A7EBC0
:1004F0000608101BD64608F2FD3873EB050002D340
:1005000008F1010801E092185B41B8F1000F03DA2D
:1005100000200146BDE8F08D00204FF48011064612
:1005200084460EE0171B73EB050705D3121B63EB24
:10053000050306434CEA010C49084FEA30009218C3
:100540005B4150EA0107EDD152EA030012D082EA82
:10055000040083EA0501084305D0101BAB4106D215
:100560000122002306E000224FF0004302E06FF07A
:10057000010253101AEB06004CEB085110EB0A0075
:1005800041EB0B01BDE8F04D00F01CB90EB5C10FF9
:1005900080EAE0700844CA07002140F233438DE846
:1005A0000E000A460B4600F01CF903B000BD0EB564
:1005B00040F2334102910021CDE900110A460B4679
:1005C00000F00FF903B000BD20F00040C10DC0F3F2
:1005D000160040F400007F2901DA002070479629B8
:1005E00003DCC1F19601C8407047963988407047D6
:1005F000C1F30A5210B5C1F3130140F2FF3341F4C5
:1006000080119A4201DA002010BD40F233439A4231
:10061000A2F2334203DC524200F07BF810BD90405E
:1006200010BD00F0004230F000400AD0C10D01F5CD
:100630006071C0F3160042EA0151C208400711433D
:10064000704700200146704730B5041E71F1000468
:1006500004DB4FF00044404264EB0101141E73F1CF
:10066000000405DB1C464FF00043524263EB0403D9
:100670008B4208BF824230BD30B5041E71F10004C8
:1006800004DB4FF00044404264EB0101141E73F19F
:10069000000405DB1C464FF00043524263EB0403A9
:1006A000994208BF904230BD01F0004330B421F0C0
:1006B000004150EA010206D00A0DA2F56072C1F3B2
:1006C0001301002A02DC30BC00207047440F44EACA
:1006D000C104C100E01830BC00EBC25000F03BB8D0
:1006E000002801DBC0F10040002901DBC1F100411D
:1006F00088427047202A04DB203A00FA02F10020E9
:1007000070479140C2F1200320FA03F3194390404F
:100710007047202A04DB203A21FA02F000217047BA
:1007200021FA02F3D040C2F1200291400843194659
:100730007047202A06DBCB17203A41FA02F043EA41
:10074000E07306E041FA02F3D040C2F1200291408A
:100750000843194670470029A8BF7047401C49004C
:1007600008BF20F00100704710B4B0FA80FC00FA16
:100770000CF050EA010404BF10BC704749B1CCF141
:10078000200421FA04F411FA0CF118BF01212143CD
:100790000843A3EB0C01CB1D4FEA00614FEA102088
:1007A00042BF002010BC704700EBC350104400292A
:1007B000A4BF10BC7047401C490008BF20F00100D6
:1007C00010BC704710B5141E73F1000408DA401C09
:1007D00041F1000192185B411A4301D120F0010060
:1007E00010BD2DE9F04D92469B4611B1B1FA81F250
:1007F00002E0B0FA80F220329046FFF77BFF044619
:100800000F4640EA0A0041EA0B0153465A460843A4
:1008100013D0114653EA010019D0C8F140025046E6
:10082000FFF777FF05460E46504659464246FFF70A
:1008300061FF084305D0012004E020463946BDE8A9
:10084000F08D0020054346EAE0762C4337430A98B2
:100850006305E40AA0EB08000022FD0A44EA4754BD
:100860000A3002D500200146E9E701051019694167
:10087000DDE9084500196941BDE8F04DA2E7000037
:10088000064C074D06E0E06840F0010394E80700DD
:1008900098471034AC42F6D3FFF74EFCF45A0008E8
:1008A000145B000870B58C1810F8015B15F0070395
:1008B00001D110F8013B2A1106D110F8012B03E0F9
:1008C00010F8016B01F8016B5B1EF9D12B0705D401
:1008D0000023521E0DD401F8013BFAE710F8013B4A
:1008E000CB1A921C03E013F8015B01F8015B521E66
:1008F000F9D5A142D8D3002070BD21B1826842F061
:100900000102826003E0826822F001028260704787
:1009100021B1826842F48072826003E0826822F42E
:10092000807282607047000010B50446124884420D
:1009300008D10121401501F0E9FD0021601501F009
:10094000E5FD17E00D48844208D10121001501F0B2
:10095000DDFD0021201501F0D9FD0BE0084884429F
:1009600008D10121C80301F0D1FD00214FF400405E
:1009700001F0CCFD10BD0000002401400028014022
:10098000003C0140014600208A6802F004020AB1DE
:10099000012000E000207047014600208A6802F034
:1009A00008020AB1012000E00020704730B502467D
:1009B0000020002350680F4C20400D790C6844EA59
:1009C00005242043506090680B4C2040D1E902542C
:1009D0002C434D7944EA450420439060D06A20F4CA
:1009E00070000C7C641EE4B2234340EA0350D062E2
:1009F00030BD0000FFFEF0FFFDF7F1FFF0B504464B
:100A00000D4600200021092D11DDE068A5F10A0640
:100A100006EB4607072606FA07F18843A5F10A0602
:100A200006EB460603FA06F10843E0600CE0206995
:100A300005EB4507072606FA07F1884305EB45064F
:100A400003FA06F108432061072A0FDA606B561E8D
:100A500006EB86071F2606FA07F18843561E06EBAB
:100A6000860605FA06F10843606322E00D2A0FDAD4
:100A7000206BD61F06EB86071F2606FA07F1884370
:100A8000D61F06EB860605FA06F10843206310E040
:100A9000E06AA2F10D0606EB86071F2606FA07F1AB
:100AA0008843A2F10D0606EB860605FA06F1084317
:100AB000E062F0BD816841F008018160704721B1BA
:100AC000826842F4A002826003E0826822F4A002FD
:100AD00082607047816841F00401816070470000C6
:100AE00010B504461948006820F00800174908604E
:100AF0000846006820F01000086000201449887043
:100B00000120144908601449C1F88801134800788D
:100B100020B900210A2002F0E1FB03E000200D498A
:100B2000091F08600A49887802F062FB08480078CB
:100B300010B100200A49086000200A4908600A49EB
:100B4000C1F8A80109480470012010BD000401404B
:100B5000D8030020B0012142008022420000002082
:100B6000B4812142B001224200002242280100202B
:100B700010B51548006820F00800134908600846C1
:100B8000006820F0100008600020104988700120E3
:100B90000F4908600F48007820B900210A2002F0B0
:100BA0009DFB03E000200A49091F08600749887877
:100BB00002F01EFB0548007810B1002006490860CD
:100BC00000200649086010BD00040140D803002041
:100BD000B001214200000020B4812142A80122423C
:100BE00010B51748006820F008001549086008464D
:100BF000006820F010000860002012498870012071
:100C0000114908601148007820B900210A2002F03B
:100C100065FB03E000200C49091F0860094988783A
:100C200002F0E6FA0748007810B100200849086091
:100C30000020084908600849C1F8A80110BD00005B
:100C400000040140D8030020B00121420000002030
:100C5000B4812142B001224200002242F0B591B09D
:100C60004048806801903F48C06802903D48006954
:100C700003903C48406904903A488069059039489F
:100C8000C06906903748006A07903648406A089065
:100C90003448806A09903348C06A0A903148006B32
:100CA0000B903048406B0C902E48806B0D902D4877
:100CB000C06B0E902B48006C0F902A48406C10902F
:100CC0002948007810284BDC002445E00026002548
:100CD0001CE004EBC40000EB0410244901EB4001CC
:100CE000681C085C04EBC40101EB04111F4A02EB11
:100CF0004101485504EBC40000EB0410114601EB20
:100D00004000405D304486B2681CC5B2312DE0DB46
:100D100001A951F824001649FFF77EFA0746FFF7AC
:100D200053FC04EBC40101EB0411104A02EB410136
:100D300081F8310004EBC40000EB0410114601EB14
:100D4000400090F83100304486B2322096FBF0F03B
:100D500008490855601CC4B2034800788442B5DBDA
:100D600011B0F0BDD803002064010020E20F002084
:100D700000002041D20F002010B5012001F0D6FB69
:100D8000002001F0D3FB10BD08B501460020009003
:100D9000034800900098084400900098008808BD1F
:100DA000006C004008B500220092044A0092009AAC
:100DB00002440092009A116008BD0000006C0040DF
:100DC00000BFFEE72DE9F04700240025002600279C
:100DD000A046A14602F0A8FA814601F093F9044624
:100DE00001F020FB054600F025FD804602F0D6FD0F
:100DF000064600F00BF8074644EA05003043384346
:100E000040EA080040EA0900BDE8F0872DE9F04714
:100E100000247D49B1F85600FFF7C9FB07460022C0
:100E20007A4BFFF744FB0546FFF73EFC81467648C8
:100E300090F85A00C0F3C01000B37548007840061F
:100E4000000E73490870704988684946FFF748FCEE
:100E500006D86F48007840F001006D49087005E041
:100E60006B48007800F0FE00694908706848007817
:100E7000FF2803D10820FFF733FE04466248B0F88C
:100E80005A00C0F3002000B3624800784006000E0C
:100E9000604908705C49C8684946FFF721FC06D8DC
:100EA0005C48007840F001005A49087005E0594854
:100EB000007800F0FE005749087056480078FF2877
:100EC00003D10920FFF70CFE04464F48B0F85A0042
:100ED000C0F3402000B3504800784006000E4E4951
:100EE0000870494908694946FFF7FAFB06D84A489D
:100EF000007840F001004849087005E04648007855
:100F000000F0FE004449087043480078FF2803D1F0
:100F10000A20FFF7E5FD04463B48B0F85A00C0F34D
:100F2000802000B33D4800784006000E3B49087021
:100F3000354948694946FFF7D3FB06D8374800785A
:100F400040F001003549087005E03448007800F0B1
:100F5000FE003249087031480078FF2803D10B2089
:100F6000FFF7BEFD04462848B0F85A00C0F3C02081
:100F700000B32B4800784006000E2949087022492A
:100F800088694946FFF7ACFB06D82548007840F051
:100F900001002349087005E02148007800F0FE00B8
:100FA0001F4908701E480078FF2803D10C20FFF766
:100FB00097FD04461448B0F85A00C0F3003000B35F
:100FC000184800784006000E164908700E49C86996
:100FD0004946FFF785FB06D81248007840F001002B
:100FE0001049087005E00F48007800F0FE000D4938
:100FF00008700C480078FF2803D10D20FFF770FD22
:1010000004462046BDE8F087D803002000002440B5
:101010003A0100203B0100203C0100203D0100205E
:101020003E0100203F01002000F0805111B1034932
:10103000086001E002494860704700000404024073
:101040000000024000F0805111B10349086001E046
:10105000024948607047000004040240000002405A
:1010600021B1026842F00102026004E002684FF61A
:10107000FE731A400260704701684FF6FE7211401D
:1010800001600021016041608160C1604B4988427C
:1010900008D14A490839496841F00F01474A083ADE
:1010A00051608AE045491431884208D143490839E2
:1010B000496841F0F001414A083A51607DE03F49FA
:1010C0002831884208D13D490839496841F47061A6
:1010D0003A4A083A516070E038493C31884208D1B8
:1010E00036490839496841F47041344A083A516038
:1010F00063E032495031884208D1304908394968A3
:1011000041F470212D4A083A516056E02B49643170
:10111000884208D129490839496841F47001274AB1
:10112000083A516049E025497831884208D123497D
:101130000839496841F07061204A083A51603CE042
:101140001F49884206D1011F096841F00F01021FA3
:10115000116032E01A491431884208D11849091F38
:10116000096841F0F001164A121F116025E0144988
:101170002831884208D11249091F096841F4706179
:101180000F4A121F116018E00D493C31884208D106
:101190000B49091F096841F47041094A121F116087
:1011A0000BE007495031884207D10549091F0968FA
:1011B00041F47021024A121F11607047080002407A
:1011C000080402400146486880B27047014600208A
:1011D000002201F0805313B1054B1A6801E0054B62
:1011E0001A6802EA01030BB1012000E000207047F9
:1011F00000040240000002401AB103680B43036080
:1012000002E003688B430360704710B50022026858
:1012100047F6F0739A430C6A8B6823430C692343A7
:101220004C6923438C692343CC6923434C6A234391
:101230008C6A23431A430260CB6843600B68836067
:101240004B68C36010BD000010B500211048FFF7C7
:1012500007FF10480E4944390865807908308864D2
:1012600001210B48FFF7FCFE00BF4FF40050FFF7D1
:10127000ADFF0028F9D04FF40050FFF7D5FE4FF432
:101280008050FFF7DFFE00210148FFF7E9FE10BDA7
:1012900044000240020000207047000010B5082002
:1012A00000F07CF8B8B10C4890F85C0080B90020E0
:1012B0000A4908600A49C1F8A8010A4908800120C2
:1012C00009490870012211460648243802F043FA01
:1012D000082000F05DF810BDD8030020AC012142C9
:1012E00000002242240400402601002010B51020F6
:1012F00000F054F800282ED0174890F85C0038BB56
:101300001648006820F470401449086008460068D8
:1013100040F4405008601248007888B90120114913
:101320000870114908600C48007810B101200F497D
:10133000086001200E49086000200E49087002E094
:10134000002009490860002201210B4802F003FA3D
:10135000102000F01DF810BDD80300200408014043
:101360002801002000000020AC012142B48121426C
:10137000A8012242260100200004004010B52020D0
:1013800000F00CF810B1202000F002F810BD0000B1
:101390000149086070470000140401400146002024
:1013A0000022074B1B6803EA0102054B14331B683C
:1013B0000B4013B10AB1012000E00020704700008B
:1013C00000040140002123498279002A3AD00A46CC
:1013D000126803689A430B461A600A1D1268036874
:1013E0009A430B1D1A60027911440A6803681A4374
:1013F0000A60184A0832126803689A43154B08338A
:101400001A601A1D126803689A43124B0C331A6053
:101410004279102A0ED11A1F126803681A430D4B25
:1014200008331A601A1D126803681A43094B0C33FB
:101430001A600DE00749427911440A6803681A43AB
:101440000A6005E0027911440A6803689A430A6059
:10145000704700000004014010B51F4800780128C3
:1014600039D11E4890F86F00012824D11B484078DC
:10147000642803DB64201949887003E0174840782A
:10148000164988701548807805280CDD1348807847
:101490000A2803DA0A201149C87007E00F4880784B
:1014A0000E49C87002E000200C49C8700B49C8788A
:1014B00001F09EFE0FE009484078642803DB6420B9
:1014C0000649887003E0054840780449887003495C
:1014D000887801F08DFE10BD00000020D8030020A8
:1014E00030B5044604254FF4302000F06FF805466F
:1014F000042D17D10C48006940F002000A49086128
:1015000008464461006940F0400008614FF4302013
:1015100000F05CF805460448006941F6FD7108409A
:1015200001490861284630BD0020024004200B49D3
:10153000C96801F0010109B101200EE00749C9683D
:1015400001F0040109B1022007E00449C96801F073
:10155000100109B1032000E0042070470020024080
:101560000348006940F080000149086170470000AD
:101570000020024070B504460D460426F00200F03B
:1015800025F80646042E11D10948006940F00100F3
:10159000074908612580F00200F018F80646044863
:1015A000006941F6FE71084001490861304670BD8E
:1015B00000200240024803494860034848607047E1
:1015C0002301674500200240AB89EFCD00B50246FC
:1015D0000423FFF7ABFF034603E0FFF7A7FF034633
:1015E000521E012B01D1002AF7D102B9052318465A
:1015F00000BD000030B589B0474801F0B1FA04469B
:101600004648B0F84E0000128DF80400434890F8A8
:101610004E008DF805004148B0F8500000128DF8DA
:1016200006003E4890F850008DF807003B48B0F89F
:10163000520000128DF80800384890F852008DF8DA
:1016400009003648B0F8540000128DF80A003348FB
:1016500090F854008DF80B003048B0F85600001296
:101660008DF80C002D4890F856008DF80D002B4891
:10167000B0F8580000128DF80E00284890F8580075
:101680008DF80F002548B0F85A0042F20401884353
:1016900000128DF81000214890F85A000421884368
:1016A000C0B28DF811001D4890F866008DF8120048
:1016B0001A4890F867008DF81300184890F86800F1
:1016C0008DF81400154890F869008DF8150013483E
:1016D000B0F86A0000128DF81600104890F86A0001
:1016E0008DF81700142101A803F0C8F885B2A542AF
:1016F0000FD0102001F0FAFAFFF772FA0120084922
:10170000086001221146074802F025F8102006491A
:10171000087009B030BD00004C800108D8030020DB
:101720009C012242000C00402801002010B588B026
:101730003E48B0F84E0000128DF800003B4890F88B
:101740004E008DF801003948B0F8500000128DF8B5
:101750000200364890F850008DF803003348B0F886
:10176000520000128DF80400304890F852008DF8B5
:1017700005002E48B0F8540000128DF806002B48E2
:1017800090F854008DF807002848B0F85600001271
:101790008DF80800254890F856008DF80900234878
:1017A000B0F8580000128DF80A00204890F8580050
:1017B0008DF80B001D48B0F85A0042F2040188432E
:1017C00000128DF80C00194890F85A000421884343
:1017D000C0B28DF80D00154890F866008DF80E0027
:1017E000124890F867008DF80F00104890F86800D4
:1017F0008DF810000D4890F869008DF811000B4825
:10180000B0F86A0000128DF81200084890F86A00DB
:101810008DF813001421684603F030F884B2214695
:10182000034802F03DFB08B010BD0000D8030020C3
:101830004C80010810B500241E480088B0F5C87F10
:1018400030DD00201B4908801B48408848B31B48F6
:1018500000884FF6FF7101EA4000184908801848D7
:101860000068012823D103F06DF8154800680128AD
:1018700006D11248008840F001001049088006E0B7
:101880000E4800884FF6FE7108400C4908800B484E
:1018900000884FF6FF71884209D10E20FFF720F92A
:1018A000044604E003480088401C024908802046A2
:1018B00010BD000032010020020100203401002090
:1018C0002401224230B500228B071C0F0F2303FA9C
:1018D00004F20B4B8C1053F824309343084C8D10BA
:1018E00044F8253023468C1053F824308C07240FFD
:1018F00000FA04F42343024C8D1044F8253030BD27
:10190000080001402DE9F041024600250026002094
:1019100000230024002791F803C00CF00F0591F874
:1019200003C00CF0100CBCF1000F03D091F802C002
:101930004CEA050591F800C0BCF1000F31D01468E5
:1019400000202BE04FF0010C0CFA00F3B1F800C0BE
:101950000CEA03069E4220D183004FF00F0C0CFAD4
:1019600003F7BC4305FA03FC4CEA040491F803C0F6
:10197000BCF1280F06D14FF0010C0CFA00FCC2F8A4
:1019800014C00AE091F803C0BCF1480F05D14FF034
:10199000010C0CFA00FCC2F810C0401C0828D1D37E
:1019A0001460B1F800C0BCF1FF0F34DD54680020B2
:1019B0002EE000F1080C4FF0010808FA0CF3B1F822
:1019C00000C00CEA03069E4221D183004FF00F0CA9
:1019D0000CFA03F7BC4305FA03FC4CEA040491F843
:1019E00003C0BCF1280F05D100F1080C08FA0CF86F
:1019F000C2F8148091F803C0BCF1480F07D100F180
:101A0000080C4FF0010808FA0CF8C2F81080401CCE
:101A10000828CED35460BDE8F0810000F0B50A4636
:101A2000002300240021002500F00046B6F1004FFD
:101A300002D11D4EF16901E01B4E7168C0F30345F0
:101A400083B200F44016B6F5401F08D121F0706152
:101A5000154E766826F07066134F7E6012E000F433
:101A60008016B6F5801F06D1032606FA05F4A143B9
:101A700041F0706106E0460D360103FA06F6B14307
:101A800041F0706122B1460D360103FA06F631438A
:101A900000F00046B6F1004F02D1034EF16101E0C3
:101AA000014E7160F0BD00000000014010B500F073
:101AB0001DF800F003F8FFF7CFFC10BD70B5084D1E
:101AC000002406E00749085D00F09CFA01C5601C8F
:101AD000C4B2054800788442F4DBFFF7BFF870BD5C
:101AE000E0030020C20F0020640100202DE9F04F28
:101AF00087B04FF0000900BF002405E0764800EBF6
:101B0000041000888144641C142CF7D31420B9FB02
:101B1000F0FA5046FEF74BFD07464FF066326F4B2A
:101B2000FEF753FC054600226D4BFEF7C0FC002279
:101B30006C4BCDE90001FEF748FC6B4A6B4BCDE9DD
:101B40000201FEF7B4FCCDE90401FEF751FD68493E
:101B500048704FF00009002405E05F4800EB0410D6
:101B6000C0888144641C142CF7D31420B9FBF0F016
:101B70000490FEF71CFD07464FF06632574BFEF708
:101B800024FC05460022564BFEF791FC8246FEF7E8
:101B90008BFD059003F0F0FB554908714FF00009EB
:101BA000002405E04C4800EB041000898144641CCB
:101BB000142CF7D31420B9FBF0FB5846FEF7F7FCC2
:101BC00005464FF06632454BFEF7FFFB0746002205
:101BD000434BFEF76CFCCDE90401FEF765FD824640
:101BE00003F0CAFB424948714FF00009002405E0A8
:101BF000394800EB041040898144641C142CF7D34D
:101C00001420B9FBF0F00490FEF7D1FC05464FF02C
:101C10006632324BFEF7D9FB07460022304BFEF707
:101C200046FC8246FEF740FD059003F0A5FB3049D7
:101C300088714FF00009002405E0274800EB0410EC
:101C400080898144641C142CF7D31420B9FBF0FB69
:101C50005846FEF7ACFC05464FF066321F4BFEF7C8
:101C6000B4FB00221E4BCDE90401FEF720FC074621
:101C7000FEF71AFD824603F07FFB1D49C8714FF045
:101C80000009002405E0144800EB0410C0898144D9
:101C9000641C962CF7D39620B9FBF0FA5046FEF759
:101CA00086FC07464FF066320C4BFEF78EFB002297
:101CB0000B4BCDE90401FEF7FAFB0546FEF7F4FCF9
:101CC0000B4988640B480078012802D10846407807
:101CD000887007B0BDE8F08F5405002066660A40A2
:101CE0000000B04000005A409A9999999999014092
:101CF000D80300200000002000BFFEE710B5002040
:101D00000949086000F046FF00200849C1F89C011D
:101D100000F00EF801200449086000F009F80020E6
:101D20000249C1F8980110BD9881214200802142EA
:101D300000BF00BF00BF00BF00BF704710B500204C
:101D40000949086000F026FF01200849C1F89C01FC
:101D5000FFF7EEFF012004490860FFF7E9FF0020CC
:101D60000249C1F8980110BD9881214200802142AA
:101D700070B50546002400F0FDFE002614E00020AA
:101D80000E490860FFF7D4FF01200D49C1F8980102
:101D90006006040E09487C38006808B1601CC4B2B3
:101DA000FFF7C6FF701CC6B2082EE8DB15B9FFF7B7
:101DB000C5FF01E0FFF7A2FF204670BD98812142D8
:101DC0000080214270B5044600F0E4FE00200E4978
:101DD0000860002514E0E0090B49091D0860600651
:101DE000040EFFF7A5FF01200849C1F89801FFF78D
:101DF0009FFF002004490860FFF79AFF681CC5B2E6
:101E0000082DE8DB70BD000098812142008021424E
:101E100010B500F0BFFE0120084908600849C1F86C
:101E20009801FFF785FF002004490860FFF780FF55
:101E300000200349C1F8980110BD00009C81214297
:101E40000080214210B500F0A5FE0020074908607F
:101E50000749C1F89C01FFF76BFF012003490860A7
:101E60000349C1F89C01FFF763FF10BD988121422F
:101E70000080214210B5002400F07CFE01200E49B4
:101E80000860FFF755FF01200C49C1F89801FFF7E2
:101E90004FFF07E0601CC4B2FA2C03DDFFF7D2FF4E
:101EA000012010BD0448803800680028F2D10249A2
:101EB000091F086000BFF4E79C8121420080214295
:101EC00038B54FF400650121082000F00FFBC02059
:101ED000ADF8000014208DF8030003208DF80200F7
:101EE00069462048FFF70EFD01201F4908601F4981
:101EF000C1F89C01002414E01D49085D002100F098
:101F00003DF84FF6FF71884209D01948015D194824
:101F100002780078401C174B187017488154601CD9
:101F2000C4B2102CE8DB13480078062802DB062038
:101F30001049087000240FE00F49085D43F6F712BE
:101F4000002100F041F80C49085D4FF400620521C2
:101F500000F03AF8601CC4B2064800788442EBDB1B
:101F600038BD0000000C01409881214200802142D0
:101F70005401002064010020C20F002070B5044607
:101F80000D460026FFF744FF04F0FE00FFF71AFF9E
:101F9000FFF770FF2846FFF715FFFFF76BFFFFF70E
:101FA00037FF44F00100FFF70DFFFFF763FF01204B
:101FB000FFF7DEFE06460020FFF7DAFE40EA0626BF
:101FC000FFF740FF304670BD70B505460E4614461B
:101FD000FFF71EFF05F0FE00FFF7F4FEFFF74AFFD4
:101FE0003046FFF7EFFEFFF745FF200AFFF7EAFE56
:101FF000FFF740FFE0B2FFF7E5FEFFF73BFFFFF71B
:1020000021FF70BD2DE9F047814604214846FFF7C6
:10201000B5FF044604F4004008B1C4F30E042046A2
:10202000FEF7C5FA0746044A044BFEF7CEF905460B
:10203000FEF73AFBBDE8F087FCA9F1D24D62503FB4
:102040000146CA1701EB92729210A1EB820292B97B
:10205000642091FBF0F200FB121050B94FF4C870ED
:1020600091FBF0F200FB121008B90120704700202C
:10207000FCE70120FAE70020F8E700BFFEE7704721
:1020800070B5002100230F22C47804B3154C2468D6
:1020900004F4E064C4F5E064210AC1F10403CA4019
:1020A000447804FA03F184781440214309010E4C6A
:1020B0000678A155047804F01F050124AC4005788A
:1020C0006D11AD0005F1E025C5F8004109E0047887
:1020D00004F01F050124AC40044D0678761145F844
:1020E000264070BD0CED00E000E400E080E100E07F
:1020F00002490143024A1160704700000000FA05DE
:102100000CED00E070B50024604890F85A00C0F370
:102110004000002841D05E48007800283CD15B4850
:102120008078052838DD59498868FEF77AFA05462F
:102130004FF03332574BFEF79FFA2DD256480088A6
:102140004FF6FF7101EA4000534908804F49886CFF
:10215000FEF767FA05460022504BFEF78DFA0AD8C3
:102160004F480068012806D14B48008840F0010024
:102170004949088006E0484800884FF6FE7108404B
:1021800045490880444800884FF6FF7188427AD15B
:102190000220FEF7A5FC044675E03C4890F85A0082
:1021A000C0F34000D8B33A480078C0BB37488078C5
:1021B000052834DD35498868FEF733FA05464FF0C7
:1021C0003332344BFEF758FA29D2334800884FF6A1
:1021D000FF7101EA4000304908802C49886CFEF705
:1021E00020FA054600222D4BFEF746FA06D82A486B
:1021F000008840F001002849088006E02648008851
:102200004FF6FE71084024490880234800884FF6A5
:10221000FF71884203D10220FEF762FC04461B488E
:1022200090F85A0000F0010068B31948007850BBDC
:1022300016488078052826DD14498868FEF7F1F9EC
:1022400005464FF03332134BFEF716FA1BD21448F3
:102250000068012806D11348008840F001001149A8
:10226000088006E00F4800884FF6FE7108400D49CF
:1022700008800C4800884FF6FF71884203D1012086
:10228000FEF72EFC0446204670BD0000D803002057
:10229000260100203333E33F2E01002000000A40D6
:1022A000048121422C01002010B54FF48030FFF74B
:1022B0006FF80B480068401C0949086072B601219C
:1022C0004FF0C05000F002F9012000F00BF8044874
:1022D00001782820FEF766FDFEF74AFC10BD0000DD
:1022E000AC030020014908627047000000000E4264
:1022F0004649087009787F2901D1012100E00021B9
:10230000434A12780AB9012200E00022114011B1BB
:1023100001213F4A11703E490978082972D2DFE84D
:1023200001F071040E253C444C647F21394A117040
:102330000021394A11700221354A117063E0354994
:102340008978324A127842EA0121324A5180324970
:102350000978491C304A117011460978022904D1C4
:102360000021117003212A4A11704CE02949097992
:10237000264A127842EA0121264A918026490978A4
:10238000491C254A117011460978022904D10021FF
:10239000117004211E4A117035E01C4909781D4A4C
:1023A000917105211A4A11702DE018490978194ACE
:1023B000D1710621164A117025E014490A78154991
:1023C0000831154B1B78CA5413490978491C124A25
:1023D00011701049C9791278914205D100210E4A35
:1023E000117007210A4A11700DE008490978094A5D
:1023F00082F807110021064A11700121074A117065
:1024000001E0FFE700BF00BF7047000009010020A6
:10241000060100204C0400200A01002001000020D9
:102420007047000010B5002416480078182822DDF7
:102430000020144908701448008808B31348006845
:10244000A8B9012002F07EFA10480068C0B910480F
:102450000078401C0E4908700846007832280FDDCD
:10246000002008700320FEF73BFB044608E0002034
:102470000749087004E003480078401C01490870CF
:10248000204610BD30010020020100203081214291
:102490003101002001460020034A506820F44040EA
:1024A00008435060704700000010024029B1064AFE
:1024B00052690243044B5A6104E0034A5269824361
:1024C000014B5A61704700000010024029B1064AD2
:1024D000D2690243044BDA6104E0034AD2698243C1
:1024E000014BDA61704700000010024029B1064A32
:1024F00092690243044B9A6104E0034A9269824361
:10250000014B9A61704700000010024029B1064A51
:10251000D2680243044BDA6004E0034AD268824383
:10252000014BDA607047000000100240014908606A
:10253000704700004004424230B5002100220024D0
:1025400000232D4D6D6805F00C0121B1042905D043
:10255000082923D105E0294D056022E0274D0560BB
:102560001FE0254D6D6805F47012234D6D6805F46C
:102570008034022505EB92421CB9214D554305607C
:102580000BE01D4D6D6805F400351DB11C4D554324
:10259000056002E0194D5543056002E0174D0560E6
:1025A00000BF00BF144D6D6805F0F0010909154D1D
:1025B0006B5C0568DD4045600F4D6D6805F4E061BA
:1025C000090A104D6B5C4568DD4085600A4D6D68F9
:1025D00005F46051C90A0B4D6B5C4568DD40C56070
:1025E000054D6D6805F44041890B074D6B5CC5686E
:1025F000B5FBF3F5056130BD0010024000127A0012
:1026000000093D00C4030020D403002010B501469A
:102610000022002300204A11012A02D1094C23681C
:1026200006E0022A02D1074C236A01E0054C636AE6
:1026300001F01F02012494401C400CB1012000E075
:10264000002010BD0010024000210B4A11700A4A00
:10265000203A82F82010012802D0042808D103E093
:102660000121054A117004E00521034A117000E0C0
:1026700000BF00BF70470000201002400149086001
:10268000704700003C0442420249096A0143014A82
:102690001162704700100240024909888143014AD3
:1026A00011807047042800400348008840F0100063
:1026B0000149088070470000042800400348008852
:1026C0004FF6EF7108400149088070470428004028
:1026D0002DE9F04100260024002500F07DF8064693
:1026E00007463948B6FBF0F438480088A0423CD091
:1026F00036490C8040F2B27510E02846FFF7A0FC86
:1027000040B1B4F5B77F02D3A4F5B77404E0681CF8
:1027100085B206E0A4F26D14681C85B2B4F5B67FEC
:10272000EBD800BF2A480580002516E02849088814
:10273000FFF786FC30B1012D04D11D2C01D31D3CC7
:1027400009E00CE02348405DA04203D82148405DE9
:10275000241A00E003E0681C85B21C2CE6D200BFFE
:10276000681C1B494880601C88801748B6FBF0F144
:1027700000FB11644FF46160B4FBF0F01449C880B1
:102780004FF46160B4FBF0F100FB11403C21B0FB61
:10279000F1F00F4908814FF46160B4FBF0F100FBE8
:1027A00011403C21B0FBF1F201FB120008494881C5
:1027B0000B461A799978188800F02AF8044988811C
:1027C0003846BDE8F0810000805101000C01002076
:1027D000B40F0020D0580008002103480188001FD2
:1027E000008841EA004070471C2800400146002054
:1027F000064A12880A40D0B2044A121F12880A40C0
:1028000012B108B1012000E0002070470428004008
:10281000F0B503460C461546642093FBF0F0C6B2B3
:10282000642093FBF0F700FB1730C1B2132E02DDDA
:1028300001F16400C1B20846CF1701EB977701EBB5
:10284000A707BAB2072092FBF0F700FB172082B26D
:102850005719601EDFF82CC01CF80000384482B203
:10286000CF1701EB9777BF10A1EB87071FB9032C98
:1028700001DA501E82B2072092FBF0F700FB17200E
:10288000C0B2F0BDC458000810B50220FFF7AEFF7B
:1028900050B10220FFF700FF00F022F902F024FC03
:1028A0000021022000F006F80720FFF7F5FE00F0F7
:1028B00017F910BD29B1064A12880243044B1A8049
:1028C00004E0034A12888243014B1A8070470000DB
:1028D00000280040FEB5002401214FF0C050FFF752
:1028E000F5FD0120FFF7FEFC0420FEF74DFA45F24E
:1028F000AA5188424BD0FEF73FFA0120FFF7A4FE11
:1029000004E0601CC4B20A2001F0F6FF4120FFF78A
:102910007DFE0028F5D0FA2C01DB0120FEBD4FF42E
:102920008070FFF7B1FE0120FFF7A8FE00F0D8F895
:1029300000F0E0F800210120FFF7BCFF0021022099
:10294000FFF7B8FF00F0CCF8FFF7AEFE47F6FF70D8
:1029500000F0B6F800F0C4F81648807A1549097AF4
:10296000144ECDE90010B3793279B178308800F097
:1029700025F8FFF7A3FEFFF72FFF05460E48284472
:1029800000F082F845F2AA510420FEF70BFA03206A
:102990008DF8080000208DF809008DF80A0001204C
:1029A0008DF80B0002A8FFF76BFBFFF791FE0020EC
:1029B000B4E70000B858000800A776002DE9F05FE2
:1029C00006460F4690469946DDE90AAB002440F2E0
:1029D000B270864203DB40F63300864202DD0120FE
:1029E000BDE8F09F40F2B2750AE02846FFF728FBE9
:1029F00010B12148044401E020480444681C85B219
:102A0000B542F2DB002510E01D48405D40F2A321F5
:102A1000484304EBC0143046FFF712FB18B1012DF8
:102A200001D118480444681C85B2781EA842EBDC2A
:102A3000A8F1010040F2A321484304EBC014C9EB04
:102A40004910C0EB092004EB0014CAEB0A1004EB98
:102A500080045C4401214FF0C050FFF737FD012096
:102A6000FFF740FC204600F01DF800F039F8FFF7B2
:102A70002FFE0020B4E700000085E2018033E10171
:102A8000D05800088051010000B50246FFF70CFE47
:102A9000100C03490880091D0A80FFF70FFE00BDD6
:102AA0002028004000B50246FFF7FEFD100C034948
:102AB0000880091D0A80FFF701FE00BD18280040AC
:102AC00000B50246FFF7F0FDC2F30340034908805A
:102AD000091D0A80FFF7F2FD00BD00000828004034
:102AE00000BF0348008800F020000028F9D070479C
:102AF00004280040074800884FF6F7710840054950
:102B0000088000BF0348008800F008000028F9D0C2
:102B1000704700000428004070B5054600260F48A5
:102B200000F01EF804B2142C14DC601B401E04B22A
:102B3000002C02DA04F1140004B2002C0BDB142C7C
:102B400009DA0649891C0C2202FB041000F008F87F
:102B5000C6B200E00026304670BD0000000002084A
:102B600018B5044601226946204600F023F8BDF856
:102B7000000018BD10B58020044908804820C870A6
:102B8000032088700248FEF7BDFE10BD50010020F2
:102B9000000C014010B58020044908801420C87042
:102BA000032088700248FEF7ADFE10BD50010020E2
:102BB000000C014030B503460C461546002207E0E4
:102BC000184600F008F824F812009B1C501C82B232
:102BD000AA42F5DB30BD0146088870472DE9F05F59
:102BE00080468A461746B8F1006F02D333488045C5
:102BF00001D3BDE8F09FFEF7DDFCA8F1006B4FEAC2
:102C0000DB25CBF34909C9F58064A74200DC3C46CB
:102C10004DE04FF0006101EBC5204A142849FFF751
:102C2000C9FF00260BE009EB0600254931F810002A
:102C30004FF6FF71884200D003E0701C86B2A642B6
:102C4000F1DB00BFA6421BDA4FF0006101EBC520AB
:102C5000FEF746FC002608E03AF8160006EB0901EC
:102C6000174A22F81100701C86B2A642F4DB4FF01E
:102C7000006101EBC5204A14114900F023F804E07B
:102C800022465146404600F01DF8A74200D10FE011
:102C90006D1C4FF000090AEB440AA044381B87B2B0
:102CA000B7F5806F02DD4FF4806400E03C46B0E78A
:102CB00000BFFEF755FC00BF9BE7000000000408C2
:102CC000021300202DE9F04105460E461746002468
:102CD00007E036F814102846FEF74CFCAD1C601CCB
:102CE00084B2BC42F5DBBDE8F081704710B5044604
:102CF0000320094988710120C87104200872084620
:102D000044728079C01DC1B2034801F0A7FE024998
:102D10008872FEF799FA10BD0200002000B58DB050
:102D2000182201A93748FFF745FF1D203649887151
:102D30000120C87105200872BDF804004872BDF872
:102D4000060000128872BDF80600C872BDF80800BF
:102D50000873BDF80A004873BDF80C008873BDF80D
:102D60000E00C873BDF810000874BDF81200487456
:102D7000BDF814008874BDF816000012C8749DF8E0
:102D8000160008759DF8180048759DF81A0088759A
:102D90009DF81C00C8759DF81E00087601A8007FEC
:102DA000487601A8807F8876BDF82400C876BDF8F3
:102DB0002600001208779DF8260048779DF8280025
:102DC00088779DF82A00C8779DF82C0081F82000AC
:102DD0009DF82E0081F821009DF8300081F8220036
:102DE0009DF8320081F8230008468079C01DC1B2E9
:102DF000054801F033FE044981F82400FEF724FA67
:102E00000DB000BD1280010802000020FEB505468D
:102E1000142D59DA3E48FFF7A3FE0446601984B228
:102E2000132C02DDA4F1140084B2142C6FDA38499B
:102E3000891C0C2202FB041005226946FFF7BAFE2A
:102E40000720344988710120C87107200872BDF835
:102E500000004872BDF80200A0F5FA608872BDF863
:102E60000400C872BDF806000873BDF80800487376
:102E700008468079C01DC1B2264801F0EFFD254902
:102E800088730846807A642801DA012000E0002077
:102E90002049C97A0C2901DC012100E00021084009
:102EA0001C49097B1F2901DC012100E000210840A9
:102EB0001849497B182901DC012100E00021084064
:102EC00008B1FEF7C1F922E01348FFF749FE0646B4
:102ED0001148801CFFF744FE074607200D49887102
:102EE0000120C871072008720020487238128872C9
:102EF000CF72301208734E7308468079C01DC1B27C
:102F0000044801F0ABFD03498873FEF79DF9FEBD4F
:102F100000000208020000200010020870B5FFF750
:102F2000D7FBFFF7E7FD724800782E3071498871B2
:102F30000120C871062008726F4890F84E00487250
:102F40006D4890F8500088726B4890F85200C87233
:102F5000694890F854000873674890F85600487321
:102F6000654890F8580088736348B0F85A40634841
:102F70004088012802D144F4005401E024F40054B4
:102F80005E480088012802D144F0040401E024F0E6
:102F9000040420125749C8730C74574890F85C0019
:102FA0004874554890F85E008874534890F85D0066
:102FB000C8745148B0F86000001208754E4890F887
:102FC000600048754C4890F8620088754A4890F84F
:102FD0006300C875484890F864000876464890F841
:102FE0006500487646480088001288764448007894
:102FF000C876434880780877414800794877404848
:10300000807988773E48007AC8773D48807A81F891
:1030100020003948807881F821003748007981F80C
:1030200022003548407981F823003348807981F8BF
:1030300024003148C07981F825002D48007881F8B6
:1030400026002D4890F8660081F827002A4890F85D
:10305000670081F82800284890F8680081F8290066
:10306000254890F8690081F82A002348B0F86A00E2
:10307000000A81F82B00204890F86A0081F82C00A3
:103080001D4890F86E0081F82D001B48B0F86C00C8
:10309000000A81F82E00184890F86C0081F82F0083
:1030A000002081F8300081F8310081F8320081F889
:1030B000330081F83400002507E01248415D05F136
:1030C00035000C4A1154681CC5B209480078854285
:1030D000F3DB08488079C01DC1B2064801F0BEFC90
:1030E000034909783531034A5054FEF7ADF870BDF5
:1030F0006401002002000020D8030020020100200B
:10310000B40F0020D20F002010B500F001F810BD60
:103110000CB50020019000903348006840F48030E6
:103120003149086000BF3048006800F4003000906A
:103130000198401C0190009818B90198B0F5A06F53
:10314000F1D12948006800F4003010B1012000904E
:1031500001E0002000900098012843D12348006836
:1031600040F01000214908600846006820F0030084
:1031700008600846006840F0020008601A4840688D
:10318000194948600846406848600846406840F46D
:10319000806048600846406820F47C10486008461B
:1031A000406840F4E81048600846006840F08070CD
:1031B000086000BF0C48006800F000700028F9D0DB
:1031C0000948406820F00300074948600846406805
:1031D00040F00200486000BF0348406800F00C0067
:1031E0000828F9D10CBD0000001002400020024068
:1031F0002DE9F14F90B03149B1F85800FDF7D7F9FA
:10320000074600222E4BFDF752F90546FDF74CFA12
:103210000E904FF000094846FDF703FACDE904018E
:103220001098FDF7C4F9CDE9020149460E98FCF764
:10323000EDFF0190FDF7F5F905460022214BFDF762
:1032400036F90746DDE90223FDF7BFF88246DDE9DE
:103250000423FDF713F81C4A1C4BCDE90601FDF7CA
:10326000B4F8194A1A4BCDE90801FDF707F8002216
:10327000184BCDE90A01FDF7A8F8CDE90C01FDF7DF
:1032800013FA044614492046FCF7C6FF8346FDF7AF
:103290009BF91FFA80FA5046FDF789F9074600228C
:1032A000084BFDF704F90546FDF7FEF904462146F3
:1032B000012000F031FB11B0BDE8F08FD8030020F1
:1032C00000002440000059407B14AE47E17A943F4F
:1032D000E17A743F000007400000C84270B5044620
:1032E0000D4600210E4800F07DFA00200C492431E3
:1032F00008800C48B0FBF4F0401E09492C310880CE
:103300000848B0FBF4F068436421B0FBF1F00449D5
:10331000403108800821024800F064FA70BD0000C6
:10332000002C01404019010010B500240748006836
:10333000012809D101F006FB04480068012803D1E7
:103340000F20FDF7CDFB0446204610BD2001224290
:10335000042808D14FF0E021096941F004014FF041
:10336000E022116107E04FF0E021096921F004013A
:103370004FF0E022116170477047000010B513480C
:10338000006840F001001149086008464068104993
:1033900008400E494860084600680E4908400B493D
:1033A00008600846006820F48020086008464068ED
:1033B00020F4FE0048604FF41F008860FFF7A4FE71
:1033C0004FF000600449086010BD0000001002408A
:1033D0000000FFF8FFFFF6FE08ED00E010B5012148
:1033E000880700F0A7F9002858D02D4890F85C0015
:1033F00040B9FEF75BFB2B48007818B9FDF7E2FCFB
:103400002849087028480078642817D12548007892
:10341000A0B12648007888B900202349087001200F
:103420002349086001221146224800F094F92248FD
:103430000078FFF75BFC01201C4908701A480178EE
:103440000078401C184A1070962921D1002011469E
:1034500008701A480078152809DA18480078FFF72C
:10346000D5FC16480078401C1449087012E0144836
:10347000007808B9FFF752FD11480078401C104948
:10348000087008460078032804DB0020087001E07B
:1034900000F008FE0121880700F02EF910BD0000A1
:1034A000D8030020420100204301002041010020F8
:1034B0009C012242000C004028010020070100204E
:1034C0004001002010B50121264800F033F9002802
:1034D00046D000202449887024490860FFF788FE00
:1034E00000202349C1F8A8011F48007810B100202E
:1034F000204908600020204908702048006820F416
:1035000070401E4908600846006840F4304008607A
:103510001848A8380068012819D10846006820F426
:10352000704008600846006840F440500860012080
:10353000114908700C48007810B101200D4908604D
:1035400000200F49086001200E49C1F8AC0100229B
:103550000121044800F0FFF80121024800F0CCF8F6
:1035600010BD000000040040D8030020AC0121423F
:1035700000002242B48121420000002004080140E2
:10358000A80122420000214210B501211E4800F08E
:10359000D1F8002837D01D4880780A282FDB1C4836
:1035A0000088401C1A490880084600883C2826DD0F
:1035B000002008801748FFF7D3FA1749088008460B
:1035C00000884AF6C00188420ADA13480088401C85
:1035D00011490880084601880E4800F061FC0EE0A1
:1035E00000210C4800F05CFC0A48801CFFF7B8FA88
:1035F000401C84B221460748801C00F051FC012188
:10360000014800F079F810BD00080040D803002000
:1036100046010020001002084401002010B50121DD
:10362000274800F087F8002849D0264890F85C0029
:10363000E8B125480078401C234908700846007806
:10364000022838DB002008702048006808B90120F3
:1036500000E000201D4908601D48D0F8B00108B9FD
:10366000012000E0002019491431086023E01948C6
:103670000078401C1749087008460078052809DBC7
:10368000002008701148006808B9012000E00020FF
:103690000E4908601048007828280CDA0E48007897
:1036A000401C0D49087008460078192803D10B48C2
:1036B000007800F0BDFB0121014800F01DF810BDAD
:1036C000000C0040D80300204A0100209C01224247
:1036D000000022424901002048010020280100206A
:1036E00021B1028842F08002028004E002884FF695
:1036F0007F731A4002807047CA430282704721B12B
:10370000028842F00102028004E002884FF6FE7354
:103710001A400280704731B1B0F8442042F40042B0
:10372000A0F8442005E0B0F84420C2F30E02A0F84F
:103730004420704730B50246002000230024158A3B
:1037400005EA0103958905EA010413B10CB10120D2
:1037500000E0002030BD1AB183890B43838102E071
:1037600083898B438381704770B500220023002436
:10377000058C4EF6FF7635400584038C8488828B59
:1037800048F6FF752A404FF6FF452A400D884FF650
:10379000FF7606EA05252A434DF6FF752B400D8975
:1037A00006EA05352B434D8806EA05352B430B4DBC
:1037B000A84202D00A4DA84208D14BF6FF752C4012
:1037C0008D894FF6FF7606EA85152C438480828327
:1037D000CD88A0F84050038470BD0000002C01404B
:1037E000003401400A460021818B4FF2FF731940DB
:1037F0004FF6FF7303EA02231943818370470000E9
:10380000002202881D4B98420ED01D4B98420BD0CF
:10381000B0F1804F08D01B4B984205D01A4B98420C
:1038200002D01A4B984204D14FF68F731A404B883E
:103830001A43174B984207D0164B984204D04FF6C4
:10384000FF431A40CB881A4302808B8883850B88FC
:1038500003850A4B98420BD0094B984208D00E4B77
:10386000984205D00D4B984202D00D4B984201D1A1
:103870000B7A03860123838270470000002C0140ED
:10388000003401400004004000080040000C0040EB
:10389000001000400014004000400140004401407E
:1038A0000048014070B50446A007040E002507E05B
:1038B00004F0800000F00AF86006040E681CC5B22F
:1038C000022DF5DB012000F001F870BD18B90021D0
:1038D000064A116002E00121044A11600121044AF4
:1038E00011600021034AC2F898117047BC8121423F
:1038F000980122420000224270B50446002507E0EC
:1039000004F08000FFF7E2FF6006040E681CC5B2F9
:10391000082DF5DB70BD00002DE9F04F85B0834622
:103920008A465046FCF77DFE804600224FF08043D9
:10393000FCF7BDFD00224FF08043CDE90001FCF70C
:10394000B6FD0022104BCDE90201FCF73EFD064614
:1039500000220E4BFCF733FD0446FCF749FEC0B2D3
:10396000049000200A4908605846FFF79BFF04981E
:10397000FFF7C2FF00200749C1F8B801012006493E
:10398000086005B0BDE8F08F000070400000F03F17
:103990009801224200802142B881214270B5002561
:1039A000494890F8544090F85A00C0F3C000E8B17C
:1039B000464800784006000E4449087042480079A5
:1039C000A04205DB0846007840F00100087005E0E1
:1039D0003E48007800F0FE003C4908703B48007803
:1039E000FF2803D10420FDF77BF80546364890F800
:1039F0005A00C0F30010E8B1354800784006000EC8
:103A00003349087030484079A04205DB0846007809
:103A100040F00100087005E02D48007800F0FE003D
:103A20002B4908702A480078FF2803D10520FDF7AC
:103A300057F80546244890F85A00C0F34010E8B102
:103A4000244800784006000E224908701E488079FC
:103A5000A04205DB0846007840F00100087005E050
:103A60001C48007800F0FE001A49087019480078D8
:103A7000FF2803D10620FDF733F80546124890F8D9
:103A80005A00C0F38010E8B1134800784006000ED9
:103A9000114908700C48C079A04205DB084600783F
:103AA00040F00100087005E00B48007800F0FE00CF
:103AB0000949087008480078FF2803D10720FDF75E
:103AC0000FF80546284670BDD803002036010020B7
:103AD00037010020380100203901002070B540F284
:103AE0002441164800F0E0F830B314480088C5B20D
:103AF0001248001D0088C5B200211148FDF7B0FA38
:103B00004FF48030FDF790FA0D48FDF75BFBC0F1F4
:103B10003C00C5B2002405E00A49085DFEF7E8FB59
:103B2000601CC4B2AC42F7DB3C2005495839C8657B
:103B300001210348FDF794FA70BD000000380140F0
:103B400058000240B40E002010B50121354800F0A5
:103B50009EF830B1334800F063F90121314800F09C
:103B600069F808212F4800F092F830B12D4800F094
:103B700057F908212B4800F05DF82021294800F072
:103B800086F801283BD1274800F04AF926490870F9
:103B90002648008800F4004088BB2448008800F4D0
:103BA000804070B1084600780A2803D000201F49E1
:103BB000088024E01D48008840F400401B4908802C
:103BC0001DE0194800780D2806D11848008840F4F7
:103BD00080401649088012E013480078134909888C
:103BE000C1F30D01124A505410480088401C0F497F
:103BF000088008460088092801DD0020088040F27E
:103C00002551084800F050F858B12021054800F02F
:103C100011F840F22551034800F015F8014800F072
:103C2000FFF810BD00440040A603002066010020FC
:103C3000021B002001F40072B2F5007F00D100BF2A
:103C4000CA430280704710B50022002340F66A1470
:103C5000A14200D100BF0A1201249440A3B2DC4368
:103C6000048010BD21B1828942F40052828104E0B7
:103C700082894DF6FF731A40828170471AB1838A98
:103C80000B43838202E0838A8B4383827047024620
:103C90000020B1F5007F00D100BF13880B400BB1AD
:103CA000012000E00020704770B502460024002388
:103CB0000025002040F66A16B14200D100BFC1F3D2
:103CC000421501F01F03012606FA03F3012D02D16C
:103CD0009689334006E0022D02D1168A334001E076
:103CE000968A33400C12012606FA04F416883440F2
:103CF00013B10CB1012000E0002070BDF0B5034607
:103D0000002400260025002040F66A17B94200D1A1
:103D100000BF1846C1F3421401F01F06012707FA3D
:103D200006F5012C01D10C3004E0022C01D1103039
:103D300000E014301AB107682F43076002E00768FB
:103D4000AF430760F0BD00002DE9F04786B005469F
:103D50000E460024A24600BFA1460027B08900B14C
:103D600000BF2F462C8A4CF6FF700440F0880443B5
:103D70002C82AC894EF6F3100440B0883189084398
:103D8000718908430443AC81AC8A4FF6FF4004407C
:103D9000B0890443AC8201A8FEF7CEFB1F488742DE
:103DA00002D1DDF810A001E0DDF80CA0A88900F434
:103DB000004040B10AEBCA0000EB0A10316849002C
:103DC000B0FBF1F807E00AEBCA0000EB0A1031681B
:103DD0008900B0FBF1F86420B8FBF0F00401200981
:103DE000642101FB1089A88900F4004040B1322011
:103DF00000EBC900B0FBF1F000F00700044308E05D
:103E0000322000EB09106421B0FBF1F000F00F004C
:103E100004432C8106B0BDE8F08700000038014063
:103E200001468888C0F30800704700BFFEE7000025
:103E30003EB50546FEF74CFCFEF75CFEADF80050C3
:103E400015480088ADF8020013484088ADF804001A
:103E500011488088ADF806000F48C088ADF808000A
:103E60000E48FEF77DFE0446142C04DB00210B48AF
:103E700000F016F800240949891C0C2202FB0410EA
:103E800005226946FEF7AAFE601C84B2214603485B
:103E900000F006F83EBD0000B40F0020000002084C
:103EA00013B50446012201A92046FEF797FE1CBD6A
:103EB00002E008C8121F08C1002AFAD170477047F3
:103EC000002001E001C1121F002AFBD17047000051
:103ED00000B591B0012140F21C60FEF707FB012103
:103EE0000846FEF7E3FA4FF44040FEF7D3FA00200D
:103EF0008DF82F00CE20ADF82C000BA95448FDF70B
:103F000001FD0120ADF82C000BA95248FDF7FAFC89
:103F10003020ADF82C000BA94F48FDF7F3FC4F48BB
:103F2000FDF7AAF84E4800904E48019000200290FC
:103F30004FF496600390002004908020059040008C
:103F40000690800007902020089000020990002031
:103F50000A9069464148FDF758F901213F48FDF7AD
:103F60007FF83F484C38FCF7DFFC00200C90012024
:103F70008DF834008DF835004FF460200E9000204D
:103F80000F9008208DF840000CA935484C38FCF7FC
:103F90000DFD05230122114631484C38FCF72EFD5A
:103FA0000523022211462E484C38FCF727FD052335
:103FB000032211462A484C38FCF720FD0523042231
:103FC000062127484C38FCF719FD05231A4607211E
:103FD00023484C38FCF712FD052306220E21204809
:103FE0004C38FCF70BFD052307220F211C484C38E9
:103FF000FCF704FD05230822114619484C38FCF74C
:10400000FDFC012116484C38FCF782FC01211448C4
:104010004C38FCF772FC12484C38FCF74BFD00BFE3
:104020000F484C38FCF7B8FC0028F9D10C484C3844
:10403000FCF750FD00BF0A484C38FCF7A3FC0028F1
:10404000F9D1012106484C38FCF739FD11B000BD0B
:1040500000080140000C014000100140080002402F
:104060004C240140540500203EB50C4A07CA8DE897
:10407000070000210A48FFF713FF00240AE008495F
:10408000891C0C2202FB041005226946FEF7A6FDDE
:10409000601CC4B2142CF2DB3EBD0000AC5800081A
:1040A000000002082DE9FC47FE48007801287DD178
:1040B0000020FC490870FC48407AFB49097A40EA34
:1040C0000120B0F5867F72D00BDCA0F201100B2826
:1040D0006ED2DFE800F023BBDAFCFBFAF9F86DF7EB
:1040E000F60040F20522811A90427DD00BDCB0F53B
:1040F000877F7AD0A0F20120002877D0012876D0DF
:10410000022855D167E3012972D0022971D0032911
:1041100070D0A1F604510029F3D18FE1E34890F863
:104120005C0000284BD1E048807A012875D1E04836
:1041300000780028F6D1DC48C07A64283FDCDA48F1
:10414000407B6428FADCD94890F86F00012837D109
:10415000D548C07A052878DD00220121D548FFF72F
:10416000FAFAD248007810B10120D3490860012042
:10417000D2490860CC48C07ACC498870084680781B
:104180000A2802DA0A20C87003E0C8488078C749C4
:10419000C870C649C878FFF72BF8052000F0D2FB9D
:1041A0000020C7490870C04A517B02E03AE342E16F
:1041B00036E3107BFFF792F80120C249087044E013
:1041C00000220121BB48FFF7C6FAB848007810B1B9
:1041D0000120B94908600120B8490860B248C07A96
:1041E000B2498870887806E001E35EE2A4E2B8E2B2
:1041F00000E303E305E3FEF7FBFF052000F0A2FB6D
:104200000020AF490870A84A517B107BFFF766F881
:104210000120AC49087018E0FFE70020A34988702E
:104220000120A74908700020FEF7E2FF00210A20C4
:10423000FFF754F89D48007810B100209E490860AF
:1042400000209E4908609F490870EAE29648807AFB
:104250009649A1F84E000846B0F84E109A48FFF76C
:104260001FFE9249B1F84E108800FCF78FF90746FF
:104270000022964BFCF71BF90546FCF715FA82461F
:1042800051460020FFF748FBCBE28748817A8748F8
:10429000A0F85010B0F850108B48801CFFF700FEBB
:1042A0008249B1F85000FCF782F907460022884B9A
:1042B000FCF7FDF80546FCF7F7F982465146032066
:1042C00006E0B5E09EE048E03BE02EE021E002E0C1
:1042D000FFF722FBA5E27448817A7448A0F85210D7
:1042E000B0F852107848001DFFF7DAFD6F49B1F8B9
:1042F0005200FCF75CF907460022754BFCF7D7F833
:104300000546FCF7D1F9824651460220FFF704FB2F
:1043100087E26548817A6548A0F85410B0F85410D7
:104320006948801DFFF7BCFD7BE25F48817A5F48EA
:10433000A0F85610B0F8561063480830FFF7B0FDEB
:104340006FE25948817A5948A0F85810B0F85810CF
:104350005D480A30FFF7A4FD63E25448B0F85A0004
:1043600042F2040120EA01044F48C17A807A41EA0E
:10437000002042F2040120EA01094C450DD04A48D0
:10438000C17A807A41EA00214848A0F85A10B0F872
:104390005A104D480C30FFF783FD4348C17A807AAC
:1043A00041EA002000F400543F48C17A807A41EA93
:1043B000002000F00409B4F5005F07D10120454951
:1043C000488001214448FFF76BFD06E00020414989
:1043D000488000214048FFF763FDB9F1040F08D180
:1043E00001203C49088001213B48801EFFF758FD11
:1043F00007E000203749088000213748801EFFF77A
:104400004FFD0EE2FEF750F92748007C2649C97B94
:10441000254DCDE90010EE7AAD7A46EA0520224D11
:10442000AB7B6A7B297BFEF7C9FAFEF747F9F8E117
:10443000FEF774FDF5E1FEF771FCF2E11A48807AAF
:10444000072875D000212448801CFFF729FD224849
:10445000801CFEF785FB154981F85C00FEF738F9F2
:10446000FEF73EFBFEF746FB01210220FEF722FA93
:10447000FEF736FBFEF718F90B48807A07285EDA5C
:104480000948807A072859D2DFE800F0042A323A36
:10449000424A5300FEF7A0F9104945182846FEF796
:1044A000F3FA4BE0010000204C040020D803002068
:1044B0000000002000040040B4812142A8012242F3
:1044C00026010020080100200280010800408F40E2
:1044D000000024400201002006900108008D270002
:1044E000FEF77AF9D04945182846FEF7CDFA25E0BF
:1044F000FEF772F9CD4945182846FEF7C5FA1DE0CA
:10450000FEF76AF9CA4945182846FEF7BDFA15E0D4
:10451000FEF762F9C74945182846FEF7B5FA0DE0DF
:10452000FEF75AF9C44945182846FEF7ADFA05E0EA
:104530009EE000210220FEF7BDF900BF11E0FEF76A
:104540004BF9BE49897AC91F01EB4101C900C1EB92
:1045500001118900C1EB011100EB81052846FEF72E
:1045600093FAFEF7BDFAFEF7A9F8B448817AB44889
:10457000FFF796FCB248801CFEF7F2FA401C85B2A9
:104580002946AF48801CFFF78BFCAE480188AC4839
:104590000E38FFF785FCAB484188A9480C38FFF777
:1045A0007FFCA8488188A6480A38FFF779FCA5480F
:1045B000C188A3480838FFF773FCA2480189A048C6
:1045C000801FFFF76DFC9E48801CFEF7C9FA9E49CC
:1045D00081F85D009A48FEF7C3FA9B4981F85E00B6
:1045E00097481038FEF7BCFA974981F85C00944868
:1045F0000E38FEF7B5FA9449A1F8600090480C38DF
:10460000FEF7AEFA904981F862008D480A38FEF74D
:10461000A7FA8D4981F8630089480838FEF7A0FAA7
:10462000894981F864008648801FFEF799FA864917
:1046300081F86500002201218448FFF78CF8844846
:10464000006840F00800824908600846006840F0B1
:104650001000086001207F49086000207E49C1F8F1
:10466000A8017C4914390860FF20FFF7E1FB1BE03B
:1046700001217348801CFFF713FC00217748FFF7E6
:104680000FFC00217548801CFFF70AFCFFF7ECFCCB
:104690006B48801CFEF764FA6B4981F85D000021CD
:1046A0006748801DFFF7FCFBBBE06448807A542814
:1046B00041D06248817A6A48FFF7F2FB5F48C17ACD
:1046C0006748801CFFF7ECFB5C48017B6448001DD9
:1046D000FFF7E6FB5948417B6148801DFFF7E0FB8F
:1046E0005648C27B807B42EA00215D480830FFF7D4
:1046F000D7FB5B48FEF734FA534981F86600584807
:10470000801CFEF72DFA504981F867005448001DBF
:10471000FEF726FA4C4981F868005148801DFEF7E3
:104720001FFA494981F869004D480830FEF718FA28
:104730004549A1F86A0074E04048807A40B1012000
:104740004849088001213E481438FFF7A9FB07E0DB
:10475000002044490880002139481438FFF7A0FBA5
:104760005FE03648807A012825D13749087008462D
:1047700001783348001DFFF793FB3B48007850B9A0
:104780003A480078012802D13949086022E0002027
:10479000374908601EE03448007801281AD13448AF
:1047A000A838006818B900203149086012E00120DB
:1047B0002F4908600EE02148807A58B9002022492C
:1047C0000870084601781E48001DFFF769FB0120AC
:1047D0002749086025E025480078012806D11748B8
:1047E000807A194988708878FEF702FD19E000F098
:1047F0007BFC16E000201F49087012E0FCF796FFD2
:104800000FE01D48007850B10F4890F86E00411C31
:104810000B48801DFFF744FB00201749087000E09B
:1048200000BF00BFBDE8FC87001A4F0000A776005C
:1048300000349E0000C1C500004EED004C04002075
:1048400018900108B40F0020D8030020000C00408D
:1048500000040140B0012242000022420010020880
:104860004280010802010020000000200801002011
:10487000B4812142070100200B01002070B50246DF
:104880000C46FF25FF2309E012F8010B80EA050121
:104890000648405C80EA03050548435C2000A4F11B
:1048A0000106F4B2F0D145EA032070BDF4580008C7
:1048B000F459000810B56FF00400FEF749FD0A48EE
:1048C00000680A49B0FBF1F0094908700846007811
:1048D00000EB4001C1EBC0104FF6FF7101EAC000D0
:1048E0000449088010BD0000B003002000127A00C7
:1048F0004C0100204E0100200146114A12884A4313
:104900004FF0E0235A6100229A611A46126942F080
:1049100001021A6100BF4FF0E022106900F00102AD
:104920001AB100F48032002AF5D04FF0E02212696B
:1049300022F001024FF0E0231A6100229A617047D1
:104940004E0100200146114A12784A434FF0E023FD
:104950005A6100229A611A46126942F001021A61F4
:1049600000BF4FF0E022106900F001021AB100F41C
:104970008032002AF5D04FF0E022126922F00102C5
:104980004FF0E0231A6100229A6170474C01002029
:104990000EB501211D20FDF7A9FD04210120FCF722
:1049A00091FF1020019000208DF8080008208DF85C
:1049B000090001208DF80A0001A8FCF703FD0A2078
:1049C0008DF8000000208DF8010001208DF8020014
:1049D0008DF803006846FDF753FB03210120FCF727
:1049E00071FF0820019000208DF808000C208DF840
:1049F000090001208DF80A0001A8FCF7E3FC09205A
:104A00008DF8000000208DF8010001208DF80200D3
:104A10008DF803006846FDF733FB05210120FCF704
:104A200051FF2020019000208DF8080010208DF803
:104A3000090001208DF80A0001A8FCF7C3FC17202B
:104A40008DF8000000208DF8010001208DF8020093
:104A50008DF803006846FDF713FB0EBD30B5024626
:104A60000B460020002111E0555C6840002409E05D
:104A700000F001051DB1512585EA600000E04010FD
:104A8000651CECB2082CF3DB4D1CE9B29942EBDB60
:104A900030BD00002DE9F05F06460F46904699466E
:104AA000DDE90AAB002440F2B270864203DB40F637
:104AB0003300864202DD0120BDE8F09F40F2B2756E
:104AC0000AE02846FDF7BCFA10B11948044401E099
:104AD00018480444681C85B2B542F2DB002510E09A
:104AE0001548405D40F2A321484304EBC014304612
:104AF000FDF7A6FA18B1012D01D110480444681C35
:104B000085B2781EA842EBDCA8F1010040F2A32197
:104B1000484304EBC014C9EB4910C0EB092004EB77
:104B20000014CAEB0A1004EB80045C442046C3E77F
:104B30000085E2018033E101D05800088051010076
:104B400008B501210846FDF7D1FC01213B48FCF7DF
:104B500065FF01213C20FDF7C9FC4FF4C050ADF8C2
:104B6000000010208DF8030003208DF80200694634
:104B70003348FCF7C7FE0020324908603249C1F8CB
:104B8000B0014FF40050ADF8000069462F48FCF723
:104B9000B9FE01202E4908604FF4E450ADF8000042
:104BA00069462C48FCF7AEFE01202B49C1F8B00144
:104BB0000420ADF8000069462848FCF7A3FE012058
:104BC0002749086041F23B00ADF8000004208DF851
:104BD000030003208DF8020069461C48FCF792FE92
:104BE0004FF44070ADF8000069461A48FCF78AFEA1
:104BF00000201C49086001201A490839086016493C
:104C0000C1F8AC014FF4FA70FFF776FE00201549A9
:104C1000143908604FF4FA70FFF76EFE4FF4FA7023
:104C2000FFF76AFE01200F49086000200D4908398E
:104C300008600D49C1F8880108BD0000000230007D
:104C400000080140AC01214200002142000C01405B
:104C5000B4812142001001400000224200140140B2
:104C600088812242B0012242008022422DE9F8438D
:104C7000FE48FDF775FF4FF6FF7188427DD1002099
:104C800000904620FA49A1F84E001221F848A0F8F9
:104C900050101121A0F852102821A0F85410C8215A
:104CA000A0F856106E21A0F85810FF21A0F85A1055
:104CB0000120EF490870002081F85C0081F85D0058
:104CC000072081F85E0008460178EA48FFF7E8F817
:104CD000E748B0F84E10E548801CFFF7E1F8E448DB
:104CE000B0F85010E148001DFFF7DAF8E048B0F8DE
:104CF0005210DE48801DFFF7D3F8DD48B0F854109D
:104D0000DA480830FFF7CCF8D948B0F85610D74841
:104D10000A30FFF7C5F8D648B0F85810D3480C3021
:104D2000FFF7BEF8D248B0F85A10D0480E30FFF75F
:104D3000B7F8CF4890F85C10CE481438FFF7B0F8B9
:104D4000CB4890F85D10CB48801EFFF7A9F8C84803
:104D500090F85E10C748001FFFF7A2F80021C54871
:104D60001438FFF79DF840F2E271C2481238FFF79D
:104D700097F80821BF48103800E051E0FFF790F89D
:104D80001521BC480E38FFF78BF80E21B9480C38B6
:104D9000FFF786F80021B7480A38FFF781F80121AC
:104DA000B2481030FFF77CF80121B048FFF778F8DF
:104DB0000021B048801EFFF773F85421AB48423001
:104DC000FFF76EF80021A9484430FFF769F8002189
:104DD000A6484630FFF764F80021A4484830FFF7A2
:104DE0005FF80021A1484A30FFF75AF80021A14896
:104DF000801CFFF755F833219E481C38FFF750F808
:104E000001219C481838FFF74BF8012199481638C2
:104E1000FFF746F8022269469748FDF7DFFE00BF1C
:104E200094481C38FDF79CFE332843D03321914829
:104E30001C38FFF735F801218E481838FFF730F895
:104E400001218C481638FFF72BF801218948FFF71C
:104E500027F800218748001FFFF722F8FDF738FCEC
:104E6000FDF748FE02218348801EFFF719F88348AA
:104E7000018880481238FFF713F8804841887D4840
:104E80001038FFF70DF87D4881887A480E38FFF713
:104E900007F87A48C18877480C38FFF701F8774857
:104EA000018974480A38FEF7FBFF00217148143865
:104EB000FEF7F6FF6F48FDF753FE6D4908706B482B
:104EC000801CFDF74DFE6A49A1F84E006748001DA1
:104ED000FDF746FE6649A1F850006448801DFDF7C5
:104EE0003FFE6349A1F8520060480830FDF738FEE4
:104EF0005F49A1F854005D480A30FDF731FE5C4976
:104F0000A1F8560059480C30FDF72AFE5849A1F87F
:104F1000580056480E30FDF723FE5549A1F85A00B7
:104F200052484230FDF71CFE514981F866004F4857
:104F30004430FDF715FE4E4981F867004B48463076
:104F4000FDF70EFE4A4981F8680048484830FDF7F1
:104F500007FE474981F8690044484A30FDF700FEE2
:104F60004349A1F86A00FCF745FB4248001FFDF7E2
:104F7000F7FD3F4981F85E003E48801EFDF7F0FDD9
:104F80003B4981F85D003B481438FDF7E9FD38499D
:104F900081F85C0037481238FDF7E2FD3449A1F88A
:104FA000600034481038FDF7DBFD314981F86200BC
:104FB00030480E38FDF7D4FD2D4981F863002D48A7
:104FC0000C38FDF7CDFD2A4981F8640029480A38DC
:104FD000FDF7C6FD264981F865002648801CFDF7CF
:104FE000BFFD234981F86E004FF49770A1F86C0063
:104FF000084690F86600542803D1002081F86F001D
:1050000003E001201A4981F86F001949B1F84E10E8
:105010008800FBF7BBFA07460022194BFBF747FA5B
:105020000546FBF741FB044621460020FEF774FCD1
:105030000F49B1F85000FBF7BAFA07460022114BAE
:10504000FBF735FA0546FBF72FFB04462146032004
:10505000FEF762FC0649B1F85200FBF7A8FA0746D2
:105060000022084BFBF723FA05460DE000800108FB
:10507000D80300201C90010800100208B40F002083
:1050800000408F4000002440FBF70EFB0446214601
:105090000220FEF741FC00210120FEF73DFC0E48F6
:1050A0000078012803D100200C49086002E00120AB
:1050B0000A490860C9200849A1F870000848FDF7AE
:1050C0004FFD084908800648801CFDF749FD054949
:1050D0004880BDE8F8830000D8030020B481214255
:1050E000049001080201002010B501211648FEF7C6
:1050F000D7FE1548FDF734FD144981F85C001448CB
:10510000006820F00800124908600846006820F096
:105110001000086000210A20FEF7E0F800200D4989
:1051200008600A4988708878FEF762F800200A490A
:10513000C1F8B401012211460848FEF70CFB00201B
:105140000749086010BD000008900108D80300203E
:1051500000040140AC01214200802142000C0040CB
:10516000A80122424FF4A060FCF7C2FFFFF7A2FBA8
:10517000FFF7E6FC00F08EFA00F06CFAFFF776FD20
:1051800000BFFDF7A7FB0028FBD1FEF7A1FE4FF4FF
:105190007A70FFF7B1FBFCF793FE00F05FF9FFF7C1
:1051A000F7FB00F013F80748FDF7DAFC012804D1FB
:1051B000012211460448FEF7CEFA02E00A20FFF76A
:1051C0009BFBFBE708900108000C00401CB5FDF7B5
:1051D0007FFA59490860FDF78DFC5848FDF7C0FC7F
:1051E0005749088055480E38FDF7BAFC55490880E4
:1051F00052480C38FDF7B4FC534908804F480A3830
:10520000FDF7AEFC514908804C480838FDF7A8FC72
:105210004F4908804948801FFDF7A2FC4D4908808E
:1052200000204D49088046480088062854D044484C
:105230000088072850D042480088062818DA084617
:10524000007844490978CDE90010414803783F4887
:1052500002783D4801783B480088FFF71BFC3F4936
:10526000374A128851F8221008443D4908601EE070
:105270003948007837490978CDE900103448037877
:1052800032480278304801782E480088FFF702FC47
:105290002B490988C91F01EB4101C900C1EB01116C
:1052A0008900C1EB011100EB81002D490860224803
:1052B00000682B490968884202D3FFF715FF10E008
:1052C000274800681C490968401A2649B0FBF1F0DC
:1052D0002549A1F8700004E04FF47A702249A1F842
:1052E000700000202149087020E020480078FDF778
:1052F00013FC022804D11E480078401C1C49087089
:105300001B48007804280CD11120FDF7EFFC16484B
:1053100090F86600542804D0FFF7E6FE11201549E6
:10532000087012480078401C104908700F48007837
:105330000428DADB1CBD00001001002018900108D1
:10534000180100201A0100201C0100201E0100206D
:10535000200100202201002024010020DC58000848
:105360001401002080510100D80300200E0100200C
:105370000F010020280100202DE9F14F86B04FF0E9
:10538000000946244FF0000B0698FBF74AF9054642
:105390004FF033322C4BFBF76FF90CD20698FBF72A
:1053A00040F905464FF06632284BFBF74DF902D81D
:1053B0002748008E1FE00698FBF733F907464FF0A9
:1053C0006632224BFAF7FEFFCDE90001214906982B
:1053D000FAF722FF80462049FAF718FF0746FBF745
:1053E00020F90546DDE90023FBF761F8CDE902016C
:1053F000FBF7FEF880B204904FF0000A1DE009EBC5
:10540000040000EBD071C1F3470B114830F81B10BA
:105410000498814206DA09EB040000EBD071C1F375
:10542000470406E009EB040000EBD071C1F3470923
:1054300000BF0AF1010000F0FF0ABAF1070FDEDB3E
:10544000204607B0BDE8F08F3333074066660A4058
:105450001C58000800D01D460000A54300B589B0C7
:10546000012140F60400FDF741F801210F20FDF76E
:105470002DF840F2E730ADF81C0041F61F40ADF8C2
:1054800018000020ADF81E00ADF81A0006A96C48FF
:10549000FEF7B6F901216A48FEF731F90022012131
:1054A0006748FEF758F932208DF8040000208DF887
:1054B000050003208DF8060001208DF8070001A8E3
:1054C000FCF7DEFD0920ADF81C0041F61F40ADF8E9
:1054D00018000020ADF81E00ADF81A0006A94FF024
:1054E0008040FEF78DF901218807FEF708F90122B7
:1054F00011469007FEF72FF91C208DF804000220BA
:105500008DF805008DF8060001208DF8070001A830
:10551000FCF7B6FD42F20F70ADF81C0041F61F40DB
:10552000ADF818000020ADF81E00ADF81A0006A96D
:105530004448FEF765F901214248FEF7E0F80122F0
:1055400011464048FEF707F91E208DF8040002209E
:105550008DF8050003208DF8060001208DF8070066
:1055600001A8FCF78DFD41F28730ADF81C0041F633
:105570001F40ADF818000020ADF81E00ADF81A006D
:1055800006A93148FEF73CF901212F48FEF7B7F88C
:10559000002201212C48FEF7DEF81D208DF80400C2
:1055A00002208DF8050003208DF8060001208DF8FB
:1055B000070001A8FCF764FD4FF40060ADF800009F
:1055C00018208DF8030003208DF8020069461F485B
:1055D000FCF798F941F61F40ADF81C000020ADF82B
:1055E0001800ADF81E00ADF81A0006A91848FEF71D
:1055F00007F97020ADF808000120ADF80A0000207E
:10560000ADF80E000220ADF8100002A91048FEF718
:10561000ABF801210E48FEF77EF808210C48FEF792
:10562000E1F801210A48FEF75BF801210848FEF77E
:1056300066F800210A20FDF751FE09B000BD000008
:10564000000C004000080040000400400008014039
:10565000002C014008B501211820FCF747FF4FF44A
:105660004040ADF8000010208DF8030003208DF8B5
:10567000020069460548FCF745F94020ADF80000F6
:1056800069460348FCF73EF908BD0000000C0140E4
:105690000010014000B591B0012144F20400FCF774
:1056A00025FF01210846FCF701FF4FF40070ADF81B
:1056B000400003208DF8420018208DF8430010A907
:1056C0005148FCF71FF94FF48060ADF8400004200A
:1056D0008DF8430010A94C48FCF714F925208DF8EB
:1056E0002C0001208DF82D0000208DF82E000120C7
:1056F0008DF82F000BA8FCF7C3FC00214348FBF7F3
:10570000AFFC4248FBF7B8FC41480090414801908B
:10571000102002903C2003900020049080200590EF
:1057200000200690079008904FF440500990002008
:105730000A9069463548FBF768FD4FF48050FBF747
:1057400073FC00213148FBF78BFC012202212F481A
:10575000FBF752FD00212D481430FBF781FC2B484C
:105760001430FBF789FC2A4800902B480190002058
:1057700002903C200390002004908020059000209F
:105780000690079008904FF44050099000200A902E
:1057900069461E481430FBF738FD4FF48030FBF7A4
:1057A00043FC012119481430FBF75AFC4FF4E13057
:1057B0000C900020ADF83C00ADF83400ADF8380096
:1057C000ADF836000C20ADF83A000CA91048001FC7
:1057D000FEF7BAFA012240F224410D48001FFEF7FD
:1057E0008DFA01210A48001FFEF73CFA01224021F0
:1057F0000748001FFEF742FA012280210448001FDB
:10580000FEF73CFA11B000BD000801404400024020
:105810000438014002000020B40E0020947F40793B
:105820003C739C6D38683863745EEC59A055905198
:10583000BC4D1A4A72476C434C405E3D983AF03773
:1058400070350E33CA30A42E9C2CA82AD2281027DB
:105850006625CE234A2220217A1F2C1EEC1CBA1B5F
:10586000981A84197C187F179016AA15CE14FE1367
:1058700036137612C01110116A10CA0F300F9E0E27
:10588000120E8C0D0C0D900C1A0CAA0B3E0BD60AA6
:10589000720A140AB80960090C09BA086E082208CD
:1058A000DC07960754071507D7060000FFFFFFFF28
:1058B000FFFFFFFFFFFF0000E1070C001A000A00D6
:1058C0001400280000030306010406020500030576
:1058D0001F1C1F1E1F1E1F1F1E1F1E1F008D2700A7
:1058E000001A4F0000A7760000349E0000C1C500DA
:1058F000004EED0000C1814001C0804101C08041E7
:1059000000C1814001C0804100C1814000C181408F
:1059100001C0804101C0804100C1814000C181407F
:1059200001C0804100C1814001C0804101C080416F
:1059300000C1814001C0804100C1814000C181405F
:1059400001C0804100C1814001C0804101C080414F
:1059500000C1814000C1814001C0804101C080413F
:1059600000C1814001C0804100C1814000C181402F
:1059700001C0804101C0804100C1814000C181401F
:1059800001C0804100C1814001C0804101C080410F
:1059900000C1814000C1814001C0804101C08041FF
:1059A00000C1814001C0804100C1814000C18140EF
:1059B00001C0804100C1814001C0804101C08041DF
:1059C00000C1814001C0804100C1814000C18140CF
:1059D00001C0804101C0804100C1814000C18140BF
:1059E00001C0804100C1814001C0804101C08041AF
:1059F00000C1814000C0C101C30302C2C60607C77F
:105A000005C5C404CC0C0DCD0FCFCE0E0ACACB0BEE
:105A1000C90908C8D81819D91BDBDA1A1EDEDF1F1E
:105A2000DD1D1CDC14D4D515D71716D6D21213D30E
:105A300011D1D010F03031F133F3F23236F6F737BE
:105A4000F53534F43CFCFD3DFF3F3EFEFA3A3BFBAE
:105A500039F9F83828E8E929EB2B2AEAEE2E2FEF5E
:105A60002DEDEC2CE42425E527E7E62622E2E323CE
:105A7000E12120E0A06061A163A3A26266A6A767FE
:105A8000A56564A46CACAD6DAF6F6EAEAA6A6BAB6E
:105A900069A9A86878B8B979BB7B7ABABE7E7FBF9E
:105AA0007DBDBC7CB47475B577B7B67672B2B3738E
:105AB000B17170B05090915193535292965657973E
:105AC000559594549C5C5D9D5F9F9E5E5A9A9B5B2E
:105AD00099595898884849894B8B8A4A4E8E8F4FDE
